:020000040800F2
:1000000000060020B50500089D1A0008191A00080E
:10001000711A0008191A0008451A0008B7050008E7
:10002000B7050008B7050008B7050008FD4B000834
:10003000B7050008B7050008B7050008B7050008B0
:10004000B7050008B7050008B7050008B7050008A0
:10005000B7050008B705000879620008A562000826
:10006000D1620008FD62000829630008B705000896
:10007000B7050008B7050008B7050008B705000870
:10008000B7050008B7050008B7050008B705000860
:10009000B7050008B7050008B70500085563000854
:1000A000B7050008B7050008B7050008B705000840
:1000B000B7050008B7050008B7050008B705000830
:1000C000B7050008B7050008B7050008B705000820
:1000D000B7050008B705000841640008B705000827
:1000E000B9630008B7050008B7050008B7050008A0
:1000F000B7050008B7050008B7050008B7050008F0
:10010000B7050008B705000855640008B7050008E2
:10011000B7050008B7050008B7050008B7050008CF
:10012000B7050008B7050008B7050008B7050008BF
:10013000B7050008B7050008B7050008B7050008AF
:10014000B7050008B7050008B7050008B70500089F
:10015000B7050008B7050008B7050008B70500088F
:10016000B7050008B7050008B7050008B70500087F
:10017000B70500081D590008B7050008B7050008B5
:10018000B7050008B7050008B7050008B70500085F
:10019000B7050008B7050008B7050008B70500084F
:1001A000B7050008B7050008B7050008B70500083F
:1001B0002D640008B7050008B7050008B70500085A
:1001C000B7050008B7050008B7050008B70500081F
:1001D000B705000809590008B7050008B705000869
:1001E000B7050008B7050008B7050008B7050008FF
:1001F000B7050008B7050008B7050008B7050008EF
:10020000B7050008B7050008B7050008B7050008DE
:10021000B7050008B7050008B7050008B7050008CE
:10022000B7050008B70500088D4D0008B7050008A0
:10023000B7050008B7050008B7050008B7050008AE
:10024000B7050008B7050008B7050008B70500089E
:10025000B7050008B7050008B7050008B70500088E
:10026000B7050008B7050008B7050008B70500087E
:10027000B7050008B7050008B7050008B70500086E
:10028000B7050008B7050008B7050008B70500085E
:10029000B7050008B7050008B7050008B70500084E
:1002A000B5070008F1190008092500080000000042
:1002B00053B94AB9002908BF00281CBF4FF0FF31CD
:1002C0004FF0FF3000F074B9ADF1080C6DE904CEC9
:1002D00000F006F8DDF804E0DDE9022304B0704721
:1002E0002DE9F047089D04468E46002B4DD18A42E9
:1002F000944669D9B2FA82F252B101FA02F3C2F11C
:10030000200120FA01F10CFA02FC41EA030E9440AC
:100310004FEA1C48210CBEFBF8F61FFA8CF708FBCD
:1003200016E341EA034306FB07F199420AD91CEBA5
:10033000030306F1FF3080F01F81994240F21C81D7
:10034000023E63445B1AA4B2B3FBF8F008FB10331F
:1003500044EA034400FB07F7A7420AD91CEB040454
:1003600000F1FF3380F00A81A74240F20781644424
:10037000023840EA0640E41B00261DB1D4400023A9
:10038000C5E900433146BDE8F0878B4209D9002D0D
:1003900000F0EF800026C5E9000130463146BDE897
:1003A000F087B3FA83F6002E4AD18B4202D3824201
:1003B00000F2F980841A61EB030301209E46002DB0
:1003C000E0D0C5E9004EDDE702B9FFDEB2FA82F205
:1003D000002A40F09280A1EB0C014FEA1C471FFA63
:1003E0008CFE0126200CB1FBF7F307FB131140EA4A
:1003F00001410EFB03F0884208D91CEB010103F117
:10040000FF3802D2884200F2CB804346091AA4B2D8
:10041000B1FBF7F007FB101144EA01440EFB00FEAC
:10042000A64508D91CEB040400F1FF3102D2A64511
:1004300000F2BB800846A4EB0E0440EA03409CE7B0
:10044000C6F12007B34022FA07FC4CEA030C20FA5D
:1004500007F401FA06F31C43F9404FEA1C4900FA7D
:1004600006F3B1FBF9F8200C1FFA8CFE09FB1811FA
:1004700040EA014108FB0EF0884202FA06F20BD96D
:100480001CEB010108F1FF3A80F08880884240F2BD
:100490008580A8F102086144091AA4B2B1FBF9F001
:1004A00009FB101144EA014100FB0EFE8E4508D9FC
:1004B0001CEB010100F1FF346CD28E456AD9023881
:1004C000614440EA0840A0FB0294A1EB0E01A14266
:1004D000C846A64656D353D05DB1B3EB080261EBD4
:1004E0000E0101FA07F722FA06F3F1401F43C5E9AE
:1004F000007100263146BDE8F087C2F12003D840E4
:100500000CFA02FC21FA03F3914001434FEA1C4725
:100510001FFA8CFEB3FBF7F007FB10360B0C43EA17
:10052000064300FB0EF69E4204FA02F408D91CEBC7
:10053000030300F1FF382FD29E422DD902386344C5
:100540009B1B89B2B3FBF7F607FB163341EA034165
:1005500006FB0EF38B4208D91CEB010106F1FF38B4
:1005600016D28B4214D9023E6144C91A46EA0046AB
:1005700038E72E46284605E70646E3E61846F8E63D
:100580004B45A9D2B9EB020864EB0C0E0138A3E786
:100590004646EAE7204694E74046D1E7D0467BE767
:1005A000023B614432E7304609E76444023842E7DF
:1005B000704700BF02E000F000F8FEE772B63A486C
:1005C00080F30888394880F3098839484EF6085185
:1005D000CEF20001086040F20000CCF200004EF6BE
:1005E0003471CEF200010860BFF34F8FBFF36F8FFD
:1005F00040F20000C0F2F0004EF68851CEF2000149
:100600000860BFF34F8FBFF36F8F4FF00000E1EE34
:10061000100A4EF63C71CEF200010860062080F30D
:100620001488BFF36F8F04F0A7FB04F049FB05F0BB
:10063000E5FB4FF055301F491B4A91423CBF41F842
:10064000040BFAE71C49194A91423CBF41F8040BDC
:10065000FAE71A491A4A1B4B9A423EBF51F8040B5B
:1006600042F8040BF8E700201749184A91423CBFB2
:1006700041F8040BFAE704F061FB05F035FC144C7B
:10068000144DAC4203DA54F8041B8847F9E700F034
:100690004FF8114C114DAC4203DA54F8041B884753
:1006A000F9E704F049BB000000060020002200200A
:1006B000000000080000002000060020886C0008F0
:1006C00000220020C0220020C0220020F04900208B
:1006D000A0020008AC020008AC020008AC0200084E
:1006E0002DE9F04F2DED108AC1F80CD0D0F80CD0C8
:1006F000BDEC108ABDE8F08F002383F311882846F3
:10070000A047002003F090FCFEE703F0BFFB00DFF2
:10071000FEE70000054B10B504460360806810B189
:1007200003685B689847204610BD00BF4C6800080E
:1007300038B504F0C5F930B11B4B00220E211A72F6
:100740005A729972DA7204F07DF9054604F04CFA97
:100750000446F0B9154B9D421DD001339D4241F234
:10076000883512BF044600250124002004F074F9E6
:100770000CB100F0A1F80E4C00F036FF00F09AFD2D
:10078000204601F0F9FC40B944F6206003F052FC29
:10079000F6E70025E9E70546E7E7284600F048F9CF
:1007A00000F08AF8F9E700BF00220020010007B03E
:1007B000C02200200448054B054A03600023054978
:1007C000836005F0A1BE00BFC02200204C68000875
:1007D000EC2400201507000808B500F037FDA0F153
:1007E00020035842584108BD07B5042101900DEB84
:1007F000010000F049FD03B05DF804FB07B541F2CC
:100800001203022101A8ADF8043000F03DFD03B051
:100810005DF804FB38B5202383F311881748C368BB
:100820000BB103F09FFC0023154A4FF47A71134873
:1008300003F05CFC002383F31188124C236813B18E
:100840002368013B2360636813B16368013B636005
:100850000D4D2B7833B963687BB9022000F004FE9C
:10086000322363602B78032B07D163682BB90220F6
:1008700000F0FAFD4FF47A73636038BD5023002016
:10088000150800086C24002064230020084B187011
:1008900003280CD8DFE800F008050208022000F069
:1008A000DBBD022000F0CEBD024B00225A60704733
:1008B000642300206C240020F7B5564801A901F0FC
:1008C000D3FD002800F0A380534B544A1C461968FE
:1008D000013100F0998004339342F8D16268504BA3
:1008E0009A4240F291804F4B9B6803F1006303F5FD
:1008F00000339A4280F08880002000F001FD022041
:10090000FFF7C4FF484B0021D3F8E820C3F8E810F4
:10091000D3F81021C3F81011D3F81021D3F8EC202C
:10092000C3F8EC10D3F81421C3F81411D3F8142130
:10093000D3F8F020C3F8F010D3F81821C3F8181139
:10094000D3F81821D3F8802042F00062C3F8802049
:10095000D3F8802022F00062C3F88020D3F88020F2
:10096000D3F8802042F00072C3F88020D3F88020B2
:1009700022F00072C3F88020D3F8803072B64FF0B6
:10098000E023C3F8084DD4E90004BFF34F8FBFF351
:100990006F8F264AC2F88410BFF34F8F536923F438
:1009A00080335361BFF34F8FD2F8803043F6E07647
:1009B000C3F3C905C3F34E335B0103EA060C2946B2
:1009C0004CEA81770139C2F87472F9D2203B13F1F5
:1009D000200FF2D1BFF34F8FBFF36F8FBFF34F8F55
:1009E000BFF36F8F536923F4003353610023C2F8C0
:1009F0005032BFF34F8FBFF36F8F202383F31188E3
:100A0000854680F308882047024801F08DF803B03E
:100A1000F0BD00BFC0220020000002082000020834
:100A2000FFFF0108002200200044025800ED00E012
:100A30002DE9F04FB04B9DB02022FF21079014A864
:100A40009E68DB68069300F079FDAC4A1378A3B981
:100A50000121AB481170C360202383F31188C36860
:100A60000BB103F07FFB0023A64A4FF47A71A44830
:100A700003F03CFB002383F31188079B13B1A24BC7
:100A8000079A1A60A14A1378032B03D0002313702E
:100A90009D4A53600023079D1F469B46CDE90433C2
:100AA000012000F0D9FC25B1974B1B68002B00F00A
:100AB0005783002000F0CAFB0C900C9B002BF2DB4C
:100AC000012000F0BFFC0C9B213B1F2BE8D801A2AA
:100AD00052F823F0550B00087D0B0008130C00089A
:100AE000A10A0008A10A0008A10A0008C10E000816
:100AF000DB1000087D0F0008591000087F10000867
:100B0000A5100008A10A0008B7100008A10A0008F3
:100B100023110008F50B0008A10A0008671100085E
:100B2000A70C0008DF0D0008A10A0008D10F00087B
:100B3000A10A0008A10A0008A10A0008A10A0008E9
:100B4000A10A0008A10A0008A10A0008A10A0008D9
:100B5000130C00080220FFF73FFE002840F02B8313
:100B6000079B0221059A0FA8002A08BF1D4641F2E3
:100B70001233ADF83C3000F087FB91E74FF47A7008
:100B800000F064FB041EEBDB0220FFF725FE0028CB
:100B9000E6D0013C052C00F21083DFE804F0030AE4
:100BA0000D101337052304210FA80F9300F06CFBE1
:100BB00017E004215048F9E704215548F6E70421DD
:100BC0005448F3E74FF01C08404608F1040800F0D1
:100BD00099FB04210F900FA800F056FBB8F12C0FE1
:100BE000F2D10120049B4FF0000B00FA04F41C43E7
:100BF000E3B2049300F0EEFC2FB1049B03F00B036F
:100C00000B2B08BF0025FFF7F9FD49E704214248F7
:100C1000CCE7002FA4D0049B03F00B030B2B9FD138
:100C20000220FFF7D9FD0446002899D001200027B3
:100C300000F066FB0220FFF729FE5FFA87F84046C6
:100C400000F06EFB0546B0B10C9940460137A1F1AA
:100C500040025142514100F073FB0028EDD105469E
:100C6000059441F2121302210FA82746ADF83C303B
:100C700000F00AFB14E72E460120FFF707FE1E4B8B
:100C80009B68B34207D9304600F03CFB013040F08E
:100C900097820436F3E700261C4B274605941E7006
:100CA000194B5E60A6E7002F3FF45AAF049B03F098
:100CB0000B030B2B7FF454AF64210DA800F0DAFA7C
:100CC000804600287FF44CAF0220FFF785FD0446E4
:100CD00000283FF445AFDFF848908DF82F80D9F811
:100CE0002420D9F8203053430D9A93421AD20B484E
:100CF00000F0C4FB34E700BF00220020682400207D
:100D000050230020150800086C24002064230020D4
:100D100004220020082200200C2200204C6600083B
:100D2000C0220020BE484746C24600F0A7FBFFF79E
:100D300065FD01210DF12F0000F0A6FA0D9B534532
:100D400041D900230EAA39464846CDE90E330FABF0
:100D500000F0EEFE002884D000F0A8FE0E9B00EB11
:100D6000030801210DF12F0000F08EFA00F09EFE25
:100D7000404520D9484601F011F980B964210D9B06
:100D8000A848013701FB0AF1B1FBF3F18DF82F10F0
:100D9000C9B200F073FBD9F820309A44CEE700F0D6
:100DA00085FE0F9B184440453FF65BAF00F07EFE8A
:100DB0000E9B00EB03080E9B4FF47A70A3FB00031D
:100DC00003F038F9CDE7642301210DF12F00274608
:100DD0008DF82F3000F058FA002306930AE7002F11
:100DE0003FF4BEAE049B03F00B030B2B7FF4B8AEB5
:100DF0000220FFF74BFD322000F028FA041EFFF618
:100E0000AFAE069BA046E3180893874B089ADB68B1
:100E10009A423FF6A5AEB4F5807F3FF7A1AEDFF86A
:100E20000CA24FF000094C450EDD4FF47A7000F033
:100E30000DFA0C900C9B002BFFF692AE0C9B09F167
:100E400001090AF8013BEEE7C820FFF7C5FC04469C
:100E500000283FF485AE0027DFF8D491CDE90E7766
:100E6000B8F1000F02D12746089BB6E70FAB6F4AD7
:100E70000699484602930EAB3A44394401930DABB0
:100E80000093434601F05CFA00283FF4EAAE00F01C
:100E90000FFE0D9B8A4609901F44A8EB030800F043
:100EA00007FE099A0E9B9B184AF10002834272EBDF
:100EB0000103F4D2484601F071F80028EFD1CFE7E2
:100EC000002F3FF44DAE049B03F00B030B2B7FF47C
:100ED00047AE0220FFF7DAFC322000F0B7F9B0F19C
:100EE0000008FFF63DAE18F003047FF439AE4E4A19
:100EF00008EB0603926893423FF632AEB8F5807F66
:100F00003FF72EAEDFF82491A0450DDD4FF47A7047
:100F100000F09CF90C900C9B002BFFF621AE0C9B73
:100F2000013409F8013BEFE7C820FFF755FC044600
:100F300000283FF415AE1F2E11D8C6F1200214ABC5
:100F400026F0030039494245184428BF424608921A
:100F500000F0C2FA089AFF21344800F0EFFAC8F313
:100F60008702324930464FEAA80900F0EFFA0746F7
:100F700000283FF476AE06EB89063BE60220FFF739
:100F80002BFC00283FF4ECAD00F0F8F900283FF40A
:100F9000E7AD0024A046244B9B68A34258D91F2CE0
:100FA00011D8149B01330ED024F003031CAA134460
:100FB00053F8203C0F93404604220FA9043401F05B
:100FC000C9FA8046E7E7204600F09CF90F90F2E767
:100FD00064210EA800F04EF9044600287FF4C0AD4D
:100FE0000220FFF7F9FB00283FF4BAAD0E9BA046A4
:100FF000DFF83CA003F003090E99A1EB0901A1421F
:1010000018D9214604230FAA504601F0E5F94046BD
:1010100004220FA901F09EFA04348046ECE700BFD9
:1010200071660008896600080022002068230020FD
:10103000C0220020B9F1000F0AD04B460FAA624827
:1010400001F0CAF940464A460FA901F083FA8046EA
:101050004046FFF7C9FBCDE5002364210FA80F939D
:1010600000F008F900287FF47BAD0220FFF7B4FB05
:1010700000283FF475AD0F9800F076F9E9E70023FA
:1010800064210FA80F9300F0F5F800287FF468ADF5
:101090000220FFF7A1FB00283FF462AD0F9800F09B
:1010A00065F9D6E70220FFF797FB00283FF458AD1B
:1010B00000F074F9CDE70220FFF78EFB00283FF423
:1010C0004FAD0FA9142000F06FF90890FFF78CFBCB
:1010D00008990FA800F0D8F88CE5322000F0B6F897
:1010E000041EFFF63DADA3077FF43AAD374A04EB8B
:1010F0000B03926893423FF633AD0220FFF76CFB7F
:1011000000283FF42DAD24F003045C44A3453FF4D4
:1011100071AD58460BF1040B00F0F4F8FFF764FBD7
:10112000F4E74FF47A70FFF757FB00283FF418AD4F
:1011300000F024F9002845D0149B01330BD008227D
:1011400014A9002000F002FA00283BD02022FF2141
:1011500014A800F0F3F9FFF751FB1D4802F06AFFF5
:101160001DB0BDE8F08F002F3FF4FAAC049B03F0F4
:101170000B030B2B7FF4F4AC002364210FA80F9317
:1011800000F078F8044600287FF4EAAC0220FFF76C
:1011900023FB804600283FF4E3ACFFF72FFB41F22E
:1011A000883002F047FF0F9800F058FA474625466E
:1011B00000F010FA74E407461CE54FF0000BCFE492
:1011C00005944EE53C464CE5C0220020002200205C
:1011D000A0860100F7B50C46184E4FF47A7105460B
:1011E00002FB01F396F90020501C0BD1144829464C
:1011F00001930268176A2246B8478442019B03D1D3
:10120000002310E0002AF1D096F90020511C01D0F3
:10121000012A0DD10B4829460268166A2246B047BA
:10122000844205D10123084A0120137003B0F0BDA8
:101230004FF4FA7002F0FEFE0020F7E710220020C3
:10124000582B002018250020B8240020002307B5C3
:10125000024601210DF107008DF80730FFF7BAFFB4
:1012600020B19DF8070003B05DF804FB4FF0FF309C
:10127000F9E700000A46042108B5FFF7ABFF80F04C
:101280000100C0B2404208BD074B0A4630B419788D
:10129000064B53F82140014623682046DD69044B84
:1012A000AC4630BC604700BFB8240020B4660008DC
:1012B000A086010070B5104C0025104E03F07EF999
:1012C00020803068238883420CD80025208801388C
:1012D00003F070F923880544013BB5F5802F238086
:1012E000F4D370BD03F066F9336805440133B5F5F6
:1012F000003F3360E5D3E8E7BA24002074240020DF
:1013000003F03ABA00F1006000F500300068704761
:1013100000F10060920000F5003003F0B1B9000068
:10132000054B1A68054B1B889B1A834202D910444F
:1013300003F040B90020704774240020BA24002034
:1013400038B50446074D29B128682044BDE8384027
:1013500003F048B92868204403F032F90028F3D09C
:1013600038BD00BF742400200020704700F1FF50FA
:1013700000F58F10D0F8000870470000064991F87A
:10138000243033B100230822086A81F82430FFF7A3
:10139000BFBF0120704700BF78240020014B1868B0
:1013A000704700BF0010005C244BF0B51A6804467B
:1013B000234BC2F30B06120C1F885868BE4293F9E8
:1013C000085028D09F89BE4206D101200C2505FB7C
:1013D0000033586893F9085041F201039A421CD037
:1013E00041F203039A421AD042F201039A4218D002
:1013F00042F203039A4208BF5625621E0B46441E62
:101400000A4493420FD214F9016F581C6EB103467F
:1014100000F8016CF5E70020D8E75A25EDE75925DB
:10142000EBE75825E9E7184605E02C2482421C70BA
:1014300001D9981C5D70401AF0BD00BF0010005C1F
:1014400014220020022803D1024B4FF400129A61AB
:10145000704700BF00180258022802D1014B202219
:101460009A61704700180258022804D1024A536951
:1014700083F0200353617047001802580FB4124BD9
:1014800030B51A78B5B042B90122104910481A7027
:101490004FF461430B6001F087FE39AB0C4C389A76
:1014A000C82102A8019300F0B5FA2368C8280246B3
:1014B000DD6902A9074B28BFC8222046A84735B0DE
:1014C000BDE8304004B07047BC240020C024002098
:1014D00018250020A0860100002310B5934203D0F8
:1014E000CC5CC4540133F9E710BD0000013810B5DD
:1014F00010F9013F3BB191F900409C4203D11AB170
:101500000131013AF4E71AB191F90020981A10BD9F
:101510001046FCE70138013910F9013F11F9012F9C
:101520000BB19342F8D0981A704700000346024668
:10153000D01A12F9011B0029FAD170470244034660
:10154000934202D003F8011BFAE770472DE9F843F4
:101550001F4D14460746884695F8242052BBDFF8F5
:1015600070909CB395F824302BB92022FF21484677
:101570002F62FFF7E3FF95F824004146C0F108020F
:1015800005EB8000A24228BF2246D6B29200FFF7A8
:10159000A3FF95F82430A41B17441E449044E4B2E2
:1015A000F6B2082E85F82460DBD1FFF7E7FE0028AD
:1015B000D7D108E02B6A03EB82038342CFD0FFF739
:1015C000DDFE0028CBD10020BDE8F8830120FBE739
:1015D00078240020024B1A78024B1A70704700BF23
:1015E000B82400201022002038B5164C164D204695
:1015F00001F07CFE2946204601F0A4FE2D68134828
:10160000D5F89020D2F8043843F00203C2F8043829
:1016100002F010FD0E49284601F0A2FFD5F89020F7
:101620000C48D2F804380C49A04223F00203C2F857
:1016300004384FF4E1330B6003D0BDE8384001F0CB
:10164000B3BD38BD582B0020DC69000840420F00B4
:10165000E469000818250020A024002038B50B4BB1
:1016600004461A780A4B53F822500A4B9D420CD07C
:10167000094B002118221846FFF760FF046001465D
:101680002846BDE8384001F08FBD38BDB8240020A1
:10169000B4660008582B0020A024002038B5084B61
:1016A00004461546017543600A21243003F00AFA06
:1016B00004F128002A460A2103F004FA204638BD26
:1016C00094680008F8B51E461B6805460C46174688
:1016D0001BB9236863B9012408E0BDF8182031461E
:1016E000806A03F007FA0028F3D100242046F8BDF1
:1016F00021463A46686A03F033FA04460028EAD1E4
:101700003368002BF1D0A86A03F05EFAEEE7000020
:1017100038B50D46114604461A4611B1806A03F0E9
:1017200011FA2DB12946606ABDE8384003F044BA89
:1017300038BD00007047000070470000002070476F
:101740000020704713B56C4600F1140384E80600CE
:1017500094E8030083E8050002B010BD0020704744
:1017600013B56C4600F10C0384E8060094E803000E
:1017700083E8050002B010BD0023C0E903337047C1
:1017800082B002AB03E9060002B070477047000068
:10179000002070477047000000207047002070470D
:1017A0000120704782B0002002A901E90C0002B0BC
:1017B0007047000000207047002070470B6883636B
:1017C0004B6843638B68C363CB6803640B694364F2
:1017D0007047000038B5036B0446154D1B7955F86A
:1017E000330002F0B9F9D4E90B231B7955F8331013
:1017F00002F130034968994218D000231363E26A6A
:101800005363D4E90B12537C581E137C92681B045B
:1018100043EA002313438B63D4E90B131B79303164
:1018200055F83300BDE8384002F02AB938BD00BF92
:101830001C670008F8B51D4F05460E46114638686E
:10184000FFF768FE78BB74683B7924B394F82C20CA
:101850009A420BD02468F8E70122B521FFF71EFF5A
:10186000736823603B79746084F82C30482004F05E
:1018700055FE68B100220271C0E90322C0E90522C9
:10188000027A42F007020272094AC0E90B4702607D
:1018900028602846F8BD402004F040FE0446002899
:1018A000DAD12C60F5E700232B60F2E7D824002082
:1018B0002C670008044B10B504460360406A08B169
:1018C00004F02AFE204610BDD066000810B504467C
:1018D000FFF7F0FF204604F01DFE204610BD00007B
:1018E00008B519B1FFF776FF012008BD036B1A791F
:1018F000024B53F8320002F033F9F5E71C67000899
:101900002DE9FF41DDF828800546174603911FFAAF
:1019100088F60293FFF75EFF02ABBAB203A9E86A4A
:101920000096FFF7CFFE044638B900212846FFF79E
:10193000D7FF204604B0BDE8F081AFB92B6B05F1AD
:1019400034011A79134B53F83200B8F1000F19D152
:1019500002F0A4F880F00104E4B23346E86ADDE95D
:101960000221FFF7D5FEE0E7029B83B92B6B3A46D5
:10197000084805F134011C79039B50F8340002F04B
:10198000A3F8E7E7029B424602F0B4F8E2E700243E
:10199000E3E700BF1C67000813B504460191FFF799
:1019A00019FF019A236B04F134011879054B53F8A0
:1019B000300002F0B5F800212046FFF791FF01202A
:1019C00002B010BD1C67000810B50446FFF702FF07
:1019D000236B1A79054B53F8320002F0AFF800215F
:1019E0002046FFF77DFF012010BD00BF1C670008E7
:1019F000054B064A1A6000221A719A60044ADA609E
:101A000040F21F121A827047D8240020BC660008DA
:101A1000000E270700F096BF00B59BB0EFF30981D9
:101A200068226846FFF758FDEFF30583044B9A6B75
:101A3000DA6A9A6A9A6A9A6A9A6A9A6A9B6AFEE764
:101A400000ED00E000B59BB0EFF309816822684625
:101A5000FFF742FDEFF30583044B9A6B9A6A9A6A8B
:101A60009A6A9A6A9A6A9B6AFEE700BF00ED00E0F4
:101A700000B59BB0EFF3098168226846FFF72CFDA3
:101A8000EFF30583034B5A6B9A6A9A6A9A6A9A6AC9
:101A90009B6AFEE700ED00E0FEE70000FEE70000C5
:101AA0000FB408B5029802F055FAFEE702F06ABFDB
:101AB00002F042BF80697047C0697047006A704792
:101AC000406A7047806A7047F0B5ADF2044D0E462B
:101AD000054600214FF47F7201A80091FFF72EFD0B
:101AE0002C6A744301362B6A7343A34216D92B68C0
:101AF0006A46214628465F684FF48063B84770B154
:101B00006A464FF4806312F8011BFF290AD1013B9A
:101B10009BB2002BF7D104F58064E4E701200DF2BD
:101B2000044DF0BD0020FAE780680368DB691847C0
:101B300030B5456A85B004468D420FD30568CDE9BE
:101B40000023026A03ABAD6A5143A84720B1206A63
:101B5000039BC31A5842584105B030BD0020FBE733
:101B6000F0B5C56987B004468D4212D30C9F8669D3
:101B700005687143CDE9013705AB00936D69036AD0
:101B8000A84720B1A069059BC31A5842584107B025
:101B9000F0BD0020FBE70000F0B5662389B000240B
:101BA00005464FF480768068079403A9CDE9033693
:101BB000CDE9054403685B699847A8682246214639
:101BC000036800941F692346B847A86899230794BF
:101BD00003A9CDE90336CDE9054403685B6998475D
:101BE000A86822462146036800941D692346A84739
:101BF00009B0F0BD254B2DE9F04F1B789FB00025B3
:101C000004468DF828304FF09F0E80684FF0012376
:101C1000ADF8295005A90995CDE905E3CDE90755AA
:101C200003685B699847A06803222946036800920D
:101C30002A461E690AABB04728B394F88C20144B8F
:101C40009DF8281003EBC2031A7991421BD19DF82D
:101C500029205B799A4216D1A0684FF05A0C0D4B9F
:101C6000082605A90996CDE905C3CDE907550368FE
:101C70005B699847A0682A462946036800961F6951
:101C80000AABB84740B9002048E100BF34660008FD
:101C90002C680008002500010422B1490AA804F0BC
:101CA0006DFC05460028EED1BDF82C306FF482772C
:101CB000A3813B44012BE6D8079605A9CDE90A008C
:101CC000A06803685B699847A0682A4629460368AC
:101CD00000961E690AABB0470028D4D0DDE90A3669
:101CE0001A0202F4706242EA1662FF2ACBD11B0E7E
:101CF00026F07F4650222946142B26610AA828BFC9
:101D00001423A373FFF71AFCA068079605A90368BC
:101D10005B699847A068A37B294602689B000093F3
:101D20000AAB16692A46B0470028ACD00B990029A7
:101D3000A9DBC9086FF07E43149D4FF0010E994254
:101D400028BF1946C5F303130EFA03F221FA03F371
:101D500003916161A261E361002B94D02646A44601
:101D600000274FF002081EAAC7F3460302EB8303C5
:101D700053F834AC07F001031B01DA1D0EFA03F926
:101D800008FA02F2A2EB090202EA0A02DA401AD0C9
:101D900003F108090F330EFA02F2216A08FA03F37D
:101DA0000EFA09FBCCF830208A42A3EB0B0B0BEAAE
:101DB0000A0A2AFA09F98CF82C90A36A88BF2262D1
:101DC000934288BFA26201370CF1100C042FCAD1D4
:101DD000236A4FF0020C039A4FF0010E139F9A42B0
:101DE00024BFB2FBF3F1616207F00F0138BF01239A
:101DF0004FF0090201F1010138BF63624900336B02
:101E000033B3531C0EFA02F8A2F105090CFA03F3DE
:101E10000EFA09FAA3EB080302F1FF380CFA08F8EE
:101E20003B40A8EB0A08D34008EA070828FA09F85B
:101E300077D0012B77D0022B77D0032B08BF4FF43C
:101E40007A735FFA88F808FB033373634B43B36319
:101E500007321036252AD2D115F0C04FC5F3417391
:101E600065D0012B65D0022B0CBF4FF47A634FF481
:101E70007A43C5F3046202FB0333E3664B432367F3
:101E8000199B9E0758D0062384F8743015F4005F20
:101E900005F00F03C5F3042514BF402208220133C7
:101EA00005FB02255B00A5675D430A9B9F02E56772
:101EB0007FF5E9AE0C9B1A0A84F88020C3F3421226
:101EC00003F01F0384F8882084F88130189BC3F343
:101ED000025213F4401F84F883207FF4D4AEDE0650
:101EE00002D5042A7FF4CFAE03F40072002A14BF97
:101EF0000122002284F8872004D0DD0324D50023AA
:101F000084F88930179B1A0722D5002384F886307D
:101F1000702384F88530012384F88D301FB0BDE82C
:101F2000F08F01238DE710238BE7802389E71023AF
:101F30009FE74FF480739CE7590701D55023A3E72F
:101F400013F0780FA2D09EE69903DBD50123D7E7E3
:101F50005B07E0D5012384F886300523D9E700BF6D
:101F60008C67000830B58BB000240546806803926A
:101F70004FF00122059105A9CDE90624CDE90844D9
:101F8000026852699047A8680121039B026800918A
:101F9000214615692246A8470BB030BD13B504464B
:101FA0000DF1070290F88510FFF7DCFF94F88630FA
:101FB0009DF807001BB100F0010002B010BDC04346
:101FC000C0F3C010F9E7000030B54FF001238BB02B
:101FD0000024054680688DF80F20059105A9CDE9FC
:101FE0000634CDE9084403685B699847A868012274
:101FF0000DF10F01036800941D692346A8470BB03B
:1020000030BD0000F7B517460DF1070206461D4624
:10201000FFF7A8FF68B19DF8074039469DF82020DA
:10202000304624EA05042A4022438DF80720FFF7B2
:10203000CBFF03B0F0BD000030B54FF4807389B022
:10204000002405468068039103A9CDE90434CDE955
:10205000064403685B699847A868224621460368DE
:1020600000941D692346A84709B030BD10B5044649
:1020700023682046DB6A98470028F9D110BD00008C
:1020800010B590F8743004465BB1FFF7EFFF012301
:1020900094F87410204684F88E30BDE81040FFF7A5
:1020A000CBBF012010BD000010B590F8743004467D
:1020B00053B1FFF7DBFF01232046042184F88E3063
:1020C000BDE81040FFF7B8BF012010BD70B590F813
:1020D00083308AB00446042B48D10DF10E0205214D
:1020E000FFF740FF00282FD00DF10F0235212046C9
:1020F000FFF738FF40B320461E4EFFF7C1FF2046D2
:10210000FFF7B4FF05AD0FCE0FC5336805A99DF8E5
:102110000E202B609DF80F30A06843F002038DF86D
:1021200010208DF80F308DF8113003685B699847E7
:10213000A068002304A90268009315690222A84739
:1021400028B92046FFF7B0FF00200AB070BD204636
:10215000FFF7AAFF0DF10F0235212046FFF702FF1E
:102160000028F1D09DF80F309B07EDD5012020719C
:10217000EBE700BF386600082DE9F3410023044671
:102180008068A36010B103685B6898470025244EFF
:10219000244F56F8352001A839465FFA85F8FFF735
:1021A00049FB019BA0680022A360019210B1036863
:1021B0005B689847019810B103685B689847A3680B
:1021C000DBB141F2883084F88C8001F033FF204687
:1021D000FFF7E2FC1E2001F02DFF2046FFF70AFD6D
:1021E000054680B994F88C300F4856F83310FFF745
:1021F00045F9284602B0BDE8F0810135032DC8D16C
:102200000A48FFF74DFC2046FFF760FF94F88C303A
:10221000054656F8331008B90548E8E70548E6E7EB
:102220002C680008F0240020946700080A68000861
:10223000BE670008E86700082DE9F041044688B051
:102240000F461646FFF71CFF2046FFF70FFF00253D
:10225000C722A0684FF48073079503A9CDE9032333
:10226000CDE9055503685B699847A0682A46294669
:1022700003680095D3F810802B46C047054630B957
:102280002046FFF711FF284608B0BDE8F081E36E55
:102290003B60236F3360F3E72DE9F041002588B000
:1022A0001F4604460E460E9B00F1400CA8463D60BA
:1022B000016B81B1A9420ED391420CD8B6FBF1FE5D
:1022C00001FB1E6139B9416B90F82C800F9D19609C
:1022D000816B2960154610306045E9D16DB3AB19AB
:1022E0006269934229D82046FFF7CAFE2046FFF7CD
:1022F000BDFE4FF41453A06803A9CDF80C80CDE9BE
:1023000004360026CDE9066603685B699847A06835
:102310003246314603680096D3F810803346C047F2
:10232000064620462EB9FFF7BFFE304608B0BDE88E
:10233000F081FFF7B9FE3D60F7E70026F5E7000002
:102340002DE9F0418669054688B00F46B3429046B4
:10235000B1FBF6FC06FB1C1C28BF3346A6EB0C0C9D
:1023600000269C45644628BF1C46FFF789FE284688
:10237000FFF77CFE0222A86803A9164B0597CDE95A
:102380000323CDE9066603685B699847A86822467F
:102390004146036800961F693346B84706462846FB
:1023A0002EB9FFF781FE304608B0BDE8F081FFF797
:1023B0007BFE0E9B1C60AB6FAA696343B3FBF2F319
:1023C0000F9A1360EA6F109B5443AA69B4FBF2F4AE
:1023D0001C60E8E7002500012DE9F04FCE184369A5
:1023E00089B004469E420F46904634D83D464FF091
:1023F0000009DFF870A0FFF739FEAE422FD9A6EB37
:10240000050B94F8803094F8882003A9BBF5806F01
:10241000039394F8813028BF4FF4806B012AA068A1
:1024200008BF03F1FF33CDF810A0CDE9055907939C
:1024300003685B699847A068A8EB07030268CDF8BA
:1024400000B02B44D2F810B000221146D84718B182
:1024500005F58065D1E7002009B0BDE8F08F0120C7
:10246000FAE700BF00ED0003F0B5044689B00E4660
:10247000FFF7FCFD94F887502DB194F889302BB10B
:10248000012B1DD00025284609B0F0BD94F880200E
:102490000392A52206921A4ACDE9042394F88130CA
:1024A000A06803A9079303685B699847A068314651
:1024B00003689B6998470546642001F0BBFDE2E78D
:1024C00020460027FFF7DCFD2046FFF7CFFD08235D
:1024D0008122852120460097FFF794FD054618B913
:1024E0002046FFF7E1FDCEE794F88030069703938E
:1024F000044BCDE9043794F88130013BD0E700BFAD
:1025000000ED000300ED0013014B024A1A60704712
:10251000F024002080670008036800211B6818472A
:1025200003790BB1002202711846704703685B689B
:102530001847000003791BB901230371184670473F
:10254000002070477047000010B5044603F0E2FF1A
:10255000204610BD30B50A44084D91420DD011F807
:10256000013B5840082340F30004013B2C4013F08A
:10257000FF0384EA5000F6D1EFE730BD2083B8EDC9
:10258000F0B500F10B0423460D46B1FBF2F102FB5E
:10259000115707F13006392EC8BF07F137069542AB
:1025A00003F8016DF0D2421EE11A13F8015B9C4260
:1025B00002F8015FF9D10844F0BD00002DE9F04FA9
:1025C000804687B015464FF000090C4614F8013BD1
:1025D000002B3BD0252B08D0D8F8002019464046C8
:1025E00009F10109D268904749E14B782D2B06BFCC
:1025F0008C1C01230023019323782B2B06BF01346D
:102600000127002794F800A0BAF1300F0CBF013465
:102610004FF0200A23782A2B1CD16178023455F818
:1026200004BB2E2943D1217881B12A2921D0661CEF
:102630000020A1F130023446D2B2092A1DD80A2363
:1026400016F8011B03FB00200029F2D1484607B011
:10265000BDE8F08F4FF0000B14F8011B0029F5D0F6
:10266000A1F13002D2B2092ADBD80A2303FB0B2BDB
:10267000F2E76178023455F8040B01F0DF024C2ACE
:1026800017D121780029E1D0782904F101041FD85D
:10269000622900F2008158291AD84E2900F23081AF
:1026A000442900F09180492900F08E8010E000203C
:1026B000E3E7A1F141027829D2B209D862290BD807
:1026C000582905D84E293BD8442978D0492976D0B5
:1026D0002E468DF80C1056E0A1F16306152EF7D8A2
:1026E0000FF2040C5CF826F079270008BF270008D9
:1026F000D1260008D1260008D1260008D1260008DE
:10270000BF270008D1260008D1260008D1260008DE
:10271000D1260008D12600084F2800083D290008CE
:10272000D1260008D12600088F270008D1260008EE
:1027300039290008D1260008D12600083D290008C3
:10274000A1F14F02092AC3D801A050F822F000BF1E
:102750004F2800083D290008D1260008D12600088E
:10276000D1260008D126000839290008D126000802
:10277000D12600083D2900082E464FF0200A56F8C1
:10278000042B8DF80C2003AD0DF10D002BE02E462F
:1027900047F6FF726A4B56F8045B002808BF1046E4
:1027A000002D08BF1D462A462F18104612F8011B9F
:1027B00011B1B91A0029F8DA4FF0200A13E02E46B9
:1027C000192A56F8041B02D82E4656F8041B002975
:1027D00036DA2D2249428DF80C200DF10D000A2227
:1027E00003ADFFF7CDFE471B0199ABEB070323EACF
:1027F000E372002945D1002BC2F1000B1EDD2978C0
:102800002D2901D02B290DD1BAF1300F0AD1D8F8DA
:1028100000304046019209F10109DB68013F984709
:102820000135019AD8F80030514640460192DB68E4
:1028300098471BF1010B019AF4D191443B4615E0F6
:102840001FB12B228DF80C20C7E703A8C7E7082289
:102850002E4603A856F8041BC2E7D8F800204046CD
:1028600015F8011BD26801939047019B013BF4D5F9
:10287000002FA8BFB9445D462DB9D944354621463D
:10288000A3E69346DAE7D8F8003051464046013DCA
:10289000DB689847F0E7A1F16302152A3FF618AF0D
:1028A00001A353F822F000BF79270008C9270008C8
:1028B000D1260008D1260008D1260008D12600081C
:1028C000C9270008D1260008D1260008D126000813
:1028D000D1260008D12600084F2800083D2900080D
:1028E000D1260008D12600088F270008D12600082D
:1028F00039290008D1260008D12600083D29000802
:10290000A1F14F02092A3FF6E3AE01A353F822F0EA
:102910004F2800083D290008D1260008D1260008CC
:10292000D1260008D126000839290008D126000840
:10293000D12600083D2900080A2289E7102287E7EE
:10294000AC680008F0B5054687B016461F460C4631
:1029500089B14A1E0023294601A800F053F83A46DF
:10296000314601A8FFF72AFE049BA3423CBF002288
:10297000EA5407B0F0BD0A46ECE70000D0E90223B4
:102980009A421FBF4268D154C36801331ABFC36063
:1029900000206FF001007047D0E903239A421FBF67
:1029A0004268D25C0133036114BF10466FF001002E
:1029B0007047000038B504460846D4E903315B1A75
:1029C000934228BF13461D4663682A461944FEF702
:1029D00083FD236928462B44236138BD38B504465E
:1029E000D0E902301B1A934228BF13461D46636884
:1029F0002A461844FEF770FDE36828462B44E3603E
:102A000038BD000010B5C0E90223034C0023C0E923
:102A10000041036110BD00BFB468000838B5836988
:102A200004460D465B695A0118D543681B682BB1F3
:102A30000522027098472378052B01D102232370C9
:102A4000202383F31188002104F1080001F00CFB1E
:102A5000002383F31188E06902F05CFAEB0704D5E8
:102A60000248BDE8384001F075BA38BDC8680008B2
:102A700010B5044C204600F0FBFF034A0023C4E9D4
:102A8000062310BDF82400200050005210B5037832
:102A90000446012B17D1104B984214D102460F491E
:102AA000102002F003FA0E4BE061D3F8D42042F478
:102AB0008042C3F8D420D3F8FC2042F48042C3F80B
:102AC000FC20D3F8FC306268A36992685A60054A1A
:102AD0001A601B22DA6010BDF82400201D2A0008AD
:102AE000004402581500020183691B2210B5DA6008
:102AF000D1E9002012F44C4406D192011C61D86146
:102B000002F440425A6110BD0024104312F4406F99
:102B10001C61CC68DC61586101D08A689A619A684E
:102B20009206FCD4EFE7000030B584691B25C0692C
:102B3000E5600068836104F12003C3610223426100
:102B4000013A03614623C36016238362CB68226186
:102B5000E361D1E90023134312F4406F636101D0B4
:102B60008B68A361C36843F00103C36030BD0000FC
:102B700030B5D0E90640006804F120058561C361E5
:102B800008234261013A036146230D69C36016239D
:102B90008362CB682261E361D1E90023134312F41D
:102BA000406F43EA854343F08063636101D08B68E3
:102BB000A361C36843F00103C36030BD806903684B
:102BC00023F0040310B5036000230361C361836134
:102BD000D1E900430969234343EA814343F0406359
:102BE000436112B14FF01043136010BD83691A683E
:102BF00042F002021A601A689207FCD41A6842F086
:102C000004021A607047000083691B2210B5DA6065
:102C100004465B695B011AD443681B682BB105222B
:102C2000027098472378052B01D1022323702023BB
:102C300083F31188002104F1080001F015FA002344
:102C400083F31188E069BDE8104002F063B910BD5C
:102C5000026843681143016003B1184770470000E0
:102C6000024A136843F0C0031360704700440040F9
:102C700013B50E4C204600F08BFA04F1140000232B
:102C80004FF400720A49009400F04CF9094B4FF4DC
:102C90000072094904F13800009400F0C5F9074AB0
:102CA000074BC4E9172302B010BD00BF1825002050
:102CB00084250020612C0008842700200044004067
:102CC00000E1F505037C30B5244C002918BF0C4603
:102CD000012B11D1224B98420ED1224BD3F8E82080
:102CE00042F40032C3F8E820D3F8102142F4003255
:102CF000C3F81021D3F810312268036EC16D03EBC5
:102D000052038466B3FBF2F36268150442BF23F0FA
:102D1000070503F0070343EA4503CB60A36843F0CC
:102D200040034B60E36843F001038B6042F4967309
:102D300043F001030B604FF0FF330B62510505D5E3
:102D400012F0102205D0B2F1805F04D080F8643018
:102D500030BD7F23FAE73F23F8E700BFD8680008BB
:102D600018250020004402582DE9F047C66D05469D
:102D70003768F4692107346219D014F0080118BFCC
:102D80008021E20748BF41F02001A3074FF0200354
:102D900048BF41F04001600748BF41F4807183F3B0
:102DA0001188281DFFF754FF002383F31188E205E3
:102DB0000AD5202383F311884FF40071281DFFF7F3
:102DC00047FF002383F311884FF020094FF0000ADA
:102DD00014F0200838D13B0616D54FF0200905F134
:102DE000380A200610D589F31188504600F050F9B2
:102DF000002836DA0821281DFFF72AFF27F0800374
:102E00003360002383F31188790614D5620612D546
:102E1000202383F31188D5E913239A4208D12B6C20
:102E200033B127F040071021281DFFF711FF37604D
:102E3000002383F31188E30618D5AA6E1369ABB19A
:102E40005069BDE8F047184789F31188736A28462E
:102E500095F86410194000F0B5F98AF31188F46907
:102E6000B6E7B06288F31188F469BAE7BDE8F08785
:102E7000F8B51546826804460B46AA4200D285681A
:102E8000A1692669761AB5420BD218462A46FEF782
:102E900023FBA3692B44A3612846A3685B1BA360A3
:102EA000F8BD0CD9AF1B18463246FEF715FB3A4663
:102EB000E1683044FEF710FBE3683B44EBE718465B
:102EC0002A46FEF709FBE368E5E7000083689342C2
:102ED000F7B50446154600D28568D4E90460361A71
:102EE000B5420BD22A46FEF7F7FA63692B446361B9
:102EF0002846A3685B1BA36003B0F0BD0DD9324622
:102F0000AF1B0191FEF7E8FA01993A46E0683144B7
:102F1000FEF7E2FAE3683B44E9E72A46FEF7DCFA0B
:102F2000E368E4E710B50A440024C361029B8460AF
:102F3000C16002610362C0E90000C0E9051110BD73
:102F400008B5D0E90532934201D1826882B982681E
:102F5000013282605A1C426119700021D0E90432AA
:102F60009A4224BFC368436101F098F8002008BD6D
:102F70004FF0FF30FBE7000070B5202304460E46FB
:102F800083F31188A568A5B1A368A269013BA3607A
:102F9000531CA36115782269934224BFE368A3619F
:102FA000E3690BB120469847002383F31188284634
:102FB00007E03146204601F061F80028E2DA85F3A7
:102FC000118870BD2DE9F74F04460E461746984606
:102FD000D0F81C904FF0200A8AF311884FF0000BB4
:102FE000154665B12A4631462046FFF741FF0346A4
:102FF00060B94146204601F041F80028F1D0002395
:1030000083F31188781B03B0BDE8F08FB9F1000F8E
:1030100003D001902046C847019B8BF31188ED1A1D
:103020001E448AF31188DCE7C160C361009B8260A3
:103030000362C0E905111144C0E900000161704755
:10304000F8B504460D461646202383F31188A76879
:10305000A7B1A368013BA36063695A1C62611D703C
:10306000D4E904329A4224BFE3686361E3690BB197
:1030700020469847002080F3118807E0314620461B
:1030800000F0FCFF0028E2DA87F31188F8BD0000A9
:10309000D0E9052310B59A4201D182687AB98268D5
:1030A0000021013282605A1C82611C7803699A42B5
:1030B00024BFC368836100F0F1FF204610BD4FF0CC
:1030C000FF30FBE72DE9F74F04460E4617469846BA
:1030D000D0F81C904FF0200A8AF311884FF0000BB3
:1030E000154665B12A4631462046FFF7EFFE0346F6
:1030F00060B94146204600F0C1FF0028F1D000230E
:1031000083F31188781B03B0BDE8F08FB9F1000F8D
:1031100003D001902046C847019B8BF31188ED1A1C
:103120001E448AF31188DCE702684368114301609A
:1031300003B11847704700001430FFF743BF000089
:103140004FF0FF331430FFF73DBF00003830FFF77A
:10315000B9BF00004FF0FF333830FFF7B3BF0000B6
:103160001430FFF709BF00004FF0FF311430FFF7B4
:1031700003BF00003830FFF763BF00004FF0FF329D
:103180003830FFF75DBF000000207047FFF770BDCB
:10319000044B036000234360C0E90233012303743E
:1031A000704700BFF068000810B52023044683F381
:1031B0001188FFF787FD02232374002383F311880E
:1031C00010BD000038B5C36904460D461BB9042183
:1031D0000844FFF7A9FF294604F11400FFF7B0FEE9
:1031E000002806DA201D4FF48061BDE83840FFF763
:1031F0009BBF38BD026843681143016003B11847A3
:103200007047000013B5406B00F58054D4F8A43823
:103210001A681178042914D1017C022911D1197975
:10322000012312898B4013420BD101A94C3002F0CB
:10323000BDFCD4F8A4480246019B2179206800F027
:10324000DFF902B010BD0000143002F03FBC0000F6
:103250004FF0FF33143002F039BC00004C3002F064
:1032600011BD00004FF0FF334C3002F00BBD0000E9
:10327000143002F00DBC00004FF0FF31143002F0AA
:1032800007BC00004C3002F0DDBC00004FF0FF3204
:103290004C3002F0D7BC00000020704710B500F59C
:1032A0008054D4F8A4381A681178042917D1017C05
:1032B000022914D15979012352898B4013420ED12E
:1032C000143002F09FFB024648B1D4F8A4484FF4F2
:1032D000407361792068BDE8104000F07FB910BDEF
:1032E000406BFFF7DBBF0000704700007FB5124B5B
:1032F00001250426044603600023057400F18402BE
:1033000043602946C0E902330C4B0290143001930C
:103310004FF44073009602F051FB094B04F69442BF
:10332000294604F14C000294CDE900634FF4407348
:1033300002F018FC04B070BD18690008E132000802
:10334000053200080A68202383F311880B790B33B8
:1033500042F823004B79133342F823008B7913B1E1
:103360000B3342F8230000F58053C3F8A41802235E
:103370000374002383F311887047000038B5037F7E
:10338000044613B190F85430ABB90125201D022139
:10339000FFF730FF04F114006FF00101257700F012
:1033A00089FE04F14C0084F854506FF00101BDE82F
:1033B000384000F07FBE38BD10B50121044604300E
:1033C000FFF718FF0023237784F8543010BD000066
:1033D00038B504460025143002F008FB04F14C0017
:1033E000257702F0D7FB201D84F854500121FFF708
:1033F00001FF2046BDE83840FFF750BF90F880300D
:1034000003F06003202B06D190F881200023212AAD
:1034100003D81F2A06D800207047222AFBD1C0E912
:103420001D3303E0034A426707228267C367012016
:10343000704700BF2C22002037B500F58055D5F825
:10344000A4381A68117804291AD1017C022917D1ED
:103450001979012312898B40134211D100F14C04D8
:10346000204602F057FC58B101A9204602F09EFB0D
:10347000D5F8A4480246019B2179206800F0C0F8E5
:1034800003B030BD01F10B03F0B550F8236085B0F7
:1034900004460D46FEB1202383F3118804EB850713
:1034A000301D0821FFF7A6FEFB6806F14C005B69A2
:1034B0001B681BB1019002F087FB019803A902F081
:1034C00075FB024648B1039B2946204600F098F858
:1034D000002383F3118805B0F0BDFB685A691268B8
:1034E000002AF5D01B8A013B1340F1D104F1800280
:1034F000EAE70000133138B550F82140ECB1202341
:1035000083F3118804F58053D3F8A4281368527903
:1035100003EB8203DB689B695D6845B10421601899
:10352000FFF768FE294604F1140002F075FA204600
:10353000FFF7B4FE002383F3118838BD7047000005
:1035400001F068BD01234022002110B5044600F8B7
:10355000303BFDF7F3FF0023C4E9013310BD000049
:1035600010B52023044683F31188242241600021F2
:103570000C30FDF7E3FF204601F06EFD02232370BF
:10358000002383F3118810BD70B500EB810305465D
:1035900050690E461446DA6018B110220021FDF77A
:1035A000CDFFA06918B110220021FDF7C7FF3146F9
:1035B0002846BDE8704001F061BE0000836820220B
:1035C000002103F0011310B5044683601030FDF7AD
:1035D000B5FF2046BDE8104001F0DCBEF0B4012587
:1035E00000EB810447898D40E4683D43A46945812F
:1035F00023600023A2606360F0BC01F0F9BE00000C
:10360000F0B4012500EB810407898D40E4683D4357
:103610006469058123600023A2606360F0BC01F04F
:103620006FBF000070B502230025044624220370FA
:103630002946C0F888500C3040F8045CFDF77EFF46
:10364000204684F8705001F0ADFD63681B6823B11B
:1036500029462046BDE87040184770BD037880F8C1
:103660008C300523037043681B6810B504460BB10A
:10367000042198470023A36010BD000090F88C201F
:10368000436802701B680BB10521184770470000A2
:1036900070B590F87030044613B1002380F8703094
:1036A00004F18002204601F099FE63689B68B3B97B
:1036B00094F8803013F0600535D00021204602F0E8
:1036C00043F90021204602F033F963681B6813B107
:1036D000062120469847062384F8703070BD2046A6
:1036E00098470028E4D0B4F88630A26F9A4288BF89
:1036F000A36794F98030A56F002B4FF0200380F270
:103700000381002D00F0F280092284F8702083F3F9
:10371000118800212046D4E91D23FFF771FF002303
:1037200083F31188DAE794F8812003F07F0343EAFA
:10373000022340F20232934200F0C58021D8B3F553
:10374000807F48D00DD8012B3FD0022B00F0938012
:10375000002BB2D104F1880262670222A267E367FC
:10376000C1E7B3F5817F00F09B80B3F5407FA4D122
:1037700094F88230012BA0D1B4F8883043F00203D2
:1037800032E0B3F5006F4DD017D8B3F5A06F31D04C
:10379000A3F5C063012B90D86368204694F882207B
:1037A0005E6894F88310B4F88430B047002884D061
:1037B000436863670368A3671AE0B3F5106F36D0F8
:1037C00040F6024293427FF478AF5C4B636702237A
:1037D000A3670023C3E794F88230012B7FF46DAF19
:1037E000B4F8883023F00203A4F88830C4E91D55EA
:1037F000E56778E7B4F88030B3F5A06F0ED194F8A0
:103800008230204684F88A3001F02AFD63681B6804
:1038100013B1012120469847032323700023C4E9F4
:103820001D339CE704F18B0363670123C3E723780F
:10383000042B10D1202383F311882046FFF7BEFE0E
:1038400085F311880321636884F88B5021701B680D
:103850000BB12046984794F88230002BDED084F8D4
:103860008B300423237063681B68002BD6D00221A1
:1038700020469847D2E794F8843020461D0603F08E
:103880000F010AD501F09CFD012804D002287FF425
:1038900014AF2B4B9AE72B4B98E701F083FDF3E72E
:1038A00094F88230002B7FF408AF94F8843013F042
:1038B0000F01B3D01A06204602D502F05DF8ADE73D
:1038C00002F04EF8AAE794F88230002B7FF4F5AEB0
:1038D00094F8843013F00F01A0D01B06204602D5C7
:1038E00002F032F89AE702F023F897E7142284F8FE
:1038F000702083F311882B462A4629462046FFF77D
:103900006DFE85F31188E9E65DB1152284F870201B
:1039100083F3118800212046D4E91D23FFF75EFEC2
:10392000FDE60B2284F8702083F311882B462A468B
:1039300029462046FFF764FEE3E700BF4869000818
:10394000406900084469000838B590F870300446B2
:10395000002B3ED0063BDAB20F2A34D80F2B32D8D8
:10396000DFE803F037313108223231313131313182
:1039700031313737856FB0F886309D4214D2C36835
:103980001B8AB5FBF3F203FB12556DB9202383F3B9
:1039900011882B462A462946FFF732FE85F3118807
:1039A0000A2384F870300EE0142384F8703020234A
:1039B00083F31188002320461A461946FFF70EFEAE
:1039C000002383F3118838BDC36F03B198470023E8
:1039D000E7E70021204601F0B7FF0021204601F073
:1039E000A7FF63681B6813B106212046984706238A
:1039F000D7E7000010B590F870300446142B29D09A
:103A000017D8062B05D001D81BB110BD093B022BDE
:103A1000FBD80021204601F097FF0021204601F04D
:103A200087FF63681B6813B1062120469847062369
:103A300019E0152BE9D10B2380F87030202383F394
:103A4000118800231A461946FFF7DAFD002383F395
:103A50001188DAE7C3689B695B68002BD5D1C36F17
:103A600003B19847002384F87030CEE7FFF700B821
:103A7000012100230170C0E901330C3000F008BAC5
:103A800010B52023044683F311884160FEF7FEFF42
:103A900002232370002383F3118810BD10B5202367
:103AA000044683F31188032304F8083BFFF71CF84E
:103AB0004FF0FF31204600F0C9FA002383F311884C
:103AC000C01A18BF012010BD38B50446202585F363
:103AD0001188032504F8085BFFF726F84FF0FF3143
:103AE000204600F0B3FA002383F31188C01A18BFF0
:103AF000012038BD38B50446202585F311880425FA
:103B000004F8085BFFF734F84FF0FF31204600F06F
:103B10009DFA002383F31188C01A18BF012038BD15
:103B200010B52023044683F31188FFF747F80623D6
:103B30002370002383F3118810BD000010B52023EB
:103B4000044683F31188FFF751F802232370002302
:103B500083F3118810BD00000C3000F0B5B90000EF
:103B60000C3000F0BBB9000004480121044B036095
:103B70000023C0E901330C3000F08AB98429002009
:103B8000C95D0008CB1D083A23F00703591A521AE1
:103B9000012110B4D2080024C0E9004384600C3035
:103BA0001C605A605DF8044B00F072B92DE9F84FC3
:103BB000364ECD1D0F46002818BF0646082A4FEA8C
:103BC000D50538BF082206F10C08341D9146404641
:103BD00000F07AF909F10701C9F1000E22462468C4
:103BE0006CB9404600F07AF93368CBB308224946F5
:103BF000E8009847044698B340E9026730E004EBD8
:103C0000010CD4F804A00CEA0E0C0AF10100ACF18E
:103C1000080304EBC0009842E0D9A0EB0C0CB5EB14
:103C2000EC0F4FEAEC0BD9D89C421CD204F10802ED
:103C3000AB45A3EB02024FEAE202626009D9691CBC
:103C4000ED43206803EBC1025D44556043F8310049
:103C500022601C465F60404644F8086B00F03EF965
:103C60002046BDE8F88FAA45216802D1116023469D
:103C7000EFE7013504EBC50344F8351003F1080103
:103C8000401AC01058601360F1E700BF842900207B
:103C9000F8B550F8043C044650F8085CA0F108065A
:103CA00007332F1D0C35DB0840F8043C284600F094
:103CB0000BF93B46BB421A6801D09E4228D90AB193
:103CC000964225D244F8082C54F8042C1E60013288
:103CD00054F8081C06EBC200814206D14868024431
:103CE00044F8042C0A6844F8082C5868411C03EB7B
:103CF000C1018E4207D154F8042C013202445A60AB
:103D000054F8082C1A602846BDE8F84000F0E6B8E0
:103D10001346CFE7024B0022C3E900339A60704795
:103D20009C290020002382680374054B1B68996856
:103D30009142FBD25A68036042601060586070473D
:103D40009C29002008B5202383F31188027C0023DE
:103D5000052A06D8DFE802F00B050503120E4269BA
:103D600013604FF0FF334361FFF7DCFF002383F361
:103D7000118808BD4269936801339360D0E900322D
:103D800013605A60EDE70000002382680374054B5E
:103D90001B6899689142FBD85A68036042601060C2
:103DA000586070479C290020054B196908741868F1
:103DB000026853601A60186101230374FCF790BC19
:103DC0009C2900204B1C30B5044687B00A4D10D00A
:103DD0002B6901A8094A00F089F92046FFF7E4FFA2
:103DE000049B13B101A800F0BDF92B69586907B015
:103DF00030BDFFF7D9FFF8E79C290020453D0008BA
:103E000038B50C4D044641612B6981689A6891422E
:103E100003D8BDE83840FFF785BF1846FFF7B4FF69
:103E200001232C61014623742046BDE83840FCF78D
:103E300057BC00BF9C290020044B1A681B6990687E
:103E40009B68984294BF0020012070479C29002065
:103E500010B5084C236820691A685460226001225A
:103E600023611A74FFF790FF01462069BDE81040F6
:103E7000FCF736BC9C29002008B5FFF7DDFF18B120
:103E8000BDE80840FFF7E4BF08BD0000FFF7E0BF52
:103E9000C0E90000816070478368013B002B10B5CA
:103EA00083600DDA074C42682369586118605A60D4
:103EB000136043600520FFF777FF2369586910BD41
:103EC0000020FCE79C29002008B5202383F31188FB
:103ED000FFF7E2FF002383F3118808BD08B5202314
:103EE00083F3118883680133002B836007DC036848
:103EF00000211A68026050601846FFF781FF002316
:103F000083F3118808BD0000FEE7000010B50E4CD9
:103F1000FFF700FF00F0DCF801F038FFFFF724FEA8
:103F200080220A49204600F047F8012344F8180C83
:103F3000037400F073FE002383F3118862B6044813
:103F4000BDE8104000F058B8C42900204C690008B2
:103F50005C69000808B572B6034B586200F0DEFCDD
:103F600000F0ACFDFEE700BF9C29002000F034B952
:103F7000EFF3118020B9EFF30583202282F311883B
:103F80007047000010B530B9EFF30584C4F308049E
:103F900014B180F3118810BDFFF76EFF84F3118810
:103FA000F9E70000034A516853685B1A9842FBD84E
:103FB000704700BF001000E082600222028270475A
:103FC0008368A3F17C0243F80C2C026943F83C2C73
:103FD000426943F8382C074A43F81C2CC268A3F105
:103FE000180043F8102C022203F8082C002203F8D2
:103FF000072C7047F906000810B5202383F31188B9
:10400000FFF7DEFF00210446FFF7FAFE002383F3EB
:104010001188204610BD0000024B1B6958610F201B
:10402000FFF7C2BE9C290020202383F31188FFF7ED
:10403000F3BF000008B50146202383F31188082050
:10404000FFF7C0FE002383F3118808BD054B1B69F1
:1040500021B1036058610320FFF7B4BE4FF0FF3079
:10406000704700BF9C29002003682BB1002202602A
:1040700018465961FFF756BE7047000049B1064B1C
:1040800042681B6918605A60136043600420FFF7A0
:1040900099BE4FF0FF3070479C290020036898427A
:1040A00006D01A680260506018465961FFF73ABEA0
:1040B0007047000038B504460D462068844200D1A0
:1040C00038BD036823605C604561FFF72BFEF4E7B1
:1040D000054B4FF0FF3103F11402C3E90522002222
:1040E000C3E90712704700BF9C29002070B51C4E21
:1040F00005460C46C0E9032301F042FE334653F85F
:10410000142F9A420DD130620A2C2CBF00190A30AC
:104110002A60C5E90124C6E90555BDE8704001F0F3
:1041200019BE316A431AE31838BF1C469368A3428C
:1041300002D9081901F01EFE73699A6894420CD8DE
:104140005A68AC602B606A6015609A685D60121BEB
:104150009A604FF0FF33F36170BDA41A1B68ECE75F
:104160009C29002038B51B4C636998420DD08168AA
:10417000D0E9003213605A600022C2609A680A4493
:104180009A604FF0FF33E36138BD03682246002197
:1041900042F8143F93425A60C16003D1BDE83840F1
:1041A00001F0E2BD9A688168256A0A449A6001F0CC
:1041B000E7FD6369411B9A688A42E5D9AB181D1A6D
:1041C000206A092D98BF01F10A02BDE83840104469
:1041D00001F0D0BD9C2900202DE9F041184C0027AA
:1041E00004F11406656901F0CBFD236AAA68C11ABF
:1041F0008A4215D81344D5F80C802362D5E90032E1
:1042000013605A606369EF60B34201D101F0ACFD05
:1042100087F311882869C047202383F31188E1E7D9
:104220006169B14209D013441B1ABDE8F0410A2B61
:104230002CBFC0180A3001F09DBDBDE8F08100BF61
:104240009C29002000207047FEE700007047000016
:104250004FF0FF307047000002290CD0032904D032
:104260000129074818BF00207047032A05D80548D0
:1042700000EBC2007047044870470020704700BF41
:10428000406A00083C220020F469000870B59AB02A
:1042900005460846144601A900F0C2F801A8FDF73A
:1042A00045F9431C0022C6B25B001046C5E9003444
:1042B00023700323023404F8013C01ABD1B2023471
:1042C0008E4201D81AB070BD13F8011B013204F8F8
:1042D000010C04F8021CF1E708B5202383F31188D0
:1042E0000348FFF7A9F8002383F3118808BD00BF36
:1042F000582B002090F8803003F01F02012A07D1CC
:1043000090F881200B2A03D10023C0E91D3315E06A
:1043100003F06003202B08D1B0F884302BB990F85B
:104320008120212A03D81F2A04D8FFF767B8222A40
:10433000EBD0FAE7034A426707228267C36701208E
:10434000704700BF3322002007B5052917D8DFE8E2
:1043500001F0191603191920202383F31188104A3C
:1043600001210190FFF710F9019802210D4AFFF792
:104370000BF90D48FFF72CF8002383F3118803B0E5
:104380005DF804FB202383F311880748FEF7F6FF4E
:10439000F2E7202383F311880348FFF70DF8EBE7DA
:1043A00094690008B8690008582B002038B50C4DF6
:1043B0000C4C2A460C4904F10800FFF767FF05F191
:1043C000CA0204F110000949FFF760FF05F5CA723F
:1043D00004F118000649BDE83840FFF757BF00BF99
:1043E000304400203C220020746900087E690008E7
:1043F0008969000870B5044608460D46FDF796F831
:10440000C6B22046013403780BB9184670BD324657
:104410002946FDF76BF80028F3D10120F6E70000EC
:104420002DE9F04705460C46FDF780F82B49C6B24A
:104430002846FFF7DFFF08B10736F6B228492846BD
:10444000FFF7D8FF08B11036F6B2632E0BD8DFF8AD
:104450008C80DFF88C90234FDFF894A02E7846B93B
:104460002670BDE8F08729462046BDE8F04702F0F7
:10447000D9B8252E2ED1072241462846FDF736F819
:1044800070B9194B224603F10C0153F8040B8B420F
:1044900042F8040BF9D11B8807350E341380DDE791
:1044A000082249462846FDF721F898B9A21C0F4B6F
:1044B000197802320909C95D02F8041C13F8011BBE
:1044C00001F00F015345C95D02F8031CF0D1183407
:1044D0000835C3E7013504F8016BBFE7606A0008DF
:1044E00089690008776A0008686A000800E8F11F17
:1044F0000CE8F11FBFF34F8F044B1A695107FCD131
:10450000D3F810215207F8D1704700BF00200052A5
:1045100008B50D4B1B78ABB9FFF7ECFF0B4BDA6816
:10452000D10704D50A4A5A6002F188325A60D3F89A
:104530000C21D20706D5064AC3F8042102F18832BD
:10454000C3F8042108BD00BF8E46002000200052A1
:104550002301674508B5114B1B78F3B9104B1A6955
:10456000510703D5DA6842F04002DA60D3F810212F
:10457000520705D5D3F80C2142F04002C3F80C21B4
:10458000FFF7B8FF064BDA6842F00102DA60D3F8B1
:104590000C2142F00102C3F80C2108BD8E46002018
:1045A000002000520F289ABF00F5806040040020D0
:1045B000704700004FF40030704700001020704733
:1045C0000F2808B50BD8FFF7EDFF00F500330268A0
:1045D000013204D104308342F9D1012008BD00200A
:1045E000FCE700000F2870B5054645D8FFF7C0FC72
:1045F000224CFFF77FFF0646FFF78AFF4FF0FF339D
:10460000072D6361C4F8143120D82361FFF772FFCE
:104610002B0243F02403E360E36843F08003E3608C
:1046200023695A07FCD42846FFF764FF4FF4003192
:10463000FFF7B8FF00F01EFA3046FFF78BFFFFF7D9
:10464000A1FC2846BDE87040FFF7BABFC4F810319E
:10465000FFF750FFA5F108031B0243F02403C4F841
:104660000C31D4F80C3143F08003C4F80C31D4F889
:1046700010315B07FBD4D6E7002070BD002000524C
:104680002DE9F84F40EA020305460C461746D806C6
:1046900002D00020BDE8F88F27F01F07DFF8D4B064
:1046A000FFF736FF2744BC4203D10120FFF752FF3A
:1046B000F0E720222946204601F060FF10B920359E
:1046C0002034F0E72B4605F120021E68711CE0D172
:1046D00004339A42F9D1FFF74BFC05F17843234AA2
:1046E000B3F5801F224B28BF9A4603F1040338BF5D
:1046F0009046A2F1080228BF9846A3F108033ABFEA
:104700009146DA469946FFF7F5FEC8F80060A5EB3A
:10471000040CD9F8002004F11C0142F00202C9F88F
:104720000020221FDAF8006016F00506FAD152F8D0
:10473000043F8A424CF80230F4D1BFF34F8FFFF7A9
:10474000D9FE4FF0FF32C8F80020D9F8002022F03F
:104750000202C9F80020FFF715FC20222146284656
:1047600001F00CFF0028AAD030469FE71420005229
:10477000102100521020005210B5084C237828B1A7
:104780001BB9FFF7C5FE0123237010BD002BFCD021
:104790002070BDE81040FFF7DDBE00BF8E46002050
:1047A0002DE9F74F0E460546002864D011F00507A5
:1047B00063D139B9082229463046FFF7F7F9044694
:1047C000002848D108224FF00109DFF8C08006F028
:1047D0000403DFF8BCA006EA090BBBF1000F27D0E9
:1047E000D8F81410C80723D409F1010908F10C08FE
:1047F000B9F1060FF1D18FB9224E2946F019009276
:10480000FFF7D4F9044630BB1837009A782FF4D15B
:104810002946FFF7CBF90446E8B9009A29461A4819
:10482000FFF7C4F9044608BB204603B0BDE8F08F8B
:10483000ABB1D8F8141011F0040FD5D018202946C8
:1048400000FB09A0CDE90023FFF7B0F90446DDE93C
:1048500000230028C8D02A460021204608E0B107DE
:10486000ECD5D8F8141011F0020FE6E72A46002123
:10487000FCF764FED8E70446D6E71F35202225F072
:104880001F05A0E7C046002090460020886A000867
:10489000A84600200021FFF783BF00000121FFF799
:1048A0007FBF0000F8B5144D01241827134E40F2C5
:1048B000FF3200210120FCF741FE07FB04600134B8
:1048C0002A6955F80C1FFFF75DF9062CF5D137253D
:1048D0004FF4C0542046FFF7E1FF014628B12246BD
:1048E0000748BDE8F840FFF74DB9C4EBC404013DEB
:1048F0004FEAD404EED1F8BD886A0008A84600202B
:10490000904600200421FFF74BBF00004843FFF70B
:10491000C1BF000008B1FFF7BBB9704738B5054DFE
:1049200000240334696855F80C0B00F0B5F8122C1C
:10493000F7D138BD886A000870B5104E82B0FFF715
:1049400017FB054601F01CFA3268034690423360BB
:1049500037BF0B4A0A495168146836BF0131D1E9A3
:10496000004151600419284641F100010191FFF70F
:1049700009FB2046019902B070BD00BF38470020F6
:104980004047002070B5124E82B0FFF7F1FA05469D
:1049900001F0F6F9326803469042336037BF0D4AA2
:1049A0000C495168146836BF0131D1E900415160AA
:1049B0000419284641F100010191FFF7E3FA4FF491
:1049C0007A72002320460199FBF772FC02B070BD99
:1049D00038470020404700200244074BD2B210B5B0
:1049E000904200D110BD441C00B253F8200041F8A1
:1049F000040BE0B2F4E700BF504000580E4B30B556
:104A00001C6F240405D41C6F1C671C6F44F4004405
:104A10001C670A4C02442368D2B243F480732360BB
:104A2000074B904200D130BD441C51F8045B00B2EA
:104A300043F82050E0B2F4E700440258004802581E
:104A40005040005807B5012201A90020FFF7C4FF1C
:104A5000019803B05DF804FB13B50446FFF7F2FFBD
:104A6000A04205D0012201A900200194FFF7C6FF52
:104A700002B010BD0144BFF34F8F064B884204D3F0
:104A8000BFF34F8FBFF36F8F7047C3F85C022030C6
:104A9000F4E700BF00ED00E00144BFF34F8F064B89
:104AA000884204D3BFF34F8FBFF36F8F7047C3F8B3
:104AB00070022030F4E700BF00ED00E07047000016
:104AC0000020704770B5054616460C46012010219F
:104AD000FFF71CFF286046733CB1204636B1FFF754
:104AE00011FF2B68186000B19C6070BDFFF7D6FE07
:104AF000F7E7000070B50E461546044600B30B6894
:104B000043608368934210D213B10068FFF702FF3D
:104B1000637B28462BB1FFF7F5FE206020B9A0602B
:104B200070BDFFF7BBFEF8E7A560206805F11F0127
:104B3000306021F01F01FFF79DFF01202073EFE798
:104B40000120EDE710B5044640B10068884205D168
:104B5000606808B1FCF7C0FC0023237310BD00009F
:104B600070B50E461546044620B38368934210D2B2
:104B700013B10068FFF7CEFE637B28462BB1FFF729
:104B8000C1FE206020B9A06070BDFFF787FEF8E786
:104B9000A560316819B12A462068FCF79DFC2068A1
:104BA00005F11F01306021F01F01FFF775FF0120A3
:104BB0002073E9E70120E7E720B103688B4204BFD7
:104BC000002303737047000008B10023037370478C
:104BD000034B1A681AB9034AD2F8D0241A607047F6
:104BE000484700200040025808B5FFF7F1FF024B8C
:104BF0001868C0F3806008BD48470020EFF30983C0
:104C0000054968334A6B22F001024A6383F309883D
:104C1000002383F31188704700EF00E0202080F329
:104C2000118862B60D4B0E4AD96821F4E06109047F
:104C3000090C0A430B49DA60D3F8FC2042F0807279
:104C4000C3F8FC20084AC2F8B01F116841F0010106
:104C500011601022DA7783F82200704700ED00E03F
:104C60000003FA0555CEACC5001000E0202310B5B6
:104C700083F311880E4B5B6813F4006314D0F1EEDC
:104C8000103AEFF309844FF08073683CE361094BFD
:104C9000DB6B236684F30988FFF7CEF810B1064B6F
:104CA000A36110BD054BFBE783F31188F9E700BF53
:104CB00000ED00E000EF00E00B0700080E07000821
:104CC00070B5BFF34F8FBFF36F8F1A4A0021C2F840
:104CD0005012BFF34F8FBFF36F8F536943F400330C
:104CE0005361BFF34F8FBFF36F8FC2F88410BFF3D0
:104CF0004F8FD2F8803043F6E074C3F3C900C3F39A
:104D00004E335B0103EA0406014646EA8175013928
:104D1000C2F86052F9D2203B13F1200FF2D1BFF359
:104D20004F8F536943F480335361BFF34F8FBFF309
:104D30006F8F70BD00ED00E0FEE700000A4B0B48EE
:104D40000B4A90420BD30B4BC11EDA1C121A22F0F5
:104D500003028B4238BF00220021FCF7EFBB53F85F
:104D6000041B40F8041BECE7486D0008F0490020E4
:104D7000F0490020F04900207047000003681968DE
:104D8000596043680BB18068184770474FF0A443DF
:104D900010B51C68E00702D52848FFF7EFFFA10710
:104DA00002D52748FFF7EAFF620702D52548FFF73B
:104DB000E5FF230702D52448FFF7E0FFE00602D510
:104DC0002248FFF7DBFFA10602D52148FFF7D6FFF7
:104DD000620602D51F48FFF7D1FF230602D51E4801
:104DE000FFF7CCFFE00502D51C48FFF7C7FFA10580
:104DF00002D51B48FFF7C2FF620502D51948FFF72D
:104E0000BDFF230502D51848FFF7B8FFE00402D51F
:104E10001648FFF7B3FFA10402D51548FFF7AEFF10
:104E2000620402D51348FFF7A9FF230402D51248F4
:104E3000FFF7A4FFBDE81040FFF718BF5047002060
:104E40005C4700206847002074470020804700200E
:104E50008C47002098470020A4470020B04700203E
:104E6000BC470020C8470020D4470020E04700206E
:104E7000EC470020F84700200448002030B5094BDB
:104E80000021094C10200725196054F8042B013823
:104E9000C3E90121D16003F10C0311615560F4D124
:104EA00030BD00BF4C470020D06A00080F28F0B585
:104EB0000AD9102806D10F230020144C0127256899
:104EC000984203D900201DE00346F6E707FA00F6F2
:104ED000354218D10C23354343432560181D234424
:104EE000C3E902120A4B2044D3F8D42042F0010255
:104EF000C3F8D420D3F8FC2042F00102C3F8FC2010
:104F0000D3F8FC30F0BD0130DAE700BF4C47002099
:104F1000004402580368D968DA68C90722F03F02E2
:104F2000DA6002D51A689207FCD507225A607047EA
:104F300070B5D0E9244300224FF0FF359E6804EBA2
:104F400042135101D3F80009002805DAD3F800090B
:104F500040F08040C3F80009D3F8000B002805DAC0
:104F6000D3F8000B40F08040C3F8000B0132631807
:104F70009642C3F80859C3F8085BE0D24FF001131A
:104F8000C4F81C3870BD000000EB8103D3F80CC0DE
:104F90002DE9F043DCF814204E1CD0F89050D2F8E4
:104FA00000E005EB063605EB4118506870450AD362
:104FB0000122D5F8343802FA01F123EA0101C5F8DB
:104FC0003418BDE8F083AEEB0003BCF81040A342F8
:104FD00028BF2346D8F81849A4B2B3EB840FF0D801
:104FE0009468A4F1040959F8047F3760A4EB090719
:104FF0001F44042FF7D81C44034494605360D4E743
:10500000890141F02001016103699B06FCD4122053
:10501000FEF7C8BF10B50A4C2046FEF793FA094BBD
:10502000C4F89030084BC4F89430084C2046FEF782
:1050300089FA074BC4F89030064BC4F8943010BD81
:105040001048002000000840346B0008AC480020E5
:1050500000000440406B000870B503780546012B42
:105060005DD1494BD0F89040984259D1474B0E2121
:105070006520D3F8D82042F00062C3F8D820D3F8D6
:10508000002142F00062C3F80021D3F80021D3F8D8
:10509000802042F00062C3F88020D3F8802022F004
:1050A0000062C3F88020D3F8803000F071FC384BE8
:1050B000E360384BC4F800380023D5F89060C4F89A
:1050C000003EC02323604FF40413A3633369002B15
:1050D000FCDA01230C203361FEF764FF3369DB0740
:1050E000FCD41220FEF75EFF3369002BFCDA0026A9
:1050F0002846A660FFF71CFF6B68C4F81068DB68E1
:10510000C4F81468C4F81C68002B3AD1224BA36180
:105110004FF0FF336361A36843F00103A36070BDE8
:105120001E4B9842C8D1194B0E214D20D3F8D820E0
:1051300042F00072C3F8D820D3F8002142F0007288
:10514000C3F80021D3F80021D3F8802042F0007288
:10515000C3F88020D3F8802022F00072C3F88020AA
:10516000D3F88020D3F8D82022F08062C3F8D8206A
:10517000D3F8002122F08062C3F80021D3F8003177
:1051800093E7074BC3E700BF1048002000440258D4
:105190004014004003002002003C30C0AC48002016
:1051A000083C30C0F8B5D0F89040054600214FF0DB
:1051B00000662046FFF724FFD5F8941000234FF037
:1051C00001128F684FF0FF30C4F83438C4F81C283F
:1051D00004EB431201339F42C2F80069C2F8006B2E
:1051E000C2F80809C2F8080BF2D20B68D5F8902073
:1051F000C5F89830636210231361166916F0100623
:10520000FBD11220FEF7CEFED4F8003823F4FE6363
:10521000C4F80038A36943F4402343F01003A361AA
:105220000923C4F81038C4F814380B4BEB604FF066
:10523000C043C4F8103B094BC4F8003BC4F81069E4
:10524000C4F80039D5F8983003F1100243F4801304
:10525000C5F89820A362F8BD106B000840800010CC
:10526000D0F8902090F88A10D2F8003823F4FE632A
:1052700043EA0113C2F80038704700002DE9F843F3
:1052800000EB8103D0F890500C468046DA680FFAA4
:1052900081F94801166806F00306731E022B05EB20
:1052A00041134FF0000194BFB604384EC3F8101BF1
:1052B0004FF0010104F1100398BF06F1805601FA86
:1052C00003F3916998BF06F5004600293AD0578A42
:1052D00004F15801374349016F50D5F81C180B43AE
:1052E0000021C5F81C382B180127C3F81019A74056
:1052F0005369611E9BB3138A928B9B08012A88BF56
:105300005343D8F89820981842EA034301F1400229
:105310002146C8F89800284605EB82025360FFF743
:105320006FFE08EB8900C3681B8A43EA8453483444
:105330001E4364012E51D5F81C381F43C5F81C7854
:10534000BDE8F88305EB4917D7F8001B21F40041AD
:10535000C7F8001BD5F81C1821EA0303C0E704F1C5
:105360003F030B4A2846214605EB83035A60FFF7AB
:1053700047FE05EB4910D0F8003923F40043C0F88C
:105380000039D5F81C3823EA0707D7E7008000105A
:1053900000040002D0F894201268C0F89820FFF7AB
:1053A000C7BD00005831D0F8903049015B5813F464
:1053B000004004D013F4001F0CBF022001207047EE
:1053C0004831D0F8903049015B5813F4004004D0C4
:1053D00013F4001F0CBF02200120704700EB810175
:1053E000CB68196A0B6813604B6853607047000004
:1053F00000EB810330B5DD68AA691368D36019B981
:10540000402B84BF402313606B8A1468D0F890202F
:105410001C4402EB4110013C09B2B4FBF3F46343BA
:10542000033323F0030343EAC44343F0C043C0F80B
:10543000103B2B6803F00303012B0ED1D2F8083880
:1054400002EB411013F4807FD0F8003B14BF43F00F
:10545000805343F00053C0F8003B02EB4112D2F8F6
:10546000003B43F00443C2F8003B30BD2DE9F0415E
:10547000D0F8906005460C4606EB4113D3F8087B44
:105480003A07C3F8087B08D5D6F814381B0704D5AB
:1054900000EB8103DB685B689847FA071FD5D6F8F5
:1054A0001438DB071BD505EB8403D968CCB98B69AD
:1054B000488A5A68B2FBF0F600FB16228AB91868CF
:1054C000DA6890420DD2121AC3E90024202383F334
:1054D000118821462846FFF78BFF84F31188BDE829
:1054E000F081012303FA04F26B8923EA02036B8142
:1054F000CB68002BF3D021462846BDE8F041184781
:1055000000EB81034A0170B5DD68D0F890306C691A
:105510002668E66056BB1A444FF40020C2F8100912
:105520002A6802F00302012A0AB20ED1D3F8080851
:1055300003EB421410F4807FD4F8000914BF40F04C
:10554000805040F00050C4F8000903EB4212D2F83A
:10555000000940F00440C2F800090122D3F83408E1
:1055600002FA01F10143C3F8341870BD19B9402E95
:1055700084BF4020206020681A442E8A8419013C90
:10558000B4FBF6F440EAC44040F00050C6E7000027
:105590002DE9F041D0F8906004460D4606EB41132A
:1055A000D3F80879C3F80879FB071CD5D6F810386A
:1055B000DA0718D500EB8103D3F80CC0DCF81430FF
:1055C000D3F800E0DA6896451BD2A2EB0E024FF04A
:1055D00000081A60C3F80480202383F31188FFF7C2
:1055E0008FFF88F311883B0618D50123D6F834289D
:1055F000AB40134212D029462046BDE8F041FFF7E8
:10560000C3BC012303FA01F2038923EA02030381E5
:10561000DCF80830002BE6D09847E4E7BDE8F081DD
:105620002DE9F84FD0F8905004466E69AB691E40E2
:1056300016F480586E6103D0BDE8F84FFDF7F2BF55
:10564000002E12DAD5F8003E9F0705D0D5F8003EAF
:1056500023F00303C5F8003ED5F80438204623F0B4
:105660000103C5F80438FEF709F8300505D52046D2
:10567000FFF75EFC2046FDF7F1FFB1040CD5D5F82D
:10568000083813F0060FEB6823F470530CBF43F493
:10569000105343F4A053EB60320704D56368DB6812
:1056A0000BB120469847F30200F1BA80B70226D525
:1056B000D4F8909000274FF0010A09EB4712D2F876
:1056C000003B03F44023B3F5802F11D1D2F8003B07
:1056D000002B0DDA62890AFA07F322EA03036381D9
:1056E00004EB8703DB68DB6813B139462046984733
:1056F0000137D4F89430FFB29B689F42DDD9F006A1
:1057000019D5D4F89000026AC2F30A1702F00F0309
:1057100002F4F012B2F5802F00F0CC80B2F5402FE9
:1057200009D104EB8303002200F58050DB681B6A7B
:10573000974240F0B2803003D5F8185835D5E903C8
:1057400003D500212046FFF791FEAA0303D50121CE
:105750002046FFF78BFE6B0303D502212046FFF79F
:1057600085FE2F0303D503212046FFF77FFEE802C5
:1057700003D504212046FFF779FEA90203D50521B0
:105780002046FFF773FE6A0203D506212046FFF785
:105790006DFE2B0203D507212046FFF767FEEF01C0
:1057A00003D508212046FFF761FE700340F1A98070
:1057B000E90703D500212046FFF7EAFEAA0703D533
:1057C00001212046FFF7E4FE6B0703D502212046A6
:1057D000FFF7DEFE2F0703D503212046FFF7D8FE93
:1057E000EE0603D504212046FFF7D2FEA80603D516
:1057F00005212046FFF7CCFE690603D50621204689
:10580000FFF7C6FE2A0603D507212046FFF7C0FE94
:10581000EB0576D520460821BDE8F84FFFF7B8BE66
:10582000D4F8909000274FF0010AD4F894305FFA32
:1058300087FB9B689B453FF639AF09EB4B13D3F8C9
:10584000002902F44022B2F5802F24D1D3F8002998
:10585000002A20DAD3F8002942F09042C3F8002948
:10586000D3F80029002AFBDB5946D4F89000FFF753
:10587000C7FB22890AFA0BF322EA0303238104EB14
:105880008B03DB689B6813B15946204698475946FD
:105890002046FFF779FB0137C7E7910701D1D0F820
:1058A0000080072A02F101029CBF03F8018B4FEA36
:1058B00018283DE704EB830300F58050DA68D2F83E
:1058C00018C0DCF80820DCE9001CA1EB0C0C00215E
:1058D0008F4208D1DB689B699A683A449A605A689B
:1058E0003A445A6027E711F0030F01D1D0F8008045
:1058F0008C4501F1010184BF02F8018B4FEA1828A1
:10590000E6E7BDE8F88F000008B50348FFF788FE1A
:10591000BDE80840FFF7AAB91048002008B50348C1
:10592000FFF77EFEBDE80840FFF7A0B9AC480020B5
:10593000D0F8903003EB4111D1F8003B43F4001351
:10594000C1F8003B70470000D0F8903003EB4111E4
:10595000D1F8003943F40013C1F800397047000052
:10596000D0F8903003EB4111D1F8003B23F4001341
:10597000C1F8003B70470000D0F8903003EB4111B4
:10598000D1F8003923F40013C1F800397047000042
:10599000090100F16043012203F56143C9B283F8B4
:1059A000001300F01F039A4043099B0003F160437A
:1059B00003F56143C3F880211A60704730B50433A2
:1059C000039C0172002104FB0325C160C0E906535A
:1059D000049B0363059BC0E90000C0E90422C0E901
:1059E0000842C0E90A11436330BD00000022416A49
:1059F000C260C0E90411C0E90A226FF00101FEF79C
:105A000059BB0000D0E90432934201D1C2680AB9FF
:105A1000181D704700207047036919600021C26893
:105A20000132C260C269134482699342036124BF98
:105A3000436A0361FEF732BB38B504460D46E3689E
:105A40003BB162690020131D1268A3621344E36234
:105A500007E0237A33B929462046FEF70FFB0028DA
:105A6000EDDA38BD6FF00100FBE70000C368C269E2
:105A7000013BC3604369134482699342436124BF7D
:105A8000436A436100238362036B03B11847704785
:105A900070B52023044683F31188866A3EB9FFF768
:105AA000CBFF054618B186F31188284670BDA36A5E
:105AB000E26A13F8015B9342A36202D32046FFF728
:105AC000D5FF002383F31188EFE700002DE9F84F9D
:105AD00004460E46174698464FF0200989F3118870
