:020000040800F2
:1000000000060020A1020008890F0008090F00085F
:10001000610F0008090F0008350F0008A30200084F
:10002000A3020008A3020008A3020008AD1D0008F7
:10003000A3020008A3020008A3020008A30200080C
:10004000A3020008A3020008A3020008A3020008FC
:10005000A3020008A3020008112400083D240008A0
:100060006924000895240008C1240008A3020008A0
:10007000A3020008A3020008A3020008A3020008CC
:10008000A3020008A3020008A3020008A3020008BC
:10009000A3020008A3020008A3020008ED24000840
:1000A000A3020008A3020008A3020008A30200089C
:1000B000A3020008A3020008A3020008A30200088C
:1000C000A3020008A3020008A3020008A30200087C
:1000D000A3020008A3020008A3020008A30200086C
:1000E00051250008A3020008A3020008A30200088B
:1000F000A3020008A3020008A3020008A30200084C
:10010000A3020008A3020008ED250008A3020008CE
:10011000A3020008A3020008A3020008A30200082B
:10012000A3020008A3020008A3020008A30200081B
:10013000A3020008A3020008A3020008A30200080B
:10014000A3020008A3020008A3020008A3020008FB
:10015000A3020008A3020008A3020008A3020008EB
:10016000A3020008A3020008A3020008A3020008DB
:10017000A3020008A3020008A3020008A3020008CB
:10018000A3020008A3020008C5250008D92500081D
:10019000A3020008A3020008A3020008A3020008AB
:1001A000A3020008A3020008A3020008A30200089B
:1001B000A3020008A3020008A3020008A30200088B
:1001C000A3020008A3020008A3020008A30200087B
:1001D000A3020008A3020008A3020008A30200086B
:1001E000A3020008A3020008A3020008A30200085B
:1001F000A3020008A3020008A3020008A30200084B
:10020000A3020008A3020008A3020008A30200083A
:10021000A3020008A3020008A3020008A30200082A
:10022000A3020008A3020008A3020008A30200081A
:10023000A3020008A3020008A3020008A30200080A
:10024000A3020008A3020008A3020008A3020008FA
:10025000A3020008A3020008A3020008A3020008EA
:10026000A3020008A3020008A3020008A3020008DA
:10027000A3020008A3020008A3020008A3020008CA
:10028000A3020008A3020008A3020008A3020008BA
:10029000A3020008A3020008A3020008A3020008AA
:1002A00002E000F000F8FEE772B63A4880F30888F2
:1002B000394880F3098839484EF60851CEF20001DA
:1002C000086040F20000CCF200004EF63471CEF22D
:1002D00000010860BFF34F8FBFF36F8F40F2000043
:1002E000C0F2F0004EF68851CEF200010860BFF374
:1002F0004F8FBFF36F8F4FF00000E1EE100A4EF604
:100300003C71CEF200010860062080F31488BFF330
:100310006F8F01F009FE01F0ABFD01F035FE4FF0EB
:1003200055301F491B4A91423CBF41F8040BFAE784
:100330001C49194A91423CBF41F8040BFAE71A499B
:100340001A4A1B4B9A423EBF51F8040B42F8040B69
:10035000F8E700201749184A91423CBF41F8040BC6
:10036000FAE701F0C3FD01F093FE144C144DAC42CA
:1003700003DA54F8041B8847F9E700F041F8114C00
:10038000114DAC4203DA54F8041B8847F9E701F039
:10039000ABBD000000060020002200200000000885
:1003A00000000020000600209828000800220020FD
:1003B0002C22002030220020B82E0020A0020008AD
:1003C000A0020008A0020008A00200082DE9F04FDA
:1003D0002DED108AC1F80CD0D0F80CD0BDEC108AED
:1003E000BDE8F08F002383F311882846A047002042
:1003F00001F01CFAFEE701F0A1F900DFFEE70000C2
:1004000038B501F0BBFC30B1164B00220E211A7238
:100410005A729972DA7201F087FC054601F0BCFC51
:100420000446D0B9104B9D4219D001339D4242F28F
:10043000107512BF044600250124002001F07EFC47
:100440000CB100F079F800F03FFD00F0F7FB284612
:1004500000F002F900F070F8F9E70025EDE7054635
:10046000EBE700BF00220020010007B008B500F054
:10047000B7FBA0F120035842584108BD07B541F22F
:100480001203022101A8ADF8043000F0C7FB03B04D
:100490005DF804FB38B5202383F311881748C3683F
:1004A0000BB101F03BFA0023154A4FF47A7113485F
:1004B00001F0F8F9002383F31188124C236813B17B
:1004C0002368013B2360636813B16368013B636089
:1004D0000D4D2B7833B963687BB9022000F08AFC9C
:1004E000322363602B78032B07D163682BB902207A
:1004F00000F080FC4FF47A73636038BD3022002036
:10050000950400084C23002044220020084B18705A
:1005100003280CD8DFE800F008050208022000F0EC
:100520005FBC022000F052BC024B00225A607047B0
:10053000442200204C230020F8B5414B414A1C4680
:10054000196801317AD004339342F9D162683E4B85
:100550009A4273D93D4B9B6803F1006303F5003366
:100560009A426BD2002000F08FFB0220FFF7CEFFF3
:10057000374B0021D3F8E820C3F8E810D3F8102156
:10058000C3F81011D3F81021D3F8EC20C3F8EC1005
:10059000D3F81421C3F81411D3F81421D3F8F020A0
:1005A000C3F8F010D3F81821C3F81811D3F8183194
:1005B00072B64FF0E023C3F8084DD4E90004BFF34E
:1005C0004F8FBFF36F8F234AC2F88410BFF34F8F52
:1005D000536923F480335361BFF34F8FD2F88030D7
:1005E00043F6E076C3F3C905C3F34E335B0103EA78
:1005F000060C29464CEA81770139C2F87472F9D2A7
:10060000203B13F1200FF2D1BFF34F8FBFF36F8F59
:10061000BFF34F8FBFF36F8F536923F400335361E0
:100620000023C2F85032BFF34F8FBFF36F8F2023E8
:1006300083F31188854680F308882047F8BD00BF02
:100640000000020820000208FFFF0108002200202D
:100650000044025800ED00E02DE9F04F93B0B44B98
:100660002022FF2100900AA89D6800F0D7FBB14A24
:100670001378A3B90121B0481170C360202383F31C
:100680001188C3680BB101F049F90023AB4A4FF45C
:100690007A71A94801F006F9002383F31188009BC1
:1006A00013B1A74B009A1A60A64A1378032B03D004
:1006B00000231370A24A53604FF0000A009CD346F7
:1006C0005646D146012000F08BFB24B19C4B1B68A1
:1006D000002B00F02682002000F082FA0390039B9A
:1006E000002BF2DB012000F071FB039B213B1F2B51
:1006F000E8D801A252F823F079070008A107000802
:1007000035080008C5060008C5060008C50600082B
:10071000C7080008970A0008B1090008130A000872
:100720003B0A0008610A0008C5060008730A0008B1
:10073000C5060008E50A000819080008C5060008F3
:10074000290B00088507000819080008C5060008DD
:10075000130A0008C5060008C5060008C5060008FB
:10076000C5060008C5060008C5060008C50600083D
:10077000C5060008350800080220FFF777FE0028AC
:1007800040F0F981009B022105A8BAF1000F08BFD3
:100790001C4641F21233ADF8143000F03FFA91E7F5
:1007A0004FF47A7000F01CFA071EEBDB0220FFF713
:1007B0005DFE0028E6D0013F052F00F2DE81DFE874
:1007C00007F0030A0D1013360523042105A805932D
:1007D00000F024FA17E004215548F9E704215A48AB
:1007E000F6E704215948F3E74FF01C08404608F1AA
:1007F000040800F04BFA0421059005A800F00EFA59
:10080000B8F12C0FF2D101204FF0000900FA07F7E0
:1008100047EA0B0B5FFA8BFB00F04CFB26B10BF0A9
:100820000B030B2B08BF0024FFF728FE4AE7042127
:100830004748CDE7002EA5D00BF00B030B2BA1D121
:100840000220FFF713FE074600289BD00120002658
:1008500000F01AFA0220FFF759FE5FFA86F84046C8
:1008600000F022FA0446B0B1039940460136A1F1E6
:1008700040025142514100F027FA0028EDD1BA461A
:10088000044641F21213022105A83E46ADF8143089
:1008900000F0C4F916E725460120FFF737FE244B88
:1008A0009B68AB4207D9284600F0F0F9013040F0D0
:1008B00067810435F3E70025224BBA463E461D709A
:1008C0001F4B5D60A8E7002E3FF45CAF0BF00B03FD
:1008D0000B2B7FF457AF0220FFF718FE322000F0F9
:1008E0007FF9B0F10008FFF64DAF18F003077FF471
:1008F00049AF0F4A08EB0503926893423FF642AFB7
:10090000B8F5807F3FF73EAF124BB845019323DD2A
:100910004FF47A7000F064F90390039A002AFFF60E
:1009200031AF039A0137019B03F8012BEDE700BFBC
:1009300000220020482300203022002095040008D7
:100940004C23002044220020042200200822002002
:100950000C22002048220020C820FFF787FD074610
:1009600000283FF40FAF1F2D11D8C5F120020AABAC
:1009700025F0030084494245184428BF42460192AD
:1009800000F042FA019AFF217F4800F047FA4FEA4F
:10099000A803C8F387027C492846019300F046FA71
:1009A000064600283FF46DAF019B05EB830533E756
:1009B0000220FFF75BFD00283FF4E4AE00F0A2F94F
:1009C00000283FF4DFAE0027B846704B9B68BB425F
:1009D00018D91F2F11D80A9B01330ED027F003031B
:1009E00012AA134453F8203C05934046042205A95B
:1009F000043700F0CBFA8046E7E7384600F046F9C6
:100A00000590F2E7CDF81480042105A800F006F95E
:100A100002E70023642104A8049300F0F5F80028FD
:100A20007FF4B0AE0220FFF721FD00283FF4AAAE0C
:100A3000049800F05DF90590E6E70023642104A81E
:100A4000049300F0E1F800287FF49CAE0220FFF749
:100A50000DFD00283FF496AE049800F04BF9EAE74C
:100A60000220FFF703FD00283FF48CAE00F05AF996
:100A7000E1E70220FFF7FAFC00283FF483AE05A966
:100A8000142000F055F907460421049004A800F052
:100A9000C5F83946B9E7322000F0A2F8071EFFF684
:100AA00071AEBB077FF46EAE384A07EB090392685C
:100AB00093423FF667AE0220FFF7D8FC00283FF4D0
:100AC00061AE27F003074F44B9453FF4A5AE484651
:100AD00009F1040900F0DAF80421059005A800F0F6
:100AE0009DF8F1E74FF47A70FFF7C0FC00283FF45F
:100AF00049AE00F007F9002844D00A9B01330BD01F
:100B000008220AA9002000F091F900283AD02022FA
:100B1000FF210AA800F082F9FFF7B0FC1C4800F0A2
:100B20008BFE13B0BDE8F08F002E3FF42BAE0BF020
:100B30000B030B2B7FF426AE0023642105A805933D
:100B400000F062F8074600287FF41CAE0220FFF791
:100B50008DFC804600283FF415AEFFF78FFC41F274
:100B6000883000F069FE059800F0BAF946463C4628
:100B700000F0A0F9A6E506464EE64FF0000901E6B2
:100B8000BA467EE637467CE6482200200022002056
:100B9000A08601000F4B70B51B780C460133DBB209
:100BA000012B11D80C4D4FF47A732968A2FB033244
:100BB00022460E6A01462846B047844204D1074BBC
:100BC000002201201A7070BD4FF4FA7000F034FE5C
:100BD0000020F8E7102200209C230020982300200A
:100BE000002307B5024601210DF107008DF80730FB
:100BF000FFF7D0FF20B19DF8070003B05DF804FBBC
:100C00004FF0FF30F9E700000A46042108B5FFF76E
:100C1000C1FF80F00100C0B2404208BD30B4054CB5
:100C20000A46014623682046DD69034BAC4630BCCA
:100C3000604700BF9C230020A086010070B5104CC7
:100C40000025104E00F048FF208030682388834242
:100C50000CD800252088013800F03AFF238805448D
:100C6000013BB5F5802F2380F4D370BD00F030FF39
:100C7000336805440133B5F5003F3360E5D3E8E759
:100C80009A2300205423002001F004B800F10060F2
:100C900000F500300068704700F10060920000F538
:100CA000003000F07BBF0000054B1A68054B1B8825
:100CB0009B1A834202D9104400F00ABF00207047FB
:100CC000542300209A23002038B50446074D29B14B
:100CD00028682044BDE8384000F012BF286820444E
:100CE00000F0FCFE0028F3D038BD00BF54230020E4
:100CF0000020704700F1FF5000F58F10D0F8000879
:100D000070470000064991F8243033B100230822CF
:100D1000086A81F82430FFF7BFBF0120704700BF89
:100D200058230020014B1868704700BF0010005C7A
:100D3000244BF0B51A680446234BC2F30B06120C81
:100D40001F885868BE4293F9085028D09F89BE4238
:100D500006D101200C2505FB0033586893F9085093
:100D600041F201039A421CD041F203039A421AD085
:100D700042F201039A4218D042F203039A4208BF9A
:100D80005625621E0B46441E0A4493420FD214F9A4
:100D9000016F581C6EB1034600F8016CF5E70020A6
:100DA000D8E75A25EDE75925EBE75825E9E7184636
:100DB00005E02C2482421C7001D9981C5D70401AF9
:100DC000F0BD00BF0010005C14220020022803D1F7
:100DD000024B4FF080629A61704700BF000C0258CE
:100DE000022803D1024B4FF480629A61704700BF22
:100DF000000C0258022804D1024A536983F480632C
:100E000053617047000C0258002310B5934203D081
:100E1000CC5CC4540133F9E710BD00000244034622
:100E2000934202D003F8011BFAE770472DE9F8431B
:100E30001F4D14460746884695F8242052BBDFF81C
:100E400070909CB395F824302BB92022FF2148469E
:100E50002F62FFF7E3FF95F824004146C0F1080236
:100E600005EB8000A24228BF2246D6B29200FFF7CF
:100E7000CBFF95F82430A41B17441E449044E4B2E1
:100E8000F6B2082E85F82460DBD1FFF73BFF00287F
:100E9000D7D108E02B6A03EB82038342CFD0FFF760
:100EA00031FF0028CBD10020BDE8F8830120FBE70B
:100EB00058230020024B1A78024B1A70704700BF6B
:100EC00098230020102200200249034B03480B60A6
:100ED00000F058BB8023002080841E009C2300204B
:100EE000074B0021182210B504461846FFF796FF5D
:100EF000014604600348BDE8104000F043BB00BF5A
:100F0000802300209C23002000B59BB0EFF30981D3
:100F100068226846FFF778FFEFF30583044B9A6B6E
:100F2000DA6A9A6A9A6A9A6A9A6A9A6A9B6AFEE77F
:100F300000ED00E000B59BB0EFF309816822684640
:100F4000FFF762FFEFF30583044B9A6B9A6A9A6A84
:100F50009A6A9A6A9A6A9B6AFEE700BF00ED00E00F
:100F600000B59BB0EFF3098168226846FFF74CFF9C
:100F7000EFF30583034B5A6B9A6A9A6A9A6A9A6AE4
:100F80009B6AFEE700ED00E0FEE7000030B50A4492
:100F9000084D91420DD011F8013B5840082340F311
:100FA0000004013B2C4013F0FF0384EA5000F6D10B
:100FB000EFE730BD2083B8ED02684368114301605C
:100FC00003B1184770470000024A136843F0C0039A
:100FD0001360704700780040024A136843F0C00372
:100FE00013607047007C004037B51A4C1A4D2046FC
:100FF00000F0BCFA04F11400009400234FF40072D6
:10100000164900F07DF94FF40072154904F13800DB
:101010000094144B00F0F6F9134BC4E91735134C48
:10102000204600F0A3FA04F1140000234FF40072EC
:101030000F49009400F064F90E4B4FF400720E4912
:1010400004F13800009400F0DDF90C4BC4E91735C9
:1010500003B030BD9C23002000E1F505742400207E
:1010600074280020C90F00080078004008240020E0
:1010700074260020D90F0008742A0020007C00404C
:10108000037C30B52B4C002918BF0C46012B11D125
:10109000294B98423BD1294BD3F8E82042F08042BB
:1010A000C3F8E820D3F8102142F08042C3F81021A1
:1010B000D3F810312268036EC16D03EB52038466CE
:1010C000B3FBF2F36268150442BF23F0070503F097
:1010D000070343EA4503CB60A36843F040034B603A
:1010E000E36843F001038B6042F4967343F001031D
:1010F0000B604FF0FF330B62510505D512F0102243
:1011000014D0B2F1805F13D080F8643030BD0C4B46
:101110009842CFD1094BD3F8E82042F00042C3F8FF
:10112000E820D3F8102142F00042BFE77F23EBE72D
:101130003F23E9E7FC2600089C23002000440258D6
:10114000082400202DE9F047C66D05463768F4698C
:101150002107346219D014F0080118BF8021E2077A
:1011600048BF41F02001A3074FF0200348BF41F0E2
:101170004001600748BF41F4807183F31188281D46
:10118000FFF71AFF002383F31188E2050AD5202315
:1011900083F311884FF40071281DFFF70DFF002322
:1011A00083F311884FF020094FF0000A14F0200853
:1011B00038D13B0616D54FF0200905F1380A200634
:1011C00010D589F31188504600F050F9002836DA1E
:1011D0000821281DFFF7F0FE27F08003336000236D
:1011E00083F31188790614D5620612D5202383F380
:1011F0001188D5E913239A4208D12B6C33B127F01B
:1012000040071021281DFFF7D7FE3760002383F326
:101210001188E30618D5AA6E1369ABB15069BDE811
:10122000F047184789F31188736A284695F86410C7
:10123000194000F0B5F98AF31188F469B6E7B06295
:1012400088F31188F469BAE7BDE8F087F8B5154668
:10125000826804460B46AA4200D28568A1692669C5
:10126000761AB5420BD218462A46FFF7CDFDA36980
:101270002B44A3612846A3685B1BA360F8BD0CD96F
:10128000AF1B18463246FFF7BFFD3A46E1683044CF
:10129000FFF7BAFDE3683B44EBE718462A46FFF741
:1012A000B3FDE368E5E7000083689342F7B50446C1
:1012B000154600D28568D4E90460361AB5420BD2CF
:1012C0002A46FFF7A1FD63692B4463612846A368A2
:1012D0005B1BA36003B0F0BD0DD93246AF1B01917B
:1012E000FFF792FD01993A46E0683144FFF78CFD23
:1012F000E3683B44E9E72A46FFF786FDE368E4E755
:1013000010B50A440024C361029B8460C16002617D
:101310000362C0E90000C0E9051110BD08B5D0E9BD
:101320000532934201D1826882B9826801328260BB
:101330005A1C426119700021D0E904329A4224BF3C
:10134000C368436100F094FA002008BD4FF0FF30FD
:10135000FBE7000070B5202304460E4683F3118896
:10136000A568A5B1A368A269013BA360531CA36152
:1013700015782269934224BFE368A361E3690BB146
:1013800020469847002383F31188284607E031461A
:10139000204600F05DFA0028E2DA85F3118870BD7E
:1013A0002DE9F74F04460E4617469846D0F81C9094
:1013B0004FF0200A8AF311884FF0000B154665B1F3
:1013C0002A4631462046FFF741FF034660B94146B1
:1013D000204600F03DFA0028F1D0002383F3118865
:1013E000781B03B0BDE8F08FB9F1000F03D0019076
:1013F0002046C847019B8BF31188ED1A1E448AF3DF
:101400001188DCE7C160C361009B82600362C0E9B0
:1014100005111144C0E9000001617047F8B50446A8
:101420000D461646202383F31188A768A7B1A36849
:10143000013BA36063695A1C62611D70D4E90432E8
:101440009A4224BFE3686361E3690BB12046984781
:10145000002080F3118807E03146204600F0F8F9BB
:101460000028E2DA87F31188F8BD0000D0E90523EF
:1014700010B59A4201D182687AB98268002101329E
:1014800082605A1C82611C7803699A4224BFC36837
:10149000836100F0EDF9204610BD4FF0FF30FBE70F
:1014A0002DE9F74F04460E4617469846D0F81C9093
:1014B0004FF0200A8AF311884FF0000B154665B1F2
:1014C0002A4631462046FFF7EFFE034660B9414603
:1014D000204600F0BDF90028F1D0002383F31188E5
:1014E000781B03B0BDE8F08FB9F1000F03D0019075
:1014F0002046C847019B8BF31188ED1A1E448AF3DE
:101500001188DCE7026843681143016003B11847A2
:10151000704700001430FFF743BF00004FF0FF3367
:101520001430FFF73DBF00003830FFF7B9BF0000AF
:101530004FF0FF333830FFF7B3BF00001430FFF730
:1015400009BF00004FF0FF311430FFF703BF000068
:101550003830FFF763BF00004FF0FF323830FFF73D
:101560005DBF000000207047FFF73EBD044B0360E5
:1015700000234360C0E9023301230374704700BFB6
:101580001427000810B52023044683F31188FFF7C1
:1015900077FD02232374002383F3118810BD00001C
:1015A00038B5C36904460D461BB904210844FFF74A
:1015B000A9FF294604F11400FFF7B0FE002806DA5F
:1015C000201D4FF48061BDE83840FFF79BBF38BD58
:1015D000024B0022C3E900339A607047742C00204C
:1015E000002382680374054B1B6899689142FBD203
:1015F0005A6803604260106058607047742C002085
:1016000008B5202383F31188037C032B05D0042B1A
:101610000DD02BB983F3118808BD436900221A60ED
:101620004FF0FF334361FFF7DBFF0023F2E7D0E920
:10163000003213605A60F3E7002382680374054B9D
:101640001B6899689142FBD85A6803604260106039
:1016500058607047742C0020054B1969087418688D
:10166000026853601A60186101230374FEF7AEBE6E
:10167000742C00204B1C30B5044687B00A4D10D0A6
:101680002B6901A8094A00F00DF92046FFF7E4FF95
:10169000049B13B101A800F041F92B69586907B008
:1016A00030BDFFF7D9FFF8E7742C002001160008C1
:1016B00038B50C4D044641612B6981689A689142A6
:1016C00003D8BDE83840FFF78BBF1846FFF7B4FFDB
:1016D00001232C61014623742046BDE83840FEF703
:1016E00075BE00BF742C0020044B1A681B699068FB
:1016F0009B68984294BF002001207047742C002002
:1017000010B5084C236820691A68546022600122D1
:1017100023611A74FFF790FF01462069BDE810406D
:10172000FEF754BE742C002008B5FFF7DDFF18B19A
:10173000BDE80840FFF7E4BF08BD0000FFF7E0BFC9
:10174000FEE7000010B50C4CFFF742FF00F09CF8DC
:1017500080220A49204600F031F8012344F8180C91
:10176000037400F033FB002383F3118862B604484E
:10177000BDE8104000F042B89C2C00203C27000837
:101780004C27000800F004B9EFF3118020B9EFF303
:101790000583202282F311887047000010B530B90C
:1017A000EFF30584C4F3080414B180F3118810BD6D
:1017B000FFF7BAFF84F31188F9E700008260022284
:1017C000028270478368A3F17C0243F80C2C026903
:1017D00043F83C2C426943F8382C074A43F81C2C48
:1017E000C268A3F1180043F8102C022203F8082C59
:1017F000002203F8072C7047E503000810B52023EA
:1018000083F31188FFF7DEFF00210446FFF750FF46
:10181000002383F31188204610BD0000024B1B6992
:1018200058610F20FFF718BF742C0020202383F38A
:101830001188FFF7F3BF000008B50146202383F3AA
:1018400011880820FFF716FF002383F3118808BDD5
:1018500049B1064B42681B6918605A6013604360C7
:101860000420FFF707BF4FF0FF307047742C0020B3
:101870000368984206D01A680260506018465961A1
:10188000FFF7AEBE70470000054B4FF0FF3103F18C
:101890001402C3E905220022C3E90712704700BF02
:1018A000742C002070B51C4E05460C46C0E903237D
:1018B00000F054FB334653F8142F9A420DD1306296
:1018C0000A2C2CBF00190A302A60C5E90124C6E998
:1018D0000555BDE8704000F02BBB316A431AE31890
:1018E00038BF1C469368A34202D9081900F030FBA8
:1018F00073699A6894420CD85A68AC602B606A602D
:1019000015609A685D60121B9A604FF0FF33F361B7
:1019100070BDA41A1B68ECE7742C002038B51B4C72
:10192000636998420DD08168D0E9003213605A6033
:101930000022C2609A680A449A604FF0FF33E36164
:1019400038BD03682246002142F8143F93425A6092
:10195000C16003D1BDE8384000F0F4BA9A688168EC
:10196000256A0A449A6000F0F9FA6369411B9A6893
:101970008A42E5D9AB181D1A206A092D98BF01F1DA
:101980000A02BDE83840104400F0E2BA742C00208E
:101990002DE9F041184C002704F11406656900F0A8
:1019A000DDFA236AAA68C11A8A4215D81344D5F809
:1019B0000C802362D5E9003213605A606369EF60DE
:1019C000B34201D100F0BEFA87F311882869C047FD
:1019D000202383F31188E1E76169B14209D0134400
:1019E0001B1ABDE8F0410A2B2CBFC0180A3000F0CA
:1019F000AFBABDE8F08100BF742C00200020704712
:101A0000FEE70000704700004FF0FF307047000015
:101A1000BFF34F8F044B1A695107FCD1D3F8102143
:101A20005207F8D1704700BF0020005208B50D4B97
:101A30001B78ABB9FFF7ECFF0B4BDA68D10704D585
:101A40000A4A5A6002F188325A60D3F80C21D20750
:101A500006D5064AC3F8042102F18832C3F80421EE
:101A600008BD00BF302E0020002000522301674532
:101A700008B5114B1B78F3B9104B1A69510703D500
:101A8000DA6842F04002DA60D3F81021520705D537
:101A9000D3F80C2142F04002C3F80C21FFF7B8FF45
:101AA000064BDA6842F00102DA60D3F80C2142F00A
:101AB0000102C3F80C2108BD302E00200020005286
:101AC0000F289ABF00F58060400400207047000096
:101AD0004FF4003070470000102070470F2808B501
:101AE0000BD8FFF7EDFF00F500330268013204D197
:101AF00004308342F9D1012008BD0020FCE700003A
:101B00000F2870B5054645D8FFF73EFE224CFFF77B
:101B10007FFF0646FFF78AFF4FF0FF33072D636113
:101B2000C4F8143120D82361FFF772FF2B0243F071
:101B30002403E360E36843F08003E36023695A070A
:101B4000FCD42846FFF764FF4FF40031FFF7B8FFDD
:101B500000F002F93046FFF78BFFFFF71FFE284623
:101B6000BDE87040FFF7BABFC4F81031FFF750FF6F
:101B7000A5F108031B0243F02403C4F80C31D4F888
:101B80000C3143F08003C4F80C31D4F810315B07FA
:101B9000FBD4D6E7002070BD002000522DE9F84F9D
:101BA00040EA020305460C461746D80602D000203C
:101BB000BDE8F88F27F01F07DFF8D4B0FFF736FF36
:101BC0002744BC4203D10120FFF752FFF0E7202257
:101BD0002946204600F074FD10B920352034F0E786
:101BE0002B4605F120021E68711CE0D104339A4295
:101BF000F9D1FFF7C9FD05F17843234AB3F5801FFA
:101C0000224B28BF9A4603F1040338BF9046A2F145
:101C1000080228BF9846A3F108033ABF9146DA4666
:101C20009946FFF7F5FEC8F80060A5EB040CD9F85B
:101C3000002004F11C0142F00202C9F80020221F1A
:101C4000DAF8006016F00506FAD152F8043F8A422D
:101C50004CF80230F4D1BFF34F8FFFF7D9FE4FF0AD
:101C6000FF32C8F80020D9F8002022F00202C9F89B
:101C70000020FFF793FD20222146284600F020FD9A
:101C80000028AAD030469FE71420005210210052AD
:101C90001020005210B5084C237828B11BB9FFF76B
:101CA000C5FE0123237010BD002BFCD02070BDE8C1
:101CB0001040FFF7DDBE00BF302E00200244074B6E
:101CC000D2B210B5904200D110BD441C00B253F8FE
:101CD000200041F8040BE0B2F4E700BF5040005888
:101CE0000E4B30B51C6F240405D41C6F1C671C6F91
:101CF00044F400441C670A4C02442368D2B243F403
:101D000080732360074B904200D130BD441C51F8D2
:101D1000045B00B243F82050E0B2F4E700440258FC
:101D2000004802585040005807B5012201A9002080
:101D3000FFF7C4FF019803B05DF804FB13B5044638
:101D4000FFF7F2FFA04205D0012201A90020019473
:101D5000FFF7C6FF02B010BD0144BFF34F8F064B23
:101D6000884204D3BFF34F8FBFF36F8F7047C3F820
:101D70005C022030F4E700BF00ED00E00020704777
:101D8000034B1A681AB9034AD2F8D0241A60704774
:101D9000342E00200040025808B5FFF7F1FF024B37
:101DA0001868C0F3806008BD342E0020EFF309836B
:101DB000054968334A6B22F001024A6383F30988BC
:101DC000002383F31188704700EF00E0202080F3A8
:101DD000118862B60D4B0E4AD96821F4E0610904FE
:101DE000090C0A430B49DA60D3F8FC2042F08072F8
:101DF000C3F8FC20084AC2F8B01F116841F0010185
:101E000011601022DA7783F82200704700ED00E0BD
:101E10000003FA0555CEACC5001000E0202310B534
:101E200083F311880E4B5B6813F4006314D0F1EE5A
:101E3000103AEFF309844FF08073683CE361094B7B
:101E4000DB6B236684F30988FFF74EFC10B1064B69
:101E5000A36110BD054BFBE783F31188F9E700BFD1
:101E600000ED00E000EF00E0F7030008FA030008CF
:101E700070B5BFF34F8FBFF36F8F1A4A0021C2F8BE
:101E80005012BFF34F8FBFF36F8F536943F400338A
:101E90005361BFF34F8FBFF36F8FC2F88410BFF34E
:101EA0004F8FD2F8803043F6E074C3F3C900C3F318
:101EB0004E335B0103EA0406014646EA81750139A7
:101EC000C2F86052F9D2203B13F1200FF2D1BFF3D8
:101ED0004F8F536943F480335361BFF34F8FBFF388
:101EE0006F8F70BD00ED00E0FEE700000A4B0B486D
:101EF0000B4A90420BD30B4BC11EDA1C121A22F074
:101F000003028B4238BF00220021FEF787BF53F83F
:101F1000041B40F8041BECE7C4280008B82E00207E
:101F2000B82E0020B82E00207047000000F0D8B86E
:101F3000034B002258631A610222DA60704700BF27
:101F4000000C0040014B0022DA607047000C00409A
:101F5000014B5863704700BF000C0040014B586AAA
:101F6000704700BF000C00404B6843608B68836083
:101F7000CB68C3600B6943614B6903628B69436241
:101F80000B6803607047000008B53C4B40F2FF71DE
:101F90003B48D3F888200A43C3F88820D3F8882028
:101FA00022F4FF6222F00702C3F88820D3F88820C9
:101FB000D3F8E0200A43C3F8E020D3F808210A430D
:101FC000C3F808212F4AD3F808311146FFF7CCFF98
:101FD00000F5806002F11C01FFF7C6FF00F580608C
:101FE00002F13801FFF7C0FF00F5806002F15401F3
:101FF000FFF7BAFF00F5806002F17001FFF7B4FF50
:1020000000F5806002F18C01FFF7AEFF00F5806003
:1020100002F1A801FFF7A8FF00F5806002F1C401FA
:10202000FFF7A2FF00F5806002F1E001FFF79CFFDF
:1020300000F5806002F1FC01FFF796FF02F58C715C
:1020400000F58060FFF790FF00F0FEF80E4BD3F82C
:10205000902242F00102C3F89022D3F8942242F079
:102060000102C3F894220522C3F898204FF0605271
:10207000C3F89C20054AC3F8A02008BD00440258BC
:10208000000002586427000800ED00E01F0008036C
:1020900008B500F0F9FAFFF755FB0E4BD3F8DC203A
:1020A00042F04002C3F8DC20D3F8042122F04002C1
:1020B000C3F80421D3F80431074B1A6842F0080230
:1020C0001A601A6842F004021A60BDE80840FFF77F
:1020D00057BE00BF00440258001802487047000075
:1020E000114BD3F8E82042F00802C3F8E820D3F8F7
:1020F000102142F00802C3F810210C4AD3F8103125
:10210000D36B43F00803D363C722094B9A624FF0A5
:10211000FF32DA6200229A615A63DA605A60012261
:102120005A611A60704700BF004402580010005CFA
:10213000000C0040094A08B51169D3680B40D9B2B8
:102140009B076FEA0101116107D5202383F31188F2
:10215000FFF718FB002383F3118808BD000C004033
:10216000384B4FF0FF31D3F88020C3F88010D3F8FC
:1021700080200022C3F88020D3F88000D3F88400A8
:10218000C3F88410D3F88400C3F88420D3F8840003
:10219000D86F40F0FF4040F4FF0040F43F5040F063
:1021A0003F00D867D86F20F0FF4020F4FF0020F4F4
:1021B0003F5020F03F00D867D86FD3F888006FEA0F
:1021C00040506FEA5050C3F88800D3F88800C0F33D
:1021D0000A00C3F88800D3F88800D3F89000C3F849
:1021E0009010D3F89000C3F89020D3F89000D3F863
:1021F0009400C3F89410D3F89400C3F89420D3F853
:102200009400D3F89800C3F89810D3F89800C3F856
:102210009820D3F89800D3F88C00C3F88C10D3F82A
:102220008C00C3F88C20D3F88C00D3F89C00C3F842
:102230009C10D3F89C10C3F89C20D3F89C3000F07D
:10224000DDB900BF00440258614B0122C3F80821E8
:10225000604BD3F8F42042F00202C3F8F420D3F824
:102260001C2142F00202C3F81C210422D3F81C31C5
:10227000594BDA605A689104FCD5584A1A60012219
:102280009A60574ADA6000221A614FF440429A611C
:10229000514B9A699204FCD51A6842F480721A6014
:1022A0004C4B1A6F12F4407F04D04FF480321A67FF
:1022B00000221A671A6842F001021A60454B1A6838
:1022C0005007FCD500221A611A6912F03802FBD1BE
:1022D000012119604FF0804159605A67414ADA6222
:1022E000414A1A611A6842F480321A60394B1A68FE
:1022F0009103FCD51A6842F480521A601A6892045D
:10230000FCD53A4A3A499A6200225A63196339491C
:10231000DA6399635A64384A1A64384ADA621A6886
:1023200042F0A8521A602B4B1A6802F02852B2F100
:10233000285FF9D148229A614FF48862DA6140221D
:102340001A622F4ADA644FF080521A652D4A5A6594
:102350002D4A9A6532232D4A1360136803F00F0348
:10236000022BFAD11B4B1A6942F003021A611A6957
:1023700002F03802182AFAD1D3F8DC2042F00052D9
:10238000C3F8DC20D3F8042142F00052C3F8042142
:10239000D3F80421D3F8DC2042F08042C3F8DC20DB
:1023A000D3F8042142F08042C3F80421D3F8042179
:1023B000D3F8DC2042F00042C3F8DC20D3F804213B
:1023C00042F00042C3F80421D3F80431704700BF43
:1023D00000800051004402580048025800C000F03C
:1023E000040000010000FF01008890083220600016
:1023F000630209011D02040047040508FD0BFF01EB
:10240000200000200010E000000101000020005228
:102410004FF0B04208B5D2F8883003F00103C2F89B
:10242000883023B1044A13680BB150689847BDE85F
:102430000840FFF7F3BC00BF382E00204FF0B04239
:1024400008B5D2F8883003F00203C2F8883023B10F
:10245000044A93680BB1D0689847BDE80840FFF77D
:10246000DDBC00BF382E00204FF0B04208B5D2F8D6
:10247000883003F00403C2F8883023B1044A13699A
:102480000BB150699847BDE80840FFF7C7BC00BFD3
:10249000382E00204FF0B04208B5D2F8883003F053
:1024A0000803C2F8883023B1044A93690BB1D0699C
:1024B0009847BDE80840FFF7B1BC00BF382E0020A8
:1024C0004FF0B04208B5D2F8883003F01003C2F8DC
:1024D000883023B1044A136A0BB1506A9847BDE8AB
:1024E0000840FFF79BBC00BF382E00204FF0B043E0
:1024F00010B5D3F8884004F47872C3F88820A30696
:1025000004D5124A936A0BB1D06A9847600604D585
:102510000E4A136B0BB1506B9847210604D50B4A3A
:10252000936B0BB1D06B9847E20504D5074A136C47
:102530000BB1506C9847A30504D5044A936C0BB1BA
:10254000D06C9847BDE81040FFF768BC382E0020DB
:102550004FF0B04310B5D3F8884004F47C42C3F880
:102560008820620504D5164A136D0BB1506D98474B
:10257000230504D5124A936D0BB1D06D9847E00442
:1025800004D50F4A136E0BB1506E9847A10404D5C1
:102590000B4A936E0BB1D06E9847620404D5084A7B
:1025A000136F0BB1506F9847230404D5044A936FFF
:1025B0000BB1D06F9847BDE81040FFF72FBC00BFAC
:1025C000382E002008B50348FEF7BCFDBDE80840E2
:1025D000FFF724BC9C23002008B50348FEF7B2FD9A
:1025E000BDE80840FFF71ABC0824002008B5FFF733
:1025F000A1FDBDE80840FFF711BC0000062108B5A9
:10260000084600F02BF80621072000F027F80621E5
:10261000082000F023F80621092000F01FF8062109
:102620000A2000F01BF80621172000F017F80621F9
:10263000282000F013F809217A2000F00FF8072174
:10264000322000F00BF80C21522000F007F80C218A
:102650005320BDE8084000F001B80000090100F176
:102660006043012203F56143C9B283F8001300F00F
:102670001F039A4043099B0003F1604303F5614344
:10268000C3F880211A60704708B5FFF769FD00F0B4
:1026900009F8FEF769FFFFF721FDBDE80840FFF7E5
:1026A00045BC00000023054A19460133102BC2E93E
:1026B000001102F10802F8D1704700BF382E002047
:1026C00010B501390244904201D1002005E00378A1
:1026D00011F8014FA34201D0181B10BD0130F2E7E1
:1026E00053544D333248373F3F3F0053544D3332FC
:1026F000483734332F373533000000000096000090
:1027000000000000000000000000000000000000C9
:102710000000000000000000311500081D15000831
:102720005915000845150008511500083D15000809
:102730002915000815150008651500086D61696EFA
:102740000000000069646C65000000004427000878
:10275000B82C0020302E0020010000004117000896
:10276000000000000000002800000000AAAAAAAA99
:1027700000000024FFFF0000000000000000000037
:102780000000000000000000AAAAAAAA00000000A1
:10279000FFFF00000000000000000000000000003B
:1027A00000000000AAAAAAAA00000000FFFF000083
:1027B0000000000000000000000010000000000009
:1027C000AAAAAAAA00000000FFFF00000000000063
:1027D000000000000A80020000000000AAAAAAAAC5
:1027E00005400100FFFF00008800007007000000A6
:1027F0000000000000000000AAAAAAAA0000000031
:10280000FFFF0000000000000000000000000000CA
:1028100000000000AAAAAAAA00000000FFFF000012
:1028200000000000000000000000000000000000A8
:10283000AAAAAAAA00000000FFFF000000000000F2
:10284000000000000000000000000000AAAAAAAAE0
:1028500000000000FFFF000000000000000000007A
:102860000000000000000000AAAAAAAA00000000C0
:10287000FFFF00000000000000000000000000005A
:1028800000000000AAAAAAAA00000000FFFF0000A2
:1028900000000000000000002E0400000000000006
:1028A00000001A0000000000FF000000000000000F
:1028B000E02600083F00000050040000EB2600085E
:0428C0003F000000D5
:00000001FF
