:020000040800F2
:100000000002002071040008730400087204000854
:1000100072040008720400087204000872040008E8
:10002000720400087204000872040008D91700085E
:100030007204000872040008720400081D20000801
:1000400072040008720400087204000872040008B8
:1000500072040008720400084919000875190008A4
:10006000A1190008CD190008F91900087204000848
:100070007204000872040008720400087204000888
:10008000720400087204000872040008C51D00080C
:10009000351E0008951E0008F51E0008251A0008E8
:1000A0007204000872040008720400087204000858
:1000B0007204000872040008720400087204000848
:1000C0007204000872040008720400087204000838
:1000D00072040008AD0E0008C10E0008720400088A
:1000E0008D1A0008720400087204000872040008E7
:1000F0007204000872040008720400087204000808
:1001000072040008720400087204000872040008F7
:1001100072040008720400087204000872040008E7
:1001200072040008720400087204000872040008D7
:1001300072040008720400087204000872040008C7
:1001400072040008720400087204000872040008B7
:1001500072040008720400087204000872040008A7
:1001600053B94AB9002908BF00281CBF4FF0FF311E
:100170004FF0FF3000F07AB9ADF1080C6DE904CE14
:1001800000F006F8DDF804E0DDE9022304B0704772
:100190002DE9F0478C460E460446089D002B50D1B1
:1001A0008A4217466CD9B2FA82FEBEF1000F0BD01C
:1001B000CEF1200C01FA0EF620FA0CFC02FA0EF732
:1001C0004CEA060C00FA0EF43A0CBCFBF2F9BBB296
:1001D00002FB19CC09FB03FA4FEA144848EA0C4623
:1001E000B2450AD9F61909F1FF3180F02581B245EF
:1001F00040F22281A9F102093E44A6EB0A06B6FBB1
:10020000F2F002FB106600FB03F3A4B244EA0644DA
:10021000A34209D9E41900F1FF3280F00B81A34217
:1002200040F2088102383C440021E41A40EA0940C7
:10023000002D62D0002324FA0EF42C606B60BDE820
:10024000F0878B4207D9002D55D0002185E8410069
:100250000846BDE8F087B3FA83F1002940F08F80AB
:10026000B34202D3824200F2FC80841A66EB03069A
:100270000120B446002D40D085E81010BDE8F0877D
:1002800012B90127B7FBF2F7B7FA87FEBEF1000FEC
:1002900035D10121F61B4FEA174C1FFA87F8B6FB40
:1002A000FCF20CFB126608FB02F0230C43EA064644
:1002B000B04207D9F61902F1FF3302D2B04200F280
:1002C000D2801A46361AB6FBFCF00CFB106608FB0F
:1002D00000F8A3B243EA0644A04507D9E41900F1A7
:1002E000FF3302D2A04500F2B9801846A4EB0804FF
:1002F00040EA02409CE729462846BDE8F08707FA15
:100300000EF7CEF1200326FA03F24FEA174CB2FBA8
:10031000FCF11FFA87F80CFB112206FA0EF620FA00
:1003200003F301FB08F933431E0C46EA0246B145CC
:1003300000FA0EF409D9F61901F1FF3280F08C8031
:10034000B14540F2898002393E44A6EB0906B6FB6E
:10035000FCF00CFB106200FB08F99EB246EA024674
:10036000B14507D9F61900F1FF3371D2B1456FD904
:1003700002383E44A6EB090640EA01418FE7C1F18D
:10038000200722FA07F88B4048EA030326FA07F40D
:100390004FEA134EB4FBFEF91FFA83FC0EFB19441F
:1003A0008E4020FA07F809FB0CFA48EA06084FEAE3
:1003B000184646EA0444A24502FA01F200FA01F6A0
:1003C00008D9E41809F1FF3044D2A24542D9A9F175
:1003D00002091C44A4EB0A04B4FBFEF00EFB10441B
:1003E00000FB0CFC1FFA88F848EA0444A44507D92E
:1003F000E41800F1FF3E29D2A44527D902381C4455
:1004000040EA0940A0FB0289A4EB0C0CCC45C24693
:10041000CE4615D312D055B1B6EB0A036CEB0E06DF
:1004200006FA07F7CB401F43CE402F606E600021D5
:10043000BDE8F0871046F7E68946DEE64645EAD293
:10044000B8EB020A69EB030E0138E4E77046D7E720
:1004500018468FE78146BDE7114676E702383C44EF
:1004600044E7084606E7023A3E442BE7704700BFE0
:1004700002E000F000F8FEE772B6274880F3088833
:10048000264880F3098826484EF60851CEF200012E
:100490000860022080F31488BFF36F8F01F0CCF95D
:1004A00001F0E8F94FF055301E491B4A91423CBF1C
:1004B00041F8040BFAE71C49184A91423CBF41F845
:1004C000040BFAE719491A4A1A4B9A423EBF51F8EF
:1004D000040B42F8040BF8E700201749174A914231
:1004E0003CBF41F8040BFAE701F0AAF901F0C4F9A6
:1004F000134C144DAC4203DA54F8041B8847F9E757
:1005000000F03AF8104C114DAC4203DA54F8041BD9
:100510008847F9E701F092B90002002000080020A6
:100520000000000800000020000200201821000840
:100530000008002004080020080800207010002097
:100540006001000860010008600100086001000807
:100550002DE9F04FC1F80CD0C3689D46BDE8F08F7F
:10056000002383F311882846A047002001F006F8F5
:1005700000F0B6FF00DFFEE7032108B50D4B0022B7
:1005800019706FF05F015A709A70DA701A715A71AF
:100590009A71DA711A7259729A72DA7200F0CAFBA1
:1005A00000F028FB41F2883000F084F800F044F8B5
:1005B000F8E700BF0808002008B500F0A7FAA0F18E
:1005C00020035842584108BD07B5054B02211B883E
:1005D00001A8ADF8043000F0FFFA03B05DF804FBA9
:1005E0005820000810B51048C3680BB101F02AF874
:1005F0000E4C00230E4A01210B4801F009F8236834
:1006000013B12368013B2360636813B16368013B46
:100610006360084B1B7833B9636823B9022000F08C
:100620006BFB3223636010BD140800202C0D0020EA
:10063000E50500082808002038B5174C2368013369
:1006400028D0164D164B2A689A4223D9154B9B6821
:1006500003F1006303F5C0439A421BD2002000F06F
:10066000E3FA0220104B187000F044FB0F4BDA69DC
:100670000022DA61D96999699A619B6972B60C4B5B
:1006800020211C6023682A6881F311889D4683F32A
:100690000888104738BD00BF0060000804600008EB
:1006A000FF5F000808080020280800200010024012
:1006B00008ED00E000222DE9F04FB34B8246B3482D
:1006C0009C688FB0C260202282F31188C2680093B8
:1006D0000AB100F0B7FF0023AD4A0121AB4800F09A
:1006E00097FF002383F31188DFF8C0B2BAF1000F3F
:1006F00001D0CBF800A000254FF0FF382E46A54FC3
:10070000CBF804303B70012000F0F4FABAF1000F8E
:1007100000F0C181DBF80030002B40F0BC810FB04D
:10072000BDE8F08F0220FFF747FF002840F0AF81BF
:10073000994B1B88022109A8ADF8243000F04CFA2F
:10074000E1E74FF47A7000F0E1F9031E0193EFDB6B
:100750000220FFF731FF81460028E9D0019B581E97
:100760000428E5D8DFE800F003101316190005236C
:1007700004210EA840F8143D00F02EFA4D4600F07A
:10078000CFFAFFF721FF7FE104217F48F4E704213E
:100790008248F1E704218248EEE71C25284600F054
:1007A00045FA04350990042109A800F015FA2C2D0A
:1007B000F4D1E3E7002EBBD0002DB9D00220FFF723
:1007C000FBFE064610B901252E46B1E7012000F0D8
:1007D0002BFA02200025387000F08CFA5FFA85F9B8
:1007E000484600F039FA0135044618B1484600F091
:1007F00043FAF3E7012302203B7000F079FA009BF3
:100800009B689C4207D2204600F010FA013040F06D
:1008100040810434F3E700243C70CBF804403546B3
:10082000ADE7002E84D0002D82D00220387000F079
:1008300061FA322000F06AF9051EC4DB15F00306E8
:10084000C1D1009A631992689342BCD8B5F5807FF4
:10085000B9D8DFF85091AE420CDA4FF47A7000F05C
:1008600055F90390039B002BADDB039B06F8093081
:100870000136F0E7C820FFF79FFE06460028A2D009
:100880002CB94FF0FF32474BD3F800801A60454B2C
:1008900025F003052544A3EB0409AC42BFD059F869
:1008A0000410204600F0C8F9204600F0BFF959F8BE
:1008B0000430984240F0ED800434EEE70220FFF768
:1008C0007BFE00283FF434AF4FF0000AD146009B76
:1008D0009B689A4537D2BAF1000F17D1B8F1FF3FA4
:1008E00014D0CDF8248030494B68A3B1002209A868
:1008F000135C013283EA0903DBB251F82330042A86
:1009000083EA1929F4D10AF1040AE0E7504600F01D
:100910008DF90990E7E71A46082012F0010F4FEA17
:1009200052021FBF82F06D4282F4380282F4034209
:1009300082F020020138F0D141F823200133B3F5D1
:10094000807FE8D1D2E704210EA840F8289D00F06E
:1009500043F914E700230EA840F8143D642100F089
:100960000BF900287FF4E4AE0220FFF725FE0028F3
:100970003FF4DEAE099800F091F90EAB43F8240D78
:1009800004211846E3E700BF0808002014080020EF
:10099000E5050008280800205A2000080C0800205F
:1009A000100800202C0800202C0900202C0D00200D
:1009B00000230EA840F8143D642100F0DDF8002863
:1009C0007FF4B6AE0220FFF7F7FD00283FF4B0AE8B
:1009D000099800F065F90EAB43F8200DD0E702202E
:1009E000FFF7EAFD00283FF4A3AE00F05FF90EAB7D
:1009F00043F81C0DC4E70220FFF7DEFD00283FF49A
:100A000097AE09A9142000F057F981460EA840F8C6
:100A1000189D042100F0E0F8494609A897E74FF433
:100A20007A70FFF7C9FD00283FF482AEB8F1FF3FAE
:100A300005D1FFF7C9FD642000F0A6FD6FE6414631
:100A4000002000F0F9F8002000F0F0F88045F0D028
:100A50002D4B6EE600230EA840F8143D642100F0F3
:100A60008BF800287FF464AE0220FFF7A5FD002874
:100A70003FF45EAEFFF7A8FD052000F085FD099864
:100A800000F064F900F04CF94FF0000A3BE606462E
:100A900075E63546DCE7002000F038F80390039B4C
:100AA000002BFFF633AE012000F022F9039B213B1F
:100AB000122B3FF628AE01A252F823F025070008BA
:100AC00043070008B50700080707000807070008E4
:100AD000070700082308000807070008BD080008EA
:100AE00055090008B1090008DF09000807070008D8
:100AF000F7090008070700081F0A00087F07000819
:100B000007070008550A00085C200008F7B5002414
:100B1000164B8DF807401B780133DBB2012B1ED832
:100B20004FF47A7140F2E7360027E1FB00674FF49B
:100B30007A72002330463946FFF712FB0C4D012232
:100B40002B680DF107011E6A03462846B0470128AD
:100B500005D1084B9DF807001C7003B0F0BD0120C3
:100B600000F012FD4FF0FF30F7E700BF0008002053
:100B7000500D00204C0D002070B5144B06461B781C
:100B80000D460133DBB2012B19D84FF47A7440F2D1
:100B9000E73000214FF47A72E4FB05010023FFF7F0
:100BA000DFFA0B4C0422236831461D6A03462046B7
:100BB000A847042803D10020064B187070BD0120FF
:100BC00000F0E2FC4FF0FF3070BD00BF00080020D5
:100BD000500D00204C0D002030B4054C0A4623680F
:100BE0000146DD692046AC4630BC6423604700BF47
:100BF000500D002070B500F075FD0025084C094E21
:100C0000207030682378834208D900F067FD33688C
:100C100005440133B5F5C04F3360F2D370BD00BF5A
:100C20004D0D0020340D002000F0C2BD00F1006029
:100C300000F5C0400068704707B502AB43F8041DDB
:100C400000F100600422194600F5C04000F078FD74
:100C500003B05DF804FB0000054B1A68054B1B78D8
:100C60009B1A834202D9104400F038BD002070471F
:100C7000340D00204D0D002038B50446064D28687F
:100C8000204400F031FD28B928682044BDE83840F0
:100C900000F03ABD38BD00BF340D00200020704781
:100CA00000F10050A0F6180000687047014B18686A
:100CB000704700BF002004E00B4630B501380B4DF3
:100CC0000A18934210D215F9014F581C1CB1034663
:100CD00000F8014CF5E72C2482421C7002D93F2217
:100CE000981C5A70401A30BD1846FBE75F20000878
:100CF000704700007047000070470000002310B5E7
:100D0000934203D0CC5CC4540133F9E710BD00001A
:100D100003460244934202D003F8011BFAE77047EE
:100D2000024B1A78024B1A70704700BF4C0D00201E
:100D3000000800204FF4E133024903480B6000F043
:100D40000FBB00BF380D0020500D0020074B10B521
:100D50000021044614221846FFF7DAFF046001461A
:100D6000BDE81040024800F0FBBA00BF380D00207B
:100D7000500D0020026843681143016003B1184719
:100D800070470000024AD36843F0C003D360704745
:100D900000380140024AD36843F0C003D360704773
:100DA000004400402DE9F041D0F89C600546F7680A
:100DB0003368DA059CB20DD5202383F311884FF4F4
:100DC00000710430FFF7D6FF6FF4807333600023A7
:100DD00083F31188202383F3118805F1040814F0AC
:100DE0002F0333D183F31188380615D5210613D587
:100DF000202383F3118805F1380000F011FA002850
:100E000046DA0821281DFFF7B5FF4FF67F733B40F8
:100E1000F360002383F311887A060ED563060CD5A0
:100E2000202383F31188EA6C2B6D9A4202D12B6C3C
:100E3000002B2FD1002383F31188D5F8A420D36889
:100E4000002B31D0BDE8F04110691847230713D0BB
:100E500014F0080F0CBF00218021E00748BF41F0CB
:100E60002001A20748BF41F04001630748BF41F499
:100E700080714046FFF77EFFA406736805D595F89C
:100E8000A0102846194000F079FA3468A4B2A6E709
:100E90007060BEE727F040073F041021281D3F0C7B
:100EA000FFF768FFF760C5E7BDE8F08108B50348C4
:100EB000FFF778FFBDE8084000F098BC500D002017
:100EC00008B50348FFF76EFFBDE8084000F08EBC90
:100ED000F80D002010B5094C094A2046002100F009
:100EE0001FFA084B084AC4F89C30084C00212046E1
:100EF00000F016FA064BC4F89C3010BD500D0020CF
:100F0000850D000800380140950D0008F80D0020FF
:100F10000044004038B5254D037C002918BF0D461C
:100F2000012B0446C0F8A4500CD1214B984230D17B
:100F30000C2125201F4B9A6942F480429A619B69DB
:100F400000F03EF82A681C49D4F89C3001EB5201AD
:100F5000B1FBF2F29A60EA8842F0400292B21A6162
:100F60002A8942F0010292B25A61AA8842F40451DD
:100F700041F02C01D960002102F4A0521960B2F5B1
:100F8000806F19685B680CBF7F23FF2384F8A03053
:100F900038BD0A4B9842D5D1064B0C21DA69262080
:100FA00042F40032DA61DB69CAE700BF6C20000856
:100FB000500D00200010024000512502F80D0020C5
:100FC00000F16043090103F56143C9B283F80013DE
:100FD000012300F01F024009800000F160409340AF
:100FE00000F56140C0F8803103607047090100F1ED
:100FF0006040C9B200F56D4001767047F8B51546FE
:1010000082680B46AA428169066938BF8568761AEC
:10101000B542044607D218462A46FFF76FFEA36979
:101020002B44A3610DE011D932461846FFF766FE46
:10103000AF1B3A46E1683044FFF760FEE2683A448D
:10104000A261A36828465B1BA360F8BD18462A4628
:10105000FFF754FEE368E4E72DE9F0410446154646
:1010600083682669934238BF856840690F46361AFF
:10107000B54206D22A46FFF741FE63692B446361FD
:101080000DE012D93246A5EB0608FFF737FE4246BF
:10109000B919E068FFF732FEE26842446261A36872
:1010A00028465B1BA360BDE8F0812A46FFF726FEB9
:1010B000E368E4E710B50024C361029B0A440060C2
:1010C00040608460C160816141610261036210BD62
:1010D00008B582694369934201D1826882B9826806
:1010E000013282605A1C42611970426903699A4256
:1010F00001D3C3684361002100F062FA002008BDFB
:101100004FF0FF3008BD000070B5202304460E46A6
:1011100083F31188A568A5B1A368A269013BA36008
:10112000531CA36115782269934224BFE368A3612D
:10113000E3690BB120469847002383F311882846C2
:1011400070BD3146204600F02BFA0028E2DA85F324
:10115000118870BD2DE9F74F05460F4690469A4617
:10116000D0F81C90202686F311884FF0000B14460F
:1011700064B1224639462846FFF740FF034668B966
:101180005146284600F00CFA0028F1D0002383F3E2
:101190001188A8EB040003B0BDE8F08FB9F1000F8F
:1011A00003D001902846C847019B8BF31188E41AAD
:1011B0001F4486F31188DBE7C361009BC160816136
:1011C00041611144006040608260016103627047C8
:1011D000F8B504460E461746202383F31188A56808
:1011E000A5B1A368013BA36063695A1C62611E70CC
:1011F000236962699A4224BFE3686361E3690BB1C2
:1012000020469847002080F31188F8BD39462046D3
:1012100000F0C6F90028E2DA85F31188F8BD000075
:101220008369426910B59A4201D182687AB98268AD
:10123000013282605A1C82611C7803699A4201D390
:10124000C3688361002100F0BBF9204610BD4FF058
:10125000FF3010BD2DE9F74F05460F4690469A46E0
:10126000D0F81C90202686F311884FF0000B14460E
:1012700064B1224639462846FFF7EEFE034668B9B8
:101280005146284600F08CF90028F1D0002383F362
:101290001188A8EB040003B0BDE8F08FB9F1000F8E
:1012A00003D001902846C847019B8BF31188E41AAC
:1012B0001F4486F31188DBE702684368114301602D
:1012C00003B11847704700001430FFF743BF000018
:1012D0004FF0FF331430FFF73DBF00003830FFF709
:1012E000B9BF00004FF0FF333830FFF7B3BF000045
:1012F0001430FFF709BF00004FF0FF311430FFF743
:1013000003BF00003830FFF763BF00004FF0FF322B
:101310003830FFF75DBF000000207047FFF7DABDEF
:101320000E4B37B50360002343608360C360012325
:10133000044615460374202200900B4600F15C0120
:101340001430FFF7B7FE00942B46202204F17C01F5
:1013500004F13800FFF730FF03B030BD80200008F3
:1013600010B52023044683F31188FFF7D3FD022331
:101370002374002383F3118810BD000038B5C369BE
:1013800004460D461BB904210844FFF795FF294682
:1013900004F11400FFF79CFE002806DA201D4FF42C
:1013A0008061BDE83840FFF787BF38BD0022024B9F
:1013B0001B605B609A607047A00E0020002382686B
:1013C0000374054B1B6899689142FBD25A6803600D
:1013D0004260106058607047A00E002008B52023BE
:1013E00083F31188037C032B05D0042B0DD02BB97C
:1013F00083F3118808BD002243691A604FF0FF3360
:101400004361FFF7DBFF0023F2E790E80C001A606E
:1014100002685360F2E70000002382680374054B02
:101420001B6899689142FBD85A680360426010605B
:1014300058607047A00E0020054B196908741868A1
:10144000026853601A60186101230374FFF780B8C3
:10145000A00E002030B54B1C87B005460A4C10D0BA
:1014600023690A4A01A800F0D3F82846FFF7E4FFF1
:10147000049B13B101A800F0E5F82369586907B08F
:1014800030BDFFF7D9FFF8E7A00E0020DD130008FC
:1014900038B50C4D41612B6981689A6804469142C8
:1014A00003D8BDE83840FFF789BF1846FFF786FF2D
:1014B00001232C61014623742046BDE83840FFF724
:1014C00047B800BFA00E0020044B1A681B69906843
:1014D0009B68984294BF002001207047A00E002016
:1014E00010B5084C236820691A68546022600122F4
:1014F00023611A74FFF790FF01462069BDE8104090
:10150000FFF726B8A00E002082600222027400229B
:10151000427470478368A3F13C0243F80C2C0269C3
:1015200043F83C2C426943F8382C074A43F81C2CFA
:10153000C268A3F1180043F8102C022203F8082C0B
:10154000002203F8072C70476105000810B520231E
:1015500083F31188FFF7DEFF00210446FFF798FFB1
:10156000002383F31188204610BD0000024B1B6945
:1015700058610F20FFF760BFA00E0020202383F3E7
:101580001188FFF7F3BF000008B50146202383F35D
:1015900011880820FFF75EFF002383F3118808BD40
:1015A00049B1064B42681B6918605A60136043607A
:1015B0000420FFF74FBF4FF0FF307047A00E002010
:1015C0000368984206D01A68026050605961184654
:1015D000FFF7F4BE7047000038B504460D4620689A
:1015E000844200D138BD036823605C604561FFF729
:1015F000E5FEF4E7054B03F114025A619A614FF0DE
:10160000FF32DA6100221A62704700BFA00E00208C
:1016100010B5C2600A4A036153699C68A1420CD8A4
:101620005C68036044602060586081609868411A7B
:1016300099604FF0FF33D36110BD091B1B68ECE7C5
:10164000A00E0020036881689A680A449A60426884
:10165000136003685A6000234FF0FF32C360014BF0
:10166000DA617047A00E002000207047FEE70000FE
:10167000704700004FF0FF3070470000BFF34F8FFE
:10168000024AD368DB07FCD4704700BF0020024049
:1016900008B5074B1B7853B9FFF7F0FF054B1A69E4
:1016A000120641BF044A5A6002F188325A6008BDEE
:1016B000E00E0020002002402301674508B5054BDD
:1016C0001B7833B9FFF7DAFF034A136943F080034D
:1016D000136108BDE00E0020002002404FF480603E
:1016E00070470000402070473F280AD8800200F56C
:1016F00080630268013204D104308342F9D10120B1
:1017000070470020704700003F2808B514D8FFF745
:10171000B5FFFFF7BDFF0222084B1A6182025A6132
:101720001A6942F040021A61FFF7A8FFFFF7C6FFEF
:10173000BDE80840FFF7D8BF002008BD00200240E8
:101740002DE9F843D307144629D4174B82189A423F
:1017500025D8FFF79DFFFFF791FF4FF001080E46D8
:10176000124F401AA31B0B44012B00EB060504D8B3
:10177000FFF7A4FF2046BDE8F883B146C7F8108004
:1017800036F8023B2B80FFF779FF00233B612D8861
:10179000B9F80030ADB2AB42E4D0FFF78FFF4FF0A5
:1017A000FF30BDE8F88300BFFFFF000800200240C3
:1017B000084908B50B7828B153B9FFF769FF012331
:1017C0000B7008BD23B1BDE808400870FFF776BF75
:1017D00008BD00BFE00E0020EFF30983203383F340
:1017E0000988002383F311887047000010B5202377
:1017F00083F311880D4B5B6813F4006312D0EFF391
:1018000009844FF0807344F8043CA4F1200383F36F
:101810000988FFF759FE18B1054B44F8083C10BD84
:10182000044BFAE783F3118810BD00BF00ED00E020
:10183000710500087405000870470000FEE700000D
:10184000084A094B09498B4204D30021084A9342B4
:1018500005D3704752F8040F43F8040BF3E743F83D
:10186000041BF4E7182100087010002070100020FD
:101870007010002000F02EB808B500F061F9BDE846
:10188000084000F091B90000704700004FF0FF31B0
:101890000E4B1A6919611A6900221A611869D86811
:1018A000D960D968DA60DA68DA6942F08052DA61C0
:1018B000DA69DA6942F00062DA61054ADB691368C5
:1018C00043F48073136000F01BB900BF00100240A6
:1018D00000700040194B1A6842F001021A601A6841
:1018E0009007FCD51A6802F0F9021A6000225A60CB
:1018F0005A6812F00C0FFBD11A6842F480321A6059
:101900001A689103FCD55A6842F4E8125A601A68C2
:1019100042F080721A601A689201FCD51221084ABE
:101920005A60084A11605A6842F002025A605A68C6
:1019300002F00C02082AFAD1704700BF00100240E2
:1019400000641D0000200240084A08B55369116870
:101950000B4003F00103536123B1054A13680BB137
:1019600050689847BDE80840FFF740BF00040140B9
:10197000F00F0020084A08B5536911680B4003F0C6
:101980000203536123B1054A93680BB1D0689847AD
:10199000BDE80840FFF72ABF00040140F00F002017
:1019A000084A08B5536911680B4003F004035361FA
:1019B00023B1054A13690BB150699847BDE8084047
:1019C000FFF714BF00040140F00F0020084A08B5DB
:1019D000536911680B4003F00803536123B1054AB2
:1019E00093690BB1D0699847BDE80840FFF7FEBE88
:1019F00000040140F00F0020084A08B5536911683F
:101A00000B4003F01003536123B1054A136A0BB175
:101A1000506A9847BDE80840FFF7E8BE000401405F
:101A2000F00F0020174B10B55C691A68144004F4DD
:101A300078725A61A30604D5134A936A0BB1D06A2F
:101A40009847600604D5104A136B0BB1506B98474A
:101A5000210604D50C4A936B0BB1D06B9847E20575
:101A600004D5094A136C0BB1506C9847A30504D5F3
:101A7000054A936C0BB1D06C9847BDE81040FFF756
:101A8000B5BE00BF00040140F00F00201A4B10B596
:101A90005C691A68144004F47C425A61620504D5FA
:101AA000164A136D0BB1506D9847230504D5134AA0
:101AB000936D0BB1D06D9847E00404D50F4A136EB7
:101AC0000BB1506E9847A10404D50C4A936E0BB12C
:101AD000D06E9847620404D5084A136F0BB1506F5B
:101AE0009847230404D5054A936F0BB1D06F9847EC
:101AF000BDE81040FFF77ABE00040140F00F00205F
:101B0000062108B50846FFF75BFA06210720FFF714
:101B100057FA06210820FFF753FA06210920FFF79C
:101B20004FFA06210A20FFF74BFA06211720FFF78C
:101B300047FABDE8084006212820FFF741BA000017
:101B400008B5FFF7A3FE064800F026FA00F00AF8F1
:101B5000FFF7E4FBFFF798FEBDE8084000F020B86F
:101B6000A820000800F0F4B901230370002300F15D
:101B700008028260C26000F1100283614360436228
:101B8000026103634261C363C36103628362C36230
:101B900043638363036443648364C364036570477E
:101BA00000F04ABAFEE7000010B5174CFFF7FEFB45
:101BB000FFF720FD802215492046FFF7A5FC0123F1
:101BC00044F8180C0374124B124AD96821F4E061EE
:101BD0000904090C0A431049DA60CA6842F08072AD
:101BE000CA600E490A6842F001020A601022DA77E0
:101BF000202283F82220002383F3118862B6BDE8F7
:101C000010400748FFF7A2BCC80E0020E4200008DF
:101C100000ED00E00003FA05F0ED00E0001000E048
:101C2000EC200008F8B50F4C226A013222622246ED
:101C300052F8141F9142154606D020268B68013BAE
:101C40008B6063699A6802B1F8BD1968DF68DA6071
:101C50004D60616182F311881869B84786F3118875
:101C6000EFE700BFA00E0020026843681143016047
:101C700003B11847704700002DE9F0414E4EB042C5
:101C800040F086804D4CDFF838E1E56945F000759D
:101C9000E561E469446DD4F8007207EA0E0747F085
:101CA0000107C4F80072D4F8005205EA0E0545F0A9
:101CB000010545EA0121C4F80012002A6AD000217A
:101CC0000F46C4F81C12C4F80412C4F80C12C4F86D
:101CD000141204EBC10501310E29C5F84072C5F894
:101CE0004472F6D14FF0000E4FF0010C964510D122
:101CF000426DB042D2F8003223F00103C2F8003244
:101D000058D12E4BDA6922F00072DA61DB69BDE846
:101D1000F0819F781D8817F0010F18BFD4F8048256
:101D20000CFA05F11CBF41EA0808C4F8048217F058
:101D3000020F18BFD4F80C8204EBC5051CBF41EAA2
:101D40000808C4F80C827F0748BFD4F8147203F166
:101D50000C0344BF0F43C4F8147253F8087C0EF10F
:101D6000010EC5F8407253F8047CC5F84472D4F8EB
:101D70001C522943C4F81C12B8E70021446DC4F872
:101D80001C12C4F80412C4F80C12C4F81412A9E707
:101D9000002AF2D10022436DC3F84022C3F8442246
:101DA000C3F80422C3F814220122C3F80C22C3F89A
:101DB0001C229DE7BDE8F081980F00200010024032
:101DC0000000FFFF184B10B55A6D936813F0010423
:101DD000936005D013F00C0F14BF4FF4803401242E
:101DE000D90506D513F4406F14BF44F4003444F011
:101DF0000204DA0306D513F4402F14BF44F4802400
:101E000044F00404202383F3118800210748FFF7DE
:101E1000E3FB21460648FFF727FF002383F31188E1
:101E2000BDE81040FFF7E2BC980F0020A00F002093
:101E3000BC0F002038B5154C636DDD68AA0713D0C0
:101E40005A6922F002025A61202383F3118800218B
:101E500004F11000FFF7C0FB012104F11800FFF7A7
:101E600003FF002383F31188EB060BD51021636D6C
:101E7000D960202383F311880548FFF7F5FE00237E
:101E800083F31188BDE83840FFF7B0BC980F0020FD
:101E9000C80F002038B5154C636D1D69AA0713D013
:101EA0005A6922F010025A61202383F3118800211D
:101EB00004F11000FFF790FB022104F11800FFF776
:101EC000D3FE002383F31188EB060BD51021636D3D
:101ED0001961202383F311880548FFF7C5FE00230D
:101EE00083F31188BDE83840FFF780BC980F0020CD
:101EF000C80F002038B5144C636D5D682A075D601B
:101F000010D52046032200F8482B1A6822F002025E
:101F10001A60202383F311880021FFF7A5FE002318
:101F200083F311886B070BD5636D9969202383F3C5
:101F3000118806480904FFF797FE002383F31188F0
:101F4000BDE83840FFF752BC980F0020C80F0020B2
:101F500010B50F4C2046FFF707FE0E4B0B21132048
:101F60006365FFF72DF80B211420FFF729F80B21EB
:101F70001520FFF725F80B211620FFF721F8002385
:101F80002046BDE810401A460E21FFF775BE00BF7F
:101F9000980F00200064004000231A4610B51C4929
:101FA0005A50CC180833802B6260F9D1194B9A69CA
:101FB00042F07D029A619B690268174BDA60826881
:101FC0005A6042681A60C26803F58063DA60426949
:101FD0005A6002691A608269C3F80C24026AC3F865
:101FE0000424C269C3F80024426AC3F80C28C26AF8
:101FF000C3F80428826AC3F80028026BC3F80C2CCB
:10200000826BC3F8042C426BC3F8002C10BD00BFD8
:10201000F00F0020001002400008014008B5202306
:1020200083F31188FFF7FEFD002383F31188BDE8D9
:102030000840FFF7DBBB0000054B064A08215A6049
:1020400000229A6007220B201A60FEF7CFBF00BF64
:1020500010E000E03F1901001210121312110000ED
:1020600053544D333246317878000000009600001A
:102070000000000000000000000000000000000060
:1020800000000000E5120008D11200080D1300083E
:10209000F912000805130008F1120008DD1200080B
:1020A000C9120008191300080C1E0000887B8188E3
:1020B000B8578988000000008888888888888888C0
:1020C00000000000888888888888888800000000D0
:1020D00088888888888888880000000088888888A0
:1020E000888888886D61696E0000000004210008FE
:1020F000E80E0020980F002001000000A51B00083A
:102100000000000069646C650000000084E0FF7F4F
:0C2110000100000000000000FF000000C3
:00000001FF
