:020000040800F2
:1000000000080020A5090008991E00089D1E000890
:10001000D51E00089D1E0008B91E0008A70900088B
:10002000A7090008A7090008A70900084D40000813
:10003000A7090008A7090008A709000859450008F2
:10004000A7090008A7090008A7090008A7090008D0
:10005000A7090008A7090008B5420008E142000806
:100060000D4300083943000865430008A70900084C
:10007000A7090008A7090008A7090008A7090008A0
:10008000A7090008A7090008A7090008D12F000840
:1000900041300008A13000080131000891430008F8
:1000A000A7090008A7090008A7090008A709000870
:1000B000A7090008A7090008A7090008A709000860
:1000C000A7090008A7090008A7090008A709000850
:1000D000A7090008B9340008CD340008A7090008B2
:1000E000F9430008A7090008A7090008A7090008A4
:1000F000A7090008A7090008A7090008A709000820
:10010000A7090008A7090008A7090008A70900080F
:10011000A7090008A7090008A7090008A7090008FF
:10012000A7090008A7090008A7090008A7090008EF
:10013000A7090008A7090008A7090008A7090008DF
:10014000A7090008A7090008A7090008A7090008CF
:10015000A7090008A7090008A7090008A7090008BF
:10016000E51B000800000000D0400B1CD1409C465D
:10017000203AD34018435242634693401843704795
:100180009140031C90409C46203A934019435242B0
:100190006346D3401943704780F0004002E000BF3F
:1001A00081F0004142001FBF5FEA410392EA030F62
:1001B0007FEA226C7FEA236C6AD04FEA1262D2EBAC
:1001C0001363C1BFD218414048404140B8BF5B42B1
:1001D000192B88BF704710F0004F40F4000020F04A
:1001E0007F4018BF404211F0004F41F4000121F060
:1001F0007F4118BF494292EA030F3FD0A2F10102AA
:1002000041FA03FC10EB0C00C3F1200301FA03F1E7
:1002100000F0004302D5494260EB4000B0F5000F0A
:1002200013D3B0F1807F06D340084FEA310102F1C9
:100230000102FE2A51D2B1F1004F40EBC25008BF7B
:1002400020F0010040EA03007047490040EB000045
:1002500010F4000FA2F10102EDD1B0FA80FCACF174
:10026000080CB2EB0C0200FA0CF0AABF00EBC25073
:1002700052421843BCBFD0401843704792F0000F61
:1002800081F4000106BF80F400000132013BB5E7B4
:100290004FEA41037FEA226C18BF7FEA236C21D02A
:1002A00092EA030F04D092F0000F08BF084670478F
:1002B00090EA010F1CBF0020704712F07F4F04D15D
:1002C000400028BF40F00040704712F100723CBF70
:1002D00000F50000704700F0004343F0FE4040F49A
:1002E000000070477FEA226216BF08467FEA236358
:1002F0000146420206BF5FEA412390EA010F40F443
:10030000800070474FF0000304E000BF10F000438E
:1003100048BF40425FEA000C08BF704743F0964375
:1003200001464FF000001CE050EA010208BF704790
:100330004FF000030AE000BF50EA010208BF704717
:1003400011F0004302D5404261EB41015FEA010C2C
:1003500002BF84460146002043F0B64308BFA3F124
:100360008053A3F50003BCFA8CF2083AA3EBC25306
:1003700010DB01FA02FC634400FA02FCC2F1200225
:10038000BCF1004F20FA02F243EB020008BF20F05C
:100390000100704702F1200201FA02FCC2F12002C2
:1003A00050EA4C0021FA02F243EB020008BF20EAB7
:1003B000DC7070474FF0FF0C1CEAD0521EBF1CEAE5
:1003C000D15392EA0C0F93EA0C0F6FD01A4480EAD3
:1003D000010C400218BF5FEA41211ED04FF00063BC
:1003E00043EA501043EA5111A0FB01310CF00040E8
:1003F000B1F5000F3EBF490041EAD3715B0040EA0E
:10040000010062F17F02FD2A1DD8B3F1004F40EBDD
:10041000C25008BF20F00100704790F0000F0CF0B0
:10042000004C08BF49024CEA502040EA51207F3A74
:10043000C2BFD2F1FF0340EAC250704740F400004F
:100440004FF00003013A5DDC12F1190FDCBF00F040
:1004500000407047C2F10002410021FA02F1C2F1EE
:10046000200200FA02FC5FEA310040F1000053EA8A
:100470004C0308BF20EADC70704792F0000F00F0D8
:10048000004C02BF400010F4000F013AF9D040EADE
:100490000C0093F0000F01F0004C02BF490011F472
:1004A000000F013BF9D041EA0C018FE70CEAD15370
:1004B00092EA0C0F18BF93EA0C0F0AD030F0004CF0
:1004C00018BF31F0004CD8D180EA010000F00040A4
:1004D000704790F0000F17BF90F0004F084691F062
:1004E000000F91F0004F14D092EA0C0F01D142029C
:1004F0000FD193EA0C0F03D14B0218BF084608D165
:1005000080EA010000F0004040F0FE4040F40000AE
:10051000704740F0FE4040F4400070474FF0FF0C41
:100520001CEAD0521EBF1CEAD15392EA0C0F93EA88
:100530000C0F69D0A2EB030280EA010C49024FEADA
:10054000402037D04FF0805343EA111143EA101393
:100550000CF000408B4238BF5B0042F17D024FF44B
:10056000000C8B4224BF5B1A40EA0C00B3EB510F26
:1005700024BFA3EB510340EA5C00B3EB910F24BF0F
:10058000A3EB910340EA9C00B3EBD10F24BFA3EB94
:10059000D10340EADC001B0118BF5FEA1C1CE0D15C
:1005A000FD2A3FF650AF8B4240EBC25008BF20F00F
:1005B000010070470CF0004C4CEA50207F32C2BF63
:1005C000D2F1FF0340EAC250704740F400004FF000
:1005D0000003013A37E792F0000F00F0004C02BF31
:1005E000400010F4000F013AF9D040EA0C0093F0FB
:1005F000000F01F0004C02BF490011F4000F013B55
:10060000F9D041EA0C0195E70CEAD15392EA0C0FBC
:1006100008D142027FF47DAF93EA0C0F7FF470AFF4
:10062000084676E793EA0C0F04D14B023FF44CAF37
:1006300008466EE730F0004C18BF31F0004CCAD1CC
:1006400030F000427FF45CAF31F000437FF43CAF08
:100650005FE700BF42000ED2B2F1FE4F0BD34FF066
:100660009E03B3EB126209D44FEA002343F0004328
:1006700023FA02F070474FF00000704712F1610F4B
:1006800001D1420202D14FF0FF3070474FF000001D
:10069000704700BF53B94AB9002908BF00281CBFE2
:1006A0004FF0FF314FF0FF3000F07AB9ADF1080C98
:1006B0006DE904CE00F006F8DDF804E0DDE9022380
:1006C00004B070472DE9F0478C460E460446089D5D
:1006D000002B50D18A4217466CD9B2FA82FEBEF185
:1006E000000F0BD0CEF1200C01FA0EF620FA0CFC14
:1006F00002FA0EF74CEA060C00FA0EF43A0CBCFBB8
:10070000F2F9BBB202FB19CC09FB03FA4FEA144819
:1007100048EA0C46B2450AD9F61909F1FF3180F0D2
:100720002581B24540F22281A9F102093E44A6EB9F
:100730000A06B6FBF2F002FB106600FB03F3A4B25C
:1007400044EA0644A34209D9E41900F1FF3280F0DB
:100750000B81A34240F2088102383C440021E41A94
:1007600040EA0940002D62D0002324FA0EF42C60E8
:100770006B60BDE8F0878B4207D9002D55D0002172
:1007800085E841000846BDE8F087B3FA83F1002907
:1007900040F08F80B34202D3824200F2FC80841A80
:1007A00066EB03060120B446002D40D085E810100A
:1007B000BDE8F08712B90127B7FBF2F7B7FA87FE59
:1007C000BEF1000F35D10121F61B4FEA174C1FFA7D
:1007D00087F8B6FBFCF20CFB126608FB02F0230C58
:1007E00043EA0646B04207D9F61902F1FF3302D2B6
:1007F000B04200F2D2801A46361AB6FBFCF00CFB6F
:10080000106608FB00F8A3B243EA0644A04507D9E6
:10081000E41900F1FF3302D2A04500F2B980184676
:10082000A4EB080440EA02409CE729462846BDE8BC
:10083000F08707FA0EF7CEF1200326FA03F24FEA0B
:10084000174CB2FBFCF11FFA87F80CFB112206FAD9
:100850000EF620FA03F301FB08F933431E0C46EAB7
:100860000246B14500FA0EF409D9F61901F1FF323A
:1008700080F08C80B14540F2898002393E44A6EB7D
:100880000906B6FBFCF00CFB106200FB08F99EB2F7
:1008900046EA0246B14507D9F61900F1FF3371D295
:1008A000B1456FD902383E44A6EB090640EA014142
:1008B0008FE7C1F1200722FA07F88B4048EA0303CB
:1008C00026FA07F44FEA134EB4FBFEF91FFA83FC35
:1008D0000EFB19448E4020FA07F809FB0CFA48EA8F
:1008E00006084FEA184646EA0444A24502FA01F215
:1008F00000FA01F608D9E41809F1FF3044D2A24504
:1009000042D9A9F102091C44A4EB0A04B4FBFEF08D
:100910000EFB104400FB0CFC1FFA88F848EA044464
:10092000A44507D9E41800F1FF3E29D2A44527D9F0
:1009300002381C4440EA0940A0FB0289A4EB0C0CDD
:10094000CC45C246CE4615D312D055B1B6EB0A03FC
:100950006CEB0E0606FA07F7CB401F43CE402F6024
:100960006E600021BDE8F0871046F7E68946DEE6B6
:100970004645EAD2B8EB020A69EB030E0138E4E718
:100980007046D7E718468FE78146BDE7114676E700
:1009900002383C4444E7084606E7023A3E442BE767
:1009A000704700BF02E000F000F8FEE772B627488B
:1009B00080F30888264880F3098826484EF60851B7
:1009C000CEF200010860022080F31488BFF36F8F1D
:1009D00003F06CFB03F004FC4FF055301E491B4A3A
:1009E00091423CBF41F8040BFAE71C49184A914276
:1009F0003CBF41F8040BFAE719491A4A1A4B9A42CC
:100A00003EBF51F8040B42F8040BF8E700201749E9
:100A1000174A91423CBF41F8040BFAE703F04AFB46
:100A200003F0E0FB134C144DAC4203DA54F8041B02
:100A30008847F9E700F03AF8104C114DAC4203DA60
:100A400054F8041B8847F9E703F032BB0008002084
:100A50000010002000000008000000200008002016
:100A6000F85A0008001000207C10002080100020A0
:100A7000642A002060010008640100086401000885
:100A8000640100082DE9F04FC1F80CD0C3689D4601
:100A9000BDE8F08F002383F311882846A04700208B
:100AA00003F0FAF803F0A0F800DFFEE70322224B80
:100AB00070B500241A7001266FF063025C709C70A0
:100AC000DC701C715C719C71DC711C725A729E72BC
:100AD000DC7203F0A9FA194B984222D033449842B1
:100AE00021D0174B20F0FF029A421FD1C0B200F074
:100AF000FBFE42F21075002003F0A0FA114B9B6838
:100B00005B0616D50CB100F0C1F801F0A5F900F0B4
:100B1000F1FE01F0D7F8284600F000F900F0B6F831
:100B2000F9E72546E7E725463446E4E74FF47A75CA
:100B3000E1E742F21075E8E780100020010007B0FD
:100B4000000008B0000C014008B501F053F8A0F116
:100B500020035842584108BD07B5054B02211B88A8
:100B600001A8ADF8043001F0ABF803B05DF804FB68
:100B700098540008064991F8243033B10023082224
:100B8000086A81F8243001F0CFB80120704700BF17
:100B9000A01000202DE9F84F234C054694F824308E
:100BA000884617468BBB2E46DFF87C90002F38D046
:100BB00094F824A0BAF1000F05D12022FF21484665
:100BC000266201F037F9CAF10805BD4228BF3D464B
:100BD0005FFA85FBAD0041462A4604EB8A0001F02E
:100BE00017F994F82430A7EB0B079B445FFA8BFBB3
:100BF000BBF1080F2E44A844FFB284F824B0D5D12D
:100C0000FFF7B8FF0028D1D108E0266A06EB83067B
:100C1000B042C9D0FFF7AEFF0028C4D10020BDE824
:100C2000F88F0120BDE8F88FA010002010B5202318
:100C300083F311881148C3680BB103F091F80023C6
:100C40000F4A01210D4803F071F8002383F3118846
:100C50000C4C236813B12368013B2360636813B114
:100C60006368013B6360084B1B7833B9636823B941
:100C7000022001F0BFF83223636010BD8C10002009
:100C80002D0C0008D0150020C810002010B51A4BFC
:100C90001A4953F8042F013200D110BD8B42F8D10C
:100CA000174C184B22689A4224D9174B9B6803F1C2
:100CB000006303F5C8439A421CD2002001F01CF8DF
:100CC0000220124B187001F08BF8114BDA690022E8
:100CD000DA61D96999699A619B6972B60D4B0E4ABE
:100CE000202113601B68226881F311889D4683F3DD
:100CF0000888104710BD00BFFC6300081C64000892
:100D000004640008FF63000880100020C810002061
:100D1000001002400064000808ED00E02DE9F04FEB
:100D2000B54C97B020228246FF210EA8A56801F09D
:100D300081F8B24AA04613789BB90121B0481170DE
:100D4000C360202383F31188C3680BB103F008F854
:100D50000023AC4A0121AA4802F0E8FF002383F3F4
:100D60001188DFF8C0B2BAF1000F01D0CBF800A0B3
:100D700000242646A44FCBF804403C70012001F02B
:100D80002FF8BAF1000F00F0E081DBF80030002B03
:100D900040F0DB8117B0BDE8F08F0220FFF7D4FEF2
:100DA000002840F0D081994B1B88022109A8ADF89A
:100DB000243000F085FFE1E74FF47A7000F01AFF6D
:100DC000031E0193EFDB0220FFF7BEFE81460028E1
:100DD000E9D0019B581E0428E5D8DFE800F0030C99
:100DE0000F1215000523042116A840F8343D00F029
:100DF00067FF4C4650E004217F48F8E7042184480F
:100E0000F5E704218348F2E71C24204600F076FF32
:100E100004340990042109A800F052FF2C2CF4D1CD
:100E2000E7E7002EBFD0002CBDD00220FFF78CFEDC
:100E3000064610B901242646B5E7012000F05CFF04
:100E400002200024387000F0CBFFE3B21846019373
:100E500000F072FF814648B1019B0134184600F052
:100E60007BFF0028F1D134466B4B9DE70123022024
:100E70003B704D4600F0ACFFD8F808309D4206D2DA
:100E8000284600F03BFF0130EDD10435F4E70025A2
:100E900034463D70CBF8045000F0D4FFFFF75CFE01
:100EA0004EE1002E3FF47FAF002C3FF47CAF0220D8
:100EB000387000F095FF322000F09CFE041EB9DB74
:100EC00014F00306B6D1D8F808202B199342B1D8F4
:100ED000B4F5807FAED8DFF84491A6420CDA4FF427
:100EE0007A7000F087FE0390039B002BA2DB039B2C
:100EF00006F809300136F0E7C820FFF725FE064660
:100F0000002897D01F2D11D8C5F12009A14528BF71
:100F1000A1460EAB25F003004A464049184400F0B4
:100F200077FF4A46FF213D4800F084FF4FEAA409BD
:100F30005FFA89F239492846FFF72CFE044600285B
:100F400091D005EB89050646A6E70220FFF7FCFDD8
:100F500000283FF428AFFFF70DFE00283FF423AF31
:100F60004FF0000AD146D8F808309A453CD2BAF181
:100F70001F0F1CD80E9B013319D02AF0030316AAA9
:100F8000134453F8203C099325494B68A3B1002230
:100F900009A8135C013283EA0903DBB251F823305C
:100FA000042A83EA1929F4D10AF1040ADBE750463E
:100FB00000F0A4FE0990E7E71A46082012F0010F9E
:100FC0004FEA52021FBF82F06D4282F4380282F46F
:100FD000034282F020020138F0D141F8232001338E
:100FE000B3F5807FE8D1D2E7042116A840F8489DE8
:100FF00000F066FE50E700BF80100020CC110020FA
:101000008C1000202D0C0008C81000209A540008F5
:1010100084100020881000209C540008CC10002070
:10102000D0110020D0150020002316A840F8343D30
:10103000642100F015FE00287FF4B5AE0220FFF712
:1010400083FD00283FF4AFAE099800F097FE16AB81
:1010500043F8440D04211846CAE7002316A840F8B7
:10106000343D642100F0FCFD00287FF49CAE02209A
:10107000FFF76AFD00283FF496AE099800F080FE65
:1010800016AB43F8400DE5E70220FFF75DFD0028B1
:101090003FF489AE00F07AFE16AB43F83C0DD9E779
:1010A0000220FFF751FD00283FF47DAE09A914206E
:1010B00000F072FE814616A840F8389D042100F029
:1010C000FFFD494609A893E74FF47A70FFF73CFD0E
:1010D00000283FF468AEFFF74DFD00283FF4C4AE92
:1010E0000E9B01330CD008220EA90020FFF752FD01
:1010F00000283FF4B9AE2022FF210EA800F09AFE8E
:10110000FFF72AFD642002F0CDFD43E6002316A878
:1011100040F8343D642100F0A3FD00287FF443AE85
:101120000220FFF711FD00283FF43DAEFFF714FD4C
:10113000052002F0B7FD099800F09AFE00F082FE4B
:101140004FF0000A1AE60646A6E6002000F052FD1F
:101150000390039B002B01DA00F00CFC039B002B97
:10116000FFF60FAE012000F033FE039B213B122B54
:101170003FF604AE01A252F823F000BF9B0D000819
:10118000B90D0008230E00087D0D00087D0D000834
:101190007D0D0008A30E00087D0D00084B0F000810
:1011A000291000085B100008891000087D0D000858
:1011B000A11000087D0D0008C9100008990E000854
:1011C0007D0D00080D11000849F2690008490B68FF
:1011D0009AB21B0C00FB02330B6044F25061054ACB
:1011E000136898B21B0C01FB0030106080B270478E
:1011F000101000200C10002010B504460021102211
:1012000000F018FE034B03CB206061601868A060FB
:1012100010BD00BFE8F7FF1FF0B5BBB000F068FEDF
:101220001F4CA368C31AB3F5FA7F30D306AD23462B
:10123000A06028220021284601F0D4FB04F10E0012
:1012400000F0F0FD0023C6B2591D5F1CDBB2B342B3
:101250004FEAC10107DA0E3323440822284601F081
:10126000C1FB3B46F0E701230393182302930D4B88
:10127000207B01933023C1F3CF01059100930146F8
:1012800005A3D3E900230495074801F07BF93BB09F
:10129000F0BD00BFAFF3008078F6339F93CACD8DC9
:1012A0001826002025260020F025002070B50D46C8
:1012B00014461E4601F00CF950B9022E0ED1012C35
:1012C0000CD112A3D3E90023C5E90023012070BD8E
:1012D000052C14D003D8012C09D0002070BD282C77
:1012E00009D0302CF9D10BA3D3E90023ECE70BA3F1
:1012F000D3E90023E8E70BA3D3E90023E4E70BA33A
:10130000D3E90023E0E700BFAFF30080401DA12038
:1013100026812A0B78F6339F93CACD8D9E6AC4210D
:10132000818A46EE26417272DF25D7B7F017304A20
:1013300039059E5638B50D460446034620222846F8
:10134000002101F04FFB22792346032A28BF032204
:10135000284603F8042F2021022201F043FB627982
:101360002346072A28BF0722284603F8052F2221F3
:10137000032201F037FBA2792346072A28BF072260
:10138000284603F8062F2521032201F02BFB2846CF
:1013900004F108031022282101F024FB382038BD75
:1013A0002DE9F04FADF5017D21AD0EAE40F2791281
:1013B00080460F462846002100F03CFD48220021CF
:1013C000304600F037FD00F093FD4FF47A72B0FB29
:1013D000F2F0534B0DF15A09186093E8070001230E
:1013E0003374002386E807000DF15A007374FFF789
:1013F00003FF07AB18464B4903F050FC1A22306438
:101400002946304686F83C20FFF794FF12AB04468D
:1014100001460822284601F0E5FA08220DF14903A9
:10142000A118284601F0DEFA0DF14A03082204F162
:101430001001284601F0D6FA13AB202204F118015E
:10144000284601F0CFFA14AB402204F138012846B7
:1014500001F0C8FA16AB082204F17801284601F021
:10146000C1FA0DF15903082204F18001284601F068
:10147000B9FA04F1880A04F5847B4B4651460822E8
:1014800028460AF1080A01F0ADFAD34509F101092D
:10149000F3D11BAB08225946284601F0A3FA4FF0BE
:1014A000000904F5887496F834304B4510D84FF095
:1014B000000996F83C304B4515D9336C21464B4416
:1014C0000822284601F08EFA083409F10109F0E7F4
:1014D000B36B21464B440822284601F083FA0834B6
:1014E00009F10109DFE7E31DC3F3CF03F97E05939B
:1014F000002304950393BB7E1937029301230197C0
:101500000093404604A3D3E9002301F03BF80DF516
:10151000017DBDE8F08F00BF9E6AC421818A46EE3E
:10152000D8150020845500082DE9F04FAFB006AF64
:1015300006460D4600F0CCFF0446002877D12B7EEE
:10154000022B1DD1EB8A012B1AD100F0D1FC814670
:10155000FFF73AFEFEF7D6FEAD49FEF7DFFFAD49D5
:10156000FEF728FFFFF776F8DFF8D88209F516793D
:10157000EB7E4844C8F8000093B90022A64B1A70CD
:10158000A437BD46BDE8F08F07F10C031C4400945E
:10159000002308224FEAC901284601F087F84C468B
:1015A000AB8A5FFA84F9013BA3420BD904F101092C
:1015B000B9F1110FE8D14FF49071984B984A9948BE
:1015C00002F0E8FF07F11C00FFF716FE224607F1C4
:1015D0001C0107F10C0003F00DF803460028CCD1E4
:1015E000B9F1100F09D08C4B83F80090D8F8003077
:1015F000A3F51673C8F80030C2E707F1A00202F89D
:10160000950D014600922846072201F04FF8F97A1D
:101610007F2904DD844B824A40F23711CFE7304600
:1016200000F03AFFF97A814800F0EEFBA8E7EB8A78
:10163000052B00F03D8106D8012BA1D1294630466B
:10164000FFF7AEFE9CE7282B3DD0302B98D16B7E68
:10165000774C0133627BDBB29342EA4640F026814D
:10166000EA7E237B9A4240F02181002607F1A00305
:1016700023F8846D0093102201233146284601F09F
:1016800015F8B5F81480A8F102081FFA88F808F1D7
:10169000030323F003030A3323F00703ADEB030D29
:1016A0000DF1180933469BB2B11C98454FEAC101B0
:1016B00006F1010671DD4B44009308220023284601
:1016C00000F0F4FFEEE7AB8A013B9BB2C92B3FF67B
:1016D00057AF0023574C194600940822284600F0C3
:1016E000E5FF00230C3CAA8A03F10108013ADBB2B2
:1016F00093424FEAC80109DA0E33234400930822CB
:101700000023284600F0D2FF4346ECE700230022E6
:10171000C4E900230023A36084F8D730C4F8D8308C
:10172000237B0BB9EB7E2373227B00244249434881
:1017300007F11C0800F068FB07F10C0308222146A2
:101740004046FC603C617C6101F04CF93B7C04F15B
:101750000109A3424FEAC90107D97B690822234442
:10176000404601F03FF94C46F0E70023C1F3CF01BA
:10177000E87E0591CDF810800393AB7E1935029376
:1017800028230146009301951FA3D3E90023304687
:1017900000F0F8FEFFF740FDF2E694F8D70000F005
:1017A000CBFAD4F8D83006461BB994F8D70000F02D
:1017B000D3FAD4F8D83043449E4204D294F8D700E8
:1017C000013000F0C9FA00251D4B4FEA980BAAB270
:1017D0005A45104638DA5AB994F8D72042B9D4E9B4
:1017E00000120A4304D1D9F800201A600135EEE74F
:1017F000226859F8201002EB80007B6000F084FA28
:101800007B68F3E7AFF3008026417272DF25D7B71C
:1018100000FF7F470000C843E9250020A0540008CE
:10182000A0550008F95400081B550008345500085D
:1018300018260020242600202626002040550008D7
:1018400000100020EC250020D4E90023D4F8D85063
:1018500012EB080043F10001C4E90001454494F88B
:10186000D700C4F8D85000F067FA854209D394F83D
:10187000D730013384F8D730D4F8D8309E1BC4F861
:10188000D860B8F1FF0F0ADC0020114B20731968F3
:1018900000F03AFA0F4800F0B7FAFFF7F7F92368BB
:1018A0000D4A9B0A013313810023A360D54667E6E6
:1018B0000A4800F0A9FABFF34F8F0949094BCA68DB
:1018C00002F4E0621343CB60BFF34F8F00BFFDE72C
:1018D0000010002058550008D81500207455000845
:1018E00000ED00E00400FA05014B1870704700BFDE
:1018F000E415002013B51549154801F0A3FE002397
:101900000193144B144900934FF48052134B144825
:1019100000F08CFD134B197811B1114800F0BCFD9B
:1019200000F0E6FA0446FFF74FFCFEF7EBFC0E4929
:10193000FEF7F4FD0D49FEF73DFDFEF78BFE04F5C5
:1019400016740B4B04441C6002B010BD0410002040
:101950001C270020AD120008E815002029150008FA
:10196000F0250020E415002000FF7F470000C84359
:10197000EC2500202DE9F04F91A7D7E900670FF281
:101980004829D9E90089874C93B0DFF844B20CADFF
:10199000204600F043FE824648B31022002128462C
:1019A00000F048FA4FF000039AF80C2062F30303AA
:1019B00052468DF8303052F8040F0EAB516803C315
:1019C000DAF800200D9B584662F31C030D939DF836
:1019D00030302A4643F020038DF83030002319467A
:1019E00001F040FE18B9204600F01CFED0E7182296
:1019F0000021284600F01EFADFF8D4B1DFF8D4A1A8
:101A000000232A461946584601F054FE014660BBA1
:101A1000102208A800F00EFADAF80C3083F0100358
:101A2000CAF80C3000F066FA0DF1240E0B4612A92C
:101A3000024611E903008EE803009DF83410C1F35B
:101A40000300890649BF0E99BDF83810C1F31C0187
:101A500041F0004158BFC1F30A018DF82C000891F4
:101A6000204608A901F024F8CAE7204600F030FD1E
:101A7000834600284BD100F03BFA4B4B1A6890424A
:101A800045D3079300F034FA8246FFF79DFBFEF73B
:101A900039FC4649FEF742FD4549FEF78BFCFEF74F
:101AA000D9FD8DF820B0DFF830B10AF5167A079B22
:101AB0009BF800105044186011B901238DF82030B4
:101AC00028460791FFF798FB07990DF12100C1F116
:101AD000100A5FFA8AFABAF1060F28BF4FF0060A19
:101AE0002944524600F094F90AF10103049308AB2B
:101AF0000393182302932F4B324601930123204670
:101B000000933B4600F0E6FC00238BF8003000F029
:101B1000EFF9294ADFF8C4A01368C31AB3F57A7F36
:101B200031D3106000F0E6F902460B46204600F083
:101B30007FFD204600F0CCFC28B39AF80C30DFF88B
:101B4000A0B0002B18BF03238BF8053000F0D0F9AC
:101B50004FF47A73B0FBF3F02946CBF800005846F7
:101B6000FFF7E8FB18230293144B0730019340F270
:101B70005513C0F3CF0004900093039542464B46A3
:101B8000204600F0A7FC9AF80C300BB1FFF744FB9D
:101B90009AF80C30002B7FF4F8AE13B0BDE8F08F4C
:101BA000AFF30080F0250020EC25002000FF7F47E8
:101BB0000000C843E8250020F8260020FC2600206D
:101BC000401DA12026812A0BF1C6A7C1D068080FAD
:101BD0001C27002000080140E925002018260020CD
:101BE000D8150020014A024B5A60704701001E00C0
:101BF00004100020F7B50024164B8DF807401B7821
:101C00000133DBB2012B1ED84FF47A7140F2E73674
:101C10000027E1FB00674FF47A7200233046394613
:101C2000FEF738FD0C4D01222B680DF107011E6AED
:101C300003462846B047012805D1084B9DF8070008
:101C40001C7003B0F0BD012002F02CF84FF0FF3003
:101C5000F7E700BF14100020742700201827002089
:101C600070B5144B06461B780D460133DBB2012BD1
:101C700019D84FF47A7440F2E73000214FF47A72A9
:101C8000E4FB05010023FEF705FD0B4C042223684D
:101C900031461D6A03462046A847042803D1002088
:101CA000064B187070BD012001F0FCFF4FF0FF30B3
:101CB00070BD00BF141000207427002018270020DA
:101CC0007047000070B502F0C3F80025084C094EBB
:101CD000207030682378834208D902F0B5F8336861
:101CE00005440133B5F5C84F3360F2D370BD00BF72
:101CF000192700200027002002F034B900F100600D
:101D000000F5C8400068704707B502AB43F8041DF2
:101D100000F100600422194600F5C84002F0CEF838
:101D200003B05DF804FB000000F10060920000F5D4
:101D3000C84002F0C3B80000054B1A68054B1B7879
:101D40009B1A834202D9104402F07EB800207047EB
:101D5000002700201927002038B50446064D2868C2
:101D6000204402F077F828B928682044BDE83840BC
:101D700002F082B838BD00BF002700200020704765
:101D800000F10050A0F6180000687047014B186879
:101D9000704700BF002004E00B4630B501380B4D02
:101DA0000A18934210D215F9014F581C1CB1034672
:101DB00000F8014CF5E72C2482421C7002D93F2226
:101DC000981C5A70401A30BD1846FBE7E3550008CE
:101DD000022802BF1022014B1A617047000801401F
:101DE000022802BF4FF48012014B1A61704700BFF6
:101DF00000080140022801BF024AD36883F01003A3
:101E0000D3607047000801400FB404B07047000071
:101E1000002310B5934203D0CC5CC4540133F9E7DE
:101E200010BD000002460346981A13F9011B002951
:101E3000FAD1704703460244934202D003F8011BD3
:101E4000FAE77047024B1A78024B1A70704700BFCE
:101E500018270020141000204FF461430249034862
:101E60000B6001F001BE00BF042700207427002092
:101E7000074B10B50021044614221846FFF7DAFF7D
:101E800004600146BDE81040024801F0EDBD00BF0E
:101E90000427002074270020FEE70000EFF30983E9
:101EA000EFF30583034B9A6B9A6A9A6A9A6A9A6A65
:101EB0009B6AFEE700ED00E0EFF30983EFF3058393
:101EC000034B9A6A9A6A9A6A9A6A9A6A9B6AFEE7C6
:101ED00000ED00E0EFF30983EFF30583034B5A6B4A
:101EE0009A6A9A6A9A6A9A6A9B6AFEE700ED00E02B
:101EF00002F086B802F070B80246006848B1036884
:101F000011891360D38801339BB29942D38038BFC3
:101F10001381704770B504460D4688B02022002119
:101F20006846FFF787FF20460495FFF7E5FF054663
:101F300058B16B46044608AE1A4603CAB242206046
:101F40006160134604F10804F6D1284608B070BD5C
:101F50002DE9F04130B940F2C531264B264A2748D9
:101F600002F018FB0B7C23B9254B234A40F2C63103
:101F7000F5E7C66986B9C161BDE8F081002B29DAB1
:101F8000930CAB4229D1B44201D10C60F3E7C8F8FD
:101F900000100C60BDE8F0814B68B04623F060474C
:101FA000BD0C15EA230538BF3D4634464FEAD37EC3
:101FB000C3F3807C6368BEEBD37F23F06042DDD146
:101FC000974203D1C3F380739C450AD1974205E041
:101FD0001C46EFE7AA4206D013469D422CBF0023C1
:101FE0000123002BCFD12368A046002BF0D1216024
:101FF000BDE8F08180580008745600083859000880
:102000005959000808B5034A034B40F25E310348B2
:1020100002F0C0FA50560008F85800083859000875
:1020200008B503680B60C388016033B9044B054AE7
:102030004FF4C761044802F0ADFA013BC38008BD0C
:10204000C8580008C45600083859000870B50C4636
:1020500000F10C05616831B9E38A002061F30903DE
:10206000E382002170BD0E682846FFF7D9FF666045
:10207000F0E7000008B5426832B10B4B0B4A40F262
:102080002F410B4802F086FAC37DC3F3840101316E
:1020900061F38603C375C38A62F30903C3821B0A13
:1020A00062F3C713C37508BD1459000880560008B1
:1020B000385900082DE9F047089E32B91F4B204AD5
:1020C00040F239511F4802F065FA4FF47F4901F0A0
:1020D00007054FEAD6082A4406F0070600EBD100B0
:1020E000954201D1BDE8F08705F0070E06F0070A1A
:1020F000D645774638BF5746511BC7F108078F4270
:1021000028BF0F46EC08045D08EBD60113F801C0A8
:1021100004FA0EF429FA07FE24FA0AF45FFA8EFE96
:102120008CEA04044EFA0AFE04EA0E048CEA040C5B
:1021300003F801C03D443E44D2E700BF9458000874
:1021400098560008385900082DE9F04106460F4618
:1021500000254FF6FF7441F221082A4630463946E1
:10216000FEF702F80823C0B284EA002414F4004FFA
:102170004FEA4404A4B203F1FF3318BF84EA080411
:1021800013F0FF03F2D10835402DE6D12046BDE81B
:10219000F081000010B541F221040A44914200D1BF
:1021A00010BD11F8013B80EA0320082310F4004F12
:1021B0004FEA400080B203F1FF3318BF604013F0D4
:1021C000FF03F3D1EAE700002DE9F04F85B08A461E
:1021D0008DE80C00BDF83C40814630B940F26E31CC
:1021E000484B494A494802F0D5F911F0604F04D0F4
:1021F000474B454A40F26F31F4E7009B002B7ED0FD
:1022000024B10E9B002B7AD0072C28D809F10C00A2
:10221000FFF772FE054628B96FF00205284605B0A3
:10222000BDE8F08F14220021FFF704FE22460E992C
:1022300005F10800FFF7ECFD631C2B74009B2C4498
:102240001B78294603F01F0363F03F0323724AF013
:1022500000436B604846FFF77BFE0125DEE74FF049
:1022600000084FF0800B46464546019B1B0A02932F
:1022700000F10C0303930398FFF73EFE0746002886
:10228000CAD014220021FFF7D5FDB6BB02229DF86B
:1022900004303B729DF808307B720E9B711E19440E
:1022A000B4420AD9B818013211F801EFD2B201369E
:1022B000072A80F808E0B6B2F2D1B44208BF4FF066
:1022C000400B009BB8181978013201F01F0141EA58
:1022D00048114BEA010303724AF000437B603A74F1
:1022E00039464846FFF734FE0135B4422DB288F036
:1022F00001084FF0000BBED190E70022CDE76FF050
:1023000001058BE78058000864560008385900081A
:10231000A45800082DE9F0471E46CB8A9146C3F326
:102320000902062A80460F4619D013460021B0B292
:102330008DB25A1992B2052A09D9A84210D8FA8A40
:10234000034463F30902FA820120BDE8F087A84242
:10235000F3D919F801403A4494760131E8E70025B1
:10236000FB8A7C68C3F309001C23821FB2FBF3FACB
:1023700003FB1A2A1FFA8AF27CB301212368002B7F
:1023800039D1B31F03441C20B3FBF0F301339BB2DC
:1023900099420CD2BAF1000F09D14046FFF7ACFDCB
:1023A00008B1C0F800A0206008B3044600224FF036
:1023B000000AB6B2B54230D21346691E4944E0184D
:1023C000013311F801EF9BB201351C2B80F804E0BA
:1023D000ADB214D0AE42F2D8ECE74046FFF78CFD28
:1023E000044608B1002303607C60002CDED16FF04E
:1023F0000200BDE8F087013189B21C46BEE7AE425B
:10240000D8D94046FFF778FD08B1C0F800A0206099
:102410000028ECD004460022CCE7FB8AC3F3090273
:10242000164466F30903FB828EE70000F8B50E46FA
:1024300015461F46044628B9144B154A4F21154826
:1024400002F0A8F824220021FFF7F4FC069B6A0999
:102450006360079B002023624FF6FF739A4228BFF8
:102460001A46A7602070A061E06197B204F10C05E4
:10247000824205D100232B6027826382A382F8BDAC
:102480002E60013035462036F2E700BF7C58000848
:10249000F05500083859000808B528B97321084BD1
:1024A000084A094802F076F8037823B94BB2002BAA
:1024B00001DD017008BD054B024A7D21F1E700BF37
:1024C00080580008FC55000838590008C457000817
:1024D000007870472DE9F7430D9E074619461046D0
:1024E000BDF828900B9D9DF83040BDF8388016B996
:1024F000B8F1000F43D11F2C41D83B78D3B9B8F1C4
:10250000070F39D839F0030339D1424631464FF627
:10251000FF70FFF73FFE4FEA092920F0010009F4A0
:102520004079400449EA0464400C44EA40244FF6F0
:10253000FF730DE043EA0923B8F1070F43EA04648F
:10254000F5D9FFF701FE42463146FFF723FE034669
:102550008DE840012A4621463846FFF735FE0DB981
:10256000FFF750FD2B780133DBB21F2B88BF002310
:102570002B7003B0BDE8F0836FF00300F9E76FF054
:102580000100F6E72DE9F7430E9F81460B9D9DF86C
:1025900030009DF83480BDF83C6007B9C6BB1F28E9
:1025A00036D899F800E0BEF1000F34D00C0244F0A8
:1025B00080049DF8281044EAC83444EA014444EAFF
:1025C0000E04072E44EA006415D919461046FFF799
:1025D000BBFD32463946FFF7DDFD03460196009705
:1025E0002A4621464846FFF7EFFDB8F1010F0CD10E
:1025F00025B9FFF707FD4FF6FF73EFE72B7801339F
:10260000DBB21F2B88BF00232B7003B0BDE8F08323
:102610006FF00100F9E76FF00300F6E7C06900B161
:1026200004307047C1690C300B680361FFF7F8BCD8
:102630002DE9F84FD0F818A0054616461F46544617
:102640004FF00009DFF8608000F10C0B0CB9BDE819
:10265000F88FD4E90223B21A67EB0303994508BF48
:1026600090451FD2AB6921469C4228460DD1FFF709
:10267000EDFCAB6921461B685846AB61FFF7D0FC07
:10268000AC692346A2461C46E0E7FFF7DFFC23685F
:102690002146CAF800305846FFF7C2FC5446DAF823
:1026A0000030EFE72368EDE780841E002DE9F04F4E
:1026B0008BB00D4614460793DDF8509082460028F3
:1026C00000F06481B9F1000F00F06081531E3F2BD0
:1026D00000F25C81012A03D1079B002B40F0568158
:1026E0000023BAF814600893F600B542099380F00D
:1026F00053812B199E420AD2761B16F0FF0607D192
:1027000040F26751AA4BAB4AAB4801F043FF264663
:10271000DAF80C3023B9DAF81030002B00F0A5807D
:102720002F2D31D8C5F1300846454FF0000334BF96
:10273000B0465FFA88F80093294608AB4246DAF8BB
:102740000800FFF7B7FCA6EB08074544FFB24FF0BF
:10275000300BBAF8143003F10053063BDB00029350
:10276000DAF80C300593059B002B51D087B9DAF8C5
:102770001000002861D0002F5FD0AB4550D98F4B9F
:102780008C4A40F2A651BFE737464FF00008DEE71B
:10279000029B23B98A4B874A4FF4B161B4E7029B8D
:1027A000E02B28BFE02306935B44AB4204931DD982
:1027B0005B1B9F4226BFDBB203930397AB4504D953
:1027C0007E4B7C4A40F291519EE70598CDF80080FF
:1027D00008ABA5EB0B01039A0430FFF76BFC039BDE
:1027E0009844FF1A1D445FFA88F8FFB2049B9B458A
:1027F00004D3744B6F4A40F29B5185E7029B069AC3
:10280000DDF810B09B1A0293059B1B680593AAE79D
:10281000029BBB42ABD26C4B664A40F2A15173E7BC
:10282000CDF800803A46A5EB0B0108ABB8443D4417
:10283000FFF740FC00275FFA88F8BAF81430B5EBD0
:10284000C30F04D9614B5B4A40F2B1515CE7B8F168
:10285000400F04D95E4B574A40F2B25154E767B17A
:102860005C4B544A40F2B3514EE70093324608ABFA
:102870002946DAF80800FFF71DFC731E3F2B35B21E
:1028800001D8A64204DD544B544A40F235213BE7BF
:1028900060070AD00AAB03EBD40111F8083C62428E
:1028A00002F00702134101F8083C082C21D9102C32
:1028B00021D9202C8CBF08230423079A002A6DD02D
:1028C000B4EBC30F6CD0082C04F1FF3215D89DF87F
:1028D000203023FA02F2D10706D54FF0FF3202FA78
:1028E00004F423438DF820309DF8203089F800301F
:1028F0004EE00123E1E70223DFE7102C11D8BDF8F9
:10290000203023FA02F2D20706D54FF0FF3202FA46
:1029100004F42343ADF82030BDF82030A9F800308E
:1029200036E0202C0ED8089921FA02F2D30705D5FB
:102930004FF0FF3303FA04F40C430894089BC9F8E2
:10294000003025E0402C1CD0DDE9086730463946D0
:10295000FDF70AFC002100F0010050EA01030BD052
:10296000224601200021FDF70BFC404261EB4101B2
:1029700006430F43CDE90867DDE90823C9E90023D1
:1029800006E0174B154A4FF42071BDE66FF00105C4
:1029900028460BB0BDE8F08F1D46F9E7012CA3D007
:1029A000082CA1D9102CB7D9202CE5D8C6E700BF38
:1029B000D0560008A856000838590008F2560008FA
:1029C000DF560008175700083F57000866570008F1
:1029D00094570008AC570008C6570008285600084E
:1029E000C457000830B585B030B940F2B121234B4F
:1029F000234A244801F0CEFD23B9234B204A40F25C
:102A0000B221F6E7402A04D9204B1D4A40F2B621F4
:102A1000EFE722B91D4B1A4A4FF42F71E9E7002462
:102A2000012A0294039417D11B788DF808305307BC
:102A30000AD004AB03EBD20313F8084C554205F05F
:102A40000705AC4003F8084C00910346002102A89A
:102A5000FFF730FB05B030BD082AE5D9102A03D8AE
:102A60001B88ADF80830E2E7202A02D81B680293E1
:102A7000DDE7D3E90045CDE90245D8E70058000875
:102A80003C560008385900081B580008C457000875
:102A900070B50C4600F10C05E16819B9A16021611F
:102AA000A18270BD0E682846FFF7BAFAE660F3E728
:102AB0002DE9F04FD1F8009091B0C9F3C01604464B
:102AC0000D46CDE90223002E50D0C9F3C03BC9F317
:102AD0000626B9F1000F80F29F8119F0C04F40F037
:102AE0009B812B7B002B00F09781BBF1020F03D061
:102AF0002278B24240F0938109F07F02BBF1020FCD
:102B0000059236D119F07F0FC9F30F2A01D10AF0CF
:102B1000030A2B447606059A93F8038046EA0B468F
:102B200046EA82465FEAD81346EA0A06069300F0B0
:102B30009A800022002310A961E90823059B676899
:102B4000009352465B462046B847002800F0888034
:102B5000A7698FB9314604F10C00FFF7DBF907468E
:102B6000D0B96FF0020011B0BDE8F08F4FF0020B4A
:102B7000AFE7C9F3074ACCE73B699E420DD03F68F7
:102B8000002FF9D1314604F10C00FFF7C3F90746D5
:102B90000028E6D0A3693B60A761DDE90801FFF7E3
:102BA000D3FAB882F97D08F01F06C1F38401711AC7
:102BB00089B20FFA81FEBEF1000FB8BF01F1200EFD
:102BC000C9F30461D7E90223B8BF0FFA8EFE07915B
:102BD00052EA030100F02F81DDE90201801A61EB66
:102BE00003010B46002102469E48994208BF9042CD
:102BF000C0F02181069B002B3FD0BEF1010F00F3F6
:102C00001A8118F0400F38D0DDE90223C7E902230A
:102C1000202200210DEB0200FFF70CF9DDE9022371
:102C2000CDE908232B1D0A932B7B2046013BDBB209
:102C3000ADF834309DF81C30ADF836A08DF83A3040
:102C40009DF814308DF838B08DF83B308DF8396030
:102C5000A36808A998473846FFF70CFA002082E7D6
:102C60006FF00B007FE7A76917B96FF00C007AE7E8
:102C70003B699E4296D03F68F6E7FB7DC8F3401261
:102C8000B2EBD31F40F0CE80C3F38403B34240F0D5
:102C9000CC8006992B7B4FEA981279B3D2073CD4AB
:102CA000032B40F2C580DDE90223C7E902232B7B19
:102CB000AE1D033BDBB23246394604F10C00FFF790
:102CC00029FB002808DA39462046FFF7BFF93846C5
:102CD000FFF7D0F9032046E7AB883B832A7B033A12
:102CE000D2B2B88A3146FFF755FAFB7DB882DA4393
:102CF000C2F3C01262F3C713FB75AFE76AB92E1DAA
:102D0000013BDBB23246394604F10C00FFF702FB0F
:102D10000028D8DB2A7B013AE2E7FA8A013BC2F3BA
:102D20000902052AD9B250D80023281D99420AD990
:102D300007EB020E10F801CB01320133062A8EF8A0
:102D40001AC0DBB2F2D18B4228BF0023DDE9028931
:102D500007F11A02CDE908890A927A683CBF043368
:102D60005B190B920C93FB8AADF836A0C3F30903F1
:102D700019449DF81C30ADF834108DF83A309DF8A8
:102D800014308DF838B08DF83B3000238DF8396061
:102D90007B602A7BB88A013A291DFFF7FBF93B8B40
:102DA000B882834203D1A36808A92046984708A99E
:102DB0002046FFF76DFE3846FFF75CF9B88A3B8B7B
:102DC000984214BF11200020CDE6786810B34FF070
:102DD000060E03689BB9A2EB0E021B2A13D803321E
:102DE000024405F1040E1F309942ACD91EF801CB04
:102DF000013302F801CF9042DBB2F5D1A3E70EF127
:102E00001C0E1846E5E7184B184A40F2B311184853
:102E100001F0C0FB034696E76FF00900A3E66FF0F0
:102E20000A00A0E66FF00D009DE66FF00E009AE636
:102E30006FF00F0097E6FB7D394668F386036FF36A
:102E4000C713FB752046FFF701F9069B002B7FF4A3
:102E5000D8AEFB7DC3F38402013262F38603FB75B7
:102E600003E700BF80841E00305800081456000895
:102E700038590008026843681143016003B11847DC
:102E8000704700002DE9F0414E4EB04240F0868080
:102E90004D4CDFF838E1E56945F00075E561E4691E
:102EA000446DD4F8007207EA0E0747F00107C4F832
:102EB0000072D4F8005205EA0E0545F0010545EA16
:102EC0000121C4F80012002A6AD000210F46C4F87C
:102ED0001C12C4F80412C4F80C12C4F8141204EB47
:102EE000C10501310E29C5F84072C5F84472F6D10A
:102EF0004FF0000E4FF0010C964510D1426DB042DC
:102F0000D2F8003223F00103C2F8003258D12E4B20
:102F1000DA6922F00072DA61DB69BDE8F0819F783E
:102F20001D8817F0010F18BFD4F804820CFA05F1C0
:102F30001CBF41EA0808C4F8048217F0020F18BF4A
:102F4000D4F80C8204EBC5051CBF41EA0808C4F89C
:102F50000C827F0748BFD4F8147203F10C0344BFFE
:102F60000F43C4F8147253F8087C0EF1010EC5F833
:102F7000407253F8047CC5F84472D4F81C522943BB
:102F8000C4F81C12B8E70021446DC4F81C12C4F840
:102F90000412C4F80C12C4F81412A9E7002AF2D1E2
:102FA0000022436DC3F84022C3F84422C3F8042230
:102FB000C3F814220122C3F80C22C3F81C229DE797
:102FC000BDE8F0811C270020001002400000FFFF38
:102FD000184B10B55A6D936813F00104936005D037
:102FE00013F00C0F14BF4FF480340124D90506D51B
:102FF00013F4406F14BF44F4003444F00204DA03C5
:1030000006D513F4402F14BF44F4802444F0040484
:10301000202383F311880021074800F06BFE21462E
:103020000648FFF727FF002383F31188BDE810400F
:1030300001F016B81C27002024270020402700207C
:1030400038B5154C636DDD68AA0713D05A6922F0B4
:1030500002025A61202383F31188002104F1100039
:1030600000F048FE012104F11800FFF703FF0023E0
:1030700083F31188EB060BD51021636DD9602023F3
:1030800083F311880548FFF7F5FE002383F31188C9
:10309000BDE8384000F0E4BF1C2700204C2700208A
:1030A00038B5154C636D1D69AA0713D05A6922F013
:1030B00010025A61202383F31188002104F11000CB
:1030C00000F018FE022104F11800FFF7D3FE0023E0
:1030D00083F31188EB060BD51021636D1961202352
:1030E00083F311880548FFF7C5FE002383F3118899
:1030F000BDE8384000F0B4BF1C2700204C2700205A
:1031000038B5144C636D5D682A075D6010D52046A4
:10311000032200F8482B1A6822F002021A602023CA
:1031200083F311880021FFF7A5FE002383F31188A4
:103130006B070BD5636D9969202383F311880648CB
:103140000904FFF797FE002383F31188BDE8384098
:1031500000F086BF1C2700204C27002010B50F4C24
:10316000204600F053FA0E4B0B211320636500F04C
:103170002DFA0B21142000F029FA0B21152000F064
:1031800025FA0B21162000F021FA00232046BDE885
:1031900010401A460E21FFF775BE00BF1C27002005
:1031A000006400400F4B10B59842044605D10E4B09
:1031B000DA6942F00072DA61DB690122636D1A603C
:1031C000636D5A68D20707D5626851681268D96181
:1031D0001A60064A5A6110BD0121082000F0BEFCA9
:1031E000EEE700BF1C270020001002405B870100B3
:1031F00003291AD8DFE801F0020A0F14436D9B6817
:1032000013F0E05F14BF012000207047436D986801
:10321000C0F380607047436D9868C0F3C06070472A
:10322000436D9868C0F3007070470020704700003D
:1032300010B503291FD8DFE801F0021F2327416DD5
:103240008B68C3F30163183301EB03131078810615
:103250001ED55468C0F30011490041EAC40141F091
:10326000040100F00F005860906841F0010198607F
:10327000D268DA60196010BD436D03F5C073E5E7ED
:10328000436D03F5C873E1E7436D03F5D073DDE7E4
:103290009488C0F30011490041EA4451E1E700007D
:1032A00001290CD003D3022910D000207047436DB0
:1032B000DA68920701D1186903E001207047436D75
:1032C000D86810F0030018BF01207047436DF2E783
:1032D00010B539B9436DD96889071BD11B699B07A4
:1032E00004D110BD012915D0022948D1416DD1F872
:1032F000C031D1F8C401D1F8C8411461D1F8CC4132
:10330000546120240C610C69A40717D14C6944F066
:10331000100412E0416DD1F8B031D1F8B401D1F808
:10332000B8411461D1F8BC4154612024CC60CC6810
:10333000A40703D14C6944F002044C6111795C0884
:1033400064F304119C0864F34511117189064BBFA5
:1033500091681189DB085B0D4CBF63F31C0163F3BB
:103360000A01137948BF916060F3030313714FEAB8
:1033700010234FEA104058BF11811370508010BDC8
:10338000026843681143016003B1184770470000A9
:10339000024AD36843F0C003D3607047003801404D
:1033A000024AD36843F0C003D36070470044004032
:1033B0002DE9F041D0F89C600546F7683368DA05DE
:1033C0009CB20DD5202383F311884FF40071043093
:1033D000FFF7D6FF6FF480733360002383F3118807
:1033E000202383F3118805F1040814F02F0333D14F
:1033F00083F31188380615D5210613D5202383F3CE
:10340000118805F1380000F08FFA002846DA08210B
:10341000281DFFF7B5FF4FF67F733B40F360002395
:1034200083F311887A060ED563060CD5202383F327
:103430001188EA6C2B6D9A4202D12B6C002B2FD194
:10344000002383F31188D5F8A420D368002B31D052
:10345000BDE8F04110691847230713D014F0080F96
:103460000CBF00218021E00748BF41F02001A207E6
:1034700048BF41F04001630748BF41F480714046B6
:10348000FFF77EFFA406736805D595F8A0102846BF
:10349000194000F0F7FA3468A4B2A6E77060BEE7FE
:1034A00027F040073F041021281D3F0CFFF768FF5D
:1034B000F760C5E7BDE8F08108B50348FFF778FF7E
:1034C000BDE8084000F0CCBD7427002008B50348D3
:1034D000FFF76EFFBDE8084000F0C2BD1C280020C9
:1034E00010B5094C094A2046002100F09DFA084B0E
:1034F000084AC4F89C30084C0021204600F094FA99
:10350000064BC4F89C3010BD74270020913300088E
:1035100000380140A13300081C280020004400406E
:1035200038B5254D037C002918BF0D46012B0446F4
:10353000C0F8A4500CD1214B984230D10C21252049
:103540001F4B9A6942F480429A619B6900F03EF8F1
:103550002A681C49D4F89C3001EB5201B1FBF2F20D
:103560009A60EA8842F0400292B21A612A8942F0D7
:10357000010292B25A61AA8842F4045141F02C012E
:10358000D960002102F4A0521960B2F5806F196869
:103590005B680CBF7F23FF2384F8A03038BD0A4B43
:1035A0009842D5D1064B0C21DA69262042F400322C
:1035B000DA61DB69CAE700BF74590008742700208C
:1035C00000100240005125021C28002000F1604339
:1035D000090103F56143C9B283F80013012300F028
:1035E0001F024009800000F16040934000F56140F7
:1035F000C0F8803103607047090100F16040C9B232
:1036000000F56D4001767047FFF7A8BD01230370F8
:10361000002300F108028260C26000F110028361A1
:1036200043604362026103634261C363C361036237
:103630008362C36243638363036443648364C364D8
:103640000365704710B52023044683F311880223D5
:1036500041600370FFF7A6FD03232370002383F36B
:10366000118810BD2DE9F0411F4604460D4616464F
:10367000202383F3118800F108082378042B0ED04F
:1036800029462046FFF7B4FD48B120463246294678
:10369000FFF7CEFD002080F31188BDE8F0813946A8
:1036A000404600F00BFB0028E7D0002383F311888D
:1036B000BDE8F0812DE9F0411F4604460D4616464F
:1036C000202383F3118800F110082378042B0ED0F7
:1036D00029462046FFF7E4FD48B1204632462946F8
:1036E000FFF7F6FD002080F31188BDE8F081394630
:1036F000404600F0E3FA0028E7D0002383F3118866
:10370000BDE8F081F8B5154682680B46AA4281698A
:10371000066938BF8568761AB542044607D218464E
:103720002A46FEF775FBA3692B44A3610DE011D96E
:1037300032461846FEF76CFBAF1B3A46E168304450
:10374000FEF766FBE2683A44A261A36828465B1B69
:10375000A360F8BD18462A46FEF75AFBE368E4E783
:103760002DE9F0410446154683682669934238BF27
:10377000856840690F46361AB54206D22A46FEF7DA
:1037800047FB63692B4463610DE012D93246A5EB18
:103790000608FEF73DFB4246B919E068FEF738FB24
:1037A000E26842446261A36828465B1BA360BDE8EF
:1037B000F0812A46FEF72CFBE368E4E710B500240D
:1037C000C361029B0A44006040608460C160816103
:1037D00041610261036210BD08B582694369934289
:1037E00001D1826882B98268013282605A1C4261CA
:1037F0001970426903699A4201D3C3684361002189
:1038000000F06CFA002008BD4FF0FF3008BD00004A
:1038100070B5202304460E4683F31188A568A5B130
:10382000A368A269013BA360531CA36115782269B8
:10383000934224BFE368A361E3690BB12046984734
:10384000002383F31188284670BD3146204600F0DE
:1038500035FA0028E2DA85F3118870BD2DE9F74FBB
:1038600005460F4690469A46D0F81C90202686F3CF
:1038700011884FF0000B144664B1224639462846A1
:10388000FFF740FF034668B95146284600F016FA94
:103890000028F1D0002383F31188A8EB040003B0C3
:1038A000BDE8F08FB9F1000F03D001902846C8475A
:1038B000019B8BF31188E41A1F4486F31188DBE720
:1038C000C361009BC160816141611144006040603F
:1038D0008260016103627047F8B504460E461746E0
:1038E000202383F31188A568A5B1A368013BA360D9
:1038F00063695A1C62611E70236962699A4224BF1F
:10390000E3686361E3690BB120469847002080F3C8
:103910001188F8BD3946204600F0D0F90028E2DAD7
:1039200085F31188F8BD00008369426910B59A4299
:1039300001D182687AB98268013282605A1C826140
:103940001C7803699A4201D3C3688361002100F0A7
:10395000C5F9204610BD4FF0FF3010BD2DE9F74FDF
:1039600005460F4690469A46D0F81C90202686F3CE
:1039700011884FF0000B144664B1224639462846A0
:10398000FFF7EEFE034668B95146284600F096F967
:103990000028F1D0002383F31188A8EB040003B0C2
:1039A000BDE8F08FB9F1000F03D001902846C84759
:1039B000019B8BF31188E41A1F4486F31188DBE71F
:1039C000026843681143016003B118477047000063
:1039D0001430FFF743BF00004FF0FF331430FFF700
:1039E0003DBF00003830FFF7B9BF00004FF0FF3394
:1039F0003830FFF7B3BF00001430FFF709BF0000F5
:103A00004FF0FF311430FFF703BF00003830FFF7ED
:103A100063BF00004FF0FF323830FFF75DBF00009A
:103A200000207047FFF75CBD0E4B37B503600023E5
:103A300043608360C360012304461546037420225B
:103A400000900B4600F15C011430FFF7B7FE0094C4
:103A50002B46202204F17C0104F13800FFF730FFEF
:103A600003B030BD8859000810B52023044683F305
:103A70001188FFF755FD02232374002383F3118877
:103A800010BD000038B5C36904460D461BB90421BA
:103A90000844FFF795FF294604F11400FFF79CFE48
:103AA000002806DA201D4FF48061BDE83840FFF79A
:103AB00087BF38BD0022024B1B605B609A60704775
:103AC000C4280020002382680374054B1B68996892
:103AD0009142FBD25A6803604260106058607047A0
:103AE000C428002008B5202383F31188037C032B0E
:103AF00005D0042B0DD02BB983F3118808BD00220B
:103B000043691A604FF0FF334361FFF7DBFF002387
:103B1000F2E790E80C001A6002685360F2E70000D8
:103B2000002382680374054B1B6899689142FBD897
:103B30005A6803604260106058607047C4280020D3
:103B4000054B196908741868026853601A60186197
:103B500001230374FCF796BFC428002030B54B1C2A
:103B600087B005460A4C10D023690A4A01A800F024
:103B7000DDF82846FFF7E4FF049B13B101A800F02D
:103B8000EFF82369586907B030BDFFF7D9FFF8E7B0
:103B9000C4280020E53A000838B50C4D41612B6976
:103BA00081689A680446914203D8BDE83840FFF71F
:103BB00089BF1846FFF786FF01232C610146237455
:103BC0002046BDE83840FCF75DBF00BFC428002098
:103BD000044B1A681B6990689B68984294BF002048
:103BE00001207047C428002010B5084C23682069C4
:103BF0001A6854602260012223611A74FFF790FF53
:103C000001462069BDE81040FCF73CBFC4280020F5
:103C100008B5FFF7DDFF18B1BDE80840FFF7E4BFC6
:103C200008BD0000826002220274002242747047C4
:103C30008368A3F13C0243F80C2C026943F83C2C46
:103C4000426943F8382C074A43F81C2CC268A3F198
:103C5000180043F8102C022203F8082C002203F865
:103C6000072C7047950A000810B5202383F31188AC
:103C7000FFF7DEFF00210446FFF78EFF002383F3EA
:103C80001188204610BD0000024B1B6958610F20AF
:103C9000FFF756BFC4280020202383F31188FFF7C5
:103CA000F3BF000008B50146202383F311880820E4
:103CB000FFF754FF002383F3118808BD49B1064B79
:103CC00042681B6918605A60136043600420FFF764
:103CD00045BF4FF0FF307047C4280020036898426A
:103CE00006D01A680260506059611846FFF7EABEB4
:103CF0007047000038B504460D462068844200D164
:103D000038BD036823605C604561FFF7DBFEF4E7C4
:103D1000054B03F114025A619A614FF0FF32DA61E8
:103D200000221A62704700BFC428002010B5C2608C
:103D30000A4A036153699C68A1420CD85C6803601D
:103D400044602060586081609868411A99604FF023
:103D5000FF33D36110BD091B1B68ECE7C4280020AA
:103D6000036881689A680A449A604268136003682D
:103D70005A6000234FF0FF32C360014BDA61704795
:103D8000C4280020162303604FF0FF307047000066
:103D90000020704718467047002070470C230360CE
:103DA0004FF0FF307047000010B5144600213C2250
:103DB0002046FEF73FF84FF400530020636010BD2B
:103DC0000120704700207047FEE7000070470000A8
:103DD0004FF0FF3070470000BFF34F8F024AD368A7
:103DE000DB07FCD4704700BF0020024008B5074B3A
:103DF0001B7853B9FFF7F0FF054B1A69120641BF54
:103E0000044A5A6002F188325A6008BD1429002021
:103E1000002002402301674508B5054B1B7833B9E4
:103E2000FFF7DAFF034A136943F08003136108BD0B
:103E300014290020002002407F289ABF00F500309E
:103E400080020020704700004FF48060704700003F
:103E5000802070477F2808B50BD8FFF7EDFF00F5ED
:103E600080630268013204D104308342F9D1012019
:103E700008BD002008BD00007F2808B5014618D8FD
:103E8000FFF7AAFFFFF7B2FFF3220B4BDA60022223
:103E90001A61FFF7D1FF58611A6942F040021A61B6
:103EA000FFF79AFFFFF7B8FFBDE808400846FFF7A5
:103EB000D1BF002008BD00BF002002402DE9F8431B
:103EC00012F00103144606D040F232221F4B1A6052
:103ED0000020BDE8F88385181D4A954204D940F2B8
:103EE00037211A4A1160F3E7FFF780FFFFF774FFED
:103EF0004FF00109DFF86880451A012C05EB010637
:103F00000F4604D8FFF788FF0120BDE8F883C8F802
:103F1000109031F8023B3380FFF75EFF0020C8F8B5
:103F2000100033883A889BB29A420DD040F24E225C
:103F3000064B1A60074B1E60074B1C60074B1F6047
:103F4000FFF76AFFBDE8F883023CD6E7102900209E
:103F5000FFFF0108042900200C2900200829002067
:103F600000200240084908B50B7828B153B9FFF783
:103F70003DFF01230B7008BD23B1BDE80840087068
:103F8000FFF74ABF08BD00BF142900204FF47A7024
:103F90000D4B30B51B6A58430C4B1A6890421A46B9
:103FA0000FD20B4B0B49D3E9004514F1FF3445F117
:103FB0000005C3E900450B6803F5830303F63713D7
:103FC0000B60106030BD00BFC428002018290020FD
:103FD000202900201C29002070B500F0E7F80646D3
:103FE000FFF7D4FF054BD3E90045241845F1000540
:103FF000304600F0E5F82046294670BD2029002013
:1040000038B500F0D3F84FF47A740546FFF7BEFFD9
:10401000B0FBF4F4034B18680444284600F0D0F8D1
:10402000204638BD1C290020034A536890689BB283
:1040300043EA0040704700BF006C0040024B82B270
:10404000000C5A6098607047006C0040EFF30983E1
:10405000203383F30988002383F31188704700001D
:1040600010B5202383F311880D4B5B6813F40063B4
:1040700012D0EFF309844FF0807344F8043CA4F1AC
:10408000200383F30988FFF7A3FD18B1054B44F81B
:10409000083C10BD044BFAE783F3118810BD00BF44
:1040A00000ED00E0A50A0008A80A0008704700001B
:1040B000FEE70000084A094B09498B4204D300215E
:1040C000084A934205D3704752F8040F43F8040B93
:1040D000F3E743F8041BF4E7705B0008642A002050
:1040E000642A0020642A0020FEE7000010B5174C67
:1040F000FFF7E0FCFFF70CFE802215492046FFF792
:1041000091FD012344F8180C0374124B124AD9682C
:1041100021F4E0610904090C0A431049DA60CA6815
:1041200042F08072CA600E490A6842F001020A60D9
:104130001022DA77202283F82220002383F31188CB
:1041400062B6BDE810400748FFF78EBDEC2800209E
:10415000B059000800ED00E00003FA05F0ED00E0C2
:10416000001000E0B8590008F8B50F4C226A01327F
:104170002262224652F8141F9142154606D020268C
:104180008B68013B8B6063699A6802B1F8BD19685E
:10419000DF68DA604D60616182F311881869B847A1
:1041A00086F31188EFE700BFC4280020EFF31180E9
:1041B00020B9EFF30583202282F3118870470000B5
:1041C00010B558B9EFF30584C4F3080414B180F3B3
:1041D000118810BDFFF71CFD84F3118810BD00008D
:1041E00000F02EB808B500F061F9BDE80840FFF70F
:1041F0007DBF0000704700004FF0FF310E4B1A6981
:1042000019611A6900221A611869D868D960D968D9
:10421000DA60DA68DA6942F08052DA61DA69DA691A
:1042200042F00062DA61054ADB69136843F4807387
:10423000136000F01BB900BF001002400070004086
:10424000194B1A6842F001021A601A689007FCD5EF
:104250001A6802F0F9021A6000225A605A6812F0D5
:104260000C0FFBD11A6842F480321A601A6891036D
:10427000FCD55A6842F4E8125A601A6842F080721B
:104280001A601A689201FCD51221084A5A60084A3D
:1042900011605A6842F002025A605A6802F00C0239
:1042A000082AFAD1704700BF0010024000641D00C8
:1042B00000200240084A08B5536911680B4003F01A
:1042C0000103536123B1054A13680BB15068984745
:1042D000BDE80840FFF7C4BE00040140D829002013
:1042E000084A08B5536911680B4003F00203536193
:1042F00023B1054A93680BB1D0689847BDE80840E0
:10430000FFF7AEBE00040140D8290020084A08B5D6
:10431000536911680B4003F00403536123B1054A4C
:1043200013690BB150699847BDE80840FFF798BE84
:1043300000040140D8290020084A08B553691168D3
:104340000B4003F00803536123B1054A93690BB195
:10435000D0699847BDE80840FFF782BE00040140DD
:10436000D8290020084A08B5536911680B4003F0AA
:104370001003536123B1054A136A0BB1506A984781
:10438000BDE80840FFF76CBE00040140D8290020BA
:10439000174B10B55C691A68144004F478725A61BE
:1043A000A30604D5134A936A0BB1D06A98476006F6
:1043B00004D5104A136B0BB1506B9847210604D5F6
:1043C0000C4A936B0BB1D06B9847E20504D5094AB0
:1043D000136C0BB1506C9847A30504D5054A936C38
:1043E0000BB1D06C9847BDE81040FFF739BE00BF55
:1043F00000040140D82900201A4B10B55C691A68E6
:10440000144004F47C425A61620504D5164A136DC7
:104410000BB1506D9847230504D5134A936D0BB12A
:10442000D06D9847E00404D50F4A136E0BB1506E5F
:104430009847A10404D50C4A936E0BB1D06E9847EF
:10444000620404D5084A136F0BB1506F98472304D8
:1044500004D5054A936F0BB1D06F9847BDE8104063
:10446000FFF7FEBD00040140D8290020062108B551
:104470000846FFF7ABF806210720FFF7A7F806214B
:104480000820FFF7A3F806210920FFF79FF806216F
:104490000A20FFF79BF806211720FFF797F8BDE8E1
:1044A000084006212820FFF791B8000008B5FFF763
:1044B000A3FE064800F00EF8FFF7A6F8FFF7B2FAE1
:1044C000FFF798FEBDE8084000F002B8D859000890
:1044D00000F050B800231A4610B51C495A50CC18A9
:1044E0000833802B6260F9D1194B9A6942F07D0242
:1044F0009A619B690268174BDA6082685A60426869
:104500001A60C26803F58063DA6042695A60026922
:104510001A608269C3F80C24026AC3F80424C269D1
:10452000C3F80024426AC3F80C28C26AC3F80428FE
:10453000826AC3F80028026BC3F80C2C826BC3F8A4
:10454000042C426BC3F8002C10BD00BFD8290020FA
:10455000001002400008014008B5202383F31188B1
:10456000FFF702FE002383F31188BDE80840FFF740
:1045700077BD0000054B064A08215A6000229A6068
:1045800007220B201A60FFF737B800BF10E000E0E9
:104590003F1901001FB51C46094B05461B68D8682A
:1045A00052B1084B8DE80A0002922B46224606497A
:1045B00000F00EF800F03AFC044B1A46F2E700BF98
:1045C00018100020145A0008215A00083F5500080E
:1045D0000EB403B5014603AB054853F8042B00683D
:1045E000019300F09DF802B05DF804EB03B0704752
:1045F0001810002010B501390244904201D100206A
:1046000010BD10F8013B11F8014FA342F5D0181B63
:1046100010BD000070B5CD1C25F0030508350C2D2C
:1046200038BF0C25002D064601DBA94203D90C2317
:104630003360002070BD00F0EFFD234A146821466E
:1046400091B9224C23681BB9304600F017FB20605B
:104650002946304600F012FB431C26D10C2330467D
:10466000336000F0DBFDE4E70B685B1B1AD40B2B17
:104670000FD90B60CC18CD50304600F0CFFD04F1BF
:104680000B00231D20F00700C31A1BD05A42E25032
:1046900070BD8C420BBF63684B681360636018BFCA
:1046A0000C46E9E70C464968CAE7C41C24F0030439
:1046B000A04205D0211A304600F0E0FA0130CDD0FA
:1046C0002560D9E770BD00BF582A00205C2A002071
:1046D000936810B4013B002B936008DA9469A342FD
:1046E00002DBCBB20A2B02D110BC00F0DFBA136898
:1046F000581C10601970C8B210BC7047F8B5064657
:104700000F461446D518AC4201D1002007E03A46C6
:1047100014F8011B3046FFF7DBFF431CF3D1F8BD53
:104720002DE9F04F9DB00C4617460393064618B18D
:1047300083690BB900F074FC7C4B9C4257D17468C0
:10474000A38918075DD52369002B5AD0002309934C
:1047500020238DF8293030234FF0010B8DF82A30BB
:10476000B846454615F8013B002B55D1B8EB070A72
:104770000BD053463A4621463046FFF7BFFF013083
:1047800000F0C480099B5344099398F80030002B33
:1047900000F0BC8000234FF0FF3204930793059292
:1047A00006938DF853301A9305222978604800F05B
:1047B00025FD05F10108049B002831D1D90644BF2D
:1047C00020228DF853201A0744BF2B228DF8532046
:1047D0002A782A2A2CD000210A20079AA84698F87D
:1047E00000300135303B092B6DD971B326E0514BB8
:1047F0009C4201D1B468A3E74F4B9C4208BFF468C8
:104800009EE72146304600F0A3FA00289ED04FF0E4
:10481000FF301DB0BDE8F08F252BA7D0A846A0E73C
:10482000434A4546801A0BFA00F018430490BBE750
:10483000039A111D12680391002A01DB079204E01C
:10484000524243F002030792049398F800302E2B53
:1048500010D198F8013008F101012A2B37D1039BC0
:1048600008F102081A1D1B680392002BB8BF4FF015
:10487000FF330593314D032298F80010284600F0CD
:10488000BDFC40B14023401B03FA00F0049B08F13B
:1048900001080343049398F800100622284808F101
:1048A00001078DF8281000F0A9FC002834D0254B12
:1048B00003BB039B073323F0070308330393099BD0
:1048C0004B4409934CE700FB0232012186E70023A9
:1048D0000A2518460593884698F800200131303A99
:1048E000092A03D9002BC5D00590C3E705FB00209A
:1048F0000123F0E703AB00932246134B04A9304693
:10490000AFF30080B0F1FF3F8146D8D1A3895B06A9
:104910003FF57DAF09987CE703AB009322460A4B35
:1049200004A9304600F08AF8ECE700BFAC5A000852
:10493000545A0008CC5A00088C5A00085A5A0008E9
:104940005E5A000800000000FD4600082DE9F0470F
:1049500091461F468A680B6906469342B8BF1346C4
:10496000C9F8003091F843200C46DDF8208012B1E0
:104970000133C9F800302368990642BFD9F80030E6
:104980000233C9F80030256815F0060507D104F197
:10499000190AE368D9F800209B1A9D422ADB94F893
:1049A00043302268003318BF012392062FD404F14C
:1049B000430239463046C047013022D02368E568BB
:1049C00003F00603042B18BF0025D9F800204FF090
:1049D000000908BFAD1AA368226908BF25EAE5757A
:1049E0009342C4BF9B1AED181A344D451BD10020C9
:1049F000BDE8F0870123524639463046C0470130B2
:104A000003D14FF0FF30BDE8F0870135C1E730201A
:104A1000E11881F843005A1C94F8451022440233EF
:104A200082F84310C3E70123224639463046C04787
:104A30000130E6D009F10109D7E700002DE9F04384
:104A400017460A7E85B06E2A984606460C460C9B91
:104A500001F1430E00F0BC801AD8632A2ED00AD888
:104A6000002A00F0C880582A00F08A8004F142052C
:104A700084F842202AE0642A01D0692AF6D121680C
:104A80001A6811F0800F23D0111D1960136827E0F8
:104A9000732A00F0B48008D86F2A2AD0702AE5D192
:104AA0000A6842F020020A6003E0752A21D0782AC1
:104AB000DCD178226F4984F8452064E01A6801F15E
:104AC0004205111D1960136884F842300123A3E0E8
:104AD00011F0400F02F104011960D7D0B2F9003093
:104AE000002B03DA2D225B4284F8432062490A221C
:104AF00017E02068196810F0800F03D0081D1860B7
:104B00000B6806E010F0400F01F104001860F7D0C8
:104B10000B886F2A14BF0A2208225749002084F804
:104B200043006568002DA560C0F29C80206820F0DD
:104B300004002060002B3FD1002D40F09580754689
:104B4000082A0BD12368DA0708D5236962689A42DC
:104B5000DEBF302305F8013C05F1FF35AEEB050360
:104B60002361CDF800803B4603AA21463046FFF77B
:104B7000EDFE013055D14FF0FF3005B0BDE8F083B8
:104B800081F845203C492268186812F0800F00F136
:104B900004051D6001D0036802E05506FBD50388BB
:104BA000D00744BF42F0200222601BB9226822F0E5
:104BB000200222601022B1E77546B3FBF2F002FB3F
:104BC0001033CB5C05F8013D03460028F5D1B7E76B
:104BD00008681A6810F0800F496904D0101D186029
:104BE0001368196007E010F0400F02F1040018602C
:104BF0001368F6D01980002375462361B1E71A685F
:104C0000111D1960156800216268284600F0F6FA47
:104C100008B1401B606063682361002384F843305F
:104C20009FE723692A4639463046C0470130A2D063
:104C300023689B0707D5002504F11909E368039A47
:104C40009B1A9D4205DBE068039B9842B8BF18465B
:104C500093E701234A4639463046C04701308AD09F
:104C60000135EBE7002BA7D10B7804F1420584F85E
:104C7000423065E7795A0008685A000838B50023C1
:104C8000054C054608462360FFF788F8431C02D10F
:104C9000236803B12B6038BD602A0020034611F859
:104CA000012B03F8012B002AF9D17047F8B50E4605
:104CB0001446054618B183690BB900F0B1F9214BD0
:104CC0009C422AD16C68A369A360A3891A072ED5D8
:104CD000236963B323692068F6B2C01A6369374653
:104CE000984204DB2146284600F030F928BBA3682F
:104CF0000130013BA36023685A1C22601E70636967
:104D0000984204D0A389DB0719D50A2E17D1214672
:104D1000284600F01BF990B10FE00B4B9C4201D1EB
:104D2000AC68D0E7094B9C4208BFEC68CBE7214652
:104D3000284600F00DF80028CCD04FF0FF37384659
:104D4000F8BD00BFAC5A0008CC5A00088C5A0008C5
:104D5000324B70B51D6806460C4625B1AB6913B9D8
:104D6000284600F05DF92E4B9C420FD16C68B4F9D7
:104D70000C309AB215072CD4D00611D40922326017
:104D800043F04003A3814FF0FF3070BD254B9C42A0
:104D900001D1AC68EBE7244B9C4208BFEC68E6E726
:104DA000510712D5616B41B104F14403994202D01D
:104DB000304600F035FA00236363A38923F024030F
:104DC000A3810023636023692360A38943F0080360
:104DD000A38123694BB9A38903F42073B3F5007F42
:104DE00003D02146304600F0C9F9A28912F0010330
:104DF0000CD00023A36063695B42A361236953B9AC
:104E0000B4F90C3013F08000BAD170BD920758BFCE
:104E10006369A360F2E70020F7E700BF18100020E5
:104E2000AC5A0008CC5A00088C5A000808B5062075
:104E300000F06AFA0120FEF7C7FF00008A892DE919
:104E4000F041054610070C465AD44B68002B05DC90
:104E50000B6C002B02DC0020BDE8F081E66A002E1E
:104E6000F9D0002312F480522F682B6033D0606D8C
:104E7000A3895A0705D56368C01A636B0BB1236C0D
:104E8000C01A00230246E66A216A2846B047431C3E
:104E9000A38906D129681D294BD82B4ACA40D607B9
:104EA00047D5002262602269D904226004D5421CE1
:104EB00001D12B6803B96065616B2F600029CAD0EE
:104EC00004F14403994202D0284600F0A9F90020D9
:104ED0006063BDE8F081216A01232846B047411C88
:104EE000C6D12B68002BC3D01D2B01D0162B01D1AE
:104EF0002F60B0E7A38943F04003A381BDE8F081B0
:104F00000F69002FA7D0930718BF00230E6808BFB2
:104F10004B69A6EB07080F608B60B8F1000F9ADDB4
:104F200043463A46216A2846A66AB047002807DC6D
:104F3000A38943F04003A3814FF0FF30BDE8F08127
:104F40000744A8EB0008E8E70100402038B50B69EA
:104F500005460C46DBB118B183690BB900F060F867
:104F60000C4B9C4209D16C68B4F90C307BB12146E2
:104F70002846BDE83840FFF761BF074B9C4201D18E
:104F8000AC68F1E7054B9C4208BFEC68ECE70020F9
:104F900038BD00BFAC5A0008CC5A00088C5A000833
:104FA000014900F0A9B800BF4D4F0008002310B51B
:104FB000044603604360836081814366C28103616C
:104FC00043618361194608225C30FCF733FF054BCF
:104FD00024626362044BA362044BE362044B2363C9
:104FE00010BD00BF41530008655300089D530008E1
:104FF000C153000870B568254A1E55430E4605F199
:105000007401FFF707FB044640B1002180E842002D
:105010000C30A06005F16802FCF70CFF204670BD63
:10502000836910B5044633BB8364C3640365124BC4
:10503000124A1B688262984204BF0123836100F018
:105040001FF86060204600F01BF8A060204600F0CA
:1050500017F80022E06004216068FFF7A7FF012233
:105060000921A068FFF7A2FF02221221E068FFF7E2
:105070009DFF0123A36110BD505A0008A14F0008F5
:10508000F8B51C4B07461E68B36913B93046FFF7E5
:10509000C7FF4836B4687368013B03D5336833B142
:1050A0003668F7E7B4F90C506DB16834F4E70421C1
:1050B0003846FFF79FFF30600028F1D10C230446EB
:1050C0003B602046F8BD4FF6FF73E3810123656620
:1050D000A3812560A560656025616561A5610822E1
:1050E000294604F15C00FCF7A5FE6563A563A56491
:1050F000E564E6E7505A00082DE9F8438046894602
:10510000002600F1480414B93046BDE8F883A568CC
:105110006768013F01D52468F5E7AB89012B07D902
:10512000B5F90E30013303D029464046C84706433F
:105130006835EEE770B50E46B1F90E1090B0002953
:1051400014461D4607DA00232B60B3891A0610D4D3
:105150004FF480630EE001AA00F058F90028F2DB5A
:10516000029A02F47042A2F500535A425A412A6050
:10517000EEE740230020236010B070BD8B8973B52B
:105180009D0706460C4607D504F1470323602361BB
:105190000123636102B070BD01AB6A46FFF7CAFF2D
:1051A000009905463046FFF735FA48B9B4F90C3096
:1051B0009A05EFD423F0030343F00203A381E3E74E
:1051C0000D4BB362A389206043F08003A381009B51
:1051D00020616361019B5BB1B4F90E10304600F0B1
:1051E00027F928B1A38923F0030343F00103A38126
:1051F000A3891D43A581CDE7A14F000810B5C9B211
:1052000002449042034601D1002010BD1C780130B9
:105210008C42F6D1184610BD704700007047000060
:1052200038B50546002943D051F8043C0C1F002B2B
:10523000B8BFE418FFF7F0FF1E4A1368104633B9F1
:10524000636014602846BDE83840FFF7E7BFA3421B
:105250000BD921686218934201BF1A685B68521823
:10526000226063600460EDE713465A680AB1A24207
:10527000FAD919685818A0420BD12068014458186F
:1052800082421960DED110685268014419605A6088
:10529000D8E702D90C232B60D4E7206821188A4272
:1052A00001BF116852680918216062605C60C9E73B
:1052B00038BD00BF582A00201F2938B504460D46C6
:1052C00004D9162303604FF0FF3038BD426C12B191
:1052D00052F821304BB9204600F030F82A460146FA
:1052E0002046BDE8384000F017B8012B0AD0591C01
:1052F00003D116230360012038BD0024284642F85C
:1053000025409847002038BD024B01461868FFF73A
:10531000D3BF00BF1810002038B50023064C054647
:10532000084611462360FEF753FD431C02D1236853
:1053300003B12B6038BD00BF602A0020FEF742BDDC
:1053400010B50C46B1F90E1000F094F80028ABBF70
:10535000636DA3891B1823F48053ACBF6365A381DD
:1053600010BD00002DE9F0411F468B890546DB0585
:105370000C46164605D502230022B1F90E1000F0A6
:1053800067F8A389324623F48053A381B4F90E1041
:105390003B462846BDE8F04100F016B810B50C4673
:1053A000B1F90E1000F054F8431CA38915BF6065D5
:1053B00023F4805343F48053A38118BFA38110BD0D
:1053C000B1F90E1000F012B838B50546084611467E
:1053D0000022054C22601A46FEF7DCFC431C02D179
:1053E000236803B12B6038BD602A002038B5002344
:1053F000054C054608462360FEF7CEFC431C02D14F
:10540000236803B12B6038BD602A002038B5002323
:10541000064C0546084611462360FEF7C5FC431CB2
:1054200002D1236803B12B6038BD00BF602A002081
:1054300038B50023054C054608462360FEF7C0FC3E
:10544000431C02D1236803B12B6038BD602A0020C1
:1054500038B50546084611460022054C22601A461A
:10546000FEF796FC431C02D1236803B12B6038BDC4
:10547000602A002038B50546084611460022054C32
:1054800022601A46FEF77EFC431C02D1236803B15A
:105490002B6038BD602A0020121012131211000078
:1054A00072656365697665645F756E697175655F60
:1054B00069645F6C656E203C2055415643414E5FE8
:1054C00050524F544F434F4C5F44594E414D494306
:1054D0005F4E4F44455F49445F414C4C4F434154FC
:1054E000494F4E5F554E495155455F49445F4D41C7
:1054F000585F4C454E475448002E2E2F2E2E2F54C9
:105500006F6F6C732F41505F426F6F746C6F61648B
:1055100065722F63616E2E63707000616C6C6F63D7
:10552000617465645F6E6F64655F6964203C3D20F3
:10553000313237004E6F64652049442025640A00EB
:10554000667720757064617465205B25735D2066E5
:10555000726F6D2025750A0075706C6F616420662E
:10556000696E6973686564202D207265626F6F745F
:10557000696E6700526573746172744E6F64650A78
:10558000000000006F72672E6172647570696C6F45
:10559000742E61705F7065726970682D424C0000F6
:1055A000766F69642068616E646C655F616C6C6FB6
:1055B000636174696F6E5F726573706F6E73652877
:1055C00043616E617264496E7374616E63652A2C07
:1055D0002043616E61726452785472616E736665C5
:1055E000722A290053544D33324631787800000036
:1055F00063616E617264496E6974000063616E611B
:1056000072645365744C6F63616C4E6F646549449A
:105610000000000063616E61726448616E646C65D5
:1056200052784672616D650063616E6172644465B3
:10563000636F64655363616C6172000063616E61E6
:105640007264456E636F64655363616C61720000E0
:10565000696E6372656D656E745472616E736665B2
:1056600072494400656E717565756554784672615E
:105670006D65730070757368547851756575650054
:1056800070726570617265466F724E65787454729F
:10569000616E736665720000636F70794269744170
:1056A00072726179000000006465736361747465EF
:1056B000725472616E736665725061796C6F616469
:1056C0000000000066726565426C6F636B0000004D
:1056D0006269745F6C656E677468203E203000728A
:1056E000656D61696E696E675F62697473203E20E3
:1056F0003000696E7075745F6269745F6F6666739F
:105700006574203E3D20626C6F636B5F6269745FFD
:105710006F666673657400626C6F636B5F656E6461
:105720005F6269745F6F6666736574203E20626CA9
:105730006F636B5F6269745F6F6666736574007236
:10574000656D61696E696E675F6269745F6C656ED5
:10575000677468203C3D2072656D61696E696E6793
:105760005F6269747300696E7075745F6269745FFB
:105770006F6666736574203C3D207472616E73665B
:1057800065722D3E7061796C6F61645F6C656E202F
:105790002A2038006F75747075745F6269745F6F6A
:1057A0006666736574203C3D2036340072656D6119
:1057B000696E696E675F6269745F6C656E67746855
:1057C000203D3D20300028726573756C74203E20AA
:1057D00030292026262028726573756C74203C3D84
:1057E000203634292026262028726573756C742093
:1057F0003C3D206269745F6C656E677468290000C7
:1058000064657374696E6174696F6E20213D202830
:1058100028766F6964202A2930290076616C7565C5
:1058200020213D202828766F6964202A293029000C
:105830006F66667365745F77697468696E5F626CC2
:105840006F636B203C2028333255202D205F5F6230
:1058500075696C74696E5F6F66667365746F6620D8
:105860002843616E617264427566666572426C6F50
:10587000636B2C2064617461292900006F75745F6B
:10588000696E7320213D202828766F6964202A29BB
:10589000302900007372635F6C656E203E203055C6
:1058A000000000002863616E5F6964202620307864
:1058B00031464646464646465529203D3D206361D1
:1058C0006E5F696400000000616C6C6F6361746FEF
:1058D000722D3E737461746973746963732E63759A
:1058E0007272656E745F75736167655F626C6F631A
:1058F0006B73203E203000007472616E73666572B7
:105900005F696420213D202828766F6964202A2958
:105910003029000073746174652D3E62756666659A
:10592000725F626C6F636B73203D3D202828766F39
:105930006964202A293029002E2E2F2E2E2F6D6FDC
:1059400064756C65732F6C696263616E6172642F3C
:1059500063616E6172642E63006974656D2D3E66CD
:1059600072616D652E646174615F6C656E203E20AE
:105970003000000000960000000000000000000061
:10598000000000000000000000000000ED390008E9
:10599000D9390008153A0008013A00080D3A000804
:1059A000F9390008E5390008D1390008213A000822
:1059B0006D61696E00000000D059000828290020A0
:1059C000D829002001000000E94000080000000084
:1059D00069646C65000000000C1E0000887B8188F3
:1059E000B85789880000000088888884888888885B
:1059F0000000000088888888888888880000000067
:105A00008888888888888888000000008888888836
:105A1000888888882C2066756E6374696F6E3A205A
:105A200000617373657274696F6E20222573222082
:105A30006661696C65643A2066696C65202225732D
:105A4000222C206C696E65202564257325730A005D
:105A50001C100020232D302B2000686C4C00656644
:105A60006745464700000000303132333435363761
:105A700038394142434445460030313233343536BB
:105A80003738396162636465660000000000000019
:105A90000000000000000000000000000000000006
:105AA00000000000000000000000000000000000F6
:105AB00000000000000000000000000000000000E6
:105AC00000000000000000000000000000000000D6
:105AD00000000000000000000000000000000000C6
