:020000040800F2
:10000000000C0020A5090008B51C0008B91C000858
:10001000F11C0008B91C0008D51C0008A60900083E
:10002000A6090008A6090008A6090008C53D0008A1
:10003000A6090008A6090008A6090008D142000880
:10004000A6090008A6090008A6090008A6090008D4
:10005000A6090008A60900082D400008594000081C
:1000600085400008B1400008DD400008A6090008EE
:10007000A6090008A6090008A6090008A6090008A4
:10008000A6090008A6090008A6090008A12D000875
:10009000112E0008712E0008D12E00080941000819
:1000A000A6090008A6090008A6090008A609000874
:1000B000A6090008A6090008A6090008A609000864
:1000C000A6090008A6090008A6090008A609000854
:1000D000A6090008893200089D320008A609000818
:1000E00071410008A6090008A6090008A609000831
:1000F000A6090008A6090008A6090008A609000824
:10010000A6090008A6090008A6090008A609000813
:10011000A6090008A6090008A6090008A609000803
:10012000A6090008A6090008A6090008A6090008F3
:10013000A6090008A6090008A6090008A6090008E3
:10014000A6090008A6090008A6090008A6090008D3
:10015000A6090008A6090008A6090008A6090008C3
:100160003D1A000800000000D0400B1CD1409C4606
:10017000203AD34018435242634693401843704795
:100180009140031C90409C46203A934019435242B0
:100190006346D3401943704780F0004002E000BF3F
:1001A00081F0004142001FBF5FEA410392EA030F62
:1001B0007FEA226C7FEA236C6AD04FEA1262D2EBAC
:1001C0001363C1BFD218414048404140B8BF5B42B1
:1001D000192B88BF704710F0004F40F4000020F04A
:1001E0007F4018BF404211F0004F41F4000121F060
:1001F0007F4118BF494292EA030F3FD0A2F10102AA
:1002000041FA03FC10EB0C00C3F1200301FA03F1E7
:1002100000F0004302D5494260EB4000B0F5000F0A
:1002200013D3B0F1807F06D340084FEA310102F1C9
:100230000102FE2A51D2B1F1004F40EBC25008BF7B
:1002400020F0010040EA03007047490040EB000045
:1002500010F4000FA2F10102EDD1B0FA80FCACF174
:10026000080CB2EB0C0200FA0CF0AABF00EBC25073
:1002700052421843BCBFD0401843704792F0000F61
:1002800081F4000106BF80F400000132013BB5E7B4
:100290004FEA41037FEA226C18BF7FEA236C21D02A
:1002A00092EA030F04D092F0000F08BF084670478F
:1002B00090EA010F1CBF0020704712F07F4F04D15D
:1002C000400028BF40F00040704712F100723CBF70
:1002D00000F50000704700F0004343F0FE4040F49A
:1002E000000070477FEA226216BF08467FEA236358
:1002F0000146420206BF5FEA412390EA010F40F443
:10030000800070474FF0000304E000BF10F000438E
:1003100048BF40425FEA000C08BF704743F0964375
:1003200001464FF000001CE050EA010208BF704790
:100330004FF000030AE000BF50EA010208BF704717
:1003400011F0004302D5404261EB41015FEA010C2C
:1003500002BF84460146002043F0B64308BFA3F124
:100360008053A3F50003BCFA8CF2083AA3EBC25306
:1003700010DB01FA02FC634400FA02FCC2F1200225
:10038000BCF1004F20FA02F243EB020008BF20F05C
:100390000100704702F1200201FA02FCC2F12002C2
:1003A00050EA4C0021FA02F243EB020008BF20EAB7
:1003B000DC7070474FF0FF0C1CEAD0521EBF1CEAE5
:1003C000D15392EA0C0F93EA0C0F6FD01A4480EAD3
:1003D000010C400218BF5FEA41211ED04FF00063BC
:1003E00043EA501043EA5111A0FB01310CF00040E8
:1003F000B1F5000F3EBF490041EAD3715B0040EA0E
:10040000010062F17F02FD2A1DD8B3F1004F40EBDD
:10041000C25008BF20F00100704790F0000F0CF0B0
:10042000004C08BF49024CEA502040EA51207F3A74
:10043000C2BFD2F1FF0340EAC250704740F400004F
:100440004FF00003013A5DDC12F1190FDCBF00F040
:1004500000407047C2F10002410021FA02F1C2F1EE
:10046000200200FA02FC5FEA310040F1000053EA8A
:100470004C0308BF20EADC70704792F0000F00F0D8
:10048000004C02BF400010F4000F013AF9D040EADE
:100490000C0093F0000F01F0004C02BF490011F472
:1004A000000F013BF9D041EA0C018FE70CEAD15370
:1004B00092EA0C0F18BF93EA0C0F0AD030F0004CF0
:1004C00018BF31F0004CD8D180EA010000F00040A4
:1004D000704790F0000F17BF90F0004F084691F062
:1004E000000F91F0004F14D092EA0C0F01D142029C
:1004F0000FD193EA0C0F03D14B0218BF084608D165
:1005000080EA010000F0004040F0FE4040F40000AE
:10051000704740F0FE4040F4400070474FF0FF0C41
:100520001CEAD0521EBF1CEAD15392EA0C0F93EA88
:100530000C0F69D0A2EB030280EA010C49024FEADA
:10054000402037D04FF0805343EA111143EA101393
:100550000CF000408B4238BF5B0042F17D024FF44B
:10056000000C8B4224BF5B1A40EA0C00B3EB510F26
:1005700024BFA3EB510340EA5C00B3EB910F24BF0F
:10058000A3EB910340EA9C00B3EBD10F24BFA3EB94
:10059000D10340EADC001B0118BF5FEA1C1CE0D15C
:1005A000FD2A3FF650AF8B4240EBC25008BF20F00F
:1005B000010070470CF0004C4CEA50207F32C2BF63
:1005C000D2F1FF0340EAC250704740F400004FF000
:1005D0000003013A37E792F0000F00F0004C02BF31
:1005E000400010F4000F013AF9D040EA0C0093F0FB
:1005F000000F01F0004C02BF490011F4000F013B55
:10060000F9D041EA0C0195E70CEAD15392EA0C0FBC
:1006100008D142027FF47DAF93EA0C0F7FF470AFF4
:10062000084676E793EA0C0F04D14B023FF44CAF37
:1006300008466EE730F0004C18BF31F0004CCAD1CC
:1006400030F000427FF45CAF31F000437FF43CAF08
:100650005FE700BF42000ED2B2F1FE4F0BD34FF066
:100660009E03B3EB126209D44FEA002343F0004328
:1006700023FA02F070474FF00000704712F1610F4B
:1006800001D1420202D14FF0FF3070474FF000001D
:10069000704700BF53B94AB9002908BF00281CBFE2
:1006A0004FF0FF314FF0FF3000F07AB9ADF1080C98
:1006B0006DE904CE00F006F8DDF804E0DDE9022380
:1006C00004B070472DE9F0478C460E460446089D5D
:1006D000002B50D18A4217466CD9B2FA82FEBEF185
:1006E000000F0BD0CEF1200C01FA0EF620FA0CFC14
:1006F00002FA0EF74CEA060C00FA0EF43A0CBCFBB8
:10070000F2F9BBB202FB19CC09FB03FA4FEA144819
:1007100048EA0C46B2450AD9F61909F1FF3180F0D2
:100720002581B24540F22281A9F102093E44A6EB9F
:100730000A06B6FBF2F002FB106600FB03F3A4B25C
:1007400044EA0644A34209D9E41900F1FF3280F0DB
:100750000B81A34240F2088102383C440021E41A94
:1007600040EA0940002D62D0002324FA0EF42C60E8
:100770006B60BDE8F0878B4207D9002D55D0002172
:1007800085E841000846BDE8F087B3FA83F1002907
:1007900040F08F80B34202D3824200F2FC80841A80
:1007A00066EB03060120B446002D40D085E810100A
:1007B000BDE8F08712B90127B7FBF2F7B7FA87FE59
:1007C000BEF1000F35D10121F61B4FEA174C1FFA7D
:1007D00087F8B6FBFCF20CFB126608FB02F0230C58
:1007E00043EA0646B04207D9F61902F1FF3302D2B6
:1007F000B04200F2D2801A46361AB6FBFCF00CFB6F
:10080000106608FB00F8A3B243EA0644A04507D9E6
:10081000E41900F1FF3302D2A04500F2B980184676
:10082000A4EB080440EA02409CE729462846BDE8BC
:10083000F08707FA0EF7CEF1200326FA03F24FEA0B
:10084000174CB2FBFCF11FFA87F80CFB112206FAD9
:100850000EF620FA03F301FB08F933431E0C46EAB7
:100860000246B14500FA0EF409D9F61901F1FF323A
:1008700080F08C80B14540F2898002393E44A6EB7D
:100880000906B6FBFCF00CFB106200FB08F99EB2F7
:1008900046EA0246B14507D9F61900F1FF3371D295
:1008A000B1456FD902383E44A6EB090640EA014142
:1008B0008FE7C1F1200722FA07F88B4048EA0303CB
:1008C00026FA07F44FEA134EB4FBFEF91FFA83FC35
:1008D0000EFB19448E4020FA07F809FB0CFA48EA8F
:1008E00006084FEA184646EA0444A24502FA01F215
:1008F00000FA01F608D9E41809F1FF3044D2A24504
:1009000042D9A9F102091C44A4EB0A04B4FBFEF08D
:100910000EFB104400FB0CFC1FFA88F848EA044464
:10092000A44507D9E41800F1FF3E29D2A44527D9F0
:1009300002381C4440EA0940A0FB0289A4EB0C0CDD
:10094000CC45C246CE4615D312D055B1B6EB0A03FC
:100950006CEB0E0606FA07F7CB401F43CE402F6024
:100960006E600021BDE8F0871046F7E68946DEE6B6
:100970004645EAD2B8EB020A69EB030E0138E4E718
:100980007046D7E718468FE78146BDE7114676E700
:1009900002383C4444E7084606E7023A3E442BE767
:1009A000704700BF02E000F000F8FEE772B627488B
:1009B00080F30888264880F3098826484EF60851B7
:1009C000CEF200010860022080F31488BFF36F8F1D
:1009D00003F028FA03F0C0FA4FF055301E491B4AC5
:1009E00091423CBF41F8040BFAE71C49184A914276
:1009F0003CBF41F8040BFAE719491A4A1A4B9A42CC
:100A00003EBF51F8040B42F8040BF8E700201749E9
:100A1000174A91423CBF41F8040BFAE703F006FA8B
:100A200003F09CFA134C144DAC4203DA54F8041B47
:100A30008847F9E700F03AF8104C114DAC4203DA60
:100A400054F8041B8847F9E703F0EEB9000C0020C6
:100A5000001800200000000800000020000C00200A
:100A6000405800080018002078180020781800204E
:100A70001C320020600100086401000864010008C5
:100A8000640100082DE9F04FC1F80CD0C3689D4601
:100A9000BDE8F08F002383F311882846A04700208B
:100AA00002F0E2FF02F088FF00DFFEE7032238B524
:100AB000214B00241A706FF05F025C709C70DC7038
:100AC0001C715C719C71DC711C725A729C72DC72BC
:100AD00003F066F9194B984223D00133984222D093
:100AE000174B20F0FF029A4220D1C0B200F028FE3E
:100AF00042F21075002003F05DF9124B9B6813F071
:100B0000400316D00CB100F05FF801F0B3F800F02C
:100B10001DFE01F003F8284600F094F800F054F8A8
:100B2000F9E72546E6E725460124E3E74FF47A7521
:100B3000E0E71D46E9E700BF78180020010007B094
:100B4000000008B0000C014008B500F07FFFA0F1E4
:100B500020035842584108BD07B5054B02211B88A8
:100B600001A8ADF8043000F0D7FF03B05DF804FB36
:100B70001052000810B51048C3680BB102F0D8FF3E
:100B80000E4C00230E4A01210B4802F0B7FF2368E8
:100B900013B12368013B2360636813B16368013BB1
:100BA0006360084B1B7833B9636823B9022001F0F6
:100BB00037F83223636010BD841800209C1D00208C
:100BC000750B00089818002038B5174C23680133BE
:100BD00028D0164D164B2A689A4223D9154B9B688C
:100BE00003F1006303F5C0439A421BD2002000F0DA
:100BF000AFFF0220104B187001F010F80F4BDA69AC
:100C00000022DA61D96999699A619B6972B60C4BC5
:100C100020211C6023682A6881F311889D4683F394
:100C20000888104738BD00BF006000080460000855
:100C3000FF5F00087818002098180020001002407C
:100C400008ED00E02DE9F04FB549B64B0A788FB0BA
:100C50009C6882460093B44B12B90120DA60087098
:100C6000202282F31188DB6813B1AF4802F060FFE5
:100C70000023AE4A0121AC4802F040FF002383F379
:100C80001188DFF8C4B2BAF1000F01D0CBF800A090
:100C900000254FF0FF382E46A54FCBF804303B70AF
:100CA000012000F0BBFFBAF1000F00F0C281DBF8B9
:100CB0000030002B40F0BD810FB0BDE8F08F022066
:100CC000FFF742FF002840F0B0819A4B1B880221B9
:100CD00009A8ADF8243000F01FFFE1E74FF47A7067
:100CE00000F0B4FE031E0193EFDB0220FFF72CFFA0
:100CF00081460028E9D0019B581E0428E5D8DFE88A
:100D000000F0031013161900052304210EA840F863
:100D1000143D00F001FF4D4600F0A2FFFFF71CFF5D
:100D200080E104217F48F4E704218348F1E70421AE
:100D30008248EEE71C25284600F00CFF0435099098
:100D4000042109A800F0E8FE2C2DF4D1E3E7002EE1
:100D5000BBD0002DB9D00220FFF7F6FE064610B931
:100D600001252E46B1E7012000F0F2FE0220002509
:100D7000387000F053FF5FFA85F9484600F000FF35
:100D80000135044618B1484600F00AFFF3E7012395
:100D900002203B7000F040FF009B9B689C4207D202
:100DA000204600F0D7FE013040F041810434F3E7E3
:100DB00000243C70CBF804403546ADE7002E84D0CB
:100DC000002D82D00220387000F028FF322000F081
:100DD0003DFE051EC4DB15F00306C1D1009A631960
:100DE00092689342BCD8B5F5807FB9D8DFF85091AE
:100DF000AE420CDA4FF47A7000F028FE0390039BA9
:100E0000002BADDB039B06F809300136F0E7C82064
:100E1000FFF79AFE06460028A2D02CB94FF0FF3209
:100E2000474BD3F800801A60454B25F00305254455
:100E3000A3EB0409AC42BFD059F80410204600F0DF
:100E40008FFE204600F086FE59F80430984240F0AC
:100E5000EE800434EEE70220FFF776FE00283FF430
:100E600034AF4FF0000AD146009B9B689A4537D2B9
:100E7000BAF1000F17D1B8F1FF3F14D0CDF824809C
:100E800030494B68A3B1002209A8135C013283EA00
:100E90000903DBB251F82330042A83EA1929F4D17B
:100EA0000AF1040AE0E7504600F054FE0990E7E733
:100EB0001A46082012F0010F4FEA52021FBF82F0BB
:100EC0006D4282F4380282F4034282F0200201383B
:100ED000F0D141F823200133B3F5807FE8D1D2E788
:100EE00004210EA840F8289D00F016FE14E7002308
:100EF0000EA840F8143D642100F0DEFD00287FF4C8
:100F0000E4AE0220FFF720FE00283FF4DEAE099891
:100F100000F058FE0EAB43F8240D04211846E3E719
:100F2000991800207818002084180020750B0008FC
:100F300098180020125200087C1800208018002009
:100F40009C1800209C1900209C1D002000230EA846
:100F500040F8143D642100F0AFFD00287FF4B5AEE9
:100F60000220FFF7F1FD00283FF4AFAE099800F032
:100F70002BFE0EAB43F8200DCFE70220FFF7E4FD78
:100F800000283FF4A2AE00F025FE0EAB43F81C0D86
:100F9000C3E70220FFF7D8FD00283FF496AE09A969
:100FA000142000F01DFE81460EA840F8189D042173
:100FB00000F0B2FD494609A896E74FF47A70FFF7B2
:100FC000C3FD00283FF481AEB8F1FF3F05D1FFF724
:100FD000C3FD642002F04EFD6EE64146002000F0A5
:100FE000BFFD002000F0B6FD8045F0D0304B6DE62F
:100FF00000230EA840F8143D642100F05DFD002898
:101000007FF463AE0220FFF79FFD00283FF45DAE42
:10101000FFF7A2FD052002F02DFD099800F036FE35
:1010200000F01EFE4FF0000A3AE6064674E635462A
:10103000DCE7002000F00AFD0390039B002B01DA9F
:1010400000F0C4FB039B002BFFF62DAE012000F047
:10105000E3FD039B213B122B3FF622AE01A252F887
:1010600023F000BFBF0C0008DD0C00084F0D000886
:10107000A10C0008A10C0008A10C0008BD0D00087F
:10108000A10C0008570E0008EF0E00084D0F0008D5
:101090007B0F0008A10C0008930F0008A10C0008AA
:1010A000BB0F0008190D0008A10C0008F10F000883
:1010B0001452000849F2690008490B689AB21B0CE7
:1010C00000FB02330B6044F25061054A136898B28A
:1010D0001B0C01FB0030106080B270470C18002020
:1010E0000818002010B504460021102200F0B0FDC1
:1010F000034B03CB206061601868A06010BD00BF87
:10110000E8F7FF1FF0B5BBB000F000FE1F4CA3686E
:10111000C31AB3F5FA7F30D306AD2346A060282268
:101120000021284601F06CFB04F10E0000F088FD60
:101130000023C6B2591D5F1CDBB2B3424FEAC101A6
:1011400007DA0E3323440822284601F059FB3B46B8
:10115000F0E701230393182302930D4B207B0193A7
:101160003023C1F3CF0105910093014605A3D3E9D4
:1011700000230495074801F013F93BB0F0BD00BF10
:10118000AFF3008078F6339F93CACD8DE02D002019
:10119000ED2D0020BC2D002070B50D4614461E46D6
:1011A00001F0A4F850B9022E0ED1012C0CD112A3DB
:1011B000D3E90023C5E90023012070BD052C14D01C
:1011C00003D8012C09D0002070BD282C09D0302C68
:1011D000F9D10BA3D3E90023ECE70BA3D3E9002358
:1011E000E8E70BA3D3E90023E4E70BA3D3E900234B
:1011F000E0E700BFAFF30080401DA12026812A0B4D
:1012000078F6339F93CACD8D9E6AC421818A46EEBB
:1012100026417272DF25D7B7F017304A39059E563E
:1012200038B50D460446034620222846002101F029
:10123000E7FA22792346032A28BF0322284603F827
:10124000042F2021022201F0DBFA62792346072ACB
:1012500028BF0722284603F8052F2221032201F088
:10126000CFFAA2792346072A28BF0722284603F887
:10127000062F2521032201F0C3FA284604F10803B2
:101280001022282101F0BCFA382038BD2DE9F04F9A
:10129000ADF5017D21AD0EAE40F2791280460F46CC
:1012A0002846002100F0D4FC48220021304600F0FE
:1012B000CFFC00F02BFD4FF47A72B0FBF2F0534BF1
:1012C0000DF15A09186093E80700012333740023D5
:1012D00086E807000DF15A007374FFF703FF07ABB0
:1012E00018464B4903F096FB1A22306429463046D3
:1012F00086F83C20FFF794FF12AB04460146082213
:10130000284601F07DFA08220DF14903A11828466C
:1013100001F076FA0DF14A03082204F11001284683
:1013200001F06EFA13AB202204F11801284601F0F7
:1013300067FA14AB402204F13801284601F060FA44
:1013400016AB082204F17801284601F059FA0DF194
:101350005903082204F18001284601F051FA04F1F2
:10136000880A04F5847B4B465146082228460AF138
:10137000080A01F045FAD34509F10109F3D11BAB85
:1013800008225946284601F03BFA4FF0000904F5BF
:10139000887496F834304B4510D84FF0000996F811
:1013A0003C304B4515D9336C21464B440822284626
:1013B00001F026FA083409F10109F0E7B36B214680
:1013C0004B440822284601F01BFA083409F10109B0
:1013D000DFE7E31DC3F3CF03F97E059300230495F4
:1013E0000393BB7E19370293012301970093404674
:1013F00004A3D3E9002300F0D3FF0DF5017DBDE880
:10140000F08F00BF9E6AC421818A46EEA41D002091
:10141000D05200082DE9F04FADB006AF06460C469D
:1014200000F064FF0546002875D1237E022B1DD1F4
:10143000E38A012B1AD100F069FC8146FFF73AFEDE
:10144000FEF760FFB149FFF769F8B149FEF7B2FF57
:10145000FFF700F9DFF8E48209F51679E37E4844E6
:10146000C8F800008BB90022AA4B1A709C37BD4601
:10147000BDE8F08F3B1D1D440095002308224FEA74
:10148000C901204601F020F84D46A38A5FFA85F98C
:10149000013BAB420BD905F10109B9F1110FE9D1BB
:1014A00040F211119C4B9D4A9D4802F02FFF07F11D
:1014B0001400FFF717FE2A4607F11401381D02F049
:1014C00055FF03460028CED1B9F1100F09D0914B3A
:1014D00083F80090D8F80030A3F51673C8F80030F0
:1014E000C4E707F1980202F8950D014600922046E4
:1014F000072200F0E9FFF9787F2904DD894B874A4C
:101500004FF49471D0E7304600F0D4FEF978864865
:1015100000F088FBAAE7E38A282B08D0302B6ED096
:10152000012BA3D121463046FFF7B0FE9EE7A38AE8
:10153000013B9BB2C92B99D800237C4D19460095DD
:101540000822204600F0C0FF00230C3DA28A03F1D0
:101550000108013ADBB293424FEAC80109DA0E33BF
:101560002B44009308220023204600F0ADFF4346A1
:10157000ECE700230022C5E900230023AB6085F8D7
:10158000D730C5F8D8302B7B0BB9E37E2B732A7B81
:1015900000256749674807F1140800F043FB3B1D2D
:1015A0000822294640467D60BD60FD6001F028F9B3
:1015B0003B7A05F10109AB424FEAC90107D9FB6843
:1015C00008222B44404601F01BF94D46F0E700236A
:1015D000C1F3CF01E07E0591CDF810800393A37E87
:1015E00019340293282301460093019445A3D3E9BB
:1015F0000023304600F0D4FEFFF784FD36E7637E1B
:101600004D4D01336A7BDBB29342E94677D1E27EEE
:101610002B7B9A4273D14FF0000807F1980323F80F
:10162000848D0093102201234146204600F04CFF98
:10163000A68A023EB6B2F31C23F003030A3323F05A
:101640000703ADEB030D0DF1180A4346991C9BB23D
:101650009E424FEAC10108F1010807DD534400939F
:1016600008220023204600F02FFFEEE7FF2ED8BF10
:10167000002395F8D700D8BF2B7300F081FAD5F876
:10168000D83004461BB995F8D70000F089FAD5F890
:10169000D83033449C4204D295F8D700013000F092
:1016A0007FFA4FF000084FEA960B1FFA88F35B456C
:1016B00008F1010807DA28685AF8231000EB8300C4
:1016C00000F04EFAF1E7D5E90023921943F1000347
:1016D000C5E90023D5F8D83095F8D7001E44C5F8E1
:1016E000D86000F04DFA864209D395F8D730D5F886
:1016F000D8000133001B85F8D730C5F8D800CD4697
:10170000B4E600BF26417272DF25D7B700FF7F47DE
:101710000000C843B52D002018520008EC52000804
:101720007152000893520008AC520008EC2D0020C2
:10173000EE2D0020B8520008E02D0020B82D00202A
:10174000014B1870704700BFB01D002013B515493C
:10175000154801F05FFE00230193144B14490093D8
:101760004FF48052134B144800F06EFD134B197860
:1017700011B1114800F09EFD00F0C8FA0446FFF7D1
:1017800099FCFEF7BFFD0E49FEF7C8FE0D49FEF7B6
:1017900011FEFEF75FFF04F516740B4B04441C604A
:1017A00002B010BD00180020E42E0020991100089E
:1017B000B41D002015140008BC2D0020B01D002011
:1017C00000FF7F470000C843B82D00202DE9F04FEF
:1017D00091A7D7E900670FF24829D9E90089874C1A
:1017E00093B0DFF844B20CAD204600F025FE8246EF
:1017F00048B310220021284600F02AFA4FF00003D7
:101800009AF80C2062F3030352468DF8303052F8F8
:10181000040F0EAB516803C3DAF800200D9B584645
:1018200062F31C030D939DF830302A4643F02003E9
:101830008DF830300023194601F0FCFD18B9204620
:1018400000F0FEFDD0E718220021284600F000FA43
:10185000DFF8D4B1DFF8D4A100232A461946584650
:1018600001F010FE014660BB102208A800F0F0F95C
:10187000DAF80C3083F01003CAF80C3000F048FAA4
:101880000DF1240E0B4612A9024611E903008EE861
:1018900003009DF83410C1F30300890649BF0E9977
:1018A000BDF83810C1F31C0141F0004158BFC1F32D
:1018B0000A018DF82C000891204608A901F006F8CD
:1018C000CAE7204600F012FD834600284BD100F005
:1018D0001DFA4B4B1A68904245D3079300F016FA55
:1018E0008246FFF7E7FBFEF70DFD4649FEF716FEC1
:1018F0004549FEF75FFDFEF7ADFE8DF820B0DFF83D
:1019000030B10AF5167A079B9BF800105044186016
:1019100011B901238DF8203028460791FFF7E2FB2B
:1019200007990DF12100C1F1100A5FFA8AFABAF1A4
:10193000060F28BF4FF0060A2944524600F076F9F8
:101940000AF10103049308AB0393182302932F4B6E
:10195000324601930123204600933B4600F0C8FC29
:1019600000238BF8003000F0D1F9294ADFF8C4A039
:101970001368C31AB3F57A7F31D3106000F0C8F949
:1019800002460B46204600F061FD204600F0AEFC0A
:1019900028B39AF80C30DFF8A0B0002B18BF03234F
:1019A0008BF8053000F0B2F94FF47A73B0FBF3F026
:1019B0002946CBF800005846FFF732FC1823029363
:1019C000144B0730019340F25513C0F3CF0004903D
:1019D0000093039542464B46204600F089FC9AF856
:1019E0000C300BB1FFF78EFB9AF80C30002B7FF414
:1019F000F8AE13B0BDE8F08FAFF30080BC2D00202F
:101A0000B82D002000FF7F470000C843B42D002000
:101A1000C02E0020C42E0020401DA12026812A0BAC
:101A2000F1C6A7C1D068080FE42E002000080140CD
:101A3000B52D0020E02D0020A41D0020014A024BFE
:101A40005A60704701001E0000180020F7B50024FE
:101A5000164B8DF807401B780133DBB2012B1ED8E3
:101A60004FF47A7140F2E7360027E1FB00674FF44C
:101A70007A72002330463946FEF70CFE0C4D0122E7
:101A80002B680DF107011E6A03462846B04701285E
:101A900005D1084B9DF807001C7003B0F0BD012074
:101AA00001F0E8FF4FF0FF30F7E700BF101800200B
:101AB0003C2F0020E02E002070B5144B06461B780A
:101AC0000D460133DBB2012B19D84FF47A7440F282
:101AD000E73000214FF47A72E4FB05010023FEF7A2
:101AE000D9FD0B4C0422236831461D6A034620466B
:101AF000A847042803D10020064B187070BD0120B0
:101B000001F0B8FF4FF0FF3070BD00BF101800208B
:101B10003C2F0020E02E00207047000070B502F03E
:101B200077F80025084C094E2070306823788342EE
:101B300008D902F069F8336805440133B5F5C04FA0
:101B40003360F2D370BD00BFE12E0020C82E00200C
:101B500002F0C4B800F1006000F5C04000687047B2
:101B600007B502AB43F8041D00F1006004221946DA
:101B700000F5C04002F07AF803B05DF804FB000005
:101B8000054B1A68054B1B789B1A834202D91044F7
:101B900002F03AB800207047C82E0020E12E002045
:101BA00038B50446064D2868204402F033F828B9B9
:101BB00028682044BDE8384002F03CB838BD00BF7A
:101BC000C82E00200020704700F10050A0F6180039
:101BD00000687047014B1868704700BF002004E0A0
:101BE0000B4630B501380B4D0A18934210D215F947
:101BF000014F581C1CB1034600F8014CF5E72C249A
:101C000082421C7002D93F22981C5A70401A30BD83
:101C10001846FBE72F53000870470000704700008C
:101C2000704700000FB404B070470000002310B5E7
:101C3000934203D0CC5CC4540133F9E710BD0000DB
:101C400002460346981A13F9011B0029FAD170477E
:101C500003460244934202D003F8011BFAE770479F
:101C6000024B1A78024B1A70704700BFE02E00201A
:101C7000101800204FF46143024903480B6001F043
:101C8000DBBD00BFCC2E00203C2F0020074B10B541
:101C90000021044614221846FFF7DAFF04600146CB
:101CA000BDE81040024801F0C7BD00BFCC2E0020A7
:101CB0003C2F0020FEE70000EFF30983EFF30583DC
:101CC000034B9A6B9A6A9A6A9A6A9A6A9B6AFEE7C7
:101CD00000ED00E0EFF30983EFF30583034B9A6A0D
:101CE0009A6A9A6A9A6A9A6A9B6AFEE700ED00E02D
:101CF000EFF30983EFF30583034B5A6B9A6A9A6AF1
:101D00009A6A9A6A9B6AFEE700ED00E002F034B836
:101D100002F01EB80246006848B1036811891360DA
:101D2000D38801339BB29942D38038BF1381704767
:101D300070B504460D4688B0202200216846FFF7A2
:101D400087FF20460495FFF7E5FF054658B16B462F
:101D5000044608AE1A4603CAB242206061601346C8
:101D600004F10804F6D1284608B070BD2DE9F04111
:101D700030B94FF46F71264B264A274802F0C6FA55
:101D80000B7C23B9254B234A40F2BD31F5E7C669E8
:101D900086B9C161BDE8F081002B29DA930CAB4212
:101DA00029D1B44201D10C60F3E7C8F800100C60EF
:101DB000BDE8F0814B68B04623F06047BD0C15EAE2
:101DC000230538BF3D4634464FEAD37EC3F3807CBB
:101DD0006368BEEBD37F23F06042DDD1974203D12D
:101DE000C3F380739C450AD1974205E01C46EFE798
:101DF000AA4206D013469D422CBF00230123002B8C
:101E0000CFD12368A046002BF0D12160BDE8F0813E
:101E1000CC550008C053000884560008A556000899
:101E200008B5034A034B40F25531034802F06EFAFD
:101E30009C530008445600088456000808B50368FF
:101E40000B60C388016033B9044B054A40F22F612F
:101E5000044802F05BFA013BC38008BD1456000839
:101E6000105400088456000870B50C4600F10C05AB
:101E7000616831B9E38A002061F30903E38200213C
:101E800070BD0E682846FFF7D9FF6660F0E70000D6
:101E900008B5426832B10B4B0B4A40F226410B4861
:101EA00002F034FAC37DC3F38401013161F3860388
:101EB000C375C38A62F30903C3821B0A62F3C713A3
:101EC000C37508BD60560008CC530008845600084E
:101ED0002DE9F047089E32B91F4B204A4FF4A66106
:101EE0001F4802F013FA4FF47F4901F007054FEA4B
:101EF000D6082A4406F0070600EBD100954201D12E
:101F0000BDE8F08705F0070E06F0070AD6457746CC
:101F100038BF5746511BC7F108078F4228BF0F46ED
:101F2000EC08045D08EBD60113F801C004FA0EF4C6
:101F300029FA07FE24FA0AF45FFA8EFE8CEA0404FA
:101F40004EFA0AFE04EA0E048CEA040C03F801C0FF
:101F50003D443E44D2E700BFE0550008E45300088A
:101F6000845600082DE9F04106460F4600254FF63D
:101F7000FF7441F221082A4630463946FEF7F4F84C
:101F80000823C0B284EA002414F4004F4FEA44044A
:101F9000A4B203F1FF3318BF84EA080413F0FF036F
:101FA000F2D10835402DE6D12046BDE8F081000091
:101FB00010B541F221040A44914200D110BD11F83C
:101FC000013B80EA0320082310F4004F4FEA400051
:101FD00080B203F1FF3318BF604013F0FF03F3D169
:101FE000EAE700002DE9F04F85B08A468DE80C0045
:101FF000BDF83C40814630B940F26531484B494A12
:10200000494802F083F911F0604F04D0474B454A2C
:1020100040F26631F4E7009B002B7ED024B10E9B8A
:10202000002B7AD0072C28D809F10C00FFF772FE9C
:10203000054628B96FF00205284605B0BDE8F08FC7
:1020400014220021FFF704FE22460E9905F1080034
:10205000FFF7ECFD631C2B74009B2C441B78294676
:1020600003F01F0363F03F0323724AF000436B60E9
:102070004846FFF77BFE0125DEE74FF000084FF0F2
:10208000800B46464546019B1B0A029300F10C0358
:1020900003930398FFF73EFE07460028CAD0142298
:1020A0000021FFF7D5FDB6BB02229DF804303B723C
:1020B0009DF808307B720E9B711E1944B4420AD9F8
:1020C000B818013211F801EFD2B20136072A80F8B0
:1020D00008E0B6B2F2D1B44208BF4FF0400B009B0B
:1020E000B8181978013201F01F0141EA48114BEA92
:1020F000010303724AF000437B603A743946484654
:10210000FFF734FE0135B4422DB288F001084FF0DC
:10211000000BBED190E70022CDE76FF001058BE701
:10212000CC550008B053000884560008F05500084C
:102130002DE9F0471E46CB8A9146C3F30902062AD1
:1021400080460F4619D013460021B0B28DB25A19FD
:1021500092B2052A09D9A84210D8FA8A034463F337
:102160000902FA820120BDE8F087A842F3D919F8E4
:1021700001403A4494760131E8E70025FB8A7C6807
:10218000C3F309001C23821FB2FBF3FA03FB1A2AD4
:102190001FFA8AF27CB301212368002B39D1B31FC7
:1021A00003441C20B3FBF0F301339BB299420CD2E1
:1021B000BAF1000F09D14046FFF7ACFD08B1C0F8F5
:1021C00000A0206008B3044600224FF0000AB6B217
:1021D000B54230D21346691E4944E018013311F864
:1021E00001EF9BB201351C2B80F804E0ADB214D096
:1021F000AE42F2D8ECE74046FFF78CFD044608B14A
:10220000002303607C60002CDED16FF00200BDE88B
:10221000F087013189B21C46BEE7AE42D8D94046AC
:10222000FFF778FD08B1C0F800A020600028ECD0CE
:1022300004460022CCE7FB8AC3F30902164466F386
:102240000903FB828EE70000F8B50E4615461F46CF
:10225000044628B9144B154A4F21154802F056F888
:1022600024220021FFF7F4FC069B6A096360079BA8
:10227000002023624FF6FF739A4228BF1A46A760D8
:102280002070A061E06197B204F10C05824205D193
:1022900000232B6027826382A382F8BD2E60013069
:1022A00035462036F2E700BFC85500083C53000809
:1022B0008456000808B528B97321084B084A094814
:1022C00002F024F8037823B94BB2002B01DD017032
:1022D00008BD054B024A7D21F1E700BFCC5500083F
:1022E00048530008845600081055000800787047CD
:1022F0002DE9F7430D9E074619461046BDF8289074
:102300000B9D9DF83040BDF8388016B9B8F1000F2C
:1023100043D11F2C41D83B78D3B9B8F1070F39D836
:1023200039F0030339D1424631464FF6FF70FFF7CB
:102330003FFE4FEA092920F0010009F440794004EA
:1023400049EA0464400C44EA40244FF6FF730DE070
:1023500043EA0923B8F1070F43EA0464F5D9FFF70C
:1023600001FE42463146FFF723FE03468DE8400159
:102370002A4621463846FFF735FE0DB9FFF750FDD6
:102380002B780133DBB21F2B88BF00232B7003B0E7
:10239000BDE8F0836FF00300F9E76FF00100F6E7A6
:1023A0002DE9F7430E9F81460B9D9DF830009DF867
:1023B0003480BDF83C6007B9C6BB1F2836D899F8F1
:1023C00000E0BEF1000F34D00C0244F080049DF810
:1023D000281044EAC83444EA014444EA0E04072EB3
:1023E00044EA006415D919461046FFF7BBFD324692
:1023F0003946FFF7DDFD0346019600972A46214640
:102400004846FFF7EFFDB8F1010F0CD125B9FFF7F2
:1024100007FD4FF6FF73EFE72B780133DBB21F2B7D
:1024200088BF00232B7003B0BDE8F0836FF001007C
:10243000F9E76FF00300F6E7C06900B104307047B8
:10244000C1690C300B680361FFF7F8BC2DE9F84F48
:10245000D0F818A0054616461F4654464FF000090E
:10246000DFF8608000F10C0B0CB9BDE8F88FD4E9FF
:102470000223B21A67EB0303994508BF90451FD2A8
:10248000AB6921469C4228460DD1FFF7EDFCAB69B4
:1024900021461B685846AB61FFF7D0FCAC69234668
:1024A000A2461C46E0E7FFF7DFFC23682146CAF896
:1024B00000305846FFF7C2FC5446DAF80030EFE728
:1024C0002368EDE780841E002DE9F04F8BB00D46A8
:1024D00014460793DDF850908246002800F064818E
:1024E000B9F1000F00F06081531E3F2B00F25C81B8
:1024F000012A03D1079B002B40F056810023BAF834
:1025000014600893F600B542099380F053812B19AB
:102510009E420AD2761B16F0FF0607D140F25E51AA
:10252000AA4BAB4AAB4801F0F1FE2646DAF80C3074
:1025300023B9DAF81030002B00F0A5802F2D31D808
:10254000C5F1300846454FF0000334BFB0465FFA8E
:1025500088F80093294608AB4246DAF80800FFF7EE
:10256000B7FCA6EB08074544FFB24FF0300BBAF8B2
:10257000143003F10053063BDB000293DAF80C3011
:102580000593059B002B51D087B9DAF8100000287D
:1025900061D0002F5FD0AB4550D98F4B8C4A40F2B1
:1025A0009D51BFE737464FF00008DEE7029B23B995
:1025B0008A4B874A40F27F51B4E7029BE02B28BF49
:1025C000E02306935B44AB4204931DD95B1B9F42FF
:1025D00026BFDBB203930397AB4504D97E4B7C4AFD
:1025E0004FF4B1619EE70598CDF8008008ABA5EBEC
:1025F0000B01039A0430FFF76BFC039B9844FF1A0E
:102600001D445FFA88F8FFB2049B9B4504D3744BCA
:102610006F4A40F2925185E7029B069ADDF810B0AE
:102620009B1A0293059B1B680593AAE7029BBB427A
:10263000ABD26C4B664A4FF4B36173E7CDF80080C0
:102640003A46A5EB0B0108ABB8443D44FFF740FC0C
:1026500000275FFA88F8BAF81430B5EBC30F04D935
:10266000614B5B4A4FF4B5615CE7B8F1400F04D9A8
:102670005E4B574A40F2A95154E767B15C4B544A4C
:1026800040F2AA514EE70093324608AB2946DAF8E9
:102690000800FFF71DFC731E3F2B35B201D8A64280
:1026A00004DD544B544A4FF40B713BE760070AD0EA
:1026B0000AAB03EBD40111F8083C624202F00702B6
:1026C000134101F8083C082C21D9102C21D9202CC9
:1026D0008CBF08230423079A002A6DD0B4EBC30FE4
:1026E0006CD0082C04F1FF3215D89DF8203023FA65
:1026F00002F2D10706D54FF0FF3202FA04F4234369
:102700008DF820309DF8203089F800304EE001230C
:10271000E1E70223DFE7102C11D8BDF8203023FABF
:1027200002F2D20706D54FF0FF3202FA04F4234337
:10273000ADF82030BDF82030A9F8003036E0202C6C
:102740000ED8089921FA02F2D30705D54FF0FF33CE
:1027500003FA04F40C430894089BC9F8003025E000
:10276000402C1CD0DDE9086730463946FDF7FCFCFB
:10277000002100F0010050EA01030BD022460120A5
:102780000021FDF7FDFC404261EB410106430F4390
:10279000CDE90867DDE90823C9E9002306E0174B06
:1027A000154A40F27721BDE66FF0010528460BB0CF
:1027B000BDE8F08F1D46F9E7012CA3D0082CA1D964
:1027C000102CB7D9202CE5D8C6E700BF1C54000850
:1027D000F4530008845600083E5400082B540008A7
:1027E000635400088B540008B2540008E0540008F9
:1027F000F8540008125500087453000810550008DA
:1028000030B585B030B94FF42A71234B234A2448A0
:1028100001F07CFD23B9234B204A40F2A921F6E7C1
:10282000402A04D9204B1D4A40F2AD21EFE722B9DE
:102830001D4B1A4A40F2B321E9E70024012A029411
:10284000039417D11B788DF8083053070AD004ABD6
:1028500003EBD20313F8084C554205F00705AC40D2
:1028600003F8084C00910346002102A8FFF730FB53
:1028700005B030BD082AE5D9102A03D81B88ADF869
:102880000830E2E7202A02D81B680293DDE7D3E98B
:102890000045CDE90245D8E74C55000888530008AB
:1028A00084560008675500081055000870B50C469E
:1028B00000F10C05E16819B9A1602161A18270BD28
:1028C0000E682846FFF7BAFAE660F3E72DE9F04F05
:1028D000D1F8009091B0C9F3C01604460D46CDE979
:1028E0000223002E00F0B280C9F3C03BC9F30626D4
:1028F000B9F1000F80F2C28019F0C04F40F0BE80E5
:102900002B7B002B00F0BA80BBF1020F03D02278A2
:10291000B24240F0B38009F07F02BBF1020F059292
:1029200040F0978019F07F0FC9F30F2A01D10AF008
:10293000030A2B447606059A93F8038046EA0B4671
:1029400046EA82465FEAD81346EA0A06069300F092
:1029500093800022002310A961E90823059B676882
:10296000009352465B462046B847002800F0868018
:10297000A769002F70D1314604F10C00FFF7D8F998
:10298000074600287AD0A761DDE90801FFF7EAFAD7
:10299000B882F97D08F01F06C1F38401711A89B26B
:1029A0000FFA81FEBEF1000FB8BF01F1200EC9F38E
:1029B0000461D7E90223B8BF0FFA8EFE079152EAED
:1029C000030100F02181DDE90201801A61EB0301BE
:1029D0000B46002102469748994208BF9042C0F03A
:1029E0001381069B002B51D0BEF1010F00F30C8127
:1029F00018F0400F4AD0DDE90223C7E90223202264
:102A000000210DEB0200FFF723F9DDE90223CDE9F8
:102A100008232B1D0A932B7BADF836A0013BDBB2BC
:102A2000ADF834309DF81C308DF838B08DF83A3060
:102A30009DF814308DF839608DF83B3008A9A368F3
:102A4000204698473846FFF723FA17E04FF0020B6D
:102A50004EE7C9F3074A6CE73B699E4294D03F6852
:102A6000002FF9D1314604F10C00FFF761F9074658
:102A700020B1A3693B6086E7A76917B911B0BDE82B
:102A8000F08F3B699E4284D03F68F6E7FB7DC8F338
:102A90004012B2EBD31FF1D1C3F38403B342EDD1A3
:102AA00006992B7B4FEA981249B3D20736D4032BF1
:102AB000E4D9DDE90223C7E902232B7BAE1D033BEA
:102AC000DBB23246394604F10C00FFF731FB002837
:102AD00004DA39462046FFF7C7F9B3E7AB883B83F2
:102AE0002A7B033AD2B2B88A3146FFF761FAFB7DFE
:102AF000B882DA43C2F3C01262F3C71398E06AB92E
:102B00002E1D013BDBB23246394604F10C00FFF7C3
:102B10000FFB0028DDDB2A7B013AE3E7FA8A013B61
:102B2000C2F30902052AD9B247D80023281D9942C9
:102B30000AD907EB020E10F801CB01320133062A45
:102B40008EF81AC0DBB2F2D18B4228BF0023DDE938
:102B5000028907F11A02CDE908890A927A683CBF16
:102B600004335B190B920C93FB8AADF836A0C3F3C8
:102B7000090319449DF81C30ADF834108DF83A3033
:102B80009DF814308DF838B08DF83B3000238DF867
:102B900039607B602A7BB88A013A291DFFF708FA61
:102BA0003B8BB882834203D1A36808A9204698478B
:102BB00008A92046FFF77AFE44E7786810B34FF083
:102BC000060E03689BB9A2EB0E021B2A13D8033230
:102BD000024405F1040E1F309942B5D91EF801CB0D
:102BE000013302F801CF9042DBB2F5D1ACE70EF130
:102BF0001C0E1846E5E7104B104A40F2B31110487E
:102C000001F084FB03469FE7FB7D394668F38603AA
:102C10006FF3C713FB752046FFF726F9069B002BC1
:102C20007FF4E6AEFB7DC3F38402013262F38603D8
:102C3000FB7523E780841E007C5500086053000864
:102C400084560008026843681143016003B11847C5
:102C5000704700002DE9F0414E4EB04240F08680B2
:102C60004D4CDFF838E1E56945F00075E561E46950
:102C7000446DD4F8007207EA0E0747F00107C4F864
:102C80000072D4F8005205EA0E0545F0010545EA48
:102C90000121C4F80012002A6AD000210F46C4F8AE
:102CA0001C12C4F80412C4F80C12C4F8141204EB79
:102CB000C10501310E29C5F84072C5F84472F6D13C
:102CC0004FF0000E4FF0010C964510D1426DB0420E
:102CD000D2F8003223F00103C2F8003258D12E4B53
:102CE000DA6922F00072DA61DB69BDE8F0819F7871
:102CF0001D8817F0010F18BFD4F804820CFA05F1F3
:102D00001CBF41EA0808C4F8048217F0020F18BF7C
:102D1000D4F80C8204EBC5051CBF41EA0808C4F8CE
:102D20000C827F0748BFD4F8147203F10C0344BF30
:102D30000F43C4F8147253F8087C0EF1010EC5F865
:102D4000407253F8047CC5F84472D4F81C522943ED
:102D5000C4F81C12B8E70021446DC4F81C12C4F872
:102D60000412C4F80C12C4F81412A9E7002AF2D114
:102D70000022436DC3F84022C3F84422C3F8042262
:102D8000C3F814220122C3F80C22C3F81C229DE7C9
:102D9000BDE8F081E42E0020001002400000FFFF9B
:102DA000184B10B55A6D936813F00104936005D069
:102DB00013F00C0F14BF4FF480340124D90506D54D
:102DC00013F4406F14BF44F4003444F00204DA03F7
:102DD00006D513F4402F14BF44F4802444F00404B7
:102DE000202383F311880021074800F06BFE214661
:102DF0000648FFF727FF002383F31188BDE8104042
:102E000000F0EABFE42E0020EC2E0020082F002066
:102E100038B5154C636DDD68AA0713D05A6922F0E6
:102E200002025A61202383F31188002104F110006B
:102E300000F048FE012104F11800FFF703FF002312
:102E400083F31188EB060BD51021636DD960202325
:102E500083F311880548FFF7F5FE002383F31188FB
:102E6000BDE8384000F0B8BFE42E0020142F002049
:102E700038B5154C636D1D69AA0713D05A6922F045
:102E800010025A61202383F31188002104F11000FD
:102E900000F018FE022104F11800FFF7D3FE002312
:102EA00083F31188EB060BD51021636D1961202384
:102EB00083F311880548FFF7C5FE002383F31188CB
:102EC000BDE8384000F088BFE42E0020142F002019
:102ED00038B5144C636D5D682A075D6010D52046D7
:102EE000032200F8482B1A6822F002021A602023FD
:102EF00083F311880021FFF7A5FE002383F31188D7
:102F00006B070BD5636D9969202383F311880648FD
:102F10000904FFF797FE002383F31188BDE83840CA
:102F200000F05ABFE42E0020142F002010B50F4CE3
:102F3000204600F053FA0E4B0B211320636500F07E
:102F40002DFA0B21142000F029FA0B21152000F096
:102F500025FA0B21162000F021FA00232046BDE8B7
:102F600010401A460E21FFF775BE00BFE42E002068
:102F7000006400400F4B10B59842044605D10E4B3B
:102F8000DA6942F00072DA61DB690122636D1A606E
:102F9000636D5A68D20707D5626851681268D961B3
:102FA0001A60064A5A6110BD0121082000F0BEFCDB
:102FB000EEE700BFE42E0020001002405B87010016
:102FC00003291AD8DFE801F0020A0F14436D9B6849
:102FD00013F0E05F14BF012000207047436D986834
:102FE000C0F380607047436D9868C0F3C06070475D
:102FF000436D9868C0F30070704700207047000070
:1030000010B503291FD8DFE801F0021F2327416D07
:103010008B68C3F30163183301EB03131078810647
:103020001ED55468C0F30011490041EAC40141F0C3
:10303000040100F00F005860906841F001019860B1
:10304000D268DA60196010BD436D03F5C073E5E71F
:10305000436D03F5C873E1E7436D03F5D073DDE716
:103060009488C0F30011490041EA4451E1E70000AF
:1030700001290CD003D3022910D000207047436DE2
:10308000DA68920701D1186903E001207047436DA7
:10309000D86810F0030018BF01207047436DF2E7B5
:1030A00010B539B9436DD96889071BD11B699B07D6
:1030B00004D110BD012915D0022948D1416DD1F8A4
:1030C000C031D1F8C401D1F8C8411461D1F8CC4164
:1030D000546120240C610C69A40717D14C6944F099
:1030E000100412E0416DD1F8B031D1F8B401D1F83B
:1030F000B8411461D1F8BC4154612024CC60CC6843
:10310000A40703D14C6944F002044C6111795C08B6
:1031100064F304119C0864F34511117189064BBFD7
:1031200091681189DB085B0D4CBF63F31C0163F3ED
:103130000A01137948BF916060F3030313714FEAEA
:1031400010234FEA104058BF11811370508010BDFA
:10315000026843681143016003B1184770470000DB
:10316000024AD36843F0C003D3607047003801407F
:10317000024AD36843F0C003D36070470044004064
:103180002DE9F041D0F89C600546F7683368DA0510
:103190009CB20DD5202383F311884FF400710430C5
:1031A000FFF7D6FF6FF480733360002383F3118839
:1031B000202383F3118805F1040814F02F0333D181
:1031C00083F31188380615D5210613D5202383F300
:1031D000118805F1380000F08FFA002846DA08213E
:1031E000281DFFF7B5FF4FF67F733B40F3600023C8
:1031F00083F311887A060ED563060CD5202383F35A
:103200001188EA6C2B6D9A4202D12B6C002B2FD1C6
:10321000002383F31188D5F8A420D368002B31D084
:10322000BDE8F04110691847230713D014F0080FC8
:103230000CBF00218021E00748BF41F02001A20718
:1032400048BF41F04001630748BF41F480714046E8
:10325000FFF77EFFA406736805D595F8A0102846F1
:10326000194000F0F7FA3468A4B2A6E77060BEE730
:1032700027F040073F041021281D3F0CFFF768FF8F
:10328000F760C5E7BDE8F08108B50348FFF778FFB0
:10329000BDE8084000F0A0BD3C2F002008B5034861
:1032A000FFF76EFFBDE8084000F096BDE42F002058
:1032B00010B5094C094A2046002100F09DFA084B40
:1032C000084AC4F89C30084C0021204600F094FACB
:1032D000064BC4F89C3010BD3C2F00206131000823
:1032E0000038014071310008E42F00200044004004
:1032F00038B5254D037C002918BF0D46012B044627
:10330000C0F8A4500CD1214B984230D10C2125207B
:103310001F4B9A6942F480429A619B6900F03EF823
:103320002A681C49D4F89C3001EB5201B1FBF2F23F
:103330009A60EA8842F0400292B21A612A8942F009
:10334000010292B25A61AA8842F4045141F02C0160
:10335000D960002102F4A0521960B2F5806F19689B
:103360005B680CBF7F23FF2384F8A03038BD0A4B75
:103370009842D5D1064B0C21DA69262042F400325E
:10338000DA61DB69CAE700BFC05600083C2F0020A5
:103390000010024000512502E42F002000F160439C
:1033A000090103F56143C9B283F80013012300F05A
:1033B0001F024009800000F16040934000F5614029
:1033C000C0F8803103607047090100F16040C9B264
:1033D00000F56D4001767047FFF7A8BD012303702B
:1033E000002300F108028260C26000F110028361D4
:1033F00043604362026103634261C363C36103626A
:103400008362C36243638363036443648364C3640A
:103410000365704710B52023044683F31188022307
:1034200041600370FFF7A6FD03232370002383F39D
:10343000118810BD2DE9F0411F4604460D46164681
:10344000202383F3118800F108082378042B0ED081
:1034500029462046FFF7B4FD48B1204632462946AA
:10346000FFF7CEFD002080F31188BDE8F0813946DA
:10347000404600F00BFB0028E7D0002383F31188BF
:10348000BDE8F0812DE9F0411F4604460D46164681
:10349000202383F3118800F110082378042B0ED029
:1034A00029462046FFF7E4FD48B12046324629462A
:1034B000FFF7F6FD002080F31188BDE8F081394662
:1034C000404600F0E3FA0028E7D0002383F3118898
:1034D000BDE8F081F8B5154682680B46AA428169BD
:1034E000066938BF8568761AB542044607D2184681
:1034F0002A46FEF79BFBA3692B44A3610DE011D97B
:1035000032461846FEF792FBAF1B3A46E16830445C
:10351000FEF78CFBE2683A44A261A36828465B1B75
:10352000A360F8BD18462A46FEF780FBE368E4E78F
:103530002DE9F0410446154683682669934238BF59
:10354000856840690F46361AB54206D22A46FEF70C
:103550006DFB63692B4463610DE012D93246A5EB24
:103560000608FEF763FB4246B919E068FEF75EFB0A
:10357000E26842446261A36828465B1BA360BDE821
:10358000F0812A46FEF752FBE368E4E710B5002419
:10359000C361029B0A44006040608460C160816135
:1035A00041610261036210BD08B5826943699342BB
:1035B00001D1826882B98268013282605A1C4261FC
:1035C0001970426903699A4201D3C36843610021BB
:1035D00000F06CFA002008BD4FF0FF3008BD00007D
:1035E00070B5202304460E4683F31188A568A5B163
:1035F000A368A269013BA360531CA36115782269EB
:10360000934224BFE368A361E3690BB12046984766
:10361000002383F31188284670BD3146204600F010
:1036200035FA0028E2DA85F3118870BD2DE9F74FED
:1036300005460F4690469A46D0F81C90202686F301
:1036400011884FF0000B144664B1224639462846D3
:10365000FFF740FF034668B95146284600F016FAC6
:103660000028F1D0002383F31188A8EB040003B0F5
:10367000BDE8F08FB9F1000F03D001902846C8478C
:10368000019B8BF31188E41A1F4486F31188DBE752
:10369000C361009BC1608161416111440060406071
:1036A0008260016103627047F8B504460E46174612
:1036B000202383F31188A568A5B1A368013BA3600B
:1036C00063695A1C62611E70236962699A4224BF51
:1036D000E3686361E3690BB120469847002080F3FB
:1036E0001188F8BD3946204600F0D0F90028E2DA0A
:1036F00085F31188F8BD00008369426910B59A42CC
:1037000001D182687AB98268013282605A1C826172
:103710001C7803699A4201D3C3688361002100F0D9
:10372000C5F9204610BD4FF0FF3010BD2DE9F74F11
:1037300005460F4690469A46D0F81C90202686F300
:1037400011884FF0000B144664B1224639462846D2
:10375000FFF7EEFE034668B95146284600F096F999
:103760000028F1D0002383F31188A8EB040003B0F4
:10377000BDE8F08FB9F1000F03D001902846C8478B
:10378000019B8BF31188E41A1F4486F31188DBE751
:10379000026843681143016003B118477047000095
:1037A0001430FFF743BF00004FF0FF331430FFF732
:1037B0003DBF00003830FFF7B9BF00004FF0FF33C6
:1037C0003830FFF7B3BF00001430FFF709BF000027
:1037D0004FF0FF311430FFF703BF00003830FFF720
:1037E00063BF00004FF0FF323830FFF75DBF0000CD
:1037F00000207047FFF75CBD0E4B37B50360002318
:1038000043608360C360012304461546037420228D
:1038100000900B4600F15C011430FFF7B7FE0094F6
:103820002B46202204F17C0104F13800FFF730FF21
:1038300003B030BDD456000810B52023044683F3EE
:103840001188FFF755FD02232374002383F31188A9
:1038500010BD000038B5C36904460D461BB90421EC
:103860000844FFF795FF294604F11400FFF79CFE7A
:10387000002806DA201D4FF48061BDE83840FFF7CC
:1038800087BF38BD0022024B1B605B609A607047A7
:103890008C300020002382680374054B1B689968F4
:1038A0009142FBD25A6803604260106058607047D2
:1038B0008C30002008B5202383F31188037C032B70
:1038C00005D0042B0DD02BB983F3118808BD00223D
:1038D00043691A604FF0FF334361FFF7DBFF0023BA
:1038E000F2E790E80C001A6002685360F2E700000B
:1038F000002382680374054B1B6899689142FBD8CA
:103900005A68036042601060586070478C30002035
:10391000054B196908741868026853601A601861C9
:1039200001230374FDF7AEB88C30002030B54B1C7A
:1039300087B005460A4C10D023690A4A01A800F056
:10394000DDF82846FFF7E4FF049B13B101A800F05F
:10395000EFF82369586907B030BDFFF7D9FFF8E7E2
:103960008C300020B538000838B50C4D41612B690A
:1039700081689A680446914203D8BDE83840FFF751
:1039800089BF1846FFF786FF01232C610146237487
:103990002046BDE83840FDF775B800BF8C300020E8
:1039A000044B1A681B6990689B68984294BF00207A
:1039B000012070478C30002010B5084C2368206926
:1039C0001A6854602260012223611A74FFF790FF85
:1039D00001462069BDE81040FDF754B88C30002046
:1039E00008B5FFF7DDFF18B1BDE80840FFF7E4BFF9
:1039F00008BD0000826002220274002242747047F7
:103A00008368A3F13C0243F80C2C026943F83C2C78
:103A1000426943F8382C074A43F81C2CC268A3F1CA
:103A2000180043F8102C022203F8082C002203F897
:103A3000072C7047950A000810B5202383F31188DE
:103A4000FFF7DEFF00210446FFF78EFF002383F31C
:103A50001188204610BD0000024B1B6958610F20E1
:103A6000FFF756BF8C300020202383F31188FFF727
:103A7000F3BF000008B50146202383F31188082016
:103A8000FFF754FF002383F3118808BD49B1064BAB
:103A900042681B6918605A60136043600420FFF796
:103AA00045BF4FF0FF3070478C30002003689842CC
:103AB00006D01A680260506059611846FFF7EABEE6
:103AC0007047000038B504460D462068844200D196
:103AD00038BD036823605C604561FFF7DBFEF4E7F7
:103AE000054B03F114025A619A614FF0FF32DA611B
:103AF00000221A62704700BF8C30002010B5C260EF
:103B00000A4A036153699C68A1420CD85C6803604F
:103B100044602060586081609868411A99604FF055
:103B2000FF33D36110BD091B1B68ECE78C3000200C
:103B3000036881689A680A449A604268136003685F
:103B40005A6000234FF0FF32C360014BDA617047C7
:103B50008C300020162303604FF0FF3070470000C8
:103B60000020704718467047002070470C23036000
:103B70004FF0FF307047000010B5144600213C2282
:103B80002046FEF765F84FF400530020636010BD37
:103B90000120704700207047FEE7000070470000DA
:103BA0004FF0FF3070470000BFF34F8F024AD368D9
:103BB000DB07FCD4704700BF0020024008B5074B6C
:103BC0001B7853B9FFF7F0FF054B1A69120641BF86
:103BD000044A5A6002F188325A6008BDCC30002095
:103BE000002002402301674508B5054B1B7833B917
:103BF000FFF7DAFF034A136943F08003136108BD3E
:103C0000CC300020002002404FF48060704700005C
:103C1000402070473F280AD8800200F58063026880
:103C2000013204D104308342F9D1012070470020D1
:103C3000704700003F2808B514D8FFF7B5FFFFF71D
:103C4000BDFF0222084B1A6182025A611A6942F0D2
:103C500040021A61FFF7A8FFFFF7C6FFBDE8084062
:103C6000FFF7D8BF002008BD002002402DE9F8432F
:103C7000D307144629D4174B82189A4225D8FFF748
:103C80009DFFFFF791FF4FF001080E46124F401ABB
:103C9000A31B0B44012B00EB060504D8FFF7A4FF80
:103CA0002046BDE8F883B146C7F8108036F8023BDD
:103CB0002B80FFF779FF00233B612D88B9F8003096
:103CC000ADB2AB42E4D0FFF78FFF4FF0FF30BDE85D
:103CD000F88300BFFFFF000800200240084908B534
:103CE0000B7828B153B9FFF769FF01230B7008BDAA
:103CF00023B1BDE808400870FFF776BF08BD00BFDC
:103D0000CC3000204FF47A700D4B30B51B6A58430D
:103D10000C4B1A6890421A460FD20B4B0B49D3E951
:103D2000004514F1FF3445F10005C3E900450B6877
:103D300003F5830303F637130B60106030BD00BF3B
:103D40008C300020D0300020D8300020D43000202B
:103D500070B500F0E7F80646FFF7D4FF054BD3E94E
:103D60000045241845F10005304600F0E5F82046EE
:103D7000294670BDD830002038B500F0D3F84FF494
:103D80007A740546FFF7BEFFB0FBF4F4034B1868E6
:103D90000444284600F0D0F8204638BDD430002036
:103DA000034A536890689BB243EA0040704700BFE3
:103DB000006C0040024B82B2000C5A609860704761
:103DC000006C0040EFF30983203383F3098800235C
:103DD00083F311887047000010B5202383F3118806
:103DE0000D4B5B6813F4006312D0EFF309844FF0BE
:103DF000807344F8043CA4F1200383F30988FFF79F
:103E0000CFFD18B1054B44F8083C10BD044BFAE750
:103E100083F3118810BD00BF00ED00E0A50A000883
:103E2000A80A000870470000FEE70000084A094B96
:103E300009498B4204D30021084A934205D37047B5
:103E400052F8040F43F8040BF3E743F8041BF4E7BC
:103E5000B45800081C3200201C3200201C32002004
:103E6000FEE7000010B5174CFFF70CFDFFF738FE1A
:103E7000802215492046FFF7BDFD012344F8180CA8
:103E80000374124B124AD96821F4E0610904090C49
:103E90000A431049DA60CA6842F08072CA600E496B
:103EA0000A6842F001020A601022DA77202283F8C1
:103EB0002220002383F3118862B6BDE81040074832
:103EC000FFF7BABDB4300020FC56000800ED00E05A
:103ED0000003FA05F0ED00E0001000E004570008D0
:103EE000F8B50F4C226A01322262224652F8141FA2
:103EF0009142154606D020268B68013B8B60636992
:103F00009A6802B1F8BD1968DF68DA604D606161D6
:103F100082F311881869B84786F31188EFE700BF6C
:103F20008C300020EFF3118020B9EFF305832022BD
:103F300082F311887047000010B558B9EFF305847B
:103F4000C4F3080414B180F3118810BDFFF748FDD5
:103F500084F3118810BD000000F02EB808B500F001
:103F600061F9BDE80840FFF77DBF00007047000021
:103F70004FF0FF310E4B1A6919611A6900221A615C
:103F80001869D868D960D968DA60DA68DA6942F005
:103F90008052DA61DA69DA6942F00062DA61054A70
:103FA000DB69136843F48073136000F01BB900BF32
:103FB0000010024000700040194B1A6842F00102E4
:103FC0001A601A689007FCD51A6802F0F9021A60A4
:103FD00000225A605A6812F00C0FFBD11A6842F4A2
:103FE00080321A601A689103FCD55A6842F4E812CC
:103FF0005A601A6842F080721A601A689201FCD501
:104000001221084A5A60084A11605A6842F00202B6
:104010005A605A6802F00C02082AFAD1704700BFB1
:104020000010024000641D0000200240084A08B54C
:10403000536911680B4003F00103536123B1054A32
:1040400013680BB150689847BDE80840FFF7C4BE3D
:104050000004014090310020084A08B553691168F6
:104060000B4003F00203536123B1054A93680BB17F
:10407000D0689847BDE80840FFF7AEBE0004014095
:1040800090310020084A08B5536911680B4003F0CD
:104090000403536123B1054A13690BB15069984772
:1040A000BDE80840FFF798BE0004014090310020B1
:1040B000084A08B5536911680B4003F008035361BF
:1040C00023B1054A93690BB1D0699847BDE8084010
:1040D000FFF782BE0004014090310020084A08B575
:1040E000536911680B4003F01003536123B1054A73
:1040F000136A0BB1506A9847BDE80840FFF76CBEE1
:104100000004014090310020174B10B55C691A681B
:10411000144004F478725A61A30604D5134A936AD2
:104120000BB1D06A9847600604D5104A136B0BB1E7
:10413000506B9847210604D50C4A936B0BB1D06B9A
:104140009847E20504D5094A136C0BB1506C9847A7
:10415000A30504D5054A936C0BB1D06C9847BDE814
:104160001040FFF739BE00BF00040140903100202D
:104170001A4B10B55C691A68144004F47C425A6109
:10418000620504D5164A136D0BB1506D984723058F
:1041900004D5134A936D0BB1D06D9847E00404D554
:1041A0000F4A136E0BB1506E9847A10404D50C4A08
:1041B000936E0BB1D06E9847620404D5084A136F12
:1041C0000BB1506F9847230404D5054A936F0BB188
:1041D000D06F9847BDE81040FFF7FEBD00040140D6
:1041E00090310020062108B50846FFF7D7F80621D0
:1041F0000720FFF7D3F806210820FFF7CFF80621A4
:104200000920FFF7CBF806210A20FFF7C7F806219F
:104210001720FFF7C3F8BDE8084006212820FFF764
:10422000BDB8000008B5FFF7A3FE064800F00EF881
:10423000FFF7D2F8FFF7DEFAFFF798FEBDE8084077
:1042400000F002B82457000800F050B800231A46C6
:1042500010B51C495A50CC180833802B6260F9D134
:10426000194B9A6942F07D029A619B690268174B6B
:10427000DA6082685A6042681A60C26803F5806337
:10428000DA6042695A6002691A608269C3F80C24D4
:10429000026AC3F80424C269C3F80024426AC3F85E
:1042A0000C28C26AC3F80428826AC3F80028026B8B
:1042B000C3F80C2C826BC3F8042C426BC3F8002C9F
:1042C00010BD00BF903100200010024000080140E6
:1042D00008B5202383F31188FFF702FE002383F340
:1042E0001188BDE80840FFF777BD0000054B064A7E
:1042F00008215A6000229A6007220B201A60FFF7FB
:1043000063B800BF10E000E03F1901001FB51C4674
:10431000094B05461B68D86852B1084B8DE80A0066
:1043200002922B462246064900F00EF800F03AFCB5
:10433000044B1A46F2E700BF14180020605700082B
:104340006D570008B75200080EB403B5014603AB21
:10435000054853F8042B0068019300F09DF802B063
:104360005DF804EB03B070471418002010B5013954
:104370000244904201D1002010BD10F8013B11F819
:10438000014FA342F5D0181B10BD000070B5CD1C25
:1043900025F0030508350C2D38BF0C25002D0646E9
:1043A00001DBA94203D90C233360002070BD00F06B
:1043B000EFFD234A1468214691B9224C23681BB9AA
:1043C000304600F017FB20602946304600F012FB13
:1043D000431C26D10C233046336000F0DBFDE4E7BC
:1043E0000B685B1B1AD40B2B0FD90B60CC18CD506C
:1043F000304600F0CFFD04F10B00231D20F0070034
:10440000C31A1BD05A42E25070BD8C420BBF636886
:104410004B681360636018BF0C46E9E70C464968B7
:10442000CAE7C41C24F00304A04205D0211A304678
:1044300000F0E0FA0130CDD02560D9E770BD00BFB3
:104440001032002014320020936810B4013B002B7E
:10445000936008DA9469A34202DBCBB20A2B02D143
:1044600010BC00F0DFBA1368581C10601970C8B295
:1044700010BC7047F8B506460F461446D518AC4236
:1044800001D1002007E03A4614F8011B3046FFF73F
:10449000DBFF431CF3D1F8BD2DE9F04F9DB00C4676
:1044A00017460393064618B183690BB900F074FCF4
:1044B0007C4B9C4257D17468A38918075DD523694A
:1044C000002B5AD00023099320238DF82930302364
:1044D0004FF0010B8DF82A30B846454615F8013BE0
:1044E000002B55D1B8EB070A0BD053463A4621466C
:1044F0003046FFF7BFFF013000F0C480099B5344F2
:10450000099398F80030002B00F0BC8000234FF096
:10451000FF3204930793059206938DF853301A9354
:1045200005222978604800F025FD05F10108049B6B
:10453000002831D1D90644BF20228DF853201A0714
:1045400044BF2B228DF853202A782A2A2CD0002110
:104550000A20079AA84698F800300135303B092B0D
:104560006DD971B326E0514B9C4201D1B468A3E7E9
:104570004F4B9C4208BFF4689EE72146304600F04E
:10458000A3FA00289ED04FF0FF301DB0BDE8F08F99
:10459000252BA7D0A846A0E7434A4546801A0BFA28
:1045A00000F018430490BBE7039A111D12680391B1
:1045B000002A01DB079204E0524243F00203079213
:1045C000049398F800302E2B10D198F8013008F1A0
:1045D00001012A2B37D1039B08F102081A1D1B6821
:1045E0000392002BB8BF4FF0FF330593314D0322E8
:1045F00098F80010284600F0BDFC40B14023401B55
:1046000003FA00F0049B08F101080343049398F8AF
:1046100000100622284808F101078DF8281000F044
:10462000A9FC002834D0254B03BB039B073323F0A0
:10463000070308330393099B4B4409934CE700FBA2
:104640000232012186E700230A2518460593884691
:1046500098F800200131303A092A03D9002BC5D03F
:104660000590C3E705FB00200123F0E703AB0093AF
:104670002246134B04A93046AFF30080B0F1FF3F50
:104680008146D8D1A3895B063FF57DAF09987CE7C9
:1046900003AB009322460A4B04A9304600F08AF887
:1046A000ECE700BFF8570008A057000818580008AA
:1046B000D8570008A6570008AA57000800000000B5
:1046C000754400082DE9F04791461F468A680B693A
:1046D00006469342B8BF1346C9F8003091F843200C
:1046E0000C46DDF8208012B10133C9F80030236890
:1046F000990642BFD9F800300233C9F80030256866
:1047000015F0060507D104F1190AE368D9F800206D
:104710009B1A9D422ADB94F843302268003318BF6D
:10472000012392062FD404F1430239463046C04794
:10473000013022D02368E56803F00603042B18BF7C
:104740000025D9F800204FF0000908BFAD1AA36872
:10475000226908BF25EAE5759342C4BF9B1AED188C
:104760001A344D451BD10020BDE8F0870123524685
:1047700039463046C047013003D14FF0FF30BDE825
:10478000F0870135C1E73020E11881F843005A1C59
:1047900094F845102244023382F84310C3E7012302
:1047A000224639463046C0470130E6D009F10109BA
:1047B000D7E700002DE9F04317460A7E85B06E2A40
:1047C000984606460C460C9B01F1430E00F0BC8057
:1047D0001AD8632A2ED00AD8002A00F0C880582A96
:1047E00000F08A8004F1420584F842202AE0642A1D
:1047F00001D0692AF6D121681A6811F0800F23D000
:10480000111D1960136827E0732A00F0B48008D8DE
:104810006F2A2AD0702AE5D10A6842F020020A6085
:1048200003E0752A21D0782ADCD178226F4984F8F8
:10483000452064E01A6801F14205111D19601368F2
:1048400084F842300123A3E011F0400F02F104018B
:104850001960D7D0B2F90030002B03DA2D225B4269
:1048600084F8432062490A2217E02068196810F092
:10487000800F03D0081D18600B6806E010F0400F91
:1048800001F104001860F7D00B886F2A14BF0A22C8
:1048900008225749002084F843006568002DA56070
:1048A000C0F29C80206820F004002060002B3FD1E3
:1048B000002D40F095807546082A0BD12368DA0751
:1048C00008D5236962689A42DEBF302305F8013CAF
:1048D00005F1FF35AEEB05032361CDF800803B46C3
:1048E00003AA21463046FFF7EDFE013055D14FF0C7
:1048F000FF3005B0BDE8F08381F845203C492268CF
:10490000186812F0800F00F104051D6001D00368E3
:1049100002E05506FBD50388D00744BF42F02002D1
:1049200022601BB9226822F0200222601022B1E727
:104930007546B3FBF2F002FB1033CB5C05F8013D8A
:1049400003460028F5D1B7E708681A6810F0800F11
:10495000496904D0101D18601368196007E010F051
:10496000400F02F1040018601368F6D0198000238C
:1049700075462361B1E71A68111D19601568002199
:104980006268284600F0F6FA08B1401B6060636870
:104990002361002384F843309FE723692A46394680
:1049A0003046C0470130A2D023689B0707D50025B9
:1049B00004F11909E368039A9B1A9D4205DBE0683C
:1049C000039B9842B8BF184693E701234A463946ED
:1049D0003046C04701308AD00135EBE7002BA7D124
:1049E0000B7804F1420584F8423065E7C5570008AA
:1049F000B457000838B50023054C05460846236027
:104A0000FFF7B4F8431C02D1236803B12B6038BD13
:104A100018320020034611F8012B03F8012B002A5D
:104A2000F9D17047F8B50E461446054618B18369AA
:104A30000BB900F0B1F9214B9C422AD16C68A369F3
:104A4000A360A3891A072ED5236963B3236920685D
:104A5000F6B2C01A63693746984204DB21462846FD
:104A600000F030F928BBA3680130013BA360236844
:104A70005A1C22601E706369984204D0A389DB0728
:104A800019D50A2E17D12146284600F01BF990B1FE
:104A90000FE00B4B9C4201D1AC68D0E7094B9C4224
:104AA00008BFEC68CBE72146284600F00DF8002847
:104AB000CCD04FF0FF373846F8BD00BFF85700089C
:104AC00018580008D8570008324B70B51D680646C4
:104AD0000C4625B1AB6913B9284600F05DF92E4BA1
:104AE0009C420FD16C68B4F90C309AB215072CD4E3
:104AF000D00611D40922326043F04003A3814FF065
:104B0000FF3070BD254B9C4201D1AC68EBE7244BD4
:104B10009C4208BFEC68E6E7510712D5616B41B1D2
:104B200004F14403994202D0304600F035FA0023E4
:104B30006363A38923F02403A381002363602369B3
:104B40002360A38943F00803A38123694BB9A38998
:104B500003F42073B3F5007F03D02146304600F004
:104B6000C9F9A28912F001030CD00023A360636984
:104B70005B42A361236953B9B4F90C3013F0800090
:104B8000BAD170BD920758BF6369A360F2E70020F5
:104B9000F7E700BF14180020F8570008185800085D
:104BA000D857000808B5062000F06AFA0120FEF781
:104BB000F3FF00008A892DE9F041054610070C46F5
:104BC0005AD44B68002B05DC0B6C002B02DC002058
:104BD000BDE8F081E66A002EF9D0002312F480527D
:104BE0002F682B6033D0606DA3895A0705D56368A1
:104BF000C01A636B0BB1236CC01A00230246E66A2D
:104C0000216A2846B047431CA38906D129681D297B
:104C10004BD82B4ACA40D60747D50022626022698A
:104C2000D904226004D5421C01D12B6803B9606508
:104C3000616B2F600029CAD004F14403994202D06D
:104C4000284600F0A9F900206063BDE8F081216AE0
:104C500001232846B047411CC6D12B68002BC3D086
:104C60001D2B01D0162B01D12F60B0E7A38943F093
:104C70004003A381BDE8F0810F69002FA7D09307FF
:104C800018BF00230E6808BF4B69A6EB07080F602A
:104C90008B60B8F1000F9ADD43463A46216A2846F8
:104CA000A66AB047002807DCA38943F04003A3812C
:104CB0004FF0FF30BDE8F0810744A8EB0008E8E7BB
:104CC0000100402038B50B6905460C46DBB118B130
:104CD00083690BB900F060F80C4B9C4209D16C68F9
:104CE000B4F90C307BB121462846BDE83840FFF7C7
:104CF00061BF074B9C4201D1AC68F1E7054B9C4278
:104D000008BFEC68ECE7002038BD00BFF85700088A
:104D100018580008D8570008014900F0A9B800BF8A
:104D2000C54C0008002310B504460360436083604F
:104D300081814366C2810361436183611946082210
:104D40005C30FCF785FF054B24626362044BA36271
:104D5000044BE362044B236310BD00BFB95000084D
:104D6000DD500008155100083951000870B568255C
:104D70004A1E55430E4605F17401FFF707FB044632
:104D800040B1002180E842000C30A06005F16802CB
:104D9000FCF75EFF204670BD836910B5044633BB47
:104DA0008364C3640365124B124A1B688262984293
:104DB00004BF0123836100F01FF86060204600F00B
:104DC0001BF8A060204600F017F80022E0600421E4
:104DD0006068FFF7A7FF01220921A068FFF7A2FF83
:104DE00002221221E068FFF79DFF0123A36110BD9D
:104DF0009C570008194D0008F8B51C4B07461E6863
:104E0000B36913B93046FFF7C7FF4836B468736813
:104E1000013B03D5336833B13668F7E7B4F90C507A
:104E20006DB16834F4E704213846FFF79FFF306026
:104E30000028F1D10C2304463B602046F8BD4FF614
:104E4000FF73E38101236566A3812560A56065602A
:104E500025616561A5610822294604F15C00FCF723
:104E6000F7FE6563A563A564E564E6E79C57000863
:104E70002DE9F84380468946002600F1480414B91C
:104E80003046BDE8F883A5686768013F01D524680E
:104E9000F5E7AB89012B07D9B5F90E30013303D003
:104EA00029464046C84706436835EEE770B50E46CA
:104EB000B1F90E1090B0002914461D4607DA002300
:104EC0002B60B3891A0610D44FF480630EE001AA58
:104ED00000F058F90028F2DB029A02F47042A2F5C1
:104EE00000535A425A412A60EEE7402300202360D3
:104EF00010B070BD8B8973B59D0706460C4607D56B
:104F000004F14703236023610123636102B070BD94
:104F100001AB6A46FFF7CAFF009905463046FFF726
:104F200035FA48B9B4F90C309A05EFD423F00303ED
:104F300043F00203A381E3E70D4BB362A389206032
:104F400043F08003A381009B20616361019B5BB1FF
:104F5000B4F90E10304600F027F928B1A38923F0E8
:104F6000030343F00103A381A3891D43A581CDE77A
:104F7000194D000810B5C9B202449042034601D150
:104F8000002010BD1C7801308C42F6D1184610BDAF
:104F9000704700007047000038B50546002943D02F
:104FA00051F8043C0C1F002BB8BFE418FFF7F0FFCA
:104FB0001E4A1368104633B9636014602846BDE882
:104FC0003840FFF7E7BFA3420BD92168621893422C
:104FD00001BF1A685B685218226063600460EDE7E5
:104FE00013465A680AB1A242FAD919685818A04261
:104FF0000BD120680144581882421960DED1106834
:105000005268014419605A60D8E702D90C232B601A
:10501000D4E7206821188A4201BF11685268091834
:10502000216062605C60C9E738BD00BF10320020BB
:105030001F2938B504460D4604D9162303604FF0E6
:10504000FF3038BD426C12B152F821304BB92046C6
:1050500000F030F82A4601462046BDE8384000F00E
:1050600017B8012B0AD0591C03D116230360012065
:1050700038BD0024284642F825409847002038BD16
:10508000024B01461868FFF7D3BF00BF1418002079
:1050900038B50023064C0546084611462360FEF746
:1050A0007FFD431C02D1236803B12B6038BD00BFD4
:1050B00018320020FEF76EBD10B50C46B1F90E1087
:1050C00000F094F80028ABBF636DA3891B1823F48C
:1050D0008053ACBF6365A38110BD00002DE9F04192
:1050E0001F468B890546DB050C46164605D502236F
:1050F0000022B1F90E1000F067F8A389324623F4BC
:105100008053A381B4F90E103B462846BDE8F04118
:1051100000F016B810B50C46B1F90E1000F054F8B6
:10512000431CA38915BF606523F4805343F4805367
:10513000A38118BFA38110BDB1F90E1000F012B801
:1051400038B50546084611460022054C22601A462D
:10515000FEF708FD431C02D1236803B12B6038BD64
:105160001832002038B50023054C05460846236058
:10517000FEF7FAFC431C02D1236803B12B6038BD53
:105180001832002038B50023064C05460846114663
:105190002360FEF7F1FC431C02D1236803B12B60AE
:1051A00038BD00BF1832002038B50023054C054635
:1051B00008462360FEF7ECFC431C02D1236803B1D0
:1051C0002B6038BD1832002038B505460846114618
:1051D0000022054C22601A46FEF7C2FC431C02D195
:1051E000236803B12B6038BD1832002038B505465E
:1051F000084611460022054C22601A46FEF7AAFC1A
:10520000431C02D1236803B12B6038BD1832002043
:1052100012101213121100007265636569766564DD
:105220005F756E697175655F69645F6C656E203C62
:105230002055415643414E5F50524F544F434F4CBF
:105240005F44594E414D49435F4E4F44455F494489
:105250005F414C4C4F434154494F4E5F554E49516D
:1052600055455F49445F4D41585F4C454E47544852
:10527000002E2E2F2E2E2F546F6F6C732F41505FE8
:10528000426F6F746C6F616465722F63616E2E6321
:10529000707000616C6C6F63617465645F6E6F64E5
:1052A000655F6964203C3D20313237004E6F646594
:1052B0002049442025640A00667720757064617473
:1052C00065205B25735D2066726F6D2025750A0071
:1052D0006F72672E6172647570696C6F742E617085
:1052E0005F7065726970682D424C0000766F69646A
:1052F0002068616E646C655F616C6C6F636174697A
:105300006F6E5F726573706F6E73652843616E6157
:105310007264496E7374616E63652A2C2043616EFA
:1053200061726452785472616E736665722A2900E4
:1053300053544D33324631787800000063616E611A
:105340007264496E6974000063616E6172645365D2
:10535000744C6F63616C4E6F6465494400000000DB
:1053600063616E61726448616E646C655278467206
:10537000616D650063616E6172644465636F64654D
:105380005363616C6172000063616E617264456EAB
:10539000636F64655363616C61720000696E637270
:1053A000656D656E745472616E7366657249440012
:1053B000656E717565756554784672616D657300CB
:1053C0007075736854785175657565007072657095
:1053D000617265466F724E6578745472616E736661
:1053E00065720000636F707942697441727261790D
:1053F00000000000646573636174746572547261C7
:105400006E736665725061796C6F616400000000B4
:1054100066726565426C6F636B0000006269745F61
:105420006C656E677468203E20300072656D61693E
:105430006E696E675F62697473203E203000696E2A
:105440007075745F6269745F6F6666736574203E21
:105450003D20626C6F636B5F6269745F6F66667339
:10546000657400626C6F636B5F656E645F62697424
:105470005F6F6666736574203E20626C6F636B5F5E
:105480006269745F6F66667365740072656D6169E9
:105490006E696E675F6269745F6C656E67746820C1
:1054A0003C3D2072656D61696E696E675F6269740B
:1054B0007300696E7075745F6269745F6F6666739E
:1054C0006574203C3D207472616E736665722D3E7A
:1054D0007061796C6F61645F6C656E202A203800A2
:1054E0006F75747075745F6269745F6F66667365FB
:1054F00074203C3D2036340072656D61696E696EC2
:10550000675F6269745F6C656E677468203D3D20FB
:10551000300028726573756C74203E203029202677
:10552000262028726573756C74203C3D2036342922
:105530002026262028726573756C74203C3D2062FD
:1055400069745F6C656E67746829000064657374C4
:10555000696E6174696F6E20213D202828766F691D
:1055600064202A2930290076616C756520213D2050
:105570002828766F6964202A293029006F666673AF
:1055800065745F77697468696E5F626C6F636B20C6
:105590003C2028333255202D205F5F6275696C7482
:1055A000696E5F6F66667365746F66202843616E0F
:1055B000617264427566666572426C6F636B2C2023
:1055C00064617461292900006F75745F696E7320CE
:1055D000213D202828766F6964202A29302900007F
:1055E0007372635F6C656E203E20305500000000D2
:1055F0002863616E5F696420262030783146464614
:10560000464646465529203D3D2063616E5F6964EC
:1056100000000000616C6C6F6361746F722D3E73EB
:105620007461746973746963732E63757272656EE5
:10563000745F75736167655F626C6F636B73203E47
:10564000203000007472616E736665725F69642059
:10565000213D202828766F6964202A2930290000FE
:1056600073746174652D3E6275666665725F626C07
:105670006F636B73203D3D202828766F6964202A74
:10568000293029002E2E2F2E2E2F6D6F64756C65FC
:10569000732F6C696263616E6172642F63616E6106
:1056A00072642E63006974656D2D3E6672616D656E
:1056B0002E646174615F6C656E203E2030000000D6
:1056C0000096000000000000000000000000000044
:1056D0000000000000000000BD370008A9370008E6
:1056E000E5370008D1370008DD370008C937000862
:1056F000B5370008A1370008F13700086D61696E01
:10570000000000001C570008E0300020903100200D
:1057100001000000613E00080000000069646C6543
:10572000000000000C1E0000887B8188B857898823
:10573000000000008888888488888888000000002D
:1057400088888888888888880000000088888888F9
:1057500088888888000000008888888888888888E9
:105760002C2066756E6374696F6E3A2000617373E6
:10577000657274696F6E2022257322206661696CE0
:1057800065643A2066696C6520222573222C206CA2
:10579000696E65202564257325730A00181800209A
:1057A000232D302B2000686C4C006566674546470A
:1057B0000000000030313233343536373839414259
:1057C0004344454600303132333435363738396159
:1057D00062636465660000000000000000000000D5
:1057E00000000000000000000000000000000000B9
:1057F00000000000000000000000000000000000A9
:105800000000000000000000000000000000000098
:105810000000000000000000000000000000000088
:105820000000000000000000000000000000000078
:1058300000000000000000008CAEFF7F01000000AF
:105840006400000000000000FE2A0100D2040000F5
:10585000FF0000001818002000000000F8570008A2
:1058600018580008D8570008000000000000000089
:105870000000000000000000000000000000000028
:105880000000000000000000000000000000000018
:105890000000000000000000000000000000000008
:1058A00000000000000000000000000000000000F8
:0858B0000000000000000000F0
:00000001FF
