:020000040800F2
:100000000009002029050008CD270008D127000895
:1000100029280008D1270008FD2700082B05000823
:100020002B0500082B0500082B0500088138000867
:100030002B0500082B0500082B0500082B050008E0
:100040002B0500082B0500082B0500082B050008D0
:100050002B0500082B0500089D4A0008C54A00082A
:10006000ED4A0008154B00083D4B00082B05000821
:100070002B0500082B0500082B0500082B050008A0
:100080002B0500082B0500082B0500082B05000890
:100090002B0500082B0500082B050008654B000800
:1000A0002B0500082B0500082B0500082B05000870
:1000B0004D4C00082B0500082B0500082B050008F7
:1000C0002B0500082B0500082B0500082B05000850
:1000D0002B050008394C00082B0500082B050008EB
:1000E000C94B00082B0500082B0500082B0500084C
:1000F0002B0500082B0500082B0500082B05000820
:100100002B0500082B0500082B0500082B0500080F
:100110002B0500082B0500082B0500082B050008FF
:100120002B0500082B0500082B0500082B050008EF
:100130002B0500082B0500082B0500082B050008DF
:100140002B0500082B0500082B0500082B050008CF
:100150002B0500082B0500082B0500082B050008BF
:100160002B0500082B0500082B0500082B050008AF
:100170002B0500082B0500082B0500082B0500089F
:100180002B0500082B0500082B0500082B0500088F
:100190002B0500082B0500089D270008B127000843
:1001A0002B0500082B0500082B0500082B0500086F
:1001B0002B0500082B0500082B0500082B0500085F
:1001C0002B0500082B0500082B0500082B0500084F
:1001D0002B0500082B0500082B0500082B0500083F
:1001E000F118000800000000D0400B1CD1409C46D4
:1001F000203AD34018435242634693401843704715
:100200009140031C90409C46203A9340194352422F
:100210006346D3401943704753B94AB9002908BF10
:1002200000281CBF4FF0FF314FF0FF3000F07AB9CB
:10023000ADF1080C6DE904CE00F006F8DDF804E03D
:10024000DDE9022304B070472DE9F0478C460D46E6
:100250000446089E002B51D18A4217466DD9B2FA46
:1002600082FEBEF1000F0BD0CEF1200C01FA0EF58C
:1002700020FA0CFC02FA0EF74CEA050C00FA0EF418
:100280004FEA174A250CBCFBFAF81FFA87F90AFB5C
:1002900018CC45EA0C4508FB09F3AB420AD9ED1925
:1002A00008F1FF3280F02381AB4240F22081A8F1B7
:1002B00002083D44ED1AA4B2B5FBFAF00AFB105552
:1002C00044EA054400FB09F9A14509D9E41900F104
:1002D000FF3380F00A81A14540F2078102383C4497
:1002E000A4EB090440EA08400021002E61D024FA62
:1002F0000EF4002334607360BDE8F0878B4207D9A9
:10030000002E54D0002186E821000846BDE8F08781
:10031000B3FA83F1002940F08E80AB4202D38242CF
:1003200000F2FA80841A65EB03050120AC46002E2A
:100330003FD086E81010BDE8F08712B90127B7FB5F
:10034000F2F7B7FA87FEBEF1000F34D1EB1B3A0C7F
:100350001FFA87FC0121B3FBF2F8250C02FB1833CE
:1003600045EA03450CFB08F3AB4207D9ED1908F148
:10037000FF3002D2AB4200F2D1808046ED1AA3B228
:10038000B5FBF2F002FB105543EA05440CFB00FC00
:10039000A44507D9E41900F1FF3302D2A44500F2C5
:1003A000B8801846A4EB0C0440EA08409DE73146AB
:1003B0003046BDE8F087CEF1200405FA0EF307FAC7
:1003C0000EF720FA04F83A0C25FA04F448EA030878
:1003D000B4FBF2F14FEA184502FB11441FFA87FC07
:1003E00045EA044501FB0CF3AB4200FA0EF409D9CF
:1003F000ED1901F1FF3080F08A80AB4240F2878036
:1004000002393D44EB1A1FFA88F5B3FBF2F002FB08
:10041000103345EA034500FB0CF3AB4207D9ED1955
:1004200000F1FF386FD2AB426DD902383D44EB1A70
:1004300040EA01418FE7C1F1200722FA07F88B401B
:1004400005FA01F448EA030320FA07FE4FEA134CC9
:10045000FD404EEA040EB5FBFCF94FEA1E440CFBCE
:1004600019551FFA83F844EA054509FB08F4AC4224
:1004700002FA01F200FA01FA08D9ED1809F1FF3089
:1004800043D2AC4241D9A9F102091D442D1B1FFAE8
:100490008EFEB5FBFCF00CFB10554EEA054400FB4C
:1004A00008F8A04507D9E41800F1FF3529D2A04586
:1004B00027D902381C4440EA0940A4EB0804A0FBF9
:1004C00002894C45C6464D4615D312D056B1BAEBFB
:1004D0000E0364EB050404FA07F7CB401F43CC403E
:1004E000376074600021BDE8F0871846F8E6904652
:1004F000E0E6C245EAD2B8EB020E69EB030501382B
:10050000E4E72846D7E7404691E78146BEE7014643
:1005100078E702383C4445E7084608E7A8F10208B6
:100520003D442BE7704700BF02E000F000F8FEE713
:1005300072B6394880F30888384880F3098838480B
:100540004EF60851CEF20001086040F20000CCF2F5
:1005500000004EF63471CEF200010860BFF34F8FF9
:10056000BFF36F8F40F20000C0F2F0004EF68851EA
:10057000CEF200010860BFF34F8FBFF36F8F4FF0D3
:100580000000E1EE100A4EF63C71CEF20001086068
:10059000062080F31488BFF36F8F04F0FFF804F097
:1005A00043F94FF055301F491B4A91423CBF41F877
:1005B000040BFAE71C49194A91423CBF41F8040B6D
:1005C000FAE71A491A4A1B4B9A423EBF51F8040BEC
:1005D00042F8040BF8E700201749184A91423CBF43
:1005E00041F8040BFAE704F0DDF804F069F9144C63
:1005F000144DAC4203DA54F8041B8847F9E700F0C5
:1006000041F8114C114DAC4203DA54F8041B8847F1
:10061000F9E704F0C5B8000000090020001100202F
:1006200000000008000100200009002068500008B8
:10063000001100207011002070110020F04F0020E8
:10064000E0010008E4010008E4010008E4010008FA
:100650002DE9F04F2DED108AC1F80CD0C3689D46EE
:10066000BDEC108ABDE8F08F002383F31188284683
:10067000A047002003F092FDFEE703F0EDFC00DF51
:10068000FEE70000F8B52F4B042100240322597027
:100690006FF077011A709C70DC701C715C719C713A
:1006A000DC711C7259729A72DC7204F01DF80646F5
:1006B00004F06EF8054678BB234B9E422ED00133E2
:1006C0009E422ED0214B26F0FF029A422CD1F0B24E
:1006D00000F040FD2F4642F2107400F051FF00F090
:1006E0003FFD28B335B11A4B9E4203D004F048F8C1
:1006F00000242746002004F001F80FB100F072F842
:1007000001F072FA00F05EFF01F05CF9204600F0A3
:10071000C1F800F067F8F9E70746DEE70746044648
:10072000DBE704460127D8E707464FF47A74D4E79D
:1007300015B1074B9E42D9D1002003F0DFFF002402
:10074000DEE700BF70110020010007B0000008B014
:10075000263A09B008B501F007F9A0F12003584284
:10076000584108BD07B5054B02211B88ADF8043080
:1007700001A801F017F903B05DF804FB144E00085E
:1007800010B5202383F311881248C3680BB103F01E
:1007900093FD0023104A0F484FF47A7103F03AFD9D
:1007A000002383F311880D4C236813B12368013BA8
:1007B0002360636813B16368013B6360084B1B7877
:1007C00033B9636823B9022001F094F932236360DE
:1007D00010BD00BF7C110020810700089812002086
:1007E0009011002010B5224B224953F8042F0132FA
:1007F00000D110BD8B42F8D11F4C204B22689A4289
:1008000034D91F4B9B6803F1006303F5F0439A4210
:100810002CD203F089FF03F09BFF002001F0ECF8DD
:10082000184B0220187001F05DF9174B9A6D0022E9
:100830009A65996F9A67996FD96DDA65D96FDA679A
:10084000D96F196E1A66D3F88010C3F88020D3F8D8
:10085000803072B60D4A0E4B13601B68226820214F
:1008600081F311889D4683F30888104710BD00BFAF
:10087000FC7700081C78000804780008FF7700085F
:1008800070110020901100200010024008ED00E0DF
:10089000007800082DE9F04F99B0B34C0190202268
:1008A000FF2110A8A66801F041F9B04A1378A346C9
:1008B000A3B9AF480121C3601170202383F31188CD
:1008C000C3680BB103F0F8FC0023AA4AA8484FF410
:1008D0007A7103F09FFC002383F31188019B13B10D
:1008E000A54B019A1A60A54AA349019F02920023D1
:1008F00013704B6099461C461D469846012001F036
:10090000F1F8002F00F012829B4B1B68002B40F087
:100910000D8219B0BDE8F08F0220FFF71BFF002801
:1009200040F0FB81019BB9F1000F08BF1F46944BBB
:100930001B88ADF82C3002210BA801F033F8DDE75D
:100940004FF47A7001F010F8031E0393EADB0220E3
:10095000FFF700FF82460028E4D0039B581E0428BE
:1009600000F2DD81DFE800F0030E1114170018A873
:10097000052340F8343D042101F014F854464FF0AB
:10098000000856E004217848F6E704217D48F3E7A3
:1009900004217D48F0E71C24204601F02FF80434A0
:1009A0000B9004210BA800F0FDFF2C2CF4D1E5E7FF
:1009B000002DB7D0002CB5D00220FFF7CBFE0546A6
:1009C000002800F0AF8101206C4C01F015F80220E6
:1009D000207001F087F84FF000095FFA89FA50465D
:1009E00001F01AF8074658B1504601F025F809F110
:1009F00001090028F1D12C46A9460027634B97E74F
:100A000001230220237001F067F83E46DBF808302E
:100A10009E4206D2304600F0F1FF0130EBD10436A1
:100A2000F4E7029B00261E70534BA9465E602C46DD
:100A3000374601F0CFF815B1002C18BF0027FFF79B
:100A400091FE5BE7002D3FF46DAF002C3FF46AAFE1
:100A5000029B0220187001F045F8322000F084FF5C
:100A6000B0F1000AC0F25E811AF0030540F05A812D
:100A7000DBF8082006EB0A03934200F25381BAF533
:100A8000807F00F24F8155450DDA4FF47A7000F007
:100A90006BFF0490049B002BC0F244813C4A049BF2
:100AA000AB540135EFE7C820FFF754FE0546002898
:100AB00000F038811F2E11D8C6F12004544528BFFC
:100AC000544610AB26F0030022463149184401F089
:100AD0001BF82246FF212E4801F028F84FEAAA0A07
:100AE0005FFA8AF22A49304601F028F804460028C5
:100AF00000F01A8106EB8A0605469AE70220FFF706
:100B000029FE00283FF40EAF00F0B0FF00283FF4AC
:100B100009AF4FF0000A5346DBF8082092451CD27B
:100B2000BAF11F0F12D8109A01320FD02AF0030227
:100B300018A90A4452F8202C0B92184604220BA93B
:100B400001F0D0FF0AF1040A0346E5E7504603939B
:100B500000F054FF039B0B90EFE718A8042140F826
:100B60004C3D00F01FFF64E770110020941200203C
:100B70007C110020810700089812002090110020AD
:100B8000164E00087411002078110020184E00083D
:100B90009411002018A8002340F8343D642100F08F
:100BA000F7FE00287FF4BEAE0220FFF7D3FD002839
:100BB0003FF4B8AE0B9800F051FF18AB43F8480D66
:100BC00004211846CDE718A8002340F8343D6421DD
:100BD00000F0DEFE00287FF4A5AE0220FFF7BAFD8C
:100BE00000283FF49FAE0B9800F03AFF18AB43F893
:100BF000440DE5E70220FFF7ADFD00283FF492AE7B
:100C000000F044FF18AB43F8400DD9E70220FFF78E
:100C1000A1FD00283FF486AE0BA9142000F03CFF94
:100C2000824618A8042140F83CAD00F0BBFE5146B6
:100C30000BA896E7322000F097FEB0F1000AFFF60D
:100C400071AE1AF0030F7FF46DAEDBF808200AEBEB
:100C5000080393423FF666AE0220FFF77BFD0028B3
:100C60003FF460AE2AF0030AC244D0453FF4E1AE3F
:100C7000404600F0C3FE04210A900AA800F092FE4C
:100C800008F10408F1E74FF47A70FFF763FD0028DC
:100C90003FF448AE00F0EAFE00283FF4AFAE109BF0
:100CA00001330CD0082210A9002000F047FF0028D3
:100CB0003FF4A4AE2022FF2110A800F037FFFFF779
:100CC00051FD394803F070FA23E6002D3FF42AAEB7
:100CD000002C3FF427AE18A8002340F8343D6421CF
:100CE00000F056FE824600287FF41CAE0220FFF77B
:100CF00031FD00283FF416AE0390FFF733FD41F2BB
:100D0000883003F051FA0B9800F07AFF00F062FF90
:100D1000039B57461C461D46F0E5054689E64FF005
:100D20000008FFE52546FDE52C4667E6002000F0BB
:100D30001BFE0490049B002B01DA00F08FFC049B47
:100D4000002BFFF6DEAD012000F0C6FE049B213B28
:100D5000122B3FF6D3AD01A252F823F01909000877
:100D600041090008B1090008FD080008FD08000855
:100D7000FD080008450A0008350C0008FD0A0008B7
:100D8000950B0008C70B0008F50B0008FD080008CC
:100D90000D0C0008FD080008870C0008330A000845
:100DA000FD080008CB0C0008A086010009490B686B
:100DB00049F269009AB21B0C00FB0233064A0B6031
:100DC000136844F2506198B21B0C01FB00301060B4
:100DD00080B27047041100200011002010B50021DE
:100DE0001022044600F0A2FE034B03CB206061609A
:100DF0001868A06010BD00BF9075FF1FF0B51F4CB4
:100E0000BBB001F02BFDA368C31AF92B30D906AD96
:100E10002346A06028220021284602F0E1FA04F1CE
:100E20000E0000F07BFE0023C6B2591D5F1CDBB232
:100E3000B3424FEAC10107DA0E33234408222846A1
:100E400002F0CEFA3B46F0E7012303930823207B10
:100E500002930B4B0193C1F3CF0130230591009313
:100E60000146049503A3D3E90023064802F0F2F8F3
:100E70003BB0F0BD78F6339F93CACD8DE04B002098
:100E8000ED4B0020B82200202DE9F0410D4CDFF899
:100E90003C800D4FA4F5815545F8088C237E3BB965
:100EA00066692EB1304601F0DDFC304603F012FFDA
:100EB0002046083D01F0D6FCAF42A4F5A454E9D188
:100EC000BDE8F08188470020E0220020FC4E0008A9
:100ED00070B50D4614461E4602F064F850B9022E55
:100EE0000ED1012C0CD112A3D3E90023C5E90023B4
:100EF000012070BD052C14D003D8012C09D000208E
:100F000070BD282C09D0302CF9D10BA3D3E90023D4
:100F1000ECE70BA3D3E90023E8E70BA3D3E9002315
:100F2000E4E70BA3D3E90023E0E700BFAFF30080C1
:100F3000401DA12026812A0B78F6339F93CACD8DC0
:100F40009E6AC421818A46EE26417272DF25D7B798
:100F5000F017304A39059E5638B504460D4603460B
:100F600020222846002102F03BFA22792346032A58
:100F700028BF032203F8042F28460222202102F072
:100F80002FFA62792346072A28BF072203F8052F84
:100F900028460322222102F023FAA2792346072AB7
:100FA00028BF072203F8062F28460322252102F036
:100FB00017FA284604F108031022282102F010FA3B
:100FC000382038BD2DE9F04FFFB01FAE0CAD40F218
:100FD000791280460F463046002100F0A7FD4822D6
:100FE0000021284600F0A2FD01F038FC574B4FF4D9
:100FF0007A72B0FBF2F0186093E80700012385E8ED
:1010000007002B740DF1520000236B74FFF7E6FE0E
:10101000042385F82030032385F8213006AB1846D9
:101020004B4903F0EBFE142228643146284685F82C
:101030003C20FFF791FF10AB0446014608223046E2
:1010400002F0CEF90822A1180DF14103304602F05A
:10105000C7F90DF14203082204F11001304602F0F5
:10106000BFF911AB202204F11801304602F0B8F9A3
:1010700012AB402204F13801304602F0B1F914AB52
:10108000082204F17801304602F0AAF90DF151036B
:10109000082204F18001304602F0A2F904F1880A26
:1010A0000DF1520904F5847B4B4651460822304627
:1010B0000AF1080A02F094F9D34509F10109F3D1C4
:1010C00019AB08225946304602F08AF904F58874B3
:1010D0004FF0000995F834304B4510D84FF0000917
:1010E00095F83C304B4515D92B6C21464B440822D2
:1010F000304602F075F9083409F10109F0E7AB6BED
:1011000021464B440822304602F06AF9083409F1BE
:101110000109DFE7E31DC3F3CF03F97E0593002345
:1011200004960393BB7E0293193701230093019722
:1011300004A3D3E90023404601F08CFF7FB0BDE853
:10114000F08F00BF9E6AC421818A46EEA012002063
:10115000B84E0008014B1870704700BFAC12002059
:10116000F0B5334B1C7B85B034B1324B0E221A8163
:101170000024204605B0F0BD2F4A1068516802AB2C
:1011800003C308230DEB03022C492D4803F0CAFDCD
:10119000054630B9274B2B480A221A8101F012FB71
:1011A000E6E70169B1F5623F06D9224B26480B22DA
:1011B0001A8101F007FBDCE7438B40F203429342C4
:1011C00007D01C490C2008811946204801F0FAFA82
:1011D000CFE71F4A024402F11003994204D2154B93
:1011E0001C4810221A81E4E710398E1A204614494F
:1011F00001F078FC3246074605F11801204601F05F
:1012000071FCAB689F4202D1EB6898420AD0094B4F
:101210000D221A8100903B46EA68A9680E4801F049
:10122000D1FAA5E70D4801F0CDFA0124A1E700BFEE
:10123000E04B0020A01200201C4E0008DC870300B9
:1012400000780008244E0008304E0008424E000886
:101250000888FFF7604E00087D4E0008A64E000883
:101260002DE9F04FADB006AF80460C4601F09AFE76
:10127000064600285BD1237E022B19D1E38A012B7D
:1012800016D101F0EBFA0546FFF790FD4FF4C87355
:10129000B54AB0FBF3F105F5167501FB1300E37ECB
:1012A00015FA80F01060914633B9B04B00221A70E5
:1012B0009C37BD46BDE8F08FA38AF5B2013BAB4237
:1012C00006F101060CD93B1D691CC9001D4400959F
:1012D0000023082201F0F801204601F053FFEBE75C
:1012E00007F11400FFF77AFD2A4607F11401381DB3
:1012F00003F008FD03460028D7D10F2D08D89B4BDB
:101300001D70D9F80030A3F51673C9F80030CFE787
:1013100007F19802014602F8950D20460092072237
:1013200001F030FFF978404601F034FEC0E7E38A6F
:10133000052B00F0068106D8012BB9D12146404685
:10134000FFF740FEB4E7282B3DD0302BB0D1637EB1
:10135000874D01336A7BDBB29342E94640F0EF8070
:10136000E27E2B7B9A4240F0EA8007F19803002648
:1013700023F8846D1022009331460123204601F0AA
:1013800001FFB4F81480A8F102081FFA88F808F1E8
:10139000030323F003030A3323F00703ADEB030D2C
:1013A0000DF1180A33469BB2B11C98454FEAC101B2
:1013B00006F101066CDD5344009308220023204609
:1013C00001F0E0FEEEE7A38A013B9BB2C92B3FF69A
:1013D0006FAF674E357B4DBB06F10C0300930822BF
:1013E0002B462946204601F0CDFEA38A05F10109CE
:1013F000013BEDB29D424FEAC90109DA0E35354491
:10140000009500230822204601F0BCFE4D46ECE783
:1014100000230022C6E900230023B36086F8D730FA
:10142000C6F8D830337B0BB9E37E3373002507F160
:1014300014063B1D0822294630467D60BD60FD60D4
:1014400001F0CEFF3B7A05F10109AB424FEAC90139
:1014500007D9FB6808222B44304601F0C1FF4D46F6
:10146000F0E7C1F3CF010023E07E059104960393DA
:10147000A37E02931934282301460093019438A3D4
:10148000D3E90023404601F0E5FDFFF7B7FC0FE785
:1014900095F8D70000F0C0FAD5F8D83006461BB949
:1014A00095F8D70000F0C8FAD5F8D83043449E42EA
:1014B00004D295F8D700013000F0BEFA4FEA980B3D
:1014C0000024A0B2584504F1010408DA2B6880001A
:1014D0000AEB00010122184400F030FBF1E7D5E9E6
:1014E0000023D5F8D84095F8D70012EB080243F155
:1014F00000034444C5E90023C5F8D84000F08CFA45
:10150000844209D395F8D730013385F8D730D5F820
:10151000D8309E1BC5F8D860B8F1FF0F08DC002357
:101520002B7300F0A3FAFFF71BFE08B1FFF75AF97F
:101530002B68104A9B0A013313810023AB60CD4610
:10154000B6E6BFF34F8F0C490C4BCA6802F4E06259
:101550001343CB60BFF34F8F00BFFDE7AFF30080B5
:1015600026417272DF25D7B7B4220020B1220020B5
:10157000E04B0020A012002000ED00E00400FA057E
:1015800008B54FF000530B4A196891420AD10A4A34
:10159000597D117009481B7D0373C92208490E301B
:1015A00000F0B2FAE02200214FF00050BDE8084000
:1015B00000F0BCBA9AAD44C5AC120020E04B00204C
:1015C0001600002037B51B4D1B491C480223012281
:1015D0006B7100F04BFD1A481749036801221B6824
:1015E000984700230193174B00931749174B18484E
:1015F0004FF4805201F0A6FC164B197811B1144833
:1016000001F0C8FC01F02AF90446FFF7CFFB4FF4C4
:10161000C87304F51674B0FBF3F202FB13000E4B13
:1016200014FA80F0186003F0B3F808B10F232B818F
:1016300003B030BDA012002040420F00E022002085
:1016400060370020D10E0008B0120020611200089F
:10165000B8220020AC120020B42200202DE9F04F67
:1016600093B0DFF86C92974D484601F03DFD02467D
:1016700000283ED000240E948DF844400F9410941E
:10168000037B8DF8443001460FAB51F8040F4968D5
:1016900003C3136812AF43F0004347F8103D2646DA
:1016A000A0462B59D3F80CA001F0DAF8864ACDF801
:1016B0000080121805EB040B4FF000034B41584615
:1016C0003946D04704F5A4540028C8BF46F00106A7
:1016D000B4F5245FE5D17D4C2EB1484601F008FDFC
:1016E00084F80080C0E72378072B00F3DC80013307
:1016F00023700BAF00230A938DF834300B934FF017
:10170000010B7B600024264612AA4FF0000800203F
:1017100000212B5902F82B8DCDE9000105EB040ABD
:10172000D3F804908DF81CB0434607A95046C8472B
:101730009DF81C90B9F1000F24D04FF09042414623
:10174000536983F0020353610EA8102200F0EEF9F2
:101750002B5908AA1E690AA90DF11E035046B0476D
:1017600097E803000FAB83E803009DF834308DF851
:1017700044300A9B0E930EA9DDE90823544801F07A
:1017800077FE4E4604F5A454B4F5245FBCD1002E78
:10179000B8D14F4801F006FC00283FD14D4C01F074
:1017A0005DF82368984239D301F058F80546FFF7F1
:1017B000FDFA4FF4C87305F51675B0FBF3F202FBA2
:1017C000130015FA80F0444D8DF828602E782060C3
:1017D00016B901238DF82830C6F11004E4B20EA822
:1017E000FFF7FCFA062C28BF06240EAB22469919F7
:1017F0000DF1290000F088F90AAB03931823029336
:10180000364B0193013401230093049429A3D3E9B7
:1018100000232F4801F0C8FB00232B7001F01EF8B5
:101820002F4A304C1368C31AB3F57A7F30D3106057
:1018300001F016F802460B46254801F063FC2448E7
:1018400001F0B0FB20B3237B274E002B14BF0323F2
:101850000223737101F002F80EAD4FF47A7329463A
:10186000B0FBF3F030603046FFF776FB182307300B
:1018700002931E4B0193C0F3CF0040F25513049026
:10188000009303950DA3D3E90023114801F08CFBCD
:10189000237B0BB1FFF7B2FA237B002B7FF4E1AE81
:1018A00013B0BDE8F08F0A4801F022FC21E700BF29
:1018B000AFF30080401DA12026812A0BF1C6A7C1ED
:1018C000D068080FE022002040420F00C54C0020E5
:1018D000B8220020B4220020B1220020B022002033
:1018E000C04C0020E04B0020A0120020C44C00207F
:1018F00010B5074C204600F02BFB04F5A45000F077
:1019000027FB044A04490020BDE8104003F0DCB97D
:10191000E02200201C4D0020890E000870B50F4BFE
:101920000C4619780131C9B2012906460FD80C4876
:1019300003681D6A4FF47A73534331462246A84721
:10194000844204D1074B00221A70012070BD4FF46D
:10195000FA7002F029FC002070BD00BF08110020C1
:10196000A04D00200C4D002007B502AB002203F86B
:10197000012D012102461846FFF7D0FF20B19DF846
:10198000070003B05DF804FB4FF0FF30F9E70000FB
:101990000A4608B50421FFF7C1FF80F00100C0B27C
:1019A000404208BD30B4054C2368DD69044B0A464B
:1019B000AC460146204630BC604700BFA04D002029
:1019C000A086010070B502F04DFD094C094E208043
:1019D000002530682388834208D902F03FFD336830
:1019E00005440133B5F5F04F3360F2D370BD00BF4D
:1019F0000E4D0020C84C002002F0E2BD00F1006056
:101A000000F5F0400068704700F10060920000F5BA
:101A1000F04002F063BD0000054B1A68054B1B88BF
:101A20009B1A834202D9104402F018BD002070476F
:101A3000C84C00200E4D002038B5074D04462868DC
:101A4000204402F011FD28B928682044BDE8384040
:101A500002F01CBD38BD00BFC84C002000207047FC
:101A6000014BC058704700BF9075FF1F064991F8A1
:101A7000243033B100230822086A81F82430FFF7AC
:101A8000C3BF0120704700BFCC4C0020014B186839
:101A9000704700BF002004E070B50E4B5C6893F9FE
:101AA000086001380A18013C0B4693420FD214F922
:101AB000015F581C1DB1034600F8015CF5E72C24BA
:101AC00082421C7001D9981C5E70401A70BD184685
:101AD000FBE700BF104D0020022804BF4FF09043E9
:101AE00098617047022802BF4FF090434FF40032D4
:101AF0009A617047022801BF4FF09042536983F00A
:101B0000020353617047000010B50023934203D0D5
:101B1000CC5CC4540133F9E710BD00000246034613
:101B2000981A13F9011B0029FAD1704702440346A1
:101B3000934202D003F8011BFAE770472DE9F04702
:101B4000234C94F8243005468846174683BB2E461E
:101B5000DFF87C90C7B394F824302BB92022FF2102
:101B600048462662FFF7E2FF94F82400C0F108051A
:101B7000BD4228BF3D465FFA85FAAD0041462A4680
:101B800004EB8000FFF7C0FF94F82430A7EB0A07AE
:101B90009A445FFA8AFABAF1080F2E44A844FFB2B9
:101BA00084F824A0D6D1FFF761FF0028D2D108E045
:101BB000266A06EB8306B042CAD0FFF757FF00281B
:101BC000C5D10020BDE8F0870120BDE8F08700BF47
:101BD000CC4C0020024B1A78024B1A70704700BFA1
:101BE0000C4D002008110020034904484FF46143C4
:101BF0000B6002F071B900BFF44C0020A04D002032
:101C0000074B10B50021044618221846FFF78EFF37
:101C100004600146BDE81040024802F05DB900BF13
:101C2000F44C0020A04D0020202383F3118862B6DD
:101C300070470000002383F3118862B670470000EC
:101C400001207047704700007047000041F2514387
:101C5000C05C704741F24A43C05C7047F8B5164615
:101C600041F254421F468358BDF818500133835047
:101C70000B6813F0005406D10B7B082B03DC41F2F8
:101C80004A43C35C83B941F25842835801338350BD
:101C90004FF0FF30F8BD41F2584283580133835072
:101CA0002046FFF7C7FFF8BDFFF7BEFF436AD3F832
:101CB000C4209202EFD4D3F8C440C369C4F30144F2
:101CC000482212FB04330A68002AB4BF42F0804263
:101CD00092041A600A68520042BF1A6842F0005229
:101CE0001A6091F80CE0220642EA0E425A604A68F5
:101CF0009A608A68DA60426A0123A340C2F8CC3055
:101D000000EB441303F58253C3E9026700EB44136D
:101D100003F58253103301F10C0251F8046B43F8C0
:101D2000046B9142F9D10A781A7004F183025201CE
:101D300081180B79845065F30003C5F3400565F302
:101D4000410303F0FB0343F010036FF3C3030B7174
:101D50000120A6E75020704708B5FFF765FF41F264
:101D6000744341F27042C3588258134441F26C42AA
:101D70008258134441F258428258134441F264425B
:101D8000825800F5A350134400681844FFF752FF2F
:101D900008BD000038B5426A936923F001039361DE
:101DA000044600F05BFD0546636A9B69DB0706D5C8
:101DB00000F054FD401BFA28F6D9002038BD41F24E
:101DC0004A430120E05438BD08B5FFF72DFF41F22A
:101DD0003C03C05800F050FDBDE80840FFF72ABFA3
:101DE00038B5044600680D4600F070FD1F2809D97B
:101DF00020222946206800F0E1FDA0F1200358428E
:101E0000584138BD002038BD002202600273426094
:101E10008260704710B500220023C0E90023002330
:101E2000044603810C30FFF7EFFF204610BD000091
:101E30002DE9F041054688B041F23C060C4690463B
:101E40001F46FFF7F1FE6846FFF7E4FFA85900F0D0
:101E500025FD1F2805D80020FFF7ECFE08B0BDE8DF
:101E6000F08120226946A85900F030FE2028F2D1E6
:101E700041F24A43EB5C002BEDD003AA234605ADAB
:101E8000144603CCAC4218605960224603F10803A3
:101E9000F6D12068186022791A71DDE90023C8E9BB
:101EA0000023BDF808303B800120D5E72DE9F0473D
:101EB0000646244B46F8283B00F5815704468946E0
:101EC0003546083728462035FFF7A4FFBD42F9D133
:101ED00041F2280341F23002E6504FF480536B6028
:101EE0000023A35041F2340241F23C01A350601898
:101EF00001222A7404F5A25A655004F58255027134
:101F000010350AF1100A00260027984645E90267B5
:101F10002846FFF779FF203545F8108C5545F5D157
:101F200041F25043B9F1010F04F8039002DD064875
:101F300000F08EFC054B53F8293063622046BDE863
:101F4000F08700BFFC4E0008E04E0008D84E0008A5
:101F500010B5044B197804464A1C1A70FFF7A6FF07
:101F6000204610BD194D0020F0B579B1264B274809
:101F7000B0FBF1F0994294BF102309235C1CB0FB25
:101F8000F4F704FB170434B1022B01DC0020F0BD90
:101F9000013BDBB2F2E77E1EB6F5806FF6D2C3EBF3
:101FA000C30E0EF10300C010C5B25C1B0130E4B2D9
:101FB0004FF47A7C0CFB00FC20449CFBF0F080B2D8
:101FC000B0F5617F08D90EF1FF354FF0080E95FB93
:101FD000FEF5EDB25B1BDCB22B1903FB07770B4B55
:101FE000B3FBF7F7B942D1D1691EC9B20F29CDD8D9
:101FF000631EDBB2072BC9D8002090701680D17009
:1020000013710120F0BD00BF3F420F00001BB7005D
:1020100070B541F25043104AC35CD55C4FF4547222
:10202000554305F1804606F5244604460021304616
:10203000FFF77CFD094BE6602B442361084B2B44E2
:102040006361084B2B44A361074B2B44E361636A34
:102050000022C3F8C02070BDD04E000870A400401C
:10206000B0A4004088A5004078A600402DE9F041CA
:1020700041F2504388B0C35C022B04460F4615461C
:1020800046DC884A52F8231009B942F823008649F1
:1020900067600B78257293B9FFF7C6FD834B9A6D85
:1020A00042F000729A659A6B42F000729A639A6BE2
:1020B00022F000729A6301230B70FFF7BBFD41F21F
:1020C0004943E35C7BB9FFF7AFFD41F25043784AE7
:1020D000E35CD35CF3B1012B25D041F249430122EB
:1020E000E254FFF7A7FDFFF79FFD626A936923F0B3
:1020F0001003936100F0B2FB0646636A9A69100709
:1021000018D500F0ABFB801BFA28F6D9FFF792FD3B
:102110000027C3E00221152001F02AFD022116202C
:1021200001F026FDD9E70221562001F021FD022110
:102130005720F5E79A6942F001029A6100F08EFBA0
:102140000646636A9A69D10705D400F087FB801BB5
:10215000FA28F6D9DAE79A6942F002029A61636ACC
:1021600000265E65FFF766FD41F23C03B046E0588D
:1021700000F082FB202200216846FFF7D7FC02A86E
:10218000FFF742FE0DF1200C06F5825308334CF8A0
:10219000088D6A4623449646BEE80300E64518606B
:1021A0005960724603F10803F5D1DEF800001860AB
:1021B00020369EF804201A71B6F5806FDAD141F20C
:1021C00048430026E65441F24B433946E6546A46FA
:1021D0002046ADF800608DF802608DF803608DF840
:1021E0000460FFF7C1FED4F824E0074690B9DEF89A
:1021F000183023F00103CEF8183000F02FFB05460D
:10220000636A9B69DA0783D500F028FB401BFA2834
:10221000F6D97DE79DF803309DF802209DF8040073
:10222000BDF800101B0243EA4262090402430A435C
:10223000CEF81C20626A0B4343EA0013D3602046A9
:10224000FFF7E6FE41F251436FF04042E654636A05
:102250001A65636A174A5A65636A44229A65636A13
:102260000722C3F8DC20636A03229542DA6515D0A1
:10227000626A936923F00103936100F0EFFA054667
:10228000636A9B69DB0705D500F0E8FA401BFA2872
:10229000F6D93DE741F24A430122E254384608B0FC
:1022A000BDE8F081104D0020184D002000100240C4
:1022B000D04E00089B0008002DE9F04300F5A2591C
:1022C00089B0044616461F46002509F11C0941F253
:1022D0004C48202D4AD0636AD3F8D430EB40D9075C
:1022E00042D505F1830304EB43131A7912073BD45B
:1022F000D9F800200132C9F800201A7942F008020A
:102300001A71D30728D541F24B43E35C23B36846E7
:10231000FFF780FD04EB451303F5825303F1180C1E
:1023200003AA1033186859689646AEE803000833CC
:1023300063457246F6D11868CEF800001B798EF816
:10234000043004F58150012369461C30CDE9006753
:10235000ADF80830FFF744FD54F8083023B141F2DE
:102360007842A3580133A3500135B2E709B0BDE864
:10237000F08300002DE9F0478CB004468A4600F057
:102380006FFA06460F46BAF1000F3DD1636AD3F8E3
:102390009020920141BF41F2704162580132625077
:1023A000D3F89020150703D100200CB0BDE8F087CA
:1023B000D3F89030C3F301286369482505FB08353D
:1023C0006846FFF721FD2B685A004ABF23F06042A0
:1023D000C3F38A4242F0004200929B0042BF009B3E
:1023E00043F080430093EB8803F00F038DF80C302B
:1023F000E946EB1D0DF103020F35AB421BD013F87C
:10240000011F02F8011FF8E7BAF1010FCCD1636A8E
:10241000D3F89820900141BF41F2704162580132D7
:102420006250D3F898201107BED0D3F89830C3F388
:102430000128A369C1E7BAF1000F1CD1636AC3F890
:10244000948004A8FFF7E6FC99E80F0007AD07C5E4
:1024500004F581502B7004A900231C30CDE90467DA
:10246000ADF81830FFF7BCFC60B141F26842A358E8
:102470000133A35099E7BAF1010F04BF636AC3F8AF
:102480009C80DEE741F26C420120A3580133A35047
:102490008BE70000F8B500F5A25504460F460B3552
:1024A000012639462046FFF765FF08B12E70F8E790
:1024B00041F24C43E35823B141F27842A35801332F
:1024C000A350F8BDF0B5436A1B6CC3F3074323B3B5
:1024D00000F5A35100230125043103F1830200EB31
:1024E00042121479A60715D5640713D45C0104F5CC
:1024F0008354466A0459D6F8C87005FA04F43C427D
:1025000008D0C6F8D040147944F0040414710A6865
:1025100001320A600133202BDFD1F0BD2F4B70B5A3
:102520001C56E3B2012B57D82D4D55F823202D4BC7
:10253000EAB953F8243001221A6508221A654FF4CB
:1025400080621A6570BD53F82460336DDA0733D4A6
:10255000336D9B0730D4336D180735D4336DD906EE
:1025600032D455F82400BDE87040FFF7ABBF002916
:10257000E9D053F82460336D1A0610D580233365F3
:1025800000F06EF902460B4652EA030103D012F145
:10259000FF3243F1FF3355F82400FFF78DFE336D12
:1025A0001B03DED54FF40023336555F8242041F298
:1025B00051430121D154D4E703233365002155F859
:1025C0002400FFF767FFC6E718233365012155F89C
:1025D0002400FFF75FFFC4E770BD00BFD44E0008C2
:1025E000104D0020D84E000808B5FFF71DFBFFF77F
:1025F00069FFBDE80840FFF71DBB0000436AD3F840
:10260000C40080F40010C0F34050704708B5FFF7D5
:102610000BFB41F23C03C05800F040F9FFF70AFB06
:102620001F288CBF0020012008BD000041F251424C
:10263000835C5BB1416A8B6923F001038B6141F2DA
:1026400074414358013343500023835470470000C2
:102650002DE9F84F90469946FFF7E6FA00F58253C8
:10266000083300224FF0010E00F5A35702F1830159
:1026700000EB41110C7965070FD4E4060DD5456ACE
:102680009E69D5F8C8400EFA06F6264205D0D3E971
:1026900000ABCB4508BFC24508D30132202A03F165
:1026A0002003E3D1BDE8F84FFFF7C4BAC5F8D06006
:1026B0000C7944F004040C71396801313960ECE79D
:1026C000F8B51E46002313700F4605461446FFF763
:1026D0009DFF80F0010038701EB12846FFF78EFF85
:1026E0002070F8BD2DE9F74F0D469B460B780193FE
:1026F0000446164692F800A000F0B2F82B78804607
:10270000894613B93378002B46D042464B462046C3
:10271000FFF79EFF2046FFF767FF2046FFF786FF83
:102720005B46324629462046FFF7CAFF2B782BB17D
:10273000019B1BB1012003B0BDE8F08F337813B1CA
:10274000BAF1000FF6D104F5A2570C37DDE90C23DE
:10275000994508BF90451FD23868E8B10368D96829
:10276000DDE90C23B2EB080263EB090388475B4603
:10277000324629462046FFF7A3FF2B7813B1019B71
:10278000002BD7D1337813B1BAF1000FD2D100F0BA
:1027900067F880468946D9E70020CCE708B50021D4
:1027A0000120FFF7BBFEBDE8084001F09DB8000026
:1027B00008B501210846FFF7B1FEBDE8084001F069
:1027C00093B800000FB4002004B07047FEE700008B
:1027D00000B59BB0EFF3098168226846FFF794F9D2
:1027E000EFF30583044B9A6BDA6A9A6A9A6A9A6ADB
:1027F0009A6A9A6A9B6AFEE700ED00E000B59BB01A
:10280000EFF3098168226846FFF77EF9EFF305834D
:10281000044B9A6B9A6A9A6A9A6A9A6A9A6A9B6A4B
:10282000FEE700BF00ED00E000B59BB0EFF30981CB
:1028300068226846FFF768F9EFF30583034B5A6B8C
:102840009A6A9A6A9A6A9A6A9B6AFEE700ED00E0C1
:102850000FB408B5029801F03FFCFEE701F0FEBEA0
:1028600001F0E8BE10B5037C044613B9006802F01D
:1028700041FA204610BD00000023BFF35B8FC36008
:10288000BFF35B8FBFF35B8F8360BFF35B8F7047DA
:10289000BFF35B8F0068BFF35B8F704770B5064670
:1028A0000C30FFF7F5FF06F1080504462846FFF750
:1028B000EFFF844206D228467668FFF7E9FF3444EA
:1028C000201A70BD2846FFF7E3FFF9E770B505460B
:1028D000406898B105F10800FFF7DAFF05F10C0632
:1028E00004463046FFF7D4FF8442304694BF6D68FB
:1028F0000025FFF7CDFF013C2C44201A70BD0000DD
:1029000038B50C460546FFF7C9FFA04210D305F1C4
:102910000800FFF7BDFF6B68BFF35B8F2044B0FB7F
:10292000F3F403FB1400A860BFF35B8F012038BDF4
:10293000002038BD2DE9F041144680460D46FFF7D2
:10294000C5FF844228BF0446DCB1474657F80C6BEC
:102950003846FFF79DFF304428603846D8F80460B9
:10296000FFF796FF301AA0423BBF6860D8F80030EE
:102970006C60241A3BBFAB60EC6001200220BDE814
:10298000F0812046BDE8F08138B50C460546FFF7DA
:102990009DFFA04210D305F10C00FFF779FF6B6893
:1029A000BFF35B8F2044B0FBF3F403FB1400E8603B
:1029B000BFF35B8F012038BD002038BD2DE9F04307
:1029C00085B0884669460746FFF7B4FF0026814672
:1029D00001AD34464E4505F108050CDA08EB04015B
:1029E00055F8082C55F80C0CFFF78EF855F8083CF4
:1029F00001361C44EEE721463846FFF7C5FF204666
:102A000005B0BDE8F0830000F8B506460C300F466F
:102A1000FFF73EFF06F1080504462846FFF738FF9A
:102A20008442284638BF7468FFF732FF201A3860A6
:102A300020B128463468FFF72BFF2044F8BD000082
:102A400073B5144606460D46FFF728FF844228BF9B
:102A500004460190DCB101A93046FFF7D5FF019B88
:102A600033B93268AB6085E81400EB6001200CE0FC
:102A7000A34288BF0194286001986860A042F5D203
:102A80003368AB60241AEC60022002B070BD2046AF
:102A9000FBE700002DE9FF410F466946FFF7D0FF35
:102AA00000248046254644450BDA0DEBC4035DF84F
:102AB00034105E6878193246FFF726F83544013441
:102AC000F1E7284604B0BDE8F081000038B50546BE
:102AD000FFF7E0FF044601462846FFF711FF2046B6
:102AE00038BD000030B5084D0A4491420BD011F8B2
:102AF000013B09245840013CF7D040F300032B4030
:102B000083EA5000F7E730BD2083B8ED2DE9F047A8
:102B1000089E01F007054FEAD60C2A4406F0070686
:102B200000EBD1004FF47F49954201D1BDE8F08719
:102B300005F0070E06F0070AD64577464FEAD5049A
:102B400038BF5746C7F10807511B0CEBD6088F4218
:102B5000045D28BF0F4604FA0EF413F8081029FA92
:102B600007FE24FA0AF45FFA8EFE4C404EFA0AFE83
:102B700004EA0E04614003F808103D443E44D3E7E4
:102B80000246006848B103681360D3881189013395
:102B90009BB29942D38038BF1381704770B588B01B
:102BA0000D460446202200216846FEF7BFFF20465E
:102BB0000495FFF7E5FF054658B16B46044608AE9D
:102BC0001A4603CAB24220606160134604F1080449
:102BD000F6D1284608B070BD2DE9F041056885B9E9
:102BE0000160BDE8F081002B29DA930CB34229D1B2
:102BF000A54201D10D60F3E7C8F800100C60BDE8F4
:102C0000F0814B6823F06047BE0C4FEAD37EC3F3DC
:102C1000807C16EA230638BF3E46A8462C466368E9
:102C2000BEEBD37F23F06042DDD1974203D1C3F3E3
:102C300080739C450AD1974205E01C46EFE7B242FB
:102C400006D013469E422CBF00230123002BCFD178
:102C50002368A046002BF0D12160BDE8F081000080
:102C60002DE9F04106460F4600254FF6FF7441F26C
:102C700021082A4630463946FDF7B6FAC0B284EA42
:102C80000024082314F4004F4FEA4404A4B203F1D3
:102C9000FF3318BF84EA080413F0FF03F2D10835AC
:102CA000402DE6D12046BDE8F081000010B54B680C
:102CB00033B9CA8A63F30902CA820020002110BD19
:102CC000C4681A681C60C360438A013B43824A603F
:102CD000EDE7000010B50A4441F22104914200D111
:102CE00010BD11F8013B80EA0320082310F4004FC7
:102CF0004FEA400080B203F1FF3318BF604013F089
:102D0000FF03F3D1EAE700002DE9F04F85B08146DB
:102D10008DE80A00BDF83C409346002A00F083800D
:102D200024B10E9B002B7ED0072C2AD809F10C0071
:102D3000FFF726FF054628B96FF00205284605B0C3
:102D4000BDE8F08F14220021FEF7F0FE22460E9916
:102D500005F10800FEF7D8FE631C2B749BF80030C9
:102D60002C4403F01F0363F03F032372009B43F0E6
:102D700000436B60294609F11C00FFF72DFF012578
:102D8000DCE7019B1B0A4FF00008029300F10C03E3
:102D90004FF0800A4646454603930398FFF7F0FE3E
:102DA00007460028C8D014220021FEF7BFFEC6BB8C
:102DB0009DF804303B729DF808307B7202220E9B16
:102DC000711E1944B4420AD9B8180132D2B211F8AE
:102DD00001EF80F808E00136072AB6B2F2D19BF87D
:102DE000001001F01F01B44208BF4FF0400AB818AC
:102DF00041EA48114AEA01030372009B013243F0A1
:102E000000437B603A74394609F11C00FFF7E4FE89
:102E10000135B4422DB288F001084FF0000ABCD150
:102E20008CE70022CBE76FF0010587E72DE9F0473B
:102E30001E46CB8A9146C3F30902062A80460F46F6
:102E400019D013460021B0B28DB25A1992B2052A98
:102E500009D9A84210D8FA8A034463F30902FA8216
:102E60000120BDE8F087A842F3D93A4419F801409F
:102E700094760131E8E70025FB8A7C68C3F30900FA
:102E8000821F1C23B2FBF3FA03FB1A2A1FFA8AF2F1
:102E90007CB301212368002B39D1B31F03441C20CC
:102EA000B3FBF0F301339BB299420CD2BAF1000F9D
:102EB00009D14046FFF764FE08B1C0F800A02060C9
:102EC00008B304460022B6B24FF0000AB54230D231
:102ED000691E49441346E01801339BB211F801EF13
:102EE00080F804E001351C2BADB214D0AE42F2D80C
:102EF000ECE74046FFF744FE044608B100230360B8
:102F00007C60002CDED16FF00200BDE8F08701315B
:102F100089B21C46BEE7AE42D8D94046FFF730FE24
:102F200008B1C0F800A020600028ECD004460022C0
:102F3000CCE7FB8AC3F30902164466F30903FB825C
:102F40008EE70000F8B5044615460E4624220021FF
:102F50001F46FEF7EBFD069B6360079B23626A0931
:102F60004FF6FF739A424FF0000028BF1A46A76041
:102F7000207097B204F10C0503469A4205D1002354
:102F80002B6027826382A382F8BD2E600133354611
:102F90002036F2E703781BB94BB2002BC8BF017093
:102FA00070470000007870472DE9F7430D9EBDF88B
:102FB00028900B9D9DF83040BDF838800746194693
:102FC000104616B9B8F1000F40D11F2C3ED83B78FF
:102FD000D3B9B8F1070F36D839F0030336D14246DA
:102FE00031464FF6FF70FFF775FE4FEA092920F0D2
:102FF000010009F44079400449EA0464400C44EAC1
:1030000040244FF6FF730DE043EA0923B8F1070FA0
:1030100043EA0464F5D9FFF723FE42463146FFF741
:1030200059FE03468DE840012A4621463846FFF7FF
:103030006BFE2B780133DBB21F2B88BF00232B7074
:1030400003B0BDE8F0836FF00300F9E76FF0010013
:10305000F6E700002DE9F7430E9F0B9D9DF83480A5
:10306000BDF83C6081469DF8300007B9AEBB1F2813
:1030700033D899F800E0BEF1000F31D00C0244F0D3
:1030800080049DF8281044EAC83444EA014444EA24
:103090000E04072E44EA00641CD919461046FFF7B7
:1030A000DFFD32463946FFF715FE034601960097CD
:1030B0002A4621464846FFF727FEB8F1010F06D100
:1030C0002B780133DBB21F2B88BF00232B7003B09A
:1030D000BDE8F0834FF6FF73E8E76FF00100F6E715
:1030E0006FF00300F3E70000C06900B104307047DF
:1030F000C3691A68C261C2681A60C360438A013B2F
:10310000438270472DE9F047D0F818A0DFF87080AF
:10311000054616461F4654464FF000090CB9BDE857
:10312000F087D4E90223B21A67EB0303994508BF7D
:10313000904523D2AB699C42214628460FD1FFF728
:10314000B5FDAB691B68AB61EB6823606B8AEC6013
:10315000AC69013B6B822346A2461C46DEE7FFF7C3
:10316000A5FD2368CAF80030EB6823606B8AEC6029
:10317000013B6B82DAF800305446EDE72368EBE759
:1031800080841E002DE9F04F8BB00E461446079345
:10319000DDF850808346002800F01081B8F1000F60
:1031A00000F00C81531E3F2B00F20881012A03D14D
:1031B000079B002B40F00281BBF81450ED00002368
:1031C000AE420893099304D3002630460BB0BDE805
:1031D000F08F33199D42DBF80C303ABFAD1BEDB2D6
:1031E000254623B9DBF81030002B00F093802F2EFA
:1031F00065D8C6F13007BD424FF000032CBFFFB2C7
:103200002F460093314608AB3A46DBF80800FFF73B
:103210007DFCA5EB07093E445FFA89F9BBF8143041
:1032200003F10053063BDB000493DBF80C300393FF
:103230003021039B13B1B9F1000F43D1DBF810002B
:1032400040B1B9F1000F05D0009708AB4A46711A9A
:10325000FFF75CFC2EB2002DB6D060070AD00AAB97
:1032600003EBD401624211F8083C02F0070213415B
:1032700001F8083C082C54D9102C54D9202C8CBFB0
:1032800008230423079A002A00F09E80B4EBC30FA2
:1032900000F09D80082C48D89DF82030621E23FA4B
:1032A00002F2D10706D54FF0FF3202FA04F42343AD
:1032B0008DF820309DF8203088F8003085E7A94649
:1032C0000027ABE7049BE02B28BFE02306930B44C9
:1032D000B342059315D9A3EB060AD145039800978D
:1032E0002CBF5FFA8AFACA46711A08AB52460430FC
:1032F000FFF70CFC5744A9EB0A095644FFB25FFAEA
:1033000089F9049B069A05999B1A0493039B1B68F1
:1033100003938EE700932A4608AB3146DBF808009A
:1033200096E70123AEE70223ACE7102C12D8BDF8D4
:103330002030621E23FA02F2D20706D54FF0FF3288
:1033400002FA04F42343ADF82030BDF82030A8F889
:1033500000303AE7202C0FD8089A631E22FA03F3B4
:10336000DB0705D54FF0FF3303FA04F41443089448
:10337000089BC8F8003028E7402C22D0DDE908ABD4
:10338000621E50465946FCF72FFF002100F0010055
:1033900050EA01030DD0224601200021FCF730FF46
:1033A000404261EB410140EA0A0041EA0B01CDE9EC
:1033B0000801DDE90823C8E9002306E76FF00106EC
:1033C00003E76FF0080600E7012C3FF473AF082C09
:1033D0007FF670AF102CB8D9202CEAD8C8E70000CF
:1033E00030B5402A85B01FD8002A08BF012200242A
:1033F000012A0294039419D11B788DF808305307E1
:103400000AD004AB03EBD205544215F8083C04F093
:103410000704A34005F8083C00910346002102A8D8
:10342000FFF774FB05B030BD4022E0E7082AE3D97E
:10343000102A03D81B88ADF80830E0E7202A02D80C
:103440001B680293DBE7D3E90045CDE90245D6E7E7
:1034500010B5CB681BB98B600B618B8210BDC46843
:103460001A681C60C360438A013B4382CA60F0E76C
:103470002DE9F04FD1F800908FB0C9F3C016044683
:103480000D46CDE90223002E50D0C9F3C03AC9F34E
:103490000626B9F1000F80F2CB8119F0C04F40F041
:1034A000C7812B7B002B00F0C381BAF1020F03D040
:1034B0002278B24240F0BF8109F07F02BAF1020FD8
:1034C000059236D119F07F0FC9F30F2B01D10BF004
:1034D000030B2B447606059A93F8038046EA0A46C6
:1034E00046EA82465FEAD81346EA0B06049300F0E8
:1034F000A180002200230EA961E90823059B009307
:10350000676853465A462046B847002800F08F8027
:10351000A7698FB9314604F10C00FFF73FFB07465E
:10352000D0B96FF002000FB0BDE8F08F4FF0020A83
:10353000AFE7C9F3074BCCE73B699E420DD03F682C
:10354000002FF9D1314604F10C00FFF727FB0746A5
:103550000028E6D0A3693B60A761DDE90601FFF71B
:103560007FFBB882F97D08F01F06C1F38401711A50
:1035700089B20FFA81FED7E90223BEF1000FBCBF6A
:1035800001F1200E0FFA8EFE52EA0301C9F304691D
:1035900000F05D81DDE90201801A61EB0301024662
:1035A0000B46B6480021994208BF9042C0F04F81B7
:1035B000049B002B48D0BEF1010F00F3488118F0A6
:1035C000400F41D0DDE902230021C7E9022306A80C
:1035D0002022FEF7ABFADDE90223CDE906232B1DFD
:1035E00008932B7BADF82EB0013BDBB2ADF82C304D
:1035F0009DF814308DF833308DF830A0A3688DF825
:1036000031608DF8329006A920469847FB7DC3F3C0
:103610008402013262F38603FB75FB8A6FF30903B0
:10362000FB821B0A6FF3C713FB7500207BE76FF06B
:103630000B0078E7A76917B96FF00C0073E73B69D7
:103640009E428FD03F68F6E7FB7DC8F34012B2EB95
:10365000D31F40F0F380C3F38403B34240F0F18002
:1036600004992B7B4FEA981200293BD012F00108F5
:103670005CD1032B40F2E880DDE90223C7E9022395
:103680002B7BAE1D033BDBB23246394604F10C0006
:10369000FFF7CCFB002814DA39462046FFF706FB7B
:1036A000FB7DC3F38402013262F38603FB75FB8A60
:1036B00068F30903FB821B0A68F3C713FB75032039
:1036C00031E7AB883B832A7B033AD2B2B88A3146D2
:1036D000FFF700FBFB7DB882DA43C2F3C01262F34E
:1036E000C713A1E712BB2E1D013BDBB232463946A0
:1036F00004F10C00FFF79AFB002814DA3946204643
:10370000FFF7D4FAFB7DC3F38402013262F3860330
:10371000FB75049AFB8A62F30903FB82049A1B0A75
:1037200062F3C713CAE72A7B013ACEE7F98AC1F3ED
:103730000901013B0529DAB25AD8281D00239A4213
:103740000AD907EB010E013110F801CB8EF81AC02F
:1037500001330629DBB2F2D1DDE902019342CDE962
:10376000060107F11A01089138BF043379680991FD
:1037700034BF5B1900230A93FB8AADF82EB0C3F364
:1037800009031A449DF814308DF833300023ADF846
:103790002C208DF830A08DF831608DF832907B6050
:1037A0002A7BB88A013A291DFFF794FA3B8BB8822D
:1037B000834203D1A36806A920469847204606A95C
:1037C000FFF746FEFB7DB88AC3F38402013262F341
:1037D0008603FB75FB8A6FF30903FB821B0A6FF3F9
:1037E000C713FB753B8B984214BF112000209AE64B
:1037F000D7F804E0BEF1000F18D00623DEF8000071
:1038000088B9C91A05F1040800EB010CBCF11B0FC3
:10381000C3B2A1D893429FD2F44418F8013B8CF86C
:1038200004300130F0E71C338646E7E7734693E740
:103830006FF0090077E66FF00A0074E66FF00D0094
:1038400071E66FF00E006EE66FF00F006BE6FB7D29
:1038500068F386036FF3C713FB7539462046FFF7FD
:1038600025FA049B002B7FF4AAAEFB7DC3F38402F0
:10387000013262F38603FB75DEE600BF80841E0022
:10388000EFF3098305494A6822F001024A60683370
:1038900083F30988002383F31188704730EF00E039
:1038A000202080F3118862B60B4B0C4AD96821F4B2
:1038B000E0610904090C0A430949DA60CA6842F068
:1038C0008072CA6007490A6842F001020A60102249
:1038D000DA7783F82200704700ED00E00003FA0574
:1038E000F0ED00E0001000E010B5202383F3118814
:1038F0000E4B5B6813F4006314D0F1EE103AEFF353
:103900000984683C4FF08073E361094BDB682366F0
:1039100084F3098800F094FB10B1064BA36110BD3D
:10392000054BFBE783F3118810BD00BF00ED00E0FD
:1039300030EF00E07B0600087E0600080023044903
:103940001A465A50C8180833802B4260F9D1704784
:10395000204D0020026843681143016003B11847FD
:1039600070470000024A136843F0C00313607047B9
:103970000038014013B50D4C204600F0A1FA04F1C7
:103980001400009400232022094900F063F90094F8
:10399000084B0949202204F1380000F0DDF9074BFB
:1039A000E365074B236602B010BD00BFA04D0020A9
:1039B0000C4E0020653900082C4E002000380140D4
:1039C000007A030A244B002908BF1946037C012B07
:1039D00030B50FD1214B98420CD1214B1A6E42F4D5
:1039E00080421A66D3F8802042F48042C3F88020D7
:1039F000D3F880300A68036EC46D816603EB52030E
:103A0000B3FBF2F34A68150442BF23F0070503F045
:103A1000070343EA4503E3608B6843F040036360B8
:103A2000CB6843F00103A36042F4967343F00103B3
:103A3000236051054FF0FF33236205D512F01022A9
:103A400005D0B2F1805F04D080F8643030BD7F23B0
:103A5000FAE73F23F8E700BF304F0008A04D0020F1
:103A6000001002402DE9F047C66D3768F4693462F2
:103A70000546200719D014F0080F0CBF0021802143
:103A8000E20748BF41F02001A30748BF41F04001D1
:103A9000600748BF41F48071202383F31188281DFB
:103AA000FFF758FF002383F31188E2050AD520238E
:103AB00083F311884FF40071281DFFF74BFF00239B
:103AC00083F311884FF020094FF0000A14F020080A
:103AD00031D13B0616D54FF0200905F1380A2006F2
:103AE00010D589F31188504600F06AF900282FDAC2
:103AF0000821281DFFF72EFF27F0800333600023E5
:103B000083F3118879060DD562060BD5202383F344
:103B10001188EA6C2B6D9A4201D12B6CEBB9002312
:103B200083F31188E30620D5AA6E1369EBB15069BF
:103B3000BDE8F047184789F31188736A95F8641057
:103B40002846194000F0D6F98AF31188F469BDE7D8
:103B5000B06288F31188F469C1E71021281D27F0AD
:103B60004007FFF7F7FE3760D9E7BDE8F0870000B0
:103B700000F1604300F01F02400903F561430901B1
:103B80008000C9B200F1604083F8001300F5614085
:103B900001239340C0F8803103607047F8B51546A3
:103BA00082680669AA420B46816938BF8568761A21
:103BB000B542044607D218462A46FDF7A5FFA36979
:103BC0002B44A3610DE011D932461846FDF79CFF46
:103BD000AF1B3A46E1683044FDF796FFE2683A448D
:103BE000A261A3685B1BA3602846F8BD18462A465D
:103BF000FDF78AFFE368E4E783682DE9F0410446B6
:103C000093421546266938BF85684069361AB54221
:103C10000F4606D22A46FDF777FF63692B4463619E
:103C20000DE012D93246A5EB0608FDF76DFF4246BE
:103C3000B919E068FDF768FFE26842446261A36871
:103C40005B1BA3602846BDE8F0812A46FDF75CFFB8
:103C5000E368E4E710B50A440024C361029B0060F6
:103C600040608460C160816141610261036210BD96
:103C700008B582694369934201D1826882B982683A
:103C8000013282605A1C42611970426903699A428A
:103C900001D3C3684361002100F0A2FA002008BDEF
:103CA0004FF0FF3008BD000070B5202304460E46DB
:103CB00083F31188A568A5B1A368A269013BA3603D
:103CC000531CA36115782269934224BFE368A36162
:103CD000E3690BB120469847002383F311882846F7
:103CE00070BD3146204600F06BFA0028E2DA85F319
:103CF000118870BD2DE9F74F05460F4690469A464C
:103D0000D0F81C90202686F311884FF0000B144643
:103D100064B1224639462846FFF740FF034668B99A
:103D20005146284600F04CFA0028F1D0002383F3D6
:103D30001188A8EB040003B0BDE8F08FB9F1000FC3
:103D400003D001902846C847019B8BF31188E41AE1
:103D50001F4486F31188DBE7C16081614161C36163
:103D60001144009B00604060826001610362704703
:103D7000F8B504460E461746202383F31188A5683C
:103D8000A5B1A368013BA36063695A1C62611E7000
:103D9000236962699A4224BFE3686361E3690BB1F6
:103DA00020469847002080F31188F8BD3946204608
:103DB00000F006FA0028E2DA85F31188F8BD000069
:103DC000836942699A4210B501D182687AB98268E2
:103DD000013282605A1C82611C7803699A4201D3C5
:103DE000C3688361002100F0FBF9204610BD4FF04D
:103DF000FF3010BD2DE9F74F05460F4690469A4615
:103E0000D0F81C90202686F311884FF0000B144642
:103E100064B1224639462846FFF7EEFE034668B9EC
:103E20005146284600F0CCF90028F1D0002383F356
:103E30001188A8EB040003B0BDE8F08FB9F1000FC2
:103E400003D001902846C847019B8BF31188E41AE0
:103E50001F4486F31188DBE7026843681143016061
:103E600003B11847704700001430FFF743BF00004C
:103E70004FF0FF331430FFF73DBF00003830FFF73D
:103E8000B9BF00004FF0FF333830FFF7B3BF000079
:103E90001430FFF709BF00004FF0FF311430FFF777
:103EA00003BF00003830FFF763BF00004FF0FF3260
:103EB0003830FFF75DBF000000207047FFF75ABDA4
:103EC000044B0360002343608360C36001230374D9
:103ED000704700BF484F000810B52023044683F305
:103EE0001188FFF76FFD02232374002383F31188E9
:103EF00010BD000038B5C36904460D461BB9042146
:103F00000844FFF7A9FF294604F11400FFF7B0FEAB
:103F1000002806DA201D4FF48061BDE83840FFF725
:103F20009BBF38BD024B00221B605B609A607047EC
:103F30004C4E0020002303748268054B1B6899686F
:103F40009142FBD25A68036042601060586070472B
:103F50004C4E002008B5202383F31188037C032BEB
:103F600005D0042B0DD02BB983F3118808BD43690C
:103F700000221A604FF0FF334361FFF7DBFF00239D
:103F8000F2E790E80C001A6002685360F2E7000064
:103F9000002303748268054B1B6899689142FBD823
:103FA0005A68036042601060586070474C4E0020B1
:103FB000054B19690874186802681A605360186123
:103FC00001230374FCF744BB4C4E002030B54B1C5E
:103FD00087B005460A4C10D023690A4A01A800F0B0
:103FE00019F92846FFF7E4FF049B13B101A800F07C
:103FF00063F92369586907B030BDFFF7D9FFF8E7C7
:104000004C4E0020553F000838B50C4D41612B69DE
:1040100081689A689142044603D8BDE83840FFF7AA
:1040200089BF1846FFF7B4FF01232C6101462374B2
:104030002046BDE83840FCF70BBB00BF4C4E0020CB
:10404000044B1A681B6990689B68984294BF0020D3
:10405000012070474C4E002010B5084C23682069A1
:104060001A6822605460012223611A74FFF790FFDE
:1040700001462069BDE81040FCF7EABA4C4E00202A
:1040800008B5FFF7DDFF18B1BDE80840FFF7E4BF52
:1040900008BD0000FEE7000010B50C4CFFF742FF22
:1040A00000F0AAF880220A49204600F03DF80123DA
:1040B00044F8180C0374FFF7F3FB002383F3118813
:1040C00062B60448BDE8104000F050B8744E0020BD
:1040D000704F0008784F000808B572B6034B58625D
:1040E00000F082FA00F01EFBFEE700BF4C4E0020FD
:1040F00000F01CB9EFF3118020B9EFF30583202203
:1041000082F311887047000010B558B9EFF30584A9
:10411000C4F3080414B180F3118810BDFFF7B0FF99
:1041200084F3118810BD0000826002220274002214
:10413000427470478368A3F17C0243F80C2C026937
:1041400043F83C2C426943F8382C074A43F81C2CAE
:10415000C26843F8102C022203F8082C002203F84E
:10416000072CA3F1180070476906000810B520233A
:1041700083F31188FFF7DEFF00210446FFF744FFB9
:10418000002383F31188204610BD0000024B1B69F9
:1041900058610F20FFF70CBF4C4E0020202383F303
:1041A0001188FFF7F3BF000008B50146202383F311
:1041B00011880820FFF70AFF002383F3118808BD48
:1041C00049B1064B42681B6918605A60136043602E
:1041D0000420FFF7FBBE4FF0FF3070474C4E00202D
:1041E0000368984206D01A68026050605961184608
:1041F000FFF7A0BE70470000054B03F114025A619F
:104200009A614FF0FF32DA6100221A62704700BFF4
:104210004C4E0020F8B5274F0361C2600D4604469E
:1042200000F0EEFA3B46022D53F8142F294638BF12
:1042300002219A423E461D460AD138627C61BC6129
:10424000084422606260A160BDE8F84000F0C6BA90
:10425000D7F820E0A0EB0E035F181FD3002790686B
:10426000834217D8376AAA421F44376201D0C01A66
:10427000906073699A68914219D85A6823606260A5
:1042800014605C60A1609868411A99604FF0FF3338
:10429000F361F8BD97601B1A1268E0E793689F42CC
:1042A00003D20EEB070000F0A7FA3946E1E7891ABE
:1042B0001B68DFE74C4E002038B51B4B01685A697C
:1042C00090421D4603F114020CD04468216003683B
:1042D000002193425C60C16025D09A6881680A44DD
:1042E0009A6038BD59614A605B6900219342C160A0
:1042F00003D1BDE8384000F079BA9A6881680A4471
:104300009A602C6A00F07CFA6A699268001B82420B
:1043100009D9111A012998BF821C286ABDE83840C2
:10432000104400F069BA38BD4C4E00202DE9F84F1A
:10433000204C0027656904F11406B84600F060FAC5
:10434000236AA0EB030AAB6853451DD84FF0200940
:10435000236AAA68D5F80CB013442362AB68AAEBB1
:10436000030A2B68B3425E606361EF6001D100F025
:104370003DFA88F311882869D84789F3118865695F
:10438000AB689A45E4D2D9E76369B34210D02062A2
:104390009A68A2EB0A029A60226AAB68821A9B1A98
:1043A000022B2CBFC0180230BDE8F84F00F024BA31
:1043B000BDE8F88F4C4E002000207047FEE700005B
:1043C000704700004FF0FF3070470000BFF34F8F81
:1043D000024A1369DB03FCD4704700BF002002408F
:1043E00008B5094B1B7873B9FFF7F0FF074B5A6903
:1043F000002ABFBF064A9A6002F188329A601A68A2
:1044000022F480621A6008BDD84F002000200240CC
:104410002301674508B50B4B1B7893B9FFF7D6FF0F
:10442000094B5A6942F000425A611A6842F48052BC
:104430001A601A6822F480521A601A6842F4806284
:104440001A6008BDD84F0020002002407F289ABF84
:1044500000F58030C0020020704700004FF400607B
:1044600070470000802070477F2808B50BD8FFF701
:10447000EDFF00F500630268013204D1043083428D
:10448000F9D1012008BD002008BD00007F2810B52B
:1044900004461FD8FFF79AFFFFF7A2FF0E4BF32247
:1044A0001A6102225A615A6942EAC0025A615A6983
:1044B00042F480325A61FFF789FFFFF7C7FF4FF4DC
:1044C000006100F02BF9FFF7A5FF2046BDE8104082
:1044D000FFF7CABF002010BD002002402DE9F843BD
:1044E00040EA020313F00703144606D02E4B40F2B5
:1044F000BB221A600020BDE8F88385182B4A95423C
:104500000CD9294A4FF430711160F3E7031D1B6881
:104510004A68934208D1083C08300831072C14D966
:1045200003680A689342F1D0FFF75AFFFFF74EFF86
:104530001F4E08314FF001084FF00009012CA1F186
:10454000080707D8FFF766FF01E0002CECD1012037
:10455000BDE8F883C6F81480054651F8083C45F8D4
:10456000043B51F8043C4360FFF730FFC6F8149059
:10457000026851F8083C9A420CD00B4B40F2E622FC
:104580001A600C4B18600C4B1C600C4B1F60FFF743
:1045900041FFAFE72D68083151F80C3C9D42ECD14A
:1045A000083C0830CAE700BFD44F0020FFFF0308D3
:1045B00000200240C84F0020D04F0020CC4F0020E8
:1045C000084908B50B7828B153B9FFF709FF012353
:1045D0000B7008BD23B1BDE808400870FFF71ABF93
:1045E00008BD00BFD84F002008B54FF4C0314FF0D0
:1045F000005000F095F84FF400414FF08050BDE8B6
:10460000084000F08DB8000038B500F0F9F8074B0D
:104610001A68824207D9064AD2E90045003445F1BA
:104620000105C2E90045186038BD00BFDC4F00201D
:10463000E04F002070B5FFF75DFD0646FFF7E4FF91
:10464000054BD3E90045241845F100053046FFF736
:104650005BFD2046294670BDE04F002008B5FFF7FE
:10466000E9FF4FF47A720023FBF7D6FD08BD00BFC7
:1046700002440439D2B2904200D17047431C8000FA
:1046800000F1804000F51450006841F8040FD8B2E2
:10469000F1E70000124B10B5D3F89040240409D480
:1046A000D3F89040C3F89040D3F8904044F40044CD
:1046B000C3F890400B4C2368024443F4807323609A
:1046C0000439D2B2904200D110BD431C800000F1E9
:1046D000804000F5145051F8044F0460D8B2F1E75F
:1046E000001002400070004007B5012201A900201F
:1046F000FFF7BEFF019803B05DF804FB13B5044655
:10470000FFF7F2FFA04206D002A9012241F8044DB2
:104710000020FFF7BFFF02B010BD0000704700008F
:104720007047000070470000074B45F255521A6071
:1047300002225A6040F6FF729A604CF6CC421A6030
:10474000024B01221A70704700300040E94F0020F0
:10475000034B1B781BB1034B4AF6AA221A60704721
:10476000E94F002000300040034B1B689B0042BF14
:10477000024B01221A70704794100240E84F00204B
:10478000024B4FF400021A60704700BF94100240C1
:10479000014B1878704700BFE84F002070470000B9
:1047A000FEE70000084A094B09498B4204D3094A35
:1047B0000021934205D3704752F8040F43F8040BCD
:1047C000F3E743F8041BF4E7D4500008F04F00204F
:1047D000F04F0020F04F002000F07EB84FF08043F3
:1047E000002258631A610222DA6070474FF080435A
:1047F0000022DA60704700004FF080435863704732
:104800004FF08043586A70474B6843608B68836001
:10481000CB68C3600B6943614B6903628B69436278
:104820000B6803607047000008B51D4BDA6A42F060
:104830007F02DA62DA6A22F07F02DA62DA6ADA6C1E
:1048400042F07F02DA64DA6E42F07F02DA66154ADD
:10485000DB6E11464FF09040FFF7D6FF124802F191
:104860001C01FFF7D1FF114802F13801FFF7CCFF1F
:104870000F4802F15401FFF7C7FF0E4802F1700123
:10488000FFF7C2FF0C4802F18C01FFF7BDFF0B4898
:1048900002F1A801FFF7B8FFBDE8084000F070B8CA
:1048A00000100240984F000800040048000800482B
:1048B000000C004800100048001400480018004890
:1048C00008B500F0F3F9FFF7E7FBBDE80840FFF794
:1048D0004BBF0000704700000F4B9A6D42F0010281
:1048E0009A659A6F42F001029A670C4A9B6F93682F
:1048F00043F0010393604FF08043A7229A624FF088
:10490000FF32DA6200229A615A63DA605A60012249
:104910005A611A60704700BF00100240002004E096
:104920004FF0804208B51369D1680B40D9B2C94332
:104930009B07116107D5202383F31188FFF7D8FB6C
:10494000002383F3118808BD08B50B4BD3F89020E2
:1049500012F4407F1FBF4FF48032C3F89020002232
:10496000C3F89020D3F89020C3F8902000F076F997
:10497000024B00225A6008BD001002400070004047
:10498000404B4FF0FF319A6A99629A6A00229A620C
:10499000986AD86A60F07F00D862D86A00F07F0019
:1049A000D862D86A186B1963186B1A63186B986B06
:1049B0009963986B9A63986BD86BD963D86BDA63F9
:1049C000D86B186C1964196C1A641A6C9A6D42F0E1
:1049D00080529A659A6F22F080529A679A6F2A4A9B
:1049E0004FF400711160516911F48061FBD14FF4F3
:1049F000004051609060D160C2F88010D3F89820D8
:104A000042F00102C3F89820D3F898209007FBD514
:104A10001A6842F480321A601A689103FCD51A4968
:104A20000A6842F480720A60184ADA601A6842F032
:104A300080721A601A689201FCD5002214499A60AB
:104A4000C3F88810C3F89C20124A134911601168FA
:104A500001F00F010729FAD19A6842F003029A6027
:104A60009A6802F00C020C2AFAD11A6E42F0010286
:104A70001A66D3F8802042F00102C3F88020D3F8F0
:104A80008030704700100240007000401338610110
:104A9000550100500020024007070400074A08B5EE
:104AA000536903F00103536123B1054A13680BB145
:104AB00050689847BDE80840FEF716BF0004014063
:104AC000204D0020074A08B5536903F002035361E3
:104AD00023B1054A93680BB1D0689847BDE80840F8
:104AE000FEF702BF00040140204D0020074A08B530
:104AF000536903F00403536123B1054A13690BB1F1
:104B000050699847BDE80840FEF7EEBE000401403A
:104B1000204D0020074A08B5536903F0080353618C
:104B200023B1054A93690BB1D0699847BDE80840A5
:104B3000FEF7DABE00040140204D0020074A08B508
:104B4000536903F01003536123B1054A136A0BB193
:104B5000506A9847BDE80840FEF7C6BE0004014011
:104B6000204D0020164B10B55C6904F478725A6130
:104B7000A30604D5134A936A0BB1D06A984760061E
:104B800004D5104A136B0BB1506B9847210604D51E
:104B90000C4A936B0BB1D06B9847E20504D5094AD8
:104BA000136C0BB1506C9847A30504D5054A936C60
:104BB0000BB1D06C9847BDE81040FEF795BE00BF22
:104BC00000040140204D0020194B10B55C6904F42D
:104BD0007C425A61620504D5164A136D0BB1506DC3
:104BE0009847230504D5134A936D0BB1D06D9847B0
:104BF000E00404D50F4A136E0BB1506E9847A10420
:104C000004D50C4A936E0BB1D06E9847620404D55C
:104C1000084A136F0BB1506F9847230404D5054A17
:104C2000936F0BB1D06F9847BDE81040FEF75CBEA4
:104C300000040140204D002008B50348FEF712FF94
:104C4000BDE80840FEF750BEA04D002008B5FFF7B4
:104C500067FEBDE80840FEF747BE0000062108B524
:104C60000846FEF785FF06210720FEF781FF062193
:104C70000820FEF77DFF06210920FEF779FF0621B7
:104C80000A20FEF775FF06211720FEF771FF0621A7
:104C90002820FEF76DFF07211C20FEF769FF0C217D
:104CA0002520BDE80840FEF763BF000008B5FFF708
:104CB0004BFEFEF743FEFFF701F9FFF70BFEBDE8E1
:104CC0000840FFF789BD00000B460146184600F07A
:104CD00003B8000000F00EB810B5054C13462CB117
:104CE0000A4601460220AFF3008010BD204610BDE9
:104CF00000000000024B0146186800F031B800BF08
:104D00000C11002010B501390244904201D100205D
:104D100010BD10F8013B11F8014FA342F5D0181B4C
:104D200010BD00002DE9F8430746884691461E460F
:104D30008BB10D46A8EB0500B54207EB000402D28B
:104D40000020BDE8F883324649462046FFF7DAFFE7
:104D500018B1013DEEE7BDE8F8832046BDE8F883D1
:104D600038B50546002945D051F8043C0C1F002BEE
:104D7000B8BFE41800F04AF81F4A1368104633B968
:104D8000636014602846BDE8384000F041B8A34293
:104D90000CD921686218934204BF1A685B6863608B
:104DA00004BF521822600460ECE713465A680AB147
:104DB000A242FAD919685818A0420BD120680144C0
:104DC000581882421960DDD1106852685A60014457
:104DD0001960D7E702D90C232B60D3E7206821188C
:104DE0008A4204BF11685268626004BF09182160DA
:104DF0005C60C7E738BD00BFEC4F0020034611F8E8
:104E0000012B03F8012B002AF9D1704770470000ED
:104E100070470000121012131211000040A2E4F1BA
:104E2000646891064E6F20617070207369670A0094
:104E3000426164206677206C656E67746820257512
:104E40000A0042616420626F6172645F69642025B8
:104E5000752073686F756C642062652025750A0083
:104E60004261642066772064657363726970746F51
:104E700072206C656E6774682025750A0042616453
:104E80002061707020435243203078253038783AC2
:104E9000307825303878203078253038783A3078B6
:104EA000253038780A00476F6F64206669726D7725
:104EB0006172650A000000006F72672E617264758E
:104EC00070696C6F742E47342D4553430000000009
:104ED00002010000FF010000006C0040006800407B
:104EE0004261642043414E496661636520696E6496
:104EF00065782E0000000000000000006D20000812
:104F0000E5260008411C00085D1C0008311E000851
:104F1000951D0008551D0008591D0008451C000876
:104F20004D1C0008491C0008C91D0008551C00083C
:104F300000960000000000000000000000000000DB
:104F4000000000000000000000000000853E000896
:104F5000713E0008AD3E0008993E0008A53E0008DD
:104F6000913E00087D3E0008693E0008B93E0008F9
:104F70006D61696E00000000904F0008904E0020A7
:104F8000C84F00200100000095400008000000000C
:104F900069646C65000000000450282800000000CF
:104FA000AA5ABEAA000014003DFF00000000000045
:104FB00070070000812A0A0100000000A9AAAAAA1D
:104FC00000000001FEFF000000B09B0999000000F6
:104FD0000001000000000000AAA9AAAA0000000029
:104FE000EFFF0000000000000000000000000000D3
:104FF00000000000AAAAAAAA00000000FFFF00000B
:1050000000000000000000000000000000000000A0
:10501000AAAAAAAA00000000FFFF000000000000EA
:10502000000000000000000000000000AAAAAAAAD8
:1050300000000000FFFF0000000000000000000072
:105040000000000000000000AAAAAAAA00000000B8
:10505000FFFF00000000000000000000ECB1FF7F37
:105060000100000000000000FE2A0100D204000040
:10507000FF000000101100200000000000000000F0
:105080000000000000000000000000000000000020
:105090000000000000000000000000000000000010
:1050A0000000000000000000000000000000000000
:1050B00000000000000000000000000000000000F0
:1050C00000000000000000000000000000000000E0
:0850D0000000000000000000D8
:00000001FF
