:020000040800F2
:1000000000040020E1010008890C00088D0C0008A4
:10001000DD0C00088D0C0008B50C0008E20100089A
:10002000E2010008E2010008E2010008212D0008B9
:10003000E2010008E2010008E2010008E201000814
:10004000E2010008E2010008E2010008E201000804
:10005000E2010008E2010008812F0008AD2F00082E
:10006000D92F00080530000831300008E2010008EF
:10007000E2010008E2010008E2010008E2010008D4
:10008000E2010008E2010008E2010008E2010008C4
:10009000E2010008E2010008E20100085D3000080A
:1000A000E2010008E2010008E2010008E2010008A4
:1000B0009D2D0008E2010008E2010008E2010008AD
:1000C000E2010008E2010008E2010008E201000884
:1000D000E2010008E2010008E2010008E201000874
:1000E000C5300008E2010008E2010008E201000852
:1000F000E2010008E2010008E2010008E201000854
:10010000E2010008E2010008E2010008E201000843
:10011000E2010008E2010008E2010008E201000833
:10012000E2010008E2010008E2010008E201000823
:10013000E2010008E2010008E2010008E201000813
:10014000E2010008E2010008E20100082924000899
:10015000E2010008E2010008E2010008E2010008F3
:10016000E2010008E2010008E2010008E2010008E3
:10017000E2010008E2010008E2010008E2010008D3
:10018000E2010008E2010008E2010008E2010008C3
:10019000E2010008E2010008E2010008E2010008B3
:1001A000E2010008E2010008E2010008E2010008A3
:1001B000E2010008E2010008E2010008E201000893
:1001C000E2010008E2010008E2010008E201000883
:1001D000E2010008E2010008E2010008E201000873
:1001E00002E000F000F8FEE772B6394880F30888B4
:1001F000384880F3098838484EF60851CEF200019D
:10020000086040F20000CCF200004EF63471CEF2ED
:1002100000010860BFF34F8FBFF36F8F40F2000003
:10022000C0F2F0004EF68851CEF200010860BFF334
:100230004F8FBFF36F8F4FF00000E1EE100A4EF6C4
:100240003C71CEF200010860062080F31488BFF3F1
:100250006F8F01F0B5FD02F0FBFC4FF055301F49E8
:100260001B4A91423CBF41F8040BFAE71C49194A6A
:1002700091423CBF41F8040BFAE71A491A4A1B4B5A
:100280009A423EBF51F8040B42F8040BF8E70020F5
:100290001749184A91423CBF41F8040BFAE701F0B4
:1002A00093FD02F031FD144C144DAC4203DA54F8C6
:1002B000041B8847F9E700F03FF8114C114DAC42A0
:1002C00003DA54F8041B8847F9E701F07BBD00000E
:1002D000000400200024002000000008000000208E
:1002E00000040020F034000800240020282400200E
:1002F00028240020E8330020E0010008E001000885
:10030000E0010008E00100082DE9F04F2DED108A12
:10031000C1F80CD0C3689D46BDEC108ABDE8F08FD3
:10032000002383F311882846A047002001F014FA27
:1003300001F0C4F900DFFEE738B5184B6FF0750225
:1003400000241A700F225C709C70DC701C715C7150
:100350009C71DC711C725C729A72DC7201F010FD8F
:100360000F4B984217D00133984241F2883412BFA4
:10037000002500240125002001F008FD0DB100F04A
:1003800053F800F055FC00F031FB204600F0A0F8D7
:1003900000F04AF8F9E72546EDE700BF28240020E1
:1003A000010007B008B500F0C3FAA0F120035842DD
:1003B000584108BD07B5054B02211B88ADF8043034
:1003C00001A800F003FB03B05DF804FBC031000896
:1003D00010B51148C3680BB101F044FA0F4C104A34
:1003E0000D4800234FF47A7101F000FA236813B12D
:1003F0002368013B2360636813B16368013B63605A
:10040000084B1B7833B9636823B9022000F0CAFB9C
:100410003223636010BD00BF342400204C2900202B
:10042000D10300084824002038B5224C236801334A
:100430003ED0214D214B2A689A4239D9204B9B68E6
:1004400003F1006303F580339A4231D2002000F0BB
:10045000E7FA1C4B0220187000F09CFB1A4B1A6C38
:1004600000221A64196E1A66196E596C5A64596E14
:100470005A665A6E5A6942F080025A615A6922F0ED
:1004800080025A615A691A6942F000521A611A6967
:1004900022F000521A611B6972B60C4B1C60236873
:1004A0002A68202181F311889D4683F3088810472C
:1004B00038BD00BF0000010804000108FFFF00086C
:1004C00028240020482400200038024008ED00E0E5
:1004D0002DE9F04FB34B8246B3489C680022C260BE
:1004E0008FB0202282F31188C26800930AB101F014
:1004F000B9F90023AD4AAC484FF47A7101F076F9AE
:10050000002383F31188DFF8C0B2BAF1000F01D0E5
:10051000CBF800A0A64FCBF8043000253B702E4648
:100520004FF0FF38012000F035FBBAF1000F00F06A
:10053000C181DBF80030002B40F0BC810FB0BDE87A
:10054000F08F0220FFF72EFF002840F0AF81994B7B
:100550001B88ADF82430022109A800F037FAE1E742
:100560004FF47A7000F0E4F9031E0193EFDB0220F0
:10057000FFF718FF81460028E9D0019B581E042888
:10058000E5D8DFE800F00310131619000EA80523C4
:1005900040F8143D042100F019FA4D4600F03EFBEE
:1005A000FFF708FF7FE104217E48F4E70421824839
:1005B000F1E704218148EEE71C25284600F032FAD5
:1005C00004350990042109A800F000FA2C2DF4D17B
:1005D000E3E7002EBBD0002DB9D00220FFF7E2FEEA
:1005E000064610B901252E46B1E7012000F018FAA1
:1005F0000220387000F0CEFA00255FFA85F94846EF
:1006000000F026FA0135044618B1484600F030FAE9
:10061000F3E7012302203B7000F0B2FA009B9B68D5
:100620009C4207D2204600F0FDF9013040F04081A5
:100630000434F3E700243C70CBF804403546ADE7C2
:10064000002E84D0002D82D00220387000F0A2FA53
:10065000322000F06DF9051EC4DB15F00306C1D190
:10066000009A926863199342BCD8B5F5807FB9D8D7
:10067000DFF84C91AE420CDA4FF47A7000F058F982
:100680000390039B002BADDB039B06F8093001367A
:10069000F0E7C820FFF786FE06460028A2D02CB956
:1006A000474B4FF0FF32D3F800801A60444B25F0DF
:1006B00003052544A3EB0409AC42BFD059F804104C
:1006C000204600F0B5F9204600F0ACF959F80430A6
:1006D000984240F0ED800434EEE70220FFF762FE1E
:1006E00000283FF434AF4FF0000AD146009B9B68CE
:1006F0009A4537D2BAF1000F17D1B8F1FF3F14D0A5
:10070000CDF824802F494B68A3B1002209A8135CBF
:1007100083EA0903DBB2013251F82330042A83EA69
:100720001929F4D10AF1040AE0E7504600F07AF9F9
:100730000990E7E71A46082012F0010F4FEA52022B
:100740001FBF82F06D4282F4380282F4034282F0CD
:1007500020020138F0D141F823200133B3F5807F26
:10076000E8D1D2E70EA8042140F8289D00F02EF928
:1007700014E70EA8002340F8143D642100F002F9AC
:1007800000287FF4E4AE0220FFF70CFE00283FF4BF
:10079000DEAE099800F07EF90EAB43F8240D04217B
:1007A0001846E3E72824002034240020D103000861
:1007B00048240020C23100082C24002030240020CE
:1007C0004C2400204C2500204C2900200EA800239A
:1007D00040F8143D642100F0D5F800287FF4B7AE4E
:1007E0000220FFF7DFFD00283FF4B1AE099800F0CA
:1007F0005FF90EAB43F8200DD1E70220FFF7D2FDE1
:1008000000283FF4A4AE00F059F90EAB43F81C0DDC
:10081000C5E70220FFF7C6FD00283FF498AE09A9FE
:10082000142000F051F981460EA8042140F8189DCB
:1008300000F0CCF8494609A898E74FF47A70FFF722
:10084000B1FD00283FF483AEB8F1FF3F05D1FFF7BB
:10085000B1FD354800F086FF70E64146002000F00B
:10086000E7F8002000F0DEF88045F0D02F4B6FE66F
:100870000EA8002340F8143D642100F083F80028FE
:100880007FF465AE0220FFF78DFD00283FF45FAED8
:10089000FFF790FD41F2883000F064FF099800F006
:1008A000F1F900F0BBF94FF0000A3BE6064675E6A9
:1008B0003546DBE7002000F03BF80390039B002B5C
:1008C000FFF633AE012000F05BF9039B213B122BB6
:1008D0003FF628AE01A252F823F000BF43050008FE
:1008E00061050008D3050008250500082505000856
:1008F000250500084106000825050008DB0600085C
:1009000073070008CD070008FB070008250500084D
:1009100013080008250500083B0800089D0500088D
:100920002505000871080008A0860100C4310008F0
:1009300037B5114B1A780132D2B20024012A014690
:100940008DF8074011D80D4803681D6A4FF47A737B
:100950004B4301220DF10701A847012805D1084B9F
:100960009DF807001C7003B030BD4FF4FA7000F022
:10097000F9FE4FF0FF30F6E7002400209C2900200C
:100980005829002038B50E4B1A780132D2B2012A0C
:1009900005460ED80B4803681C6A4FF47A734B4324
:1009A00004222946A047042803D1074B00201870D1
:1009B00038BD4FF4FA7000F0D5FE4FF0FF3038BD6F
:1009C000002400209C2900205829002030B4054C28
:1009D0002368DD69044B0A46AC460146204630BC1C
:1009E000604700BF9C290020A086010070B501F07F
:1009F00003F9094C094E20700025306823788342A2
:100A000008D901F0F3F8336805440133B5F5803FA8
:100A10003360F2D370BD00BF592900205429002053
:100A200001F09AB900F1006000F58030006870476D
:100A300007B502AB00F1006043F8041D042219461B
:100A400000F5803001F016F903B05DF804FB0000FA
:100A5000054B1A68054B1B781344834202D9104496
:100A600001F0C4B800207047542900205929002003
:100A700038B5074D04462868204401F0BFF828B96E
:100A800028682044BDE8384001F0D0B838BD00BF28
:100A90005429002010F0030308D1B0F5007F05D8D9
:100AA00000F10050A0F50840006870470020704732
:100AB000014BC058704700BF107AFF1F014B1868E8
:100AC000704700BF002004E070B52A4B1C68C4F3D7
:100AD0000B03240C63B140F21342934231D040F235
:100AE000194293422FD040F2214293422DD1032349
:100AF000214A0C2505FB03235D6893F9082042F287
:100B000001039C4224D0B4F5805F23D041F201035D
:100B10009C4221D041F203039C421FD041F20703C3
:100B20009C4208BF3122441E0C44013D0B46A342A7
:100B30001ED215F9016F581C96B1034600F8016CDE
:100B4000F5E70123D4E70223D2E73F220B4DD6E796
:100B50003322E3E74122E1E75A22E4E75922E2E7C0
:100B60002C2584421D7001D9981C5A70401A70BD02
:100B70001846FBE7002004E0D4310008C831000823
:100B8000022802BF024B4FF400029A61704700BF77
:100B900000040240022802BF014B80229A61704784
:100BA00000040240022801BF024A536983F0800317
:100BB000536170470004024010B50023934203D0F4
:100BC000CC5CC4540133F9E710BD000030B5441EBD
:100BD00014F9010F0B4660B193F90050854201F101
:100BE000010106D11AB993F90020801A30BD013AEB
:100BF000EEE7002AF7D1104630BD0000024603465A
:100C0000981A13F9011B0029FAD1704702440346D0
:100C1000934202D003F8011BFAE77047024B1A789F
:100C2000024B1A70704700BF582900200024002092
:100C300038B5104D104C284600F0E2F82146284601
:100C400000F00AF923680D485A6DD2F8043843F0D1
:100C50000203C2F8043800F085FD0949206800F05D
:100C600001FA23685A6DD2F8043823F00203C2F85F
:100C7000043838BD9C290020A032000840420F00F3
:100C8000F032000870470000FEE7000000B59BB09E
:100C9000EFF3098168226846FFF78EFFEFF30583C3
:100CA000034B9A6B9A6A9A6A9A6A9A6A9B6AFEE7F7
:100CB00000ED00E000B59BB0EFF3098168226846C3
:100CC000FFF77AFFEFF30583034B9A6A9A6A9A6AF1
:100CD0009A6A9A6A9B6AFEE700ED00E000B59BB055
:100CE000EFF3098168226846FFF766FFEFF305839B
:100CF000034B5A6B9A6A9A6A9A6A9A6A9B6AFEE7E7
:100D000000ED00E0026843681143016003B1184739
:100D10007047000013B5446BD4F894341A68117806
:100D2000042916D1217C022913D1197912890123B2
:100D30008B4013420DD101A904F14C0001F0ECFDF0
:100D4000024630B1D4F89444019B2179206800F028
:100D5000D5F902B010BD0000143001F05BBD0000F9
:100D60004FF0FF33143001F055BD00004C3001F05E
:100D70003FBE00004FF0FF334C3001F039BE0000A1
:100D8000143001F029BD00004FF0FF31143001F0A4
:100D900023BD00004C3001F00BBE00004FF0FF32CD
:100DA0004C3001F005BE0000D0F8942438B513682B
:100DB00019780429054601D0012038BD017C02299B
:100DC000FAD112795C89012090400440F4D105F1F8
:100DD000140001F0BBFC02460028EDD0D5F8945475
:100DE0004FF480732868697900F076F9204638BDA1
:100DF000406BFFF7D9BF000000207047704700002C
:100E00007FB5124B0360002343608360C3600125FC
:100E100002260F4B057404460290019300F18402F0
:100E2000294600964FF48073143001F06BFC094B97
:100E30000193029400964FF4807304F523722946BF
:100E400004F14C0001F044FD04B070BD24320008F0
:100E5000F10D0008150D00080B68202282F311889F
:100E60000A7903EB820290614A79093243F8220041
:100E70008A7912B103EB8203986102230374C0F8EC
:100E80009414002383F311887047000038B504469A
:100E9000012502210430FFF735FF04F11400257706
:100EA0006FF0010100F086FC84F8545004F14C000E
:100EB0006FF00101BDE8384000F07CBC10B50121A5
:100EC00004460430FFF71EFF0023237784F85430D4
:100ED00010BD000038B504460025143001F02AFC8E
:100EE00004F14C00257701F00BFD201D84F85450CF
:100EF0000121FFF707FF2046BDE83840FFF754BF48
:100F000090F8443003F06003202B19D190F845206D
:100F1000212A0AD0222A4FF000030ED0202A0FD116
:100F2000084A82630722C26304E0064B83630723F7
:100F3000C36300230364012070478363C363F9E73D
:100F40000020704701240020D0F8943437B51A6887
:100F50001178042904461AD1017C022917D1197984
:100F6000128901238B40134211D100F14C05284610
:100F700001F09CFD58B101A9284601F0CDFCD4F840
:100F80009444019B21790246206800F0B7F803B031
:100F900030BD000000EB8103F7B59C6905460E46A5
:100FA000F4B1202383F3118805EB8607201D082167
:100FB000FFF7A8FEFB685B691B684C3413B1204641
:100FC00001F0B8FC01A9204601F0A6FC024648B198
:100FD000019B3146284600F091F8002383F31188E5
:100FE00003B0F0BDFB685A691268002AF5D01B8A6D
:100FF000013B1340F1D105F14402EAE7093138B56C
:1010000050F82140DCB1202383F31188D4F89424D4
:101010001368527903EB8203DB689B695D6845B115
:1010200004216018FFF76EFE294604F1140001F058
:1010300097FB2046FFF7B8FE002383F3118838BDE5
:101040007047000000F046BF012303700023436097
:10105000C36183620362C3624362036303814381AA
:101060007047000038B50446202383F3118800251B
:101070004160C56005614561856100F03BFF022369
:10108000237085F3118838BD70B500EB81030546E8
:101090005069DA600E46144618B110220021FFF79D
:1010A000B5FDA06918B110220021FFF7AFFD314650
:1010B0002846BDE8704000F0E3BF0000028902F05E
:1010C00001020281428902F0010242810022026192
:1010D0004261826101F068B8F0B400EB8104478995
:1010E000E4680125A4698D403D43458123600023C8
:1010F000A2606360F0BC01F083B80000F0B400EBC4
:1011000081040789E468012564698D403D430581B8
:1011100023600023A2606360F0BC01F0FDB8000012
:1011200070B50223002504460370A0F84C5080F8E7
:101130004E5080F84F5005814581C560056145617D
:10114000856180F8345000F037FF63681B6823B175
:1011500029462046BDE87040184770BD43680278B4
:101160001B6880F85020052202700BB1042118473B
:1011700070470000436890F850201B6802700BB164
:10118000052118477047000090F8343070B50446C8
:1011900013B1002380F8343004F14402204601F0FA
:1011A00025F863689B6863BB94F8445015F06006AB
:1011B00015D194F8453005F07F0545EA032540F246
:1011C00002339D4200F00E815BD8022D00F0DC80DE
:1011D0003FD8002D00F08780012D00F0CF80002146
:1011E000204601F05BFA0021204601F04DFA6368C9
:1011F0001B6813B1062120469847062384F8343033
:1012000070BD204698470028CED094F84B2094F823
:101210004A3043EA0223E26B934238BFE36394F916
:101220004430E56B002B4FF0200380F2FD80002D51
:1012300000F0EC80092284F8342083F31188002127
:10124000E36BA26B2046FFF759FF002383F311885D
:1012500070BDB5F5817F00F0B180B5F5407F49D014
:10126000B5F5807FBBD194F84630012BB7D1B4F8E7
:101270004C3023F00203A4F84C30A663E6632664E6
:10128000C3E740F201639D421ED8B5F5C06F3BD263
:10129000B5F5A06FA3D1B4F84430B3F5A06F0ED16B
:1012A00094F8463084F84E30204600F0DDFE636846
:1012B0001B6813B1012120469847032323700023A4
:1012C000A363E3632364A0E7B5F5106F32D040F663
:1012D00002439D4252D0B5F5006F80D104F14F0317
:1012E000A363012324E004F14C03A3630223E3631B
:1012F00025648AE794F84630012B7FF470AFB4F888
:101300004C3043F00203B6E794F84920616894F842
:1013100048304D6894F8471043EA0223204694F879
:101320004620A84700283FF45AAF4368A3630368E8
:10133000E363A4E72378042B10D1202383F31188DF
:101340002046FFF7BBFE86F31188636884F84F6080
:101350001B68032121700BB12046984794F8463052
:10136000002BACD084F84F300423237063681B68D3
:10137000002BA4D0022120469847A0E7374BA36357
:101380000223E36300239DE794F8481011F0800FD7
:10139000204601F00F010ED000F01AFF012806D000
:1013A00002287FF41CAF2E4BA363E06367E72D4B4D
:1013B000A363E56363E700F0FDFEEFE794F84630D2
:1013C000002B7FF40CAF94F8483013F00F013FF47A
:1013D00076AF1A06204602D501F074F96FE701F0E6
:1013E00067F96CE794F84630002B7FF4F8AE94F878
:1013F000483013F00F013FF462AF1B06204602D5C0
:1014000001F04CF95BE701F03FF958E7142284F84A
:10141000342083F311882B462A4629462046FFF7BD
:101420005BFE85F3118870BD5DB1152284F8342010
:1014300083F311880021E36BA26B2046FFF74CFE7B
:1014400003E70B2284F8342083F311882B462A46C5
:1014500029462046FFF752FEE3E700BF543200085A
:101460004C3200085032000838B590F83430044649
:10147000152B29D8DFE803F03E28282828283E2805
:10148000280B293928282828282828283E3E90F883
:101490004B1090F84A20C36B42EA01229A4214D9B9
:1014A000C268128AB3FBF2F502FB15356DB9202331
:1014B00083F311882B462A462946FFF71FFE85F342
:1014C00011880A2384F8343038BD142384F834306A
:1014D000202383F3118800231A4619462046FFF77C
:1014E000FBFD002383F3118838BD036C03B19847DB
:1014F0000023E7E7002101F0D1F80021204601F0A8
:10150000C3F863681B6813B1062120469847062379
:10151000D8E7000090F83420152A38B5044622D8C0
:101520000123934040F6416213421DD113F480150C
:101530000FD19B0217D50B2380F83430202383F37F
:1015400011882B462A462946FFF7D8FD85F31188D6
:1015500038BDC3689B695B682BB9036C03B19847BE
:10156000002384F8343038BD002101F097F80021C1
:10157000204601F089F863681B6813B106212046F4
:1015800098470623EDE70000024B00221B605B60DA
:101590009A6070475C290020002303748268054B21
:1015A0001B6899689142FBD25A68036042601060E0
:1015B000586070475C29002008B5202383F3118808
:1015C000037C032B05D0042B0DD02BB983F311889A
:1015D00008BD436900221A604FF0FF334361FFF7F3
:1015E000DBFF0023F2E790E80C001A60026853600A
:1015F000F2E70000002303748268054B1B689968BA
:101600009142FBD85A68036042601060586070478E
:101610005C290020054B19690874186802681A6073
:101620005360186101230374FEF76EBE5C2900202D
:1016300030B54B1C87B005460A4C10D023690A4AC6
:1016400001A800F0D3F82846FFF7E4FF049B13B18C
:1016500001A800F007F92369586907B030BDFFF70A
:10166000D9FFF8E75C290020B915000838B50C4D02
:1016700041612B6981689A689142044603D8BDE8AC
:101680003840FFF789BF1846FFF786FF01232C611A
:10169000014623742046BDE83840FEF735BE00BF42
:1016A0005C290020044B1A681B6990689B6898426B
:1016B00094BF0020012070475C29002010B5084C21
:1016C000236820691A6822605460012223611A7419
:1016D000FFF790FF01462069BDE81040FEF714BEF9
:1016E0005C2900208260022202740022427470474A
:1016F0008368A3F17C0243F80C2C026943F83C2C6C
:10170000426943F8382C074A43F81C2CC26843F856
:10171000102C022203F8082C002203F8072CA3F156
:10172000180070472103000810B5202383F31188A7
:10173000FFF7DEFF00210446FFF798FF002383F345
:101740001188204610BD0000024B1B6958610F2014
:10175000FFF760BF5C290020202383F31188FFF787
:10176000F3BF000008B50146202383F31188082049
:10177000FFF75EFF002383F3118808BD49B1064BD4
:1017800042681B6918605A60136043600420FFF7C9
:101790004FBF4FF0FF3070475C290020036898422C
:1017A00006D01A680260506059611846FFF7F4BE0F
:1017B0007047000038B504460D462068844200D1C9
:1017C00038BD036823605C604561FFF7E5FEF4E720
:1017D000054B03F114025A619A614FF0FF32DA614E
:1017E00000221A62704700BF5C290020F8B503612F
:1017F0004FF08043C2605C6A194B1A46022952F8C6
:10180000145F38BF0221954206461F460AD158612F
:1018100098611C620560456081600819BDE8F84068
:1018200001F066B9186AAB68241A0C1902D3E41ADD
:101830002D6804E09C4202D2204401F067F9AB68B5
:101840009C42F4D86B68736035601E606E60B46053
:10185000A9684FF0FF33091BA960FB61F8BD00BF09
:101860005C29002010B41B4C234653F8141F8142FE
:1018700010D0416802680A60026851609A424FF0D5
:101880000001C16003D0936881680B4493605DF8E8
:10189000044B70470A68626100209A425360C86036
:1018A00003D15DF8044B01F02BB9936888680344B9
:1018B00093604FF08042206A526A121A9342E6D92E
:1018C000991A012998BF931C18445DF8044B01F044
:1018D0001DB900BF5C29002000207047FEE7000012
:1018E000704700004FF0FF3070470000022906D01B
:1018F000032906D00129064818BF00207047054873
:101900007047032A9ABF044800EBC20000207047CA
:101910004C330008003300080824002070B504464A
:1019200008460D46FFF76AF9C6B22046013403782F
:101930000BB9184670BD32462946FFF747F9002813
:10194000F3D1012070BD00002DE9F04F81469BB01E
:1019500008460D461646FFF751F93D49C4B22846E0
:10196000FFF7DCFF08B10434E4B23A492846FFF738
:10197000D5FF08B11034E4B2632C01AF0CD8DFF806
:10198000E0A0DFF8E0B03C4695F80080B8F1000F29
:101990001CD184F8008003E02946384601F008FC99
:1019A0003846FFF72BF9C0B2431C5B0089E84800BA
:1019B000337003237370002302361946DAB2904263
:1019C00006F102063DD81BB0BDE8F08FB8F1250F37
:1019D00032D107221E492846FFF7F8F870B9DBF824
:1019E00000202260DBF804206260BBF8082022811E
:1019F0009BF80A20A27207350B34C5E70822154967
:101A00002846FFF7E3F8B8B91348A21C10F8011FE5
:101A1000124B4FEA111E01F00F011EF80AE011F8F7
:101A20000A1002F802EC984202F8011C02F10202CC
:101A3000ECD118340835A7E784F80080013501346B
:101A4000A2E7FA5C06F8022C06F8011C0133B5E7A0
:101A5000A8320008B03200080F7AFF1F1B7AFF1F60
:101A6000C5320008B932000808B5202383F3118875
:101A70000348FFF769FA002383F3118808BD00BF0C
:101A80009C29002010B50446052916D8DFE801F08E
:101A900016150316161D202383F311880E4A012103
:101AA000FFF7F2FA20460D4A0221FFF7EDFA0C4843
:101AB000FFF710FA002383F3118810BD202383F36E
:101AC00011880748FFF7E2F9F4E7202383F3118830
:101AD0000348FFF7F3F9EDE7583200087C320008BD
:101AE0009C29002038B50C4D0C4C0D492A4604F1B8
:101AF0000800FFF729FF05F1CA0204F110000949A7
:101B0000FFF722FF05F5CA7204F118000649BDE887
:101B10003840FFF719BF00BF642E002008240020C2
:101B2000D8320008E2320008B0320008BFF34F8F0D
:101B3000024AD368DB03FCD4704700BF003C02407C
:101B400008B5094B1B7873B9FFF7F0FF074B1A690B
:101B5000002ABFBF064A5A6002F188325A601A68EA
:101B600022F480621A6008BDC2300020003C0240AE
:101B70002301674508B50B4B1B7893B9FFF7D6FFD8
:101B8000094B1A6942F000421A611A6842F4805205
:101B90001A601A6822F480521A601A6842F480624D
:101BA0001A6008BDC2300020003C02400B2870B50E
:101BB00013D80B4A0B4C137863B90B4E4FF00061EE
:101BC00044F8231056F8235001330C2B2944F7D145
:101BD0000123137054F8200070BD002070BD00BFB9
:101BE000F4300020C43000206C330008014B53F85F
:101BF000200070476C3300080C2070470B2810B58C
:101C0000044601D9002010BDFFF7D0FF064B53F862
:101C100024301844C21A0BB9012010BD12680132D9
:101C2000F0D1043BF6E700BF6C3300080B2808B581
:101C30001BD8FFF77BFFFFF783FF0D49F323CB6032
:101C4000FFF774FFC300DBB243F4007343F00203F9
:101C50000B610B6943F480330B61FFF767FFFFF7FC
:101C600089FFBDE80840FFF7C9BF002008BD00BFDD
:101C7000003C02402DE9F047D40715464DD4131817
:101C8000B3F1016F49D2324B1B68DA0745D5314CAD
:101C9000FFF756FFF323E360FFF748FF2F46401A94
:101CA00040F20129032F884601EB000618D8294C81
:101CB00040F201197B1A4344012B01EB0006236912
:101CC0002FD823F001032361FFF754FF2846BDE816
:101CD000F087366851F8043CB34218D1043FE1E77D
:101CE000B307E4D1236923F440732361236943EAF2
:101CF000090323610431D8F800303360BFF34F8FFC
:101D0000FFF714FFE368002BE3D0F323E3602369BC
:101D100023F001032361FFF72DFF4FF0FF30BDE8F3
:101D2000F08723F440732361236943EA09032361A5
:101D30008A4631F8023B3380BFF34F8FFFF7F6FE40
:101D40003688BAF80030B6B2B342B3D0DFE700BF8E
:101D500000380240003C0240084908B50B7828B121
:101D600053B9FFF7EDFE01230B7008BD23B1BDE8A9
:101D700008400870FFF7FEBE08BD00BFC23000205B
:101D8000014B186D704700BF00280040094B1A6FC7
:101D9000120407D41A6F42F400721A671A6F42F4E1
:101DA00000421A67044A136843F480731360034BBC
:101DB000186570470038024000700040002800405D
:101DC00070470000FEE70000084A094B09498B42B2
:101DD00004D3094A0021934205D3704752F8040FF7
:101DE00043F8040BF3E743F8041BF4E71435000849
:101DF000E8330020E8330020E8330020836D30B55D
:101E000000229D68446D11464FF0FF3004EB4213F1
:101E100001329542C3F80019C3F81019C3F8080934
:101E2000C3F8001BC3F8101BC3F8080BEED24FF029
:101E30000113C4F81C3830BD890141F02001016153
:101E400003699B06FCD4122000F0E8BE204B03EB94
:101E500080022DE9F047D2F80CE05D6DDEF8142029
:101E6000461CD2F800C005EB063605EB4018516859
:101E700061450BD3D5F83428012303FA00F022EA98
:101E80000000C5F834081846BDE8F087BEF81040D9
:101E9000ACEB0103A34228BF2346D8F81849A4B2EB
:101EA000B3EB840F10D894681F46A4F1040959F8C5
:101EB00004AFC6F800A0042F01D9043FF7E71C4483
:101EC0000B4494605360D2E70020BDE8F08700BF68
:101ED000F830002010B5054C2046FFF7B5F84FF05C
:101EE000A0436365024BA36510BD00BFF83000201E
:101EF000C03300080378012B70B505464DD1284B3F
:101F0000446D98421BD1274B5A6B42F080025A63B2
:101F10005A6D42F080025A655A6D5A6942F0800249
:101F20005A615A6922F080025A610E2143205B698E
:101F300000F0D2FB1C4BE3601C4BC4F800380023BC
:101F4000C4F8003EC02323604FF40413A3636E6DF6
:101F5000202000F063FE012333613369DB07FCD4EA
:101F6000122000F05BFE3369002BFCDA0026A6602D
:101F70002846FFF743FF6B68C4F81068DB68C4F8B5
:101F80001468C4F81C684BB9094BA3614FF0FF33C8
:101F90006361A36843F00103A36070BD054BF4E7E0
:101FA000F8300020003802404014004003002002B6
:101FB000003C30C0083C30C0F8B5446D05460021F7
:101FC0002046FFF739FFA96D00234FF001128F68FB
:101FD000C4F834384FF00066C4F81C284FF0FF30C6
:101FE00004EB431201339F42C2F80069C2F8006B50
:101FF000C2F80809C2F8080BF2D20B686A6DEB65EB
:10200000636210231361166916F01006FBD11220CB
:1020100000F004FED4F8003823F4FE63C4F800385E
:10202000A36943F4402343F01003A3610923C4F8D8
:102030001038C4F814380A4BEB604FF0C043C4F8B2
:10204000103B084BC4F8003BC4F81069C4F80039D1
:10205000EB6D03F1100243F48013EA65A362F8BD4F
:102060009C33000840800010426D90F84E10D2F86A
:10207000003823F4FE6343EA0113C2F800387047C6
:102080002DE9F0410EB200EB86080D46D8F80C1091
:102090000F6807F00303022B50D0032B50D03D4AAA
:1020A0003D4F012B18BF1746446D4FEA451E04EB08
:1020B0000E030022C3F8102B8A6905F1100C002AC8
:1020C00040D04A8A05F158035B013A43E2500123AC
:1020D000D4F81C2803FA0CF31343A6444A69C4F845
:1020E0001C380023CEF8103905F13F03002A39D0FF
:1020F0000A8A898B9208012988BF4A43C16D04EB83
:102100008303561841EA0242C66529465A602046B2
:10211000FFF792FED8F80C301B8A43EA85531F4321
:1021200005F148035B01E7500123D4F81C2803FAAA
:1021300005F51543C4F81C58BDE8F081174FB3E707
:10214000174FB1E704EB4613D3F8002B22F40042FB
:10215000C3F8002BD4F81C28012303FA0CF322EA5D
:102160000303BAE704EB83030E4A5A6004EB4616F6
:1021700029462046FFF760FED6F8003923F40043D5
:10218000C6F80039D4F81C38012202FA05F523EA12
:102190000505CFE7008000100080041000800810C3
:1021A00000800C1000040002826D1268C265FFF707
:1021B00025BE00005831436D49015B5813F40040BF
:1021C00004D013F4001F14BF012002207047000048
:1021D0004831436D49015B5813F4004004D013F4B7
:1021E000001F14BF012002207047000000EB810196
:1021F000CB68196A0B6813604B6853607047000026
:1022000000EB810330B5DD68AA691368D36019B9A2
:10221000402B84BF402313606B8A1468426D1C44BA
:10222000013CB4FBF3F46343033323F0030302EBF9
:10223000411043EAC44343F0C043C0F8103B2B684D
:1022400003F00303012B09B20ED1D2F8083802EBD8
:10225000411013F4807FD0F8003B14BF43F080534B
:1022600043F00053C0F8003B02EB4112D2F8003BB0
:1022700043F00443C2F8003B30BD00002DE9F041BB
:10228000244D6E6D06EB40130446D3F8087BC3F86B
:10229000087B38070AD5D6F81438190706D505EB98
:1022A00084032146DB6828465B689847FA072FD5E8
:1022B000D6F81438DB072BD505EB8403D968CCB9E5
:1022C0008B69488A5E68B6FBF0F200FB12628AB93D
:1022D0001868DA6890420DD2121A83E8140020239D
:1022E00083F311880B482146FFF78AFF84F3118896
:1022F000BDE8F081012303FA04F26B8923EA0203AB
:102300006B81CB6823B121460248BDE8F0411847F4
:10231000BDE8F081F830002000EB810370B5DD6886
:10232000436D6C692668E6604A0156BB1A444FF457
:102330000020C2F810092A6802F00302012A0AB23A
:102340000ED1D3F8080803EB421410F4807FD4F8C0
:10235000000914BF40F0805040F00050C4F800095C
:1023600003EB4212D2F8000940F00440C2F8000921
:10237000D3F83408012202FA01F10143C3F83418FA
:1023800070BD19B9402E84BF4020206020682E8A7D
:10239000841940F00050013C1A44B4FBF6F440EAC2
:1023A000C440C6E7F8B504461E48456D05EB441326
:1023B000D3F80869C3F80869F10717D5D5F81038BC
:1023C000DA0713D500EB8403D9684B691F68DA6814
:1023D000974218D2D21B00271A605F60202383F334
:1023E00011882146FFF798FF87F31188330617D528
:1023F000D5F834280123A340134211D02046BDE86C
:10240000F840FFF723BD012303FA04F2038923EA0E
:10241000020303818B68002BE8D021469847E5E74B
:10242000F8BD00BFF830002096482DE9F84F456D03
:102430006E69AB691E4016F4805F6E61044605D07C
:10244000FEF76EFEBDE8F84F00F07ABC002E12DAFF
:10245000D5F8003E8B489B071EBFD5F8003E23F001
:102460000303C5F8003ED5F8043823F00103C5F88E
:102470000438FEF77FFE370502D58248FEF76EFE70
:10248000B0040CD5D5F8083813F0060FEB6823F428
:1024900070530CBF43F4105343F4A053EB60310767
:1024A00004D56368DB680BB176489847F2025AD4CA
:1024B000B3020CD5D4F85480DFF8C8A100274FF040
:1024C0000109A36D9B68F9B28B4280F08780F70603
:1024D00019D5616D0A6AC2F30A1702F00F0302F4FC
:1024E000F012B2F5802F00F0A180B2F5402F0AD192
:1024F00004EB830301F58051DB68186A00231A4658
:102500009F4240F087803003D5F8184813D5E10387
:1025100002D50020FFF7B2FEA20302D50120FFF78B
:10252000ADFE630302D50220FFF7A8FE270302D504
:102530000320FFF7A3FE750384D5E00702D5002032
:10254000FFF730FFA10702D50120FFF72BFF62073D
:1025500002D50220FFF726FF23077FF573AF032084
:10256000FFF720FF6EE7D4F85480DFF818A10027AA
:102570004FF00109A36D9B685FFA87FB5B4597D31A
:1025800008EB4B13D3F8002902F44022B2F5802F58
:1025900022D1D3F80029002A1EDAD3F8002942F00C
:1025A0009042C3F80029D3F80029002AFBDB5946E2
:1025B000606DFFF741FC228909FA0BF322EA03035D
:1025C000238104EB8B03DB689B6813B159465046AB
:1025D00098475846FFF73AFC0137CBE708EB411222
:1025E000D2F8003B03F44023B3F5802F10D1D2F88A
:1025F000003B002B0CDA628909FA01F322EA03039B
:10260000638104EB8103DB68DB680BB150469847BC
:10261000013756E79C0708BF0A68072B98BF02706E
:1026200003F101039CBF120A013069E7023304EB96
:10263000830201F58051526890690268D0F808C0A1
:102640004068A2EB000E0022104697420AD104EB2C
:10265000830463689B699A683A449A605A6817448D
:102660005F6050E712F0030F08BF0868964588BF07
:102670008CF8000002F1010284BF000A0CF1010C89
:10268000E3E700BFF8300020436D03EB4111D1F8C0
:10269000003B43F40013C1F8003B7047436D03EB6C
:1026A0004111D1F8003943F40013C1F800397047E3
:1026B000436D03EB4111D1F8003B23F40013C1F843
:1026C000003B7047436D03EB4111D1F8003923F40F
:1026D0000013C1F80039704700F1604300F01F0299
:1026E000400903F5614309018000C9B200F160406F
:1026F00083F8001300F5614001239340C0F8803156
:102700000360704730B5039C0172043304FB03255A
:10271000C361049B03630021059B00604060C160AE
:10272000426102618561046242628162C162436307
:1027300030BD00000022416A41610161C2608262D5
:10274000C2626FF00101FFF735B80000036942690A
:10275000934203D1C2680AB100207047181D704728
:1027600003691960C2680132C260C2691344826998
:102770000361934224BF436A03610021FFF70EB84F
:1027800038B504460D46E3683BB16269131D126813
:10279000A3621344E362002038BD237A33B929468B
:1027A0002046FEF7EBFF0028EDDA38BD6FF00100A0
:1027B000FBE70000C368C269013BC360436913447F
:1027C00082694361934224BF436A43610023836269
:1027D000036B03B11847704770B52023044683F399
:1027E0001188866A3EB9FFF7CBFF054618B186F31C
:1027F0001188284670BDA36AE26A13F8015BA362E0
:10280000934202D32046FFF7D5FF002383F31188BC
:10281000EFE700002DE9F74F1F4604460E469146AC
:10282000202383F311884FF080480025D8F8243006
:10283000FB18009307F1FF3AAB46A36AABB91AF154
:10284000030F06D939462046FFF79AFF68B10023E7
:1028500005E0D8F82410009A511A8F42F3D283F37E
:102860001188284603B0BDE8F08FA16AE36AA9EB9E
:1028700005025B1A934228BF1346402B1CD93346EE
:1028800001F1400251F8040B43F8040B9142F9D1D5
:10289000A36A40334036A3624035A26AE36A9A4293
:1028A00002D32046FFF786FF8BF311884D45D8D21F
:1028B000202383F31188C0E71A4630460193FEF7C0
:1028C0007BF9019BA26A1A441E44A2621D44E4E7FC
:1028D00010B5029C0172043303FB0421C361002381
:1028E0008362C362039B0363049B00604060C46017
:1028F00042610261816104624262436310BD000073
:10290000026AC260426A4261026100228262C2625D
:102910006FF00101FEF74EBF436902699A4203D18D
:10292000C2680AB100207047184650F8043B0B609B
:1029300070470000C368C2690133C3604369134430
:1029400082694361934224BF436A43610021FEF7D9
:1029500025BF000038B504460D46E3683BB1236946
:102960001A1DA262E2691344E362002038BD237A93
:1029700033B929462046FEF701FF0028EDDA38BDBD
:102980006FF00100FBE7000003691960C268013ABB
:10299000C260C269134482690361934224BF436ADF
:1029A000036100238362036B03B118477047000083
:1029B00070B5202304460E4683F31188856A35B925
:1029C0001146FFF7C7FF10B185F3118870BDA36AE8
:1029D0001E70A36AE26A01339342A36204D3E169E1
:1029E00020460439FFF7D0FF002080F3118870BD26
:1029F0002DE9F74F1F4604460D469146202383F3E9
:102A000011884FF080480026D8F82430FB18009336
:102A100007F1FF3AB346A36AABB91AF1030F06D91F
:102A200039462046FFF796FF68B1002305E0D8F845
:102A30002410009A511A8F42F3D283F31188304642
:102A400003B0BDE8F08FA06AE36AA9EB06021B1A87
:102A5000934228BF1346402B1CD905F1400355F87B
:102A6000042B40F8042B9D42F9D1A36A4033A362A2
:102A70004036A26AE36A9A4204D3E16920460439E7
:102A8000FFF782FF8BF311884E45D8D2202383F3C2
:102A90001188C0E71A4629460193FEF78DF8019B7D
:102AA000A26A1A441D44A2621E44E2E70269436915
:102AB0009A4203D1C3681BB9184670470023FBE74D
:102AC000836A002BF8D0043B9B1AF5D01360C368CF
:102AD000013BC360C3691A44836902619A4224BFFF
:102AE000436A0361002383620123E5E700F06AB9CA
:102AF0004FF08043002258631A610222DA60704767
:102B00004FF080430022DA60704700004FF08043AE
:102B100058637047FEE7000010B5174CFEF734FD10
:102B2000FEF756FE802215492046FEF7DBFD012305
:102B300044F8180C0374124B124AD96821F4E0616E
:102B40000904090C0A431049DA60CA6842F080722D
:102B5000CA600E490A6842F001020A601022DA7760
:102B6000202283F82220002383F3118862B60848CC
:102B7000BDE81040FEF7D8BD84290020CC33000802
:102B800000ED00E00003FA05F0ED00E0001000E0C9
:102B9000D43300082DE9F84F1F4C4FF00008656949
:102BA00004F11407C1464FF08043266A5B6AAA68A5
:102BB0009E1B96421DD34FF0200AAA68236AD5F8BF
:102BC0000CB0134423622B68BB425F60A6EB020685
:102BD0006361C5F80C8001D1FFF792FF89F311887A
:102BE0002869D8478AF311886569AB689E42E4D2A8
:102BF000D9E76269BA420CD0916823628E1B966055
:102C0000A86802282CBF1818981CBDE8F84FFFF7D9
:102C10007DBFBDE8F88F00BF5C290020034B5968D9
:102C20005A68521A9042FBD8704700BF001000E06B
:102C30004B6843608B688360CB68C3600B694361FA
:102C40004B6903628B6943620B6803607047000045
:102C500008B5224B22481A6940F2FF110A431A6153
:102C60001A6922F4FF7222F001021A611A691A6BC2
:102C70000A431A631A6D0A431A651A4A1B6D1146F4
:102C8000FFF7D6FF184802F11C01FFF7D1FF1748E4
:102C900002F13801FFF7CCFF154802F15401FFF7AC
:102CA000C7FF144802F17001FFF7C2FF124802F19A
:102CB0008C01FFF7BDFF114802F1A801FFF7B8FF33
:102CC0000F4802F1C401FFF7B3FF0E4802F1E00123
:102CD000FFF7AEFFBDE8084000F0DEB80038024064
:102CE00000000240F43300080004024000080240E3
:102CF000000C024000100240001402400018024084
:102D0000001C02400020024008B500F035FAFFF731
:102D100003FFBDE80840FEF7E5BE00007047000075
:102D2000064A536823F001035360EFF309836833C5
:102D300083F30988002383F31188704730EF00E0A4
:102D400010B5202383F31188104B5B6813F40063E4
:102D500018D0F1EE103AEFF309844FF0807344F885
:102D60004C3C0B4BDB6844F8083CA4F1680383F34C
:102D70000988FEF797FC18B1064B44F8503C10BD8B
:102D8000054BFAE783F3118810BD00BF00ED00E0AA
:102D900030EF00E031030008340300084FF08043B7
:102DA00010B51A69920708D500241C61202383F30B
:102DB0001188FFF7EFFE84F31188BDE81040FFF79C
:102DC000BFBF0000104B1A6C42F001021A641A6E69
:102DD00042F001021A660D4A1B6E936843F001032C
:102DE00093604FF0804353229A624FF0FF32DA62D1
:102DF00000229A615A63DA605A6001225A610821FE
:102E00001A601C20FFF768BC00380240002004E074
:102E10001F4B1A696FEAC2526FEAD2521A611A69DD
:102E2000C2F308021A614FF0FF301A695A695861FB
:102E300000215A6959615A691A6A62F080521A620D
:102E40001A6A02F080521A621A6A5A6A58625A6AF8
:102E500059625A6A1A6C42F080521A641A6E42F031
:102E600080521A661A6E0B4A106840F48070106027
:102E7000186F00F44070B0F5007F1EBF4FF4803033
:102E800018671967536823F40073536000F054B94E
:102E90000038024000700040304B4FF080521A64FE
:102EA0002F4A4FF4404111601A6842F001021A6043
:102EB0001A689207FCD59A6822F003029A60274BA1
:102EC00019469A6812F00C02FBD1186800F0F9005C
:102ED00018609A601A6842F480321A600B689B038B
:102EE000FCD54B6F43F001034B671C4B5A6F9007A7
:102EF000FCD51C4A5A601A6842F080721A60184A5F
:102F000053685904FCD5154B1A689201FCD5164A32
:102F10009A60164B1A68164B9A42164B1BD1164AEA
:102F20001168164A914216D140F205121A600B4BF5
:102F30009A6842F002029A609A6802F00C02082A2B
:102F4000FAD15A6C42F480425A645A6E42F480427A
:102F50005A665B6E704740F20572E7E70038024040
:102F6000007000400854400700948838002004E0B6
:102F700011640020003C024000ED00E041C20F411E
:102F8000084A08B5536911680B4003F00103536107
:102F900023B1054A13680BB150689847BDE8084053
:102FA000FFF7CEBE003C014068330020084A08B558
:102FB000536911680B4003F00203536123B1054AC2
:102FC00093680BB1D0689847BDE80840FFF7B8BEDA
:102FD000003C014068330020084A08B55369116875
:102FE0000B4003F00403536123B1054A13690BB18D
:102FF00050699847BDE80840FFF7A2BE003C014079
:1030000068330020084A08B5536911680B4003F083
:103010000803536123B1054A93690BB1D0699847FE
:10302000BDE80840FFF78CBE003C0140683300203B
:10303000084A08B5536911680B4003F01003536147
:1030400023B1054A136A0BB1506A9847BDE808409E
:10305000FFF776BE003C014068330020174B10B5E7
:103060005C691A68144004F478725A61A30604D5A6
:10307000134A936A0BB1D06A9847600604D5104A88
:10308000136B0BB1506B9847210604D50C4A936B18
:103090000BB1D06B9847E20504D5094A136C0BB10C
:1030A000506C9847A30504D5054A936C0BB1D06CBE
:1030B0009847BDE81040FFF743BE00BF003C014009
:1030C000683300201A4B10B55C691A68144004F488
:1030D0007C425A61620504D5164A136D0BB1506DDE
:1030E0009847230504D5134A936D0BB1D06D9847CB
:1030F000E00404D50F4A136E0BB1506E9847A1043B
:1031000004D50C4A936E0BB1D06E9847620404D577
:10311000084A136F0BB1506F9847230404D5054A32
:10312000936F0BB1D06F9847BDE81040FFF708BE12
:10313000003C014068330020062108B50846FFF72F
:10314000CBFA06210720FFF7C7FA06210820FFF770
:10315000C3FA06210920FFF7BFFA06210A20FFF76C
:10316000BBFA06211720FFF7B7FA06212820BDE891
:103170000840FFF7B1BA000008B5FFF749FE00F0BC
:103180000BF8FDF75FFFFDF739FEFFF7C7FDBDE860
:103190000840FFF7ABBC0000002304491A465A5010
:1031A000C8180833802B4260F9D17047683300207B
:1031B000034611F8012B03F8012B002AF9D17047BF
:1031C000121012131211000053544D3332463F3F78
:1031D0003F00000000000000C83100083F00000070
:1031E00013040000043200083F000000190400002E
:1031F0000E3200083F0000002104000018320008D1
:103200003F00000053544D3332463430780053545D
:103210004D3332463432780053544D3332463434D1
:103220003658580000000000750D0008610D0008B8
:103230009D0D0008890D0008950D0008810D0008FE
:103240006D0D0008590D0008F90D00080000000080
:10325000010000000000000002000000000000006B
:10326000950F0008FD0F000840004000342E00209C
:10327000442E0020020000000000000003000000B7
:1032800000000000411000080000000010000000D5
:10329000542E00200000000001000000000000008B
:1032A000F83000200101020025424F415244250020
:1032B0002553455249414C250048656C696F537050
:1032C00072696E6700303132333435363738394100
:1032D00042434445460000004172647550696C6F7A
:1032E000740025424F415244252D424C00000000FD
:1032F000851A0008ED180008010F0008691A000877
:10330000430000000833000809024300020100C026
:103310003209040000010202010005240010010529
:10332000240100010424020205240600010705828D
:10333000030800FF09040100020A0000000705015C
:10334000024000000705810240000000120000005A
:10335000543300081201100102000040830440575A
:103360000002010203010000040309040040000000
:10337000004000000040000000400000000001008C
:103380000000020000000200000002000000020035
:103390000000020000000200000002000000000027
:1033A0008911000869140008151500084000400044
:1033B0005831002058310020010000006831002001
:1033C0008000000040010000030000006D61696E94
:1033D00000000000EC33000870310020683300204A
:1033E00001000000152B00080000000069646C65F6
:1033F000000000000001800200000000AAAAAAAAA2
:1034000000000000EFFF00000000000000A00A0024
:103410000040000000000000AAAAAAAA00000000C4
:103420007FFF00000000000000000000000000001E
:1034300000000000AAAAAAAA00000000FFFF0000E6
:10344000000000000000000000000000000000007C
:10345000AAAAAAAA00000000FFFF000000000000C6
:10346000000000000000000000000000AAAAAAAAB4
:1034700000000000FFFF000000000000000000004E
:103480000000000000000000AAAAAAAA0000000094
:10349000FFFF00000000000000000000000000002E
:1034A00000000000AAAAAAAA00000000FFFF000076
:1034B000000000000000000000000000000000000C
:1034C0000A000000000000000300000000000000EF
:1034D00000000000000000000000000000000000EC
:1034E00000000000000000000000000000000000DC
:1034F000FF00960000000008040000006833000888
:1035000000000000000000000000000000000000BB
:083510000000000000000000B3
:00000001FF
