:020000040800F2
:100000000006002039050008CD3000084D300008FA
:10001000A53000084D300008793000083B05000885
:100020003B0500083B0500083B050008813E000831
:100030003B0500083B0500083B0500083B050008A0
:100040003B0500083B0500083B0500083B05000890
:100050003B0500083B050008516300087D6300086C
:10006000A9630008D5630008016400083B05000887
:100070003B0500083B0500083B0500083B05000860
:100080003B0500083B0500083B0500083128000837
:1000900041280008552800083B0500082D64000889
:1000A0003B0500083B0500083B0500083B05000830
:1000B0003B0500083B0500083B0500083B05000820
:1000C0003B0500083B0500083B0500083B05000810
:1000D0003B0500083B0500083B0500083B05000800
:1000E000956400083B0500083B0500083B05000837
:1000F0003B0500083B0500083B0500083B050008E0
:100100003B0500083B050008BD6100083B050008F1
:100110003B0500083B0500083B0500083B050008BF
:100120003B0500083B0500083B0500083B050008AF
:100130003B0500083B0500083B050008692800084E
:10014000792800088D2800083B050008C5590008DB
:100150003B0500083B0500083B0500083B0500087F
:100160003B0500083B0500083B0500083B0500086F
:100170003B0500083B0500083B0500083B0500085F
:100180003B0500083B0500083B0500083B0500084F
:100190003B0500083B0500083B0500083B0500083F
:1001A0003B0500083B0500083B0500083B0500082F
:1001B0003B0500083B0500083B0500083B0500081F
:1001C0003B0500083B0500083B0500083B0500080F
:1001D0003B0500083B0500083B0500083B050008FF
:1001E00015190008D5290008652B00081D2C0008EA
:1001F000412C000800000000D0400B1CD1409C4660
:10020000203AD34018435242634693401843704704
:100210009140031C90409C46203A9340194352421F
:100220006346D3401943704753B94AB9002908BF00
:1002300000281CBF4FF0FF314FF0FF3000F07AB9BB
:10024000ADF1080C6DE904CE00F006F8DDF804E02D
:10025000DDE9022304B070472DE9F0478C460D46D6
:100260000446089E002B51D18A4217466DD9B2FA36
:1002700082FEBEF1000F0BD0CEF1200C01FA0EF57C
:1002800020FA0CFC02FA0EF74CEA050C00FA0EF408
:100290004FEA174A250CBCFBFAF81FFA87F90AFB4C
:1002A00018CC45EA0C4508FB09F3AB420AD9ED1915
:1002B00008F1FF3280F02381AB4240F22081A8F1A7
:1002C00002083D44ED1AA4B2B5FBFAF00AFB105542
:1002D00044EA054400FB09F9A14509D9E41900F1F4
:1002E000FF3380F00A81A14540F2078102383C4487
:1002F000A4EB090440EA08400021002E61D024FA52
:100300000EF4002334607360BDE8F0878B4207D998
:10031000002E54D0002186E821000846BDE8F08771
:10032000B3FA83F1002940F08E80AB4202D38242BF
:1003300000F2FA80841A65EB03050120AC46002E1A
:100340003FD086E81010BDE8F08712B90127B7FB4F
:10035000F2F7B7FA87FEBEF1000F34D1EB1B3A0C6F
:100360001FFA87FC0121B3FBF2F8250C02FB1833BE
:1003700045EA03450CFB08F3AB4207D9ED1908F138
:10038000FF3002D2AB4200F2D1808046ED1AA3B218
:10039000B5FBF2F002FB105543EA05440CFB00FCF0
:1003A000A44507D9E41900F1FF3302D2A44500F2B5
:1003B000B8801846A4EB0C0440EA08409DE731469B
:1003C0003046BDE8F087CEF1200405FA0EF307FAB7
:1003D0000EF720FA04F83A0C25FA04F448EA030868
:1003E000B4FBF2F14FEA184502FB11441FFA87FCF7
:1003F00045EA044501FB0CF3AB4200FA0EF409D9BF
:10040000ED1901F1FF3080F08A80AB4240F2878025
:1004100002393D44EB1A1FFA88F5B3FBF2F002FBF8
:10042000103345EA034500FB0CF3AB4207D9ED1945
:1004300000F1FF386FD2AB426DD902383D44EB1A60
:1004400040EA01418FE7C1F1200722FA07F88B400B
:1004500005FA01F448EA030320FA07FE4FEA134CB9
:10046000FD404EEA040EB5FBFCF94FEA1E440CFBBE
:1004700019551FFA83F844EA054509FB08F4AC4214
:1004800002FA01F200FA01FA08D9ED1809F1FF3079
:1004900043D2AC4241D9A9F102091D442D1B1FFAD8
:1004A0008EFEB5FBFCF00CFB10554EEA054400FB3C
:1004B00008F8A04507D9E41800F1FF3529D2A04576
:1004C00027D902381C4440EA0940A4EB0804A0FBE9
:1004D00002894C45C6464D4615D312D056B1BAEBEB
:1004E0000E0364EB050404FA07F7CB401F43CC402E
:1004F000376074600021BDE8F0871846F8E6904642
:10050000E0E6C245EAD2B8EB020E69EB030501381A
:10051000E4E72846D7E7404691E78146BEE7014633
:1005200078E702383C4445E7084608E7A8F10208A6
:100530003D442BE7704700BF02E000F000F8FEE703
:1005400072B63A4880F30888394880F309883948F8
:100550004EF60851CEF20001086040F20000CCF2E5
:1005600000004EF63471CEF200010860BFF34F8FE9
:10057000BFF36F8F40F20000C0F2F0004EF68851DA
:10058000CEF200010860BFF34F8FBFF36F8F4FF0C3
:100590000000E1EE100A4EF63C71CEF20001086058
:1005A000062080F31488BFF36F8F04F0E3FE04F09D
:1005B000C3FE05F05BFD4FF055301F491B4A9142C9
:1005C0003CBF41F8040BFAE71C49194A91423CBF71
:1005D00041F8040BFAE71A491A4A1B4B9A423EBFEC
:1005E00051F8040B42F8040BF8E700201749184AA9
:1005F00091423CBF41F8040BFAE704F0A1FE05F07C
:1006000091FD144C144DAC4203DA54F8041B884796
:10061000F9E700F041F8114C114DAC4203DA54F8FF
:10062000041B8847F9E704F089BE0000000600209B
:10063000002200200000000800000020000600202A
:10064000906D000800220020AC220020B022002083
:10065000C4610020E0010008F4010008F401000872
:10066000F40100082DE9F04F2DED108AC1F80CD0EF
:10067000C3689D46BDEC108ABDE8F08F002383F36C
:1006800011882846A047002004F0FEF9FEE704F098
:100690004FF900DFFEE70000F8B501F079FA30B15C
:1006A000284B00220F211A725A729972DA7204F0E2
:1006B000E9FD064604F03AFE044678BB224B9E4212
:1006C0002CD001339E422CD0204B26F0FF029A42C0
:1006D0002AD1F0B200F068FD274642F2107500F012
:1006E00077FF00F067FD18B334B1194B9E4203D079
:1006F00004F014FE00252F46002004F0CDFD0FB1BC
:1007000000F070F801F024FB00F064FF01F06EF9D6
:10071000284600F0C9F800F065F8F9E727460025FB
:10072000DDE705460127DAE7074641F28835D6E7D7
:1007300014B1074B9E42DBD1002004F0ADFD002533
:10074000E0E700BF00220020010007B0000008B071
:10075000263A09B008B501F01BF9A0F12003584270
:10076000584108BD07B5054B02211B88ADF8043080
:1007700001A801F02BF903B05DF804FB84680008C0
:1007800010B5202383F311881248C3680BB104F01D
:1007900003FA0023104A0F484FF47A7104F0BEF9AF
:1007A000002383F311880D4C236813B12368013BA8
:1007B0002360636813B16368013B6360084B1B7877
:1007C00033B9636823B9022001F028FA3223636049
:1007D00010BD00BFB022002081070008CC230020FC
:1007E000C422002010B5274B274953F8042F0132AB
:1007F00000D110BD8B42F8D1244C254B22689A427F
:100800003ED9244B9B6803F1006303F580339A4281
:1008100036D204F057FD04F069FD002001F000F924
:100820001D4B0220187001F0EBF91C4B1A6C0022D2
:100830001A64196E1A66196E596C5A64596E5A66A2
:100840005A6E5A6942F080025A615A6922F0800257
:100850005A615A691A6942F000521A611A6922F003
:1008600000521A611B6972B60D4A0E4B13601B6869
:100870002268202181F311889D4683F30888104760
:1008800010BD00BFFCFF00081C00010804000108A7
:10089000FFFF000800220020C42200200038024090
:1008A00008ED00E0000001082DE9F04F99B0BB4DC4
:1008B00000902022FF2110A8AC6801F0EBF9B84AA3
:1008C00001951378A3B9B7480121C36011702023A3
:1008D00083F31188C3680BB104F05EF90023B24AB8
:1008E000B0484FF47A7104F019F9002383F31188AA
:1008F000009BAE4A03B11360AD4B009D02930026EE
:100900001E705660B2463746B146012001F078F9B4
:10091000002D00F02B82A54B1B68002B40F0268297
:1009200019B0BDE8F08F0220FFF714FF002840F057
:100930001682009B002E08BF1D469E4B02211B887D
:10094000ADF82C300BA801F041F8DEE74FF47A70D7
:1009500001F01EF8B0F10008EBDB0220FFF7FAFE11
:100960000028E6D008F1FF38B8F1050F00F2F98150
:10097000DFE808F0030B0E11143718A8052340F820
:10098000343D042101F022F817E004218348F9E7FF
:1009900004218948F6E704218848F3E74FF01C0951
:1009A000484601F03FF809F104090B9004210BA817
:1009B00001F00CF8B9F12C0FF2D1012303FA08F879
:1009C00048EA0A0A5FFA8AFA4FF0000901F0B6F91C
:1009D00027B10AF00B030B2B08BF0025FFF7C2FE5F
:1009E00093E704217648CDE7002FA2D00AF00B034D
:1009F0000B2B9ED10220FFF7ADFE8046002898D039
:100A000001206B4E01F00CF80220307001F0F8F874
:100A100000275FFA87FB584601F012F8054688B1B7
:100A2000584601F01DF801370028F2D1464600254E
:100A3000644B02211B88ADF82C300BA800F0C6FFD8
:100A4000474662E701230220337001F0CBF82C46C1
:100A5000019B9B689C4206D2204600F0E3FF0130D8
:100A6000E4D10434F4E7029B00241C704F4B46464B
:100A70005C6047462546A9E7002F3FF45AAF0AF0CD
:100A80000B030B2B7FF455AF029B0220187001F073
:100A9000B7F8322000F07CFFB0F1000BFFF649AF51
:100AA0001BF003087FF445AF019B996804EB0B0230
:100AB0008A423FF63EAFBBF5807F3FF63AAF424AEF
:100AC0000392D8450FDA4FF47A7000F061FF04907A
:100AD00004990029FFF62DAF039A049908F8021033
:100AE00008F10108ECE7C820FFF734FE8046002833
:100AF0003FF41FAF1F2C11D8C4F120075F4528BF5A
:100B00005F4610AB24F003003A462F49184401F029
:100B100097F83A46FF212C4801F0BCF84FEAAB03A6
:100B2000DAB229490393204601F0BCF807460028B1
:100B30003FF47EAF039B04EB830447E70220FFF7FB
:100B400009FE00283FF4F5AE00F0B0FF00283FF4A6
:100B5000F0AE4FF000084346019A9268904535D2B6
:100B6000B8F11F0F12D8109A01320FD028F00302EB
:100B700018A90A4452F8202C0B92184604220BA9FB
:100B800002F0B0FA08F104080346E5E74046039393
:100B900000F048FF039B0B90EFE700BF002200200E
:100BA000C8230020B022002081070008CC230020A9
:100BB000C4220020866800080422002008220020A9
:100BC0000C22002088680008C822002018A80421F0
:100BD00040F84C3D00F0FAFEF8E618A8002340F873
:100BE000343D642100F0E8FE00287FF4A2AE02202C
:100BF000FFF7B0FD00283FF49CAE0B9800F042FFD9
:100C000018AB43F8480D04211846E3E718A8002361
:100C100040F8343D642100F0CFFE00287FF489AE17
:100C20000220FFF797FD00283FF483AE0B9800F0F9
:100C300037FF18AB43F8440DE5E70220FFF78AFDC4
:100C400000283FF476AE00F041FF18AB43F8400DAA
:100C5000D9E70220FFF77EFD00283FF46AAE0BA91A
:100C6000142000F039FF804618A8042140F83C8D7C
:100C700000F0ACFE41460BA8ACE7322000F088FE45
:100C8000B0F10008FFF655AE18F0030F7FF451AE37
:100C9000019A926808EB090393423FF64AAE02209C
:100CA000FFF758FD00283FF444AE28F00308C8447D
:100CB000C1453FF48BAE484600F0B4FE04210A90D3
:100CC0000AA800F083FE09F10409F1E74FF47A70F5
:100CD000FFF740FD00283FF42CAE00F0E7FE0028AF
:100CE00042D0109B01330BD0082210A9002000F045
:100CF000D9FF002838D02022FF2110A800F0CAFF19
:100D0000FFF730FD3C4803F0C5FE09E6002F3FF435
:100D100010AE0AF00B030B2B7FF40BAE18A80023C8
:100D200040F8343D642100F047FE804600287FF4FF
:100D300000AE0220FFF70EFD00283FF4FAAD03904D
:100D4000FFF710FD41F2883003F0A4FE0B9801F08C
:100D500025F800F0F3FF039B45461F46D5E50746FF
:100D600034E64FF00009E4E5B84661E6002000F003
:100D70000FFE0490049B002B01DA00F07BFC049B27
:100D8000002BFFF6C5AD012000F02CFF049B213B9A
:100D9000162B3FF6BAAD01A252F823F0270900083E
:100DA0004D090008E90900080B0900080B090008B3
:100DB0000B090008790A00087B0C00083D0B0008AD
:100DC000DB0B00080D0C00083B0C00080B090008A9
:100DD000530C00080B090008CD0C0008CD090008D1
:100DE0000B0900080D0D000833090008CD090008A3
:100DF0000B090008DB0B0008A086010009490B68FD
:100E000049F269009AB21B0C00FB0233064A0B60E0
:100E1000136844F2506198B21B0C01FB0030106063
:100E200080B27047142200201022002010B500214B
:100E30001022044600F02EFF034B03CB20606160BC
:100E40001868A06010BD00BF107AFF1FF0B51F4CDE
:100E5000BBB002F043F9A368C31AF92B30D906AD31
:100E60002346A06028220021284602F0B9FD04F1A3
:100E70000E0000F007FF0023C6B2591D5F1CDBB255
:100E8000B3424FEAC10107DA0E3323440822284651
:100E900002F0A6FD3B46F0E7012303930823207BE5
:100EA00002930B4B0193C1F3CF01302305910093C3
:100EB0000146049503A3D3E90023064802F0CAFBC8
:100EC0003BB0F0BD78F6339F93CACD8DA05500207E
:100ED000AD550020EC3300202DE9F0410E4CDFF839
:100EE00040800E4FA4F5865646F8088C14F8703CE6
:100EF00043B954F8745C2DB1284601F067FF2846C9
:100F000005F05EFBA4F18800A6F1080401F05EFF85
:100F1000A742E7D1BDE8F081A055002010340020A1
:100F2000E869000870B50D4614461E4602F03AFB0B
:100F300050B9022E0ED1012C0CD112A3D3E90023FB
:100F4000C5E90023012070BD052C14D003D8012C65
:100F500009D0002070BD282C09D0302CF9D10BA36A
:100F6000D3E90023ECE70BA3D3E90023E8E70BA3C5
:100F7000D3E90023E4E70BA3D3E90023E0E700BFB4
:100F8000AFF30080401DA12026812A0B78F6339F05
:100F900093CACD8D9E6AC421818A46EE2641727223
:100FA000DF25D7B7F017304A39059E5638B50446C5
:100FB0000D46034620222846002102F011FD227929
:100FC0002346032A28BF032203F8042F28460222BF
:100FD000202102F005FD62792346072A28BF072257
:100FE00003F8052F28460322222102F0F9FCA279FA
:100FF0002346072A28BF072203F8062F2846032284
:10100000252102F0EDFC284604F1080310222821D6
:1010100002F0E6FC382038BD2DE9F04FFFB01FAEDE
:101020000CAD40F2791280460F463046002100F0A8
:1010300031FE48220021284600F02CFE02F04EF836
:10104000574B4FF47A72B0FBF2F0186093E8070048
:10105000002485E8070001230DF152002B746C7405
:10106000FFF7E4FE092385F8213006AB18464D4909
:1010700085F8204005F0FAFB162228643146284600
:1010800085F83C20FFF792FF10AB0446014608228A
:10109000304602F0A5FC0822A1180DF141033046AC
:1010A00002F09EFC0DF14203082204F110013046CB
:1010B00002F096FC11AB202204F11801304602F038
:1010C0008FFC12AB402204F13801304602F088FC5C
:1010D00014AB082204F17801304602F081FC0DF1D6
:1010E0005103082204F18001304602F079FC04F13A
:1010F000880A0DF1520904F5847B4B4651460822BB
:1011000030460AF1080A02F06BFCD34509F10109E7
:10111000F3D119AB08225946304602F061FC04F5C0
:1011200088744FF0000995F834304B4510D84FF0D3
:10113000000995F83C304B4515D92B6C21464B44A2
:101140000822304602F04CFC083409F10109F0E7AE
:10115000AB6B21464B440822304602F041FC083478
:1011600009F10109DFE7E31DC3F3CF03F97E05931E
:10117000002304960393BB7E029319370123009347
:10118000019705A3D3E90023404602F063FA7FB03C
:10119000BDE8F08FAFF300809E6AC421818A46EEDD
:1011A000D423002028690008014B1870704700BF45
:1011B000E0230020F0B5324B1C7B85B034B1314BBD
:1011C0000E221A810024204605B0F0BD2E4A106878
:1011D000516802AB03C308230DEB03022B492C48D3
:1011E00005F026FA054630B9264B2A480A221A810C
:1011F00001F056FBE6E70169B1F5F81F06D9214B6E
:1012000025480B221A8101F04BFBDCE7438B092BAD
:1012100008D01C4A21480C2111810922194601F0ED
:101220003FFBD0E71E4A024402F11003994204D268
:10123000144B1C4810221A81E5E710398E1A2046FB
:10124000134901F04FFF3246074605F118012046C9
:1012500001F048FFAB689F4202D1EB6898420AD088
:10126000084B0D221A8100903B46EA68A9680E4897
:1012700001F016FBA6E70D4801F012FB0124A2E7DE
:10128000A0550020D42300208C680008DCFF1E003D
:101290000000010894680008A0680008B26800080F
:1012A0000800FFF7D0680008ED680008166900081C
:1012B0002DE9F04FADB006AF80460C4602F072F952
:1012C000064600285BD1237E022B19D1E38A012B2D
:1012D00016D101F003FF0546FFF790FD4FF4C873E8
:1012E000B54AB0FBF3F105F5167501FB1300E37E7B
:1012F00015FA80F01060914633B9B04B00221A7095
:101300009C37BD46BDE8F08FA38AF5B2013BAB42E6
:1013100006F101060CD93B1D691CC9001D4400954E
:101320000023082201F0F801204602F02BFAEBE737
:1013300007F11400FFF77AFD2A4607F11401381D62
:1013400005F066F903460028D7D10F2D08D89B4B2E
:101350001D70D9F80030A3F51673C9F80030CFE737
:1013600007F19802014602F8950D204600920722E7
:1013700002F008FAF978404602F00CF9C0E7E38A77
:10138000052B00F0068106D8012BB9D12146404635
:10139000FFF742FEB4E7282B3DD0302BB0D1637E5F
:1013A000874D01336A7BDBB29342E94640F0EF8020
:1013B000E27E2B7B9A4240F0EA8007F198030026F8
:1013C00023F8846D1022009331460123204602F059
:1013D000D9F9B4F81480A8F102081FFA88F808F1C6
:1013E000030323F003030A3323F00703ADEB030DDC
:1013F0000DF1180A33469BB2B11C98454FEAC10162
:1014000006F101066CDD53440093082200232046B8
:1014100002F0B8F9EEE7A38A013B9BB2C92B3FF675
:101420006FAF674E357B4DBB06F10C03009308226E
:101430002B462946204602F0A5F9A38A05F10109A9
:10144000013BEDB29D424FEAC90109DA0E35354440
:10145000009500230822204602F094F94D46ECE75F
:1014600000230022C6E900230023B36086F8D730AA
:10147000C6F8D830337B0BB9E37E3373002507F110
:1014800014063B1D0822294630467D60BD60FD6084
:1014900002F0A6FA3B7A05F10109AB424FEAC90115
:1014A00007D9FB6808222B44304602F099FA4D46D2
:1014B000F0E7C1F3CF010023E07E0591049603938A
:1014C000A37E02931934282301460093019438A384
:1014D000D3E90023404602F0BDF8FFF7B7FC0FE761
:1014E00095F8D70000F0ACFAD5F8D83006461BB90D
:1014F00095F8D70000F0B4FAD5F8D83043449E42AE
:1015000004D295F8D700013000F0AAFA4FEA980B00
:101510000024A0B2584504F1010408DA2B688000C9
:101520000AEB00010122184400F0BCFBF1E7D5E909
:101530000023D5F8D84095F8D70012EB080243F104
:1015400000034444C5E90023C5F8D84000F078FA08
:10155000844209D395F8D730013385F8D730D5F8D0
:10156000D8309E1BC5F8D860B8F1FF0F08DC002307
:101570002B7300F09BFAFFF71DFE08B1FFF732F95D
:101580002B68104A9B0A013313810023AB60CD46C0
:10159000B6E6BFF34F8F0C490C4BCA6802F4E06209
:1015A0001343CB60BFF34F8F00BFFDE7AFF3008065
:1015B00026417272DF25D7B7E8330020E5330020DB
:1015C000A0550020D423002000ED00E00400FA051F
:1015D0007047000037B51D4D1D4C1E4902230122E6
:1015E0002846637101F012F841F2C8030122EB585A
:1015F00018491B681848984700230193174B00931C
:101600001749184B18484FF4805201F09BFF174BB5
:101610001978254611B1144801F0BCFF01F05EFDB8
:101620000446FFF7EBFB4FF4C87304F51674B0FBE8
:10163000F3F202FB13000E4B14FA80F0186003F073
:1016400075FE08B10F232B8103B030BD103400208C
:10165000D423002040420F00D8440020250F00086A
:10166000E4230020B1120008EC330020E023002026
:10167000E83300202DE9F04F93B0DFF87492994DD4
:10168000484602F031F80246002840D000240E946B
:101690008DF844400F941094037B8DF8443001463C
:1016A0000FAB51F8040F496803C3136812AF43F03E
:1016B000004347F8103D2646A0462B59D3F80CA00E
:1016C00001F00EFD884ACDF80080121805EB040BDE
:1016D0004FF000034B4158463946D04704F5865435
:1016E000083442F290130028C8BF46F001069C421D
:1016F000E3D17E4C2EB1484601F0FAFF84F8008019
:10170000BEE72378072B00F3DF80013323700BAF94
:101710000023DFF8FC910A938DF834300B937B6043
:101720000024264612AA01234FF0000800200021C1
:101730008DF81C3002F82B8D2B59CDE9000105EBFB
:10174000040BD3F804A007A943465846D0479DF898
:101750001CA0BAF1000F24D0D9F8143083F48073A0
:10176000C9F81430102241460EA800F093FA2B5904
:1017700008AA1E690AA90DF11E035846B04797E84A
:1017800003000FAB83E803009DF834308DF844303C
:101790000A9B0E930EA9DDE90823554802F068F96B
:1017A000564604F58654083442F290139C42B9D14F
:1017B000002EB5D14E4801F0F5FE00283FD14D4C2A
:1017C00001F08CFC2368984239D301F087FC054670
:1017D000FFF714FB4FF4C87305F51675B0FBF3F271
:1017E00002FB130015FA80F0434D8DF828602E7827
:1017F000206016B901238DF82830C6F11004E4B238
:101800000EA8FFF713FB062C28BF06240EAB2246BA
:1018100099190DF1290000F013FA0AAB039318236C
:101820000293364B0193013401230093049429A3BE
:10183000D3E900232E4801F0B7FE00232B7001F0FE
:101840004DFC2F4A2F4C1368C31AB3F57A7F30D35F
:10185000106001F045FC02460B46254801F052FF9E
:10186000234801F09FFE20B3237B274E002B14BF9B
:1018700003230223737101F031FC0EAD4FF47A7330
:101880002946B0FBF3F030603046FFF78FFB18239A
:10189000073002931D4B0193C0F3CF0040F2551364
:1018A0000490009303950DA3D3E90023104801F0A1
:1018B0007BFE237B0BB1FFF7C9FA237B002B7FF460
:1018C000DCAE13B0BDE8F08F094801F011FF1EE750
:1018D000AFF30080401DA12026812A0BF1C6A7C1CD
:1018E000D068080F1034002040420F0085560020B9
:1018F000EC330020E8330020E5330020E4330020FF
:1019000080560020A0550020D423002084560020BB
:101910000010024010B5084C204600F09BFB04F577
:101920008650083000F096FB044A05490020BDE8C7
:10193000104004F037BE00BF103400206057002074
:10194000D90E000870B50F4B0C4619780131C9B299
:10195000012906460FD80C4803681D6A4FF47A73B4
:10196000534331462246A847844204D1074B002204
:101970001A70012070BD4FF4FA7003F08BF800204C
:1019800070BD00BF1822002020590020B45600204E
:1019900007B502AB002203F8012D012102461846CB
:1019A000FFF7D0FF20B19DF8070003B05DF804FBFE
:1019B0004FF0FF30F9E700000A4608B50421FFF7B1
:1019C000C1FF80F00100C0B2404208BD30B4054CF8
:1019D0002368DD69044B0A46AC460146204630BC0C
:1019E000604700BF20590020A086010070B503F0B9
:1019F00001FB094C094E2080002530682388834272
:101A000008D903F0F1FA336805440133B5F5803F96
:101A10003360F2D370BD00BFB65600208856002058
:101A200003F09EBB00F1006000F580300068704755
:101A300000F10060920000F5803003F029BB000047
:101A4000054B1A68054B1B889B1A834202D9104428
:101A500003F0CABA0020704788560020B65600200E
:101A600038B5074D04462868204403F0C5FA28B964
:101A700028682044BDE8384003F0D6BA38BD00BF1E
:101A80008856002010F0030308D1B0F5047F05D27A
:101A900000F10050A0F50840006870470020704732
:101AA000014BC058704700BF107AFF1F064991F8DC
:101AB000243033B100230822086A81F82430FFF76C
:101AC000B7BF0120704700BF8C560020014B18683B
:101AD000704700BF002004E070B52A4B1C68C4F3B7
:101AE0000B03240C63B140F21342934231D040F215
:101AF000194293422FD040F2214293422DD1032329
:101B0000214A0C2505FB03235D6893F9082042F266
:101B100001039C4224D0B4F5805F23D041F201033D
:101B20009C4221D041F203039C421FD041F20703A3
:101B30009C4208BF3122441E0C44013D0B46A34287
:101B40001ED215F9016F581C96B1034600F8016CBE
:101B5000F5E70123D4E70223D2E73F220B4DD6E776
:101B60003322E3E74122E1E75A22E4E75922E2E7A0
:101B70002C2584421D7001D9981C5A70401A70BDE2
:101B80001846FBE7002004E060690008406900088F
:101B9000124B5A8842F201018A4293B214D0B3F533
:101BA000805F13D041F20102934211D041F203024F
:101BB00093420FD041F2070293420DD10423084A09
:101BC00002EB8303D87870470023F8E70123F6E798
:101BD0000223F4E70323F2E700207047002004E02B
:101BE0004C690008022804D14FF48072034B9A61BB
:101BF00070470128FCD14FF48062F7E700100240E3
:101C0000022804D14FF08072034B9A61704701287B
:101C1000FCD14FF08062F7E700100240022805D1A6
:101C2000064A536983F48073536170470128FCD1DD
:101C3000024A536983F48063F6E700BF0010024054
:101C400010B50023934203D0CC5CC4540133F9E7B0
:101C500010BD000030B5441E14F9010F0B4660B1F1
:101C600093F90050854201F1010106D11AB993F9A7
:101C70000020801A30BD013AEEE7002AF7D1104665
:101C800030BD000002460346981A13F9011B0029D3
:101C9000FAD1704702440346934202D003F8011B75
:101CA000FAE770472DE9F047234C94F824300546B5
:101CB0008846174683BB2E46DFF87C90C7B394F85E
:101CC00024302BB92022FF2148462662FFF7E2FF8D
:101CD00094F82400C0F10805BD4228BF3D465FFAD4
:101CE00085FAAD0041462A4604EB8000FFF7A8FFC5
:101CF00094F82430A7EB0A079A445FFA8AFABAF1FB
:101D0000080F2E44A844FFB284F824A0D6D1FFF7D0
:101D1000CDFE0028D2D108E0266A06EB8306B04249
:101D2000CAD0FFF7C3FE0028C5D10020BDE8F08768
:101D30000120BDE8F08700BF8C560020024B1A78C6
:101D4000024B1A70704700BFB456002018220020C2
:101D500038B50E4D0E4C284602F082F92146284631
:101D600002F0AAF924680B48626D936B23F40023F8
:101D7000936302F08FFE0849204602F0A9FA626DD3
:101D8000936B43F40023936338BD00BF20590020B8
:101D9000346B000840420F005C6B00087047000085
:101DA000202383F3118862B670470000002383F379
:101DB000118862B67047000001207047002070470C
:101DC00000207047704700007047000000207047F7
:101DD0000E20704700F586500078C0F34000704731
:101DE000F8B51F460B68BDF8185013F0005416469E
:101DF00069D10B7B082B66DCFFF7D2FFC2689368C2
:101E00005B015CD493681C0157D4936813F0805332
:101E100057D002230C6803F1180E002CB8BFE40061
:101E20004FEA0E1EB4BF44F00404640542F80E40AD
:101E30000C680FFA83FE14F0804F18BF02EB0E1CE3
:101E400002EB0E1E1EBFDCF8804144F00204CCF809
:101E500080410C7BCEF8844102EB03128C68C2F8FF
:101E60008C414C68C2F88841DEF8802142F00102C2
:101E7000CEF8802103F1830200EB4212C2E9006731
:101E800001F10C04083251F8046B42F8046BA142D2
:101E9000F9D100EB43130978117003F58353012046
:101EA0001A7F65F30002C5F3400565F341026FF345
:101EB000C3021A77FFF77AFFF8BD0123AAE723468A
:101EC000A8E71846F6E74FF0FF30F8BD08B5FFF772
:101ED00067FF41F25403C05800F082FFBDE808409C
:101EE000FFF764BF38B5044600680D4600F0A2FF56
:101EF0001F2809D920222946206801F013F8A0F1F3
:101F000020035842584138BD002038BD00220260ED
:101F1000027342608260704710B500220023C0E95E
:101F200000230023044603810C30FFF7EFFF204617
:101F300010BD00002DE9F041064688B041F254057D
:101F40000C4690461F46FFF72BFF6846FFF7E4FF5D
:101F5000705900F057FF1F2805D80020FFF726FF13
:101F600008B0BDE8F08120226946705901F062F89E
:101F70002028F2D103AA234605AD144603CCAC4277
:101F800018605960224603F10803F6D120681860F2
:101F900022791A71DDE90023C8E90023BDF8083071
:101FA0003B800120DAE70000274B2DE9F04704468B
:101FB00040F8103B8946FFF7A9FF04F12000FFF726
:101FC000ABFF04F14006354604F58257284620351C
:101FD000FFF7A2FFBD42F9D14FF4805341F248020E
:101FE0006B6000232E60A35041F24C0241F2540179
:101FF000A350601801222A7404F5865A655004F52E
:102000008355027108350AF1080A00260027984610
:1020100045E902672846FFF779FF203545F8108C1F
:102020005545F5D141F2C103B9F1010F04F8039010
:1020300002DD064801F04CF8054B53F82930E36007
:102040002046BDE8F08700BFE8690008CC690008B9
:10205000B869000810B5044B197804464A1C1A7078
:10206000FFF7A2FF204610BDC05600202DE9F04129
:1020700079B1274B274FB7FBF1F4994294BF102356
:102080000923581CB4FBF0FE00FB1E4038B1022BA4
:1020900002DC0020BDE8F081013BDBB2F1E70EF18C
:1020A000FF36B6F5806FF4D2C3EBC30C0CF103001E
:1020B000C010C5B25C1B0130E4B24FF47A7808FB63
:1020C00000F8204498FBF0F080B2B0F5617F08D9A9
:1020D0000CF1FF354FF0080C95FBFCF5EDB25B1BE6
:1020E000DCB22B1903FB0EEEB7FBFEFE7145D0D11F
:1020F000691EC9B20F29CCD8631EDBB2072BC8D822
:10210000002090701680D17013710120BDE8F0811D
:102110003F420F0080DE800270B505460E464FF448
:102120007A74EB685B6803F00103B34207D04FF4A5
:102130007A7002F0AFFC013CF3D1204670BD012063
:1021400070BD0000F0B5032989B005460C4647DC98
:1021500000F5865066010378C3F38001002908BFAB
:10216000114661F382030370AB1903F583531833EF
:102170001B79D80732D5002A32D0190723D46846F4
:10218000FFF7CAFE05EB441303F5835303F1100771
:1021900003AA083318685968144603C40833BB42BD
:1021A0002246F7D1186820601B792371DDE90E23E0
:1021B00005F58250CDE90023694601231430ADF8BE
:1021C0000830FFF78FFE354405F5835518352B7918
:1021D0001A075CBF43F008032B7101E0002AF2D11B
:1021E00009B0F0BD70B5C268936913F0700F17D0D5
:1021F00000230C4D936141F2780400EB431222441A
:1022000011794E0709D5890707D5C16855F82360AC
:102210008E60117941F0040111710133032BECD16F
:1022200070BD00BFC0690008D3B51F46C36816461D
:102230009A68D207044609D59A6801219960C2F3C9
:102240004002CDE900670021FFF77CFFE3689A6850
:10225000D1050BD59A684FF480719960C2F3402282
:10226000CDE9006701212046FFF76CFFE3689A681B
:10227000D2030BD59A684FF480319960C2F3404283
:10228000CDE9006702212046FFF75CFF204602B03F
:10229000BDE8D040FFF7A6BF0C4B10B51C56E3B20B
:1022A000012B12D800F01CFF02460B4652EA030134
:1022B00003D012F1FF3243F1FF33054951F82400F6
:1022C00018B1BDE81040FFF7AFBF10BDB4690008FA
:1022D000B8560020F8B51F4604461646C3680029C4
:1022E00066D1D86803F10C02800765D0106803EB53
:1022F000011003EB0111D0F8B05115F0040FD0F824
:10230000B05116BFED086D0D45F000452561D0F8C0
:10231000B051AD0742BF256945F080452561D0F831
:10232000B40100F00F002077D1F8B8312375D1F84F
:10233000B8311B0A6375D1F8B8311B0CA375D1F8FD
:10234000B8311B0EE375D1F8BC312376D1F8BC311E
:102350001B0A6376D1F8BC311B0CA376D1F8BC31D3
:102360001B0EE3763823136004F11C0104F1100303
:1023700004F12C0253F8040B42F8040B8B42F9D100
:102380001B78137004F5825000232385C4E9086785
:1023900004F120011430FFF7A5FD04F58652204614
:1023A000137843F004031370BDE8F840FFF71ABF39
:1023B00003F11002186997E7F8BD00000D4B70B5E6
:1023C0001C56E3B2012B0D4613D800F089FE0246DD
:1023D0000B4652EA030103D012F1FF3243F1FF33FF
:1023E000054951F8240020B12946BDE87040FFF7A7
:1023F00071BF70BDB4690008B85600202DE9F84FD0
:1024000099469046FFF7CCFC124C00F5835600230A
:1024100041F2780700EB431139440A7955070FD48C
:10242000D2060DD5D6E900ABCB4508BFC24507D2D1
:10243000C26854F8235095600A7942F004020A7188
:102440000133032B06F12006E4D1BDE8F84FFFF776
:10245000ADBC00BFC069000808B5FFF7A1FCFFF7DD
:10246000C1FEBDE80840FFF7A1BC00002DE9F04126
:10247000C3680646986800F0E050B0F1E05F0F4690
:1024800019D010B3FFF78CFC06F5835408340025EF
:1024900041F2780806EB451343441B791A070DD423
:1024A0005B070BD42146384600F06CFC30B9FFF7CF
:1024B0007DFCBDE8F0810120BDE8F0810135032DF0
:1024C00004F12004E6D10120F1E7BDE8F08100002D
:1024D00008B5FFF765FC41F25403C05800F092FCC8
:1024E000FFF764FC1F288CBF0020012008BD0000FE
:1024F000F8B51D46002313700F4606461446FFF735
:10250000E7FF80F00100387025B129463046FFF71B
:10251000ADFF2070F8BD0000F8B50D461F4604461B
:10252000164600F0DDFD2B780BB9337873B1024607
:102530000B462046FFF762FF2046FFF78DFF3B4624
:10254000324629462046FFF7D3FF01231846F8BD3F
:1025500010B5FFF725FC41F2C1032A4AC35CD35CE6
:10256000DBB1012B27D0FFF721FC00F5865423783F
:10257000DB0745D4002943D0FFF712FC41F2C10329
:10258000C35CD35C23B3012B2FD0237843F001032A
:102590002370BDE81040FFF709BC1B4B1C6C44F0D6
:1025A00000741C641C6A44F000741C621C6A24F0F1
:1025B00000741C62D7E7144B1C6C44F080641C64EC
:1025C0001C6A44F080641C621C6A24F08064F0E79A
:1025D0000221132001F0B2FC0221142001F0AEFC14
:1025E0000221152001F0AAFCCFE702213F2001F0D3
:1025F000A5FC0221402001F0A1FC02214120F1E7CD
:1026000010BD00BFB0690008003802402DE9F0435A
:1026100041F2C10389B0C35C022B044688461746C9
:1026200000F30281814D55F823200AB945F82300B3
:102630002E68C4F8048027724EB941F2C80003F036
:102640009FFF31468146FFF7AFFCC5F8009041F28D
:10265000C103E35C012B60D001212046FFF778FF26
:10266000FFF79EFBE268136823F002031360E26841
:10267000136843F001031360E36800255D61FFF711
:1026800095FB01212046FFF747FD002800F08680DA
:1026900041F254032E46E05800F0A2FB2022002114
:1026A0006846FFF7F7FA02A8FFF730FC0DF1200C9F
:1026B00005F583534CF8086D6A4623449646BEE8F8
:1026C0000300E64518605960724603F10803F5D12E
:1026D000DEF80000186020359EF804201A71602D85
:1026E000DCD104F5865600253378ADF800506FF341
:1026F000820333706A46414620468DF802508DF8B9
:1027000003508DF80450FFF7B1FCE368C0B94FF4F3
:1027100000421A6009B0BDE8F083286803681B6BAB
:1027200098470146002897D12868FFF711FF2868CD
:1027300003683A461B684146984700288CD1E9E770
:1027400061221A609DF802309DF80310E2681B06B2
:10275000090401F4702103F040730B43BDF800102D
:10276000C1F309010B439DF80410090501F4E001D0
:10277000022F43EA01030CBF4FF0004100210B433D
:10278000D361E36813225A61E268136823F00103FE
:10279000136029462046FFF7BFFC08B9E368B6E797
:1027A00041F2C103E15C002939D1E268D2F800327C
:1027B00043F00103C2F80032E268D2F8003223F499
:1027C0007C5323F00E03C2F80032E268D2F80032E4
:1027D00043F46063C2F80032E368C3F81412E3689C
:1027E000C3F80412E3686FF07842C3F80C22E36880
:1027F000C3F84012E368C3F84412E368C3F8B012A8
:10280000E368C3F8B412E36844F20102C3F81C227F
:10281000E268D2F8003223F00103C2F800323378C4
:1028200043F00203337075E7002073E7B8560020C9
:1028300008B50020FFF730FDBDE8084001F054BBAB
:1028400008B500210846FFF7B9FDBDE8084001F0D2
:102850004BBB000008B501210020FFF7AFFDBDE82C
:10286000084001F041BB000008B50120FFF714FD4E
:10287000BDE8084001F038BB08B500210120FFF792
:102880009DFDBDE8084001F02FBB000008B5012107
:102890000846FFF793FDBDE8084001F025BB0000A6
:1028A0000FB4002004B070477047000008B5084A14
:1028B000136813F0010309D1064807494360836098
:1028C000037301231360054A03F06CFE014808BD41
:1028D000C4560020C8560020A928000860570020D0
:1028E000036863B159B18B4203D11B680360704721
:1028F00013461A681AB19142FAD10A681A607047F1
:10290000F8B50E4609B3037BEBB90B7D012B06D15D
:10291000051D31462846FFF7E3FF2C6804E0A3B904
:1029200000F10805F5E73C46204684B150F8087BE5
:102930003269317D00F012FA0028F4D02146284691
:10294000FFF7CEFFEFE70320F8BD0220F8BDF8BD8A
:10295000F8B505460C4609B90220F8BD01F108009A
:1029600000F0E8F90028F7D02B7B5BBB237D012B1F
:102970000ED104352E68A76976B1B3699F421FD086
:10298000502221693069FFF765F9C8B13668F2E76E
:10299000002BE1D10835EDE721462846FFF7A0FFDF
:1029A0002B688BB19A69BA420ED81A6812B1916934
:1029B000B94203D922601C600020F8BD1346F4E739
:1029C0000120F8BD0320F8BD23602C60F4E700006F
:1029D0007047000038B5FFF769FF037B0546002B01
:1029E00030D11C4A1C4C136813F0010311D1002094
:1029F0000021236023754FF0FF33C4E90201A36176
:102A000016492161012313601549164A204603F037
:102A1000C9FD11492846FFF773FF98B90BA3D3E905
:102A20000023C4E90223104B236101232375A36112
:102A300009492846FFF764FF20B907492846FFF7F0
:102A400087FF10B1094800F099F938BD401DA12059
:102A500026812A0BD8560020E05600202469000861
:102A6000D1290008605700202C6A00081C6A000861
:102A7000F0B5037B89B006460F46002B4FD1324A92
:102A80003248136813F0010310D1036003754FF04F
:102A9000FF332F4983610024002501230161136066
:102AA000C0E902452B4A2C4903F07CFD27493046FA
:102AB000FFF726FF044600282FD11BA3D3E90023EC
:102AC00008AD65E908231AA3D3E90023284600F0DE
:102AD00023F9284618A3D3E9002300F01DF928465E
:102AE00017A3D3E9002300F017F9DDE90023CDE9AE
:102AF00002231A4B8DF81440049302AD0FCD184CED
:102B00000FC42146304641F81879FFF7F9FE20B985
:102B1000A4F118013046FFF71BFF09B0F0BD0320F8
:102B2000FBE700BFAFF3008085E6535099C80DA8BE
:102B3000F1C6A7C1D068080FA1FE276537FD46DDA5
:102B4000C4A0F433C9C4D50A005700200857002098
:102B50002469000860570020D1290008746A000821
:102B60001057002070B5FFF7A1FE037B0546002B30
:102B700032D1224A224C136813F0010311D10020F4
:102B80000021236023754FF0FF33C4E90201A361E4
:102B90001C492161012313601B491C4A204603F094
:102BA00001FD17492846FFF7ABFEA8B911A3D3E9E9
:102BB0000023C4E90223164B2361012640F255137A
:102BC0000F4926752846A361FFF79AFE20B90C49E4
:102BD0002846FFF7BDFE10B10E4800F0CFF8FFF712
:102BE00065FE3146FFF744FF0028F5D170BD00BFF8
:102BF000AFF30080F1C6A7C1D068080F28570020A6
:102C00003057002024690008D129000860570020AF
:102C1000586A00081C6A000870470000044A05480A
:102C200005490023C0E90023044A03F0BBBC00BFF0
:102C300080841E0050570020192C00086057002087
:102C4000094B10221A70094B18221A70084B1E22C9
:102C50001A70084B01221A70074B1F221A70074B7B
:102C600000221A70704700BF5C57002058570020A0
:102C7000595700205A5700205B5700205D5700200D
:102C800008B9FF20704701284FF6FF7018BF0020D9
:102C90007047000030B5D0E900450B0600226240C5
:102CA0006B400AA5D5E900450821002A73F1000E02
:102CB00008DA92185B4162406B400139F5D1C0E9F6
:102CC000002330BD92185B41F7E700BF9336EAA9B5
:102CD000EBE1F0422DE9734390469946D0E9002399
:102CE00002ADD243DB4365E90223064600242246B7
:102CF00040464946FDF780FA0834C1B22846FFF73E
:102D0000C9FF402CF3D1DDE90023D243DB43C6E900
:102D1000002302B0BDE87083D0B5D0E90067044657
:102D2000FFF7D8FF32463B462046BDE8D040FFF7CC
:102D3000D1BF000008B503460269007BFFF7A0FF82
:102D400080B2824207D8986830B190F90000003014
:102D500018BF012008BD002008BD000008B51346BB
:102D6000027B8A4208D1502219468068FEF772FF22
:102D7000B0FA80F0400908BD002008BD08B503F096
:102D800021FC000010B509680468C80FB0EBD47FBF
:102D900024F0604221F060430BD0002CB8BF920CAD
:102DA0000029B8BF9B0C9A420FD034BF01200020ED
:102DB00010BD9A4205D1C1F38070C4F3807484427F
:102DC00003D19A422CBF0020012010BD10B5037C16
:102DD000044613B9006803F013FC204610BD000040
:102DE0000023BFF35B8FC360BFF35B8FBFF35B8FC9
:102DF0008360BFF35B8F7047BFF35B8F0068BFF3E7
:102E00005B8F704770B506460C30FFF7F5FF06F193
:102E1000080504462846FFF7EFFF844206D22846FD
:102E20007668FFF7E9FF3444201A70BD2846FFF7A3
:102E3000E3FFF9E770B50546406898B105F1080071
:102E4000FFF7DAFF05F10C0604463046FFF7D4FF22
:102E50008442304694BF6D680025FFF7CDFF013CEA
:102E60002C44201A70BD000038B50C460546FFF70B
:102E7000C9FFA04210D305F10800FFF7BDFF6B6842
:102E8000BFF35B8F2044B0FBF3F403FB1400A86096
:102E9000BFF35B8F012038BD002038BD2DE9F04124
:102EA000144680460D46FFF7C5FF844228BF0446FE
:102EB000DCB1474657F80C6B3846FFF79DFF3044AE
:102EC00028603846D8F80460FFF796FF301AA04211
:102ED0003BBF6860D8F800306C60241A3BBFAB6021
:102EE000EC6001200220BDE8F0812046BDE8F081C1
:102EF00038B50C460546FFF79DFFA04210D305F1FB
:102F00000C00FFF779FF6B68BFF35B8F2044B0FBC9
:102F1000F3F403FB1400E860BFF35B8F012038BDBE
:102F2000002038BD2DE9F04385B088466946074644
:102F3000FFF7B4FF0026814601AD34464E4505F14A
:102F400008050CDA08EB040155F8082C55F80C0CB0
:102F5000FEF776FE55F8083C01361C44EEE72146A4
:102F60003846FFF7C5FF204605B0BDE8F0830000F6
:102F7000F8B506460C300F46FFF73EFF06F1080590
:102F800004462846FFF738FF8442284638BF746855
:102F9000FFF732FF201A386020B128463468FFF767
:102FA0002BFF2044F8BD000073B5144606460D46BD
:102FB000FFF728FF844228BF04460190DCB101A935
:102FC0003046FFF7D5FF019B33B93268AB6085E827
:102FD0001400EB6001200CE0A34288BF019428603C
:102FE00001986860A042F5D23368AB60241AEC60A7
:102FF000022002B070BD2046FBE700002DE9FF4132
:103000000F466946FFF7D0FF002480462546444519
:103010000BDA0DEBC4035DF834105E6878193246A4
:10302000FEF70EFE35440134F1E7284604B0BDE852
:10303000F081000038B50546FFF7E0FF0446014681
:103040002846FFF711FF204638BD000000B59BB0B1
:10305000EFF3098168226846FEF7F2FDEFF305837E
:10306000044B9A6BDA6A9A6A9A6A9A6A9A6A9A6AB4
:103070009B6AFEE700ED00E000B59BB0EFF309812D
:1030800068226846FEF7DCFDEFF30583044B9A6B7C
:103090009A6A9A6A9A6A9A6A9A6A9B6AFEE700BF73
:1030A00000ED00E000B59BB0EFF3098168226846AF
:1030B000FEF7C6FDEFF30583034B5A6B9A6A9A6AD3
:1030C0009A6A9A6A9B6AFEE700ED00E0FEE700005C
:1030D0000FB408B5029801F06BFCFEE702F08EB861
:1030E00002F078B830B5084D0A4491420BD011F87F
:1030F000013B09245840013CF7D040F300032B402A
:1031000083EA5000F7E730BD2083B8ED2DE9F047A2
:10311000089E01F007054FEAD60C2A4406F0070680
:1031200000EBD1004FF47F49954201D1BDE8F08713
:1031300005F0070E06F0070AD64577464FEAD50494
:1031400038BF5746C7F10807511B0CEBD6088F4212
:10315000045D28BF0F4604FA0EF413F8081029FA8C
:1031600007FE24FA0AF45FFA8EFE4C404EFA0AFE7D
:1031700004EA0E04614003F808103D443E44D3E7DE
:103180000246006848B103681360D388118901338F
:103190009BB29942D38038BF1381704770B588B015
:1031A0000D460446202200216846FEF773FD2046A6
:1031B0000495FFF7E5FF054658B16B46044608AE97
:1031C0001A4603CAB24220606160134604F1080443
:1031D000F6D1284608B070BD2DE9F041056885B9E3
:1031E0000160BDE8F081002B29DA930CB34229D1AC
:1031F000A54201D10D60F3E7C8F800100C60BDE8EE
:10320000F0814B6823F06047BE0C4FEAD37EC3F3D6
:10321000807C16EA230638BF3E46A8462C466368E3
:10322000BEEBD37F23F06042DDD1974203D1C3F3DD
:1032300080739C450AD1974205E01C46EFE7B242F5
:1032400006D013469E422CBF00230123002BCFD172
:103250002368A046002BF0D12160BDE8F08100007A
:103260002DE9F04106460F4600254FF6FF7441F266
:1032700021082A4630463946FCF7BEFFC0B284EA30
:103280000024082314F4004F4FEA4404A4B203F1CD
:10329000FF3318BF84EA080413F0FF03F2D10835A6
:1032A000402DE6D12046BDE8F081000010B54B6806
:1032B00033B9CA8A63F30902CA820020002110BD13
:1032C000C4681A681C60C360438A013B43824A6039
:1032D000EDE7000010B50A4441F22104914200D10B
:1032E00010BD11F8013B80EA0320082310F4004FC1
:1032F0004FEA400080B203F1FF3318BF604013F083
:10330000FF03F3D1EAE700002DE9F04F85B08146D5
:103310008DE80A00BDF83C409346002A00F0838007
:1033200024B10E9B002B7ED0072C2AD809F10C006B
:10333000FFF726FF054628B96FF00205284605B0BD
:10334000BDE8F08F14220021FEF7A4FC22460E995E
:1033500005F10800FEF774FC631C2B749BF8003029
:103360002C4403F01F0363F03F032372009B43F0E0
:1033700000436B60294609F11C00FFF72DFF012572
:10338000DCE7019B1B0A4FF00008029300F10C03DD
:103390004FF0800A4646454603930398FFF7F0FE38
:1033A00007460028C8D014220021FEF773FCC6BBD4
:1033B0009DF804303B729DF808307B7202220E9B10
:1033C000711E1944B4420AD9B8180132D2B211F8A8
:1033D00001EF80F808E00136072AB6B2F2D19BF877
:1033E000001001F01F01B44208BF4FF0400AB818A6
:1033F00041EA48114AEA01030372009B013243F09B
:1034000000437B603A74394609F11C00FFF7E4FE83
:103410000135B4422DB288F001084FF0000ABCD14A
:103420008CE70022CBE76FF0010587E72DE9F04735
:103430001E46CB8A9146C3F30902062A80460F46F0
:1034400019D013460021B0B28DB25A1992B2052A92
:1034500009D9A84210D8FA8A034463F30902FA8210
:103460000120BDE8F087A842F3D93A4419F8014099
:1034700094760131E8E70025FB8A7C68C3F30900F4
:10348000821F1C23B2FBF3FA03FB1A2A1FFA8AF2EB
:103490007CB301212368002B39D1B31F03441C20C6
:1034A000B3FBF0F301339BB299420CD2BAF1000F97
:1034B00009D14046FFF764FE08B1C0F800A02060C3
:1034C00008B304460022B6B24FF0000AB54230D22B
:1034D000691E49441346E01801339BB211F801EF0D
:1034E00080F804E001351C2BADB214D0AE42F2D806
:1034F000ECE74046FFF744FE044608B100230360B2
:103500007C60002CDED16FF00200BDE8F087013155
:1035100089B21C46BEE7AE42D8D94046FFF730FE1E
:1035200008B1C0F800A020600028ECD004460022BA
:10353000CCE7FB8AC3F30902164466F30903FB8256
:103540008EE70000F8B5044615460E4624220021F9
:103550001F46FEF79FFB069B6360079B23626A0979
:103560004FF6FF739A424FF0000028BF1A46A7603B
:10357000207097B204F10C0503469A4205D100234E
:103580002B6027826382A382F8BD2E60013335460B
:103590002036F2E703781BB94BB2002BC8BF01708D
:1035A00070470000007870472DE9F7430D9EBDF885
:1035B00028900B9D9DF83040BDF83880074619468D
:1035C000104616B9B8F1000F40D11F2C3ED83B78F9
:1035D000D3B9B8F1070F36D839F0030336D14246D4
:1035E00031464FF6FF70FFF775FE4FEA092920F0CC
:1035F000010009F44079400449EA0464400C44EABB
:1036000040244FF6FF730DE043EA0923B8F1070F9A
:1036100043EA0464F5D9FFF723FE42463146FFF73B
:1036200059FE03468DE840012A4621463846FFF7F9
:103630006BFE2B780133DBB21F2B88BF00232B706E
:1036400003B0BDE8F0836FF00300F9E76FF001000D
:10365000F6E700002DE9F7430E9F0B9D9DF834809F
:10366000BDF83C6081469DF8300007B9AEBB1F280D
:1036700033D899F800E0BEF1000F31D00C0244F0CD
:1036800080049DF8281044EAC83444EA014444EA1E
:103690000E04072E44EA00641CD919461046FFF7B1
:1036A000DFFD32463946FFF715FE034601960097C7
:1036B0002A4621464846FFF727FEB8F1010F06D1FA
:1036C0002B780133DBB21F2B88BF00232B7003B094
:1036D000BDE8F0834FF6FF73E8E76FF00100F6E70F
:1036E0006FF00300F3E70000C06900B104307047D9
:1036F000C3691A68C261C2681A60C360438A013B29
:10370000438270472DE9F047D0F818A0DFF87080A9
:10371000054616461F4654464FF000090CB9BDE851
:10372000F087D4E90223B21A67EB0303994508BF77
:10373000904523D2AB699C42214628460FD1FFF722
:10374000B5FDAB691B68AB61EB6823606B8AEC600D
:10375000AC69013B6B822346A2461C46DEE7FFF7BD
:10376000A5FD2368CAF80030EB6823606B8AEC6023
:10377000013B6B82DAF800305446EDE72368EBE753
:1037800080841E002DE9F04F8BB00E46144607933F
:10379000DDF850808346002800F01081B8F1000F5A
:1037A00000F00C81531E3F2B00F20881012A03D147
:1037B000079B002B40F00281BBF81450ED00002362
:1037C000AE420893099304D3002630460BB0BDE8FF
:1037D000F08F33199D42DBF80C303ABFAD1BEDB2D0
:1037E000254623B9DBF81030002B00F093802F2EF4
:1037F00065D8C6F13007BD424FF000032CBFFFB2C1
:103800002F460093314608AB3A46DBF80800FFF735
:103810007DFCA5EB07093E445FFA89F9BBF814303B
:1038200003F10053063BDB000493DBF80C300393F9
:103830003021039B13B1B9F1000F43D1DBF8100025
:1038400040B1B9F1000F05D0009708AB4A46711A94
:10385000FFF75CFC2EB2002DB6D060070AD00AAB91
:1038600003EBD401624211F8083C02F00702134155
:1038700001F8083C082C54D9102C54D9202C8CBFAA
:1038800008230423079A002A00F09E80B4EBC30F9C
:1038900000F09D80082C48D89DF82030621E23FA45
:1038A00002F2D10706D54FF0FF3202FA04F42343A7
:1038B0008DF820309DF8203088F8003085E7A94643
:1038C0000027ABE7049BE02B28BFE02306930B44C3
:1038D000B342059315D9A3EB060AD1450398009787
:1038E0002CBF5FFA8AFACA46711A08AB52460430F6
:1038F000FFF70CFC5744A9EB0A095644FFB25FFAE4
:1039000089F9049B069A05999B1A0493039B1B68EB
:1039100003938EE700932A4608AB3146DBF8080094
:1039200096E70123AEE70223ACE7102C12D8BDF8CE
:103930002030621E23FA02F2D20706D54FF0FF3282
:1039400002FA04F42343ADF82030BDF82030A8F883
:1039500000303AE7202C0FD8089A631E22FA03F3AE
:10396000DB0705D54FF0FF3303FA04F41443089442
:10397000089BC8F8003028E7402C22D0DDE908ABCE
:10398000621E50465946FCF737FC002100F001004A
:1039900050EA01030DD0224601200021FCF738FC3B
:1039A000404261EB410140EA0A0041EA0B01CDE9E6
:1039B0000801DDE90823C8E9002306E76FF00106E6
:1039C00003E76FF0080600E7012C3FF473AF082C03
:1039D0007FF670AF102CB8D9202CEAD8C8E70000C9
:1039E00030B5402A85B01FD8002A08BF0122002424
:1039F000012A0294039419D11B788DF808305307DB
:103A00000AD004AB03EBD205544215F8083C04F08D
:103A10000704A34005F8083C00910346002102A8D2
:103A2000FFF774FB05B030BD4022E0E7082AE3D978
:103A3000102A03D81B88ADF80830E0E7202A02D806
:103A40001B680293DBE7D3E90045CDE90245D6E7E1
:103A500010B5CB681BB98B600B618B8210BDC4683D
:103A60001A681C60C360438A013B4382CA60F0E766
:103A70002DE9F04FD1F800908FB0C9F3C01604467D
:103A80000D46CDE90223002E50D0C9F3C03AC9F348
:103A90000626B9F1000F80F2CB8119F0C04F40F03B
:103AA000C7812B7B002B00F0C381BAF1020F03D03A
:103AB0002278B24240F0BF8109F07F02BAF1020FD2
:103AC000059236D119F07F0FC9F30F2B01D10BF0FE
:103AD000030B2B447606059A93F8038046EA0A46C0
:103AE00046EA82465FEAD81346EA0B06049300F0E2
:103AF000A180002200230EA961E90823059B009301
:103B0000676853465A462046B847002800F08F8021
:103B1000A7698FB9314604F10C00FFF73FFB074658
:103B2000D0B96FF002000FB0BDE8F08F4FF0020A7D
:103B3000AFE7C9F3074BCCE73B699E420DD03F6826
:103B4000002FF9D1314604F10C00FFF727FB07469F
:103B50000028E6D0A3693B60A761DDE90601FFF715
:103B60007FFBB882F97D08F01F06C1F38401891B31
:103B700089B20FFA81FED7E90223BEF1000FBCBF64
:103B800001F1200E0FFA8EFE52EA0301C9F3046917
:103B900000F05D81DDE90201801A61EB030102465C
:103BA0000B46B6480021994208BF9042C0F04F81B1
:103BB000049B002B48D0BEF1010F00F3488118F0A0
:103BC000400F41D0DDE902230021C7E9022306A806
:103BD0002022FEF75FF8DDE90223CDE906232B1D45
:103BE00008932B7BADF82EB0013BDBB2ADF82C3047
:103BF0009DF814308DF833308DF830A0A3688DF81F
:103C000031608DF8329006A920469847FB7DC3F3BA
:103C10008402013262F38603FB75FB8A6FF30903AA
:103C2000FB821B0A6FF3C713FB7500207BE76FF065
:103C30000B0078E7A76917B96FF00C0073E73B69D1
:103C40009E428FD03F68F6E7FB7DC8F34012B2EB8F
:103C5000D31F40F0F380C3F38403B34240F0F180FC
:103C600004992B7B4FEA981200293BD012F00108EF
:103C70005CD1032B40F2E880DDE90223C7E902238F
:103C80002B7BAE1D033BDBB23246394604F10C0000
:103C9000FFF7CCFB002814DA39462046FFF706FB75
:103CA000FB7DC3F38402013262F38603FB75FB8A5A
:103CB00068F30903FB821B0A68F3C713FB75032033
:103CC00031E7AB883B832A7B033AD2B2B88A3146CC
:103CD000FFF700FBFB7DB882DA43C2F3C01262F348
:103CE000C713A1E712BB2E1D013BDBB2324639469A
:103CF00004F10C00FFF79AFB002814DA394620463D
:103D0000FFF7D4FAFB7DC3F38402013262F386032A
:103D1000FB75049AFB8A62F30903FB82049A1B0A6F
:103D200062F3C713CAE72A7B013ACEE7F98AC1F3E7
:103D30000901013B0529DAB25AD8281D00239A420D
:103D40000AD907EB010E013110F801CB8EF81AC029
:103D500001330629DBB2F2D1DDE902019342CDE95C
:103D6000060107F11A01089138BF043379680991F7
:103D700034BF5B1900230A93FB8AADF82EB0C3F35E
:103D800009031A449DF814308DF833300023ADF840
:103D90002C208DF830A08DF831608DF832907B604A
:103DA0002A7BB88A013A291DFFF794FA3B8BB88227
:103DB000834203D1A36806A920469847204606A956
:103DC000FFF746FEFB7DB88AC3F38402013262F33B
:103DD0008603FB75FB8A6FF30903FB821B0A6FF3F3
:103DE000C713FB753B8B984214BF112000209AE645
:103DF000D7F804E0BEF1000F18D00623DEF800006B
:103E000088B9C91A05F1040800EB010CBCF11B0FBD
:103E1000C3B2A1D893429FD2F44418F8013B8CF866
:103E200004300130F0E71C338646E7E7734693E73A
:103E30006FF0090077E66FF00A0074E66FF00D008E
:103E400071E66FF00E006EE66FF00F006BE6FB7D23
:103E500068F386036FF3C713FB7539462046FFF7F7
:103E600025FA049B002B7FF4AAAEFB7DC3F38402EA
:103E7000013262F38603FB75DEE600BF80841E001C
:103E8000EFF3098305494A6822F001024A6068336A
:103E900083F30988002383F31188704730EF00E033
:103EA000202080F3118862B60B4B0C4AD96821F4AC
:103EB000E0610904090C0A430949DA60CA6842F062
:103EC0008072CA6007490A6842F001020A60102243
:103ED000DA7783F82200704700ED00E00003FA056E
:103EE000F0ED00E0001000E010B5202383F311880E
:103EF0000E4B5B6813F4006314D0F1EE103AEFF34D
:103F00000984683C4FF08073E361094BDB682366EA
:103F100084F3098800F000FD10B1064BA36110BDC9
:103F2000054BFBE783F3118810BD00BF00ED00E0F7
:103F300030EF00E08F0600089206000800F16043B1
:103F400000F01F02400903F5614309018000C9B276
:103F500000F1604083F8001300F5614001239340B5
:103F6000C0F8803103607047026843681143016004
:103F700003B118477047000013B5446BD4F894346C
:103F80001A681178042915D1217C022912D11979D6
:103F9000128901238B4013420CD101A904F14C007A
:103FA00001F062FFD4F89444019B21790246206815
:103FB00000F0DAF902B010BD143001F0E5BE0000E7
:103FC0004FF0FF33143001F0DFBE00004C3001F041
:103FD000B7BF00004FF0FF334C3001F0B1BF00001D
:103FE000143001F0B3BE00004FF0FF31143001F087
:103FF000ADBE00004C3001F083BF00004FF0FF3237
:104000004C3001F07DBF0000D0F8942438B513681F
:1040100019780429054601D0012038BD017C022908
:10402000FAD152795C89012090400440F4D105F125
:10403000140001F045FE02460028EDD0D5F8945456
:104040004FF480732868697900F07CF9204638BD08
:10405000406BFFF7D9BF0000002070477047000099
:104060007FB5124B0360002343608360C36001256A
:1040700002260F4B057404460290019300F184025E
:10408000294600964FF48073143001F0F5FD094B7A
:104090000193029400964FF4807304F5237229462D
:1040A00004F14C0001F0BCFE04B070BD906A000841
:1040B00051400008793F00080B68202282F31188E4
:1040C0000A7903EB820290614A79093243F82200AF
:1040D0008A7912B103EB8203986102230374C0F85A
:1040E0009414002383F311887047000038B5037FD0
:1040F000044613B190F85430ABB9201D01250221BC
:10410000FFF732FF04F1140025776FF0010100F092
:10411000E9FC84F8545004F14C006FF00101BDE853
:10412000384000F0DFBC38BD10B501210446043032
:10413000FFF71AFF0023237784F8543010BD0000E6
:1041400038B504460025143001F0AEFD04F14C00F2
:10415000257701F07DFE201D84F854500121FFF7E2
:1041600003FF2046BDE83840FFF74EBF90F84430CB
:1041700003F06003202B19D190F84520212A0AD0A2
:10418000222A4FF000030ED0202A0FD1084A826362
:104190000722C26304E0064B83630723C363002343
:1041A0000364012070478363C363F9E7002070470D
:1041B00019220020D0F8943437B51A6811780429F0
:1041C00004461AD1017C022917D1197912890123D9
:1041D0008B40134211D100F14C05284601F0F8FE46
:1041E00058B101A9284601F03FFED4F89444019B40
:1041F00021790246206800F0B7F803B030BD000016
:1042000000EB8103F7B59C6905460E46F4B1202307
:1042100083F3118805EB8607201D0821FFF7A4FE14
:10422000FB685B691B684C3413B1204601F02AFE21
:1042300001A9204601F018FE024648B1019B314613
:10424000284600F091F8002383F3118803B0F0BDF5
:10425000FB685A691268002AF5D01B8A013B13409B
:10426000F1D105F14402EAE7093138B550F82140AF
:10427000DCB1202383F31188D4F894241368527995
:1042800003EB8203DB689B695D6845B1042160181C
:10429000FFF76AFE294604F1140001F01BFD2046D9
:1042A000FFF7B2FE002383F3118838BD704700008A
:1042B00001F0DAB80123037000234360C361836215
:1042C0000362C3624362036303814381704700005A
:1042D00038B50446202383F3118800254160C5606A
:1042E00005614561856101F0CFF80223237085F3F4
:1042F000118838BD70B500EB810305465069DA605E
:104300000E46144618B110220021FDF7C3FCA06927
:1043100018B110220021FDF7BDFC31462846BDE84A
:10432000704001F07BB90000028902F001020281B5
:10433000428902F0010242810022026142618261EF
:1043400001F000BAF0B400EB81044789E46801256C
:10435000A4698D403D43458123600023A2606360D2
:10436000F0BC01F01BBA0000F0B400EB8104078937
:10437000E468012564698D403D4305812360002385
:10438000A2606360F0BC01F095BA000070B5022332
:10439000002504460370A0F84C5080F84E5080F879
:1043A0004F5005814581C56005614561856180F893
:1043B000345001F0CFF863681B6823B129462046CA
:1043C000BDE87040184770BD037880F85030052371
:1043D000037043681B6810B504460BB1042198476D
:1043E00000232381638110BD436890F850201B682F
:1043F00002700BB1052118477047000090F8343067
:1044000070B5044613B1002380F8343004F144023F
:10441000204601F0B9F963689B6863BB94F8445087
:1044200015F0600615D194F8453005F07F0545EA92
:10443000032540F202339D4200F00E815BD8022D2D
:1044400000F0DC803FD8002D00F08780012D00F0C7
:10445000CF800021204601F0F1FB0021204601F031
:10446000E3FB63681B6813B10621204698470623C7
:1044700084F8343070BD204698470028CED094F898
:104480004B2094F84A3043EA0223E26B934238BF50
:10449000E36394F94430E56B002B4FF0200380F286
:1044A000FD80002D00F0EC80092284F8342083F395
:1044B00011880021E36BA26B2046FFF755FF002314
:1044C00083F3118870BDB5F5817F00F0B180B5F53B
:1044D000407F49D0B5F5807FBBD194F84630012BA1
:1044E000B7D1B4F84C3023F00203A4F84C30A663E3
:1044F000E6632664C3E740F201639D421ED8B5F52A
:10450000C06F3BD2B5F5A06FA3D1B4F84430B3F57A
:10451000A06F0ED194F8463084F84E30204601F05A
:1045200071F863681B6813B1012120469847032383
:1045300023700023A363E3632364A0E7B5F5106F42
:1045400032D040F602439D4252D0B5F5006F80D183
:1045500004F14F03A363012324E004F14C03A3639C
:104560000223E36325648AE794F84630012B7FF445
:1045700070AFB4F84C3043F00203B6E794F849202A
:10458000616894F848304D6894F8471043EA022374
:10459000204694F84620A84700283FF45AAF4368C5
:1045A000A3630368E363A4E72378042B10D12023DB
:1045B00083F311882046FFF7B7FE86F311886368FE
:1045C00084F84F601B68032121700BB12046984787
:1045D00094F84630002BACD084F84F30042323707D
:1045E00063681B68002BA4D0022120469847A0E7EF
:1045F000374BA3630223E36300239DE794F848103D
:1046000011F0800F204601F00F010ED001F0AEF83E
:10461000012806D002287FF41CAF2E4BA363E06371
:1046200067E72D4BA363E56363E701F091F8EFE7DC
:1046300094F84630002B7FF40CAF94F8483013F018
:104640000F013FF476AF1A06204602D501F00AFBAF
:104650006FE701F0FDFA6CE794F84630002B7FF429
:10466000F8AE94F8483013F00F013FF462AF1B0628
:10467000204602D501F0E2FA5BE701F0D5FA58E7EF
:10468000142284F8342083F311882B462A462946C5
:104690002046FFF757FE85F3118870BD5DB11522E6
:1046A00084F8342083F311880021E36BA26B204649
:1046B000FFF748FE03E70B2284F8342083F31188C8
:1046C0002B462A4629462046FFF74EFEE3E700BF69
:1046D000C06A0008B86A0008BC6A000838B590F8DB
:1046E00034300446152B29D8DFE803F03E2828286B
:1046F00028283E28280B293928282828282828282F
:104700003E3E90F84B1090F84A20C36B42EA0122DB
:104710009A4214D9C268128AB3FBF2F502FB15352E
:104720006DB9202383F311882B462A462946FFF7CB
:104730001BFE85F311880A2384F8343038BD142316
:1047400084F83430202383F3118800231A46194655
:104750002046FFF7F7FD002383F3118838BD036C73
:1047600003B198470023E7E7002101F067FA002131
:10477000204601F059FA63681B6813B106212046F0
:1047800098470623D8E7000090F83420152A38B55A
:10479000044622D80123934040F6416213421DD1C2
:1047A00013F480150FD19B0217D50B2380F83430FA
:1047B000202383F311882B462A462946FFF7D4FD90
:1047C00085F3118838BDC3689B695B682BB9036C9E
:1047D00003B19847002384F8343038BD002101F03C
:1047E0002DFA0021204601F01FFA63681B6813B1FF
:1047F0000621204698470623EDE70000024B0022E1
:104800001B605B609A60704764570020002303744C
:104810008268054B1B6899689142FBD25A68036015
:1048200042601060586070476457002008B520232C
:1048300083F31188037C032B05D0042B0DD02BB9F7
:1048400083F3118808BD436900221A604FF0FF33DB
:104850004361FFF7DBFF0023F2E790E80C001A60EA
:1048600002685360F2E70000002303748268054B7E
:104870001B6899689142FBD85A68036042601060D7
:104880005860704764570020054B19690874186810
:1048900002681A605360186101230374FBF7E2BEDB
:1048A0006457002030B54B1C87B005460A4C10D029
:1048B00023690A4A01A800F031F92846FFF7E4FF0E
:1048C000049B13B101A800F067F92369586907B088
:1048D00030BDFFF7D9FFF8E7645700202D480008E6
:1048E00038B50C4D41612B6981689A689142044644
:1048F00003D8BDE83840FFF789BF1846FFF7B4FF7B
:1049000001232C61014623742046BDE83840FBF7A3
:10491000A9BE00BF64570020044B1A681B69906849
:104920009B68984294BF0020012070476457002084
:1049300010B5084C236820691A682260546001226F
:1049400023611A74FFF790FF01462069BDE810400B
:10495000FBF788BE6457002008B5FFF7DDFF18B1EC
:10496000BDE80840FFF7E4BF08BD0000FEE7000017
:1049700010B50C4CFFF742FF00F0C2F880220A4944
:10498000204600F047F8012344F8180C0374FFF7A1
:1049900087FA002383F3118862B60448BDE810400B
:1049A00000F05AB88C570020C46A0008CC6A00088E
:1049B00008B572B6034B586200F0E6FB00F080FCCD
:1049C000FEE700BF6457002000F022B9EFF311802A
:1049D00020B9EFF30583202282F31188704700008D
:1049E00010B558B9EFF30584C4F3080414B180F38B
:1049F000118810BDFFF7B0FF84F3118810BD0000CF
:104A0000034B59685A68521A9042FBD8704700BF4E
:104A1000001000E08260022202740022427470479B
:104A20008368A3F17C0243F80C2C026943F83C2C08
:104A3000426943F8382C074A43F81C2CC26843F8F3
:104A4000102C022203F8082C002203F8072CA3F1F3
:104A5000180070477D06000810B5202383F31188E5
:104A6000FFF7DEFF00210446FFF73AFF002383F340
:104A70001188204610BD0000024B1B6958610F20B1
:104A8000FFF702BF64570020202383F31188FFF74C
:104A9000F3BF000008B50146202383F311880820E6
:104AA000FFF700FF002383F3118808BD49B1064BCF
:104AB00042681B6918605A60136043600420FFF766
:104AC000F1BE4FF0FF3070476457002003689842F2
:104AD00006D01A680260506059611846FFF796BE0A
:104AE0007047000038B504460D462068844200D166
:104AF00038BD036823605C604561FFF787FEF4E71B
:104B0000054B03F114025A619A614FF0FF32DA61EA
:104B100000221A62704700BF64570020F8B5036195
:104B2000C2600E46054601F08BFA1A4B19461F4625
:104B300051F8142F8A420DD11862AE606A602A6063
:104B40000A2E2CBF80190A309D615D61BDE8F840D6
:104B500001F060BA1B6A9268C41A341928BF34463F
:104B6000A24202D9181901F065FA7B699A68944249
:104B70000CD8AC6098685A682B60041B6A6015609A
:104B80005D609C604FF0FF33FB61F8BDA41A1B68A9
:104B9000ECE700BF6457002038B51C4B01685A6928
:104BA00090421D460DD04468216002680021546087
:104BB000C16091688068014491604FF0FF32DA6112
:104BC00038BD1A4642F8141F4A605B6900219342BF
:104BD000C16003D1BDE8384001F026BA9A68816807
:104BE0000A449A602C6A01F02BFA6A699268001BE9
:104BF00082420AD9111A092998BF00F10A02286ACB
:104C0000BDE83840104401F015BA38BD64570020A3
:104C10002DE9F041184D002705F114066C6901F0EB
:104C20000FFA2A6AA368811A8B4216D813442B62A2
:104C300094E80C001A602268D4F80C8053606B6909
:104C4000E760B34201D101F0EFF987F311882069E1
:104C5000C047202383F31188E0E76A69B24208D095
:104C60005B1A0A2B2CBFC0180A30BDE8F04101F0D6
:104C7000E1B9BDE8F08100BF645700200C23036058
:104C80004FF0FF307047000000207047FEE7000043
:104C9000704700004FF0FF3070470000022906D037
:104CA000032906D00129064818BF0020704705488F
:104CB0007047032A9ABF044800EBC20000207047E7
:104CC000B86B00086C6B00082822002070B59AB001
:104CD00001AD064608462946144600F0BDF82846B0
:104CE000FCF7D0FFC0B2431C5B0086E818002370BD
:104CF00003236370002302341946DAB2904204F1B0
:104D0000020401D81AB070BDEA5C04F8022C04F861
:104D1000011C0133F1E7000008B5202383F311885B
:104D20000348FFF747FA002383F3118808BD00BF4B
:104D30002059002090F8443003F01F02012A07D1C7
:104D400090F845200B2A03D100238363C36312E04C
:104D500003F06003202B11D1B0F8483073B990F8FC
:104D60004520212A03D0222AEFD0202A06D1044A46
:104D700082630722C263036401207047FFF7F6B91C
:104D80002022002010B50446052916D8DFE801F0DE
:104D900016150316161D202383F311880E4A0121D0
:104DA000FFF7A8FA20460D4A0221FFF7A3FA0C48A4
:104DB000FFF7C6F9002383F3118810BD202383F386
:104DC00011880748FFF792F9F4E7202383F311884D
:104DD0000348FFF7A9F9EDE7EC6A0008106B00083B
:104DE0002059002038B50C4D0C4C0D492A4604F1D1
:104DF0000800FFF76BFF05F1CA0204F11000094932
:104E0000FFF764FF05F5CA7204F118000649BDE812
:104E10003840FFF75BBF00BFE85D0020282200207C
:104E20003C6B0008456B0008506B000870B50446E9
:104E300008460D46FCF726FFC6B22046013403782B
:104E40000BB9184670BD32462946FCF703FF00280F
:104E5000F3D1012070BD00002DE9F84F05460C4646
:104E6000FCF710FF2A49C6B22846FFF7DFFF08B15A
:104E7000023EF6B227492846FFF7D8FF08B11036A0
:104E8000F6B2632E0DD8DFF88890DFF888A0224FA5
:104E9000DFF88CB0DFF88C802E7846B92670BDE83C
:104EA000F88F29462046BDE8F84F01F0DFBC252EDB
:104EB00029D1072249462846FCF7CCFE40B9D8F84C
:104EC0000030236098F80430237107350534E3E798
:104ED000082251462846FCF7BDFEA0B90F4BA21C84
:104EE00013F8011F09095B45C95D02F8021C197816
:104EF00001F00F0102F10202C95D02F8031CEFD1BB
:104F000018340835C8E7267001350134C4E700BFFE
:104F1000D86B0008506B0008E66B00080F7AFF1F83
:104F20001B7AFF1FE06B0008BFF34F8F024AD36864
:104F3000DB03FCD4704700BF003C024008B5094BBE
:104F40001B7873B9FFF7F0FF074B1A69002ABFBF40
:104F5000064A5A6002F188325A601A6822F4806266
:104F60001A6008BD46600020003C024023016745EE
:104F700008B50B4B1B7893B9FFF7D6FF094B1A699D
:104F800042F000421A611A6842F480521A601A68AC
:104F900022F480521A601A6842F480621A6008BDD6
:104FA00046600020003C0240172870B513D80B4A19
:104FB0000B4C137863B90B4E4FF0006144F823108B
:104FC00056F823500133182B2944F7D101231370CD
:104FD00054F8200070BD002070BD00BFA860002004
:104FE00048600020F86B0008014B53F82000704720
:104FF000F86B000818207047172810B5044601D92F
:10500000002010BDFFF7D0FF064B53F824301844A2
:10501000C21A0BB9012010BD12680132F0D1043B55
:10502000F6E700BFF86B0008172810B5044629D82A
:10503000FFF77AFFFFF782FF1349F323CB600C23BE
:10504000B0FBF3F203FB1200D30143EAC003DBB26F
:1050500043F4007343F002030B610B6943F48033A4
:105060000B61FFF761FF2046FFF79EFF074B53F8E8
:10507000241000F021F9FFF77BFF2046BDE8104027
:10508000FFF7BABF002010BD003C0240F86B0008DB
:105090002DE9F84312F00103154640D18218B2F110
:1050A000026F3CD82C4B1B6813F0010337D02B4CFC
:1050B000FFF744FFF323E360FFF736FF40F20127D9
:1050C000032D01D9830713D0244C0F46401A40F218
:1050D0000118EB1B0B44012B00EB0706236924D8B6
:1050E00023F001032361FFF743FF0120BDE8F883AC
:1050F000236923F44073236123693B43236151F8FF
:10510000046B0660BFF34F8FFFF70EFF03689E42EC
:1051100008D0236923F001032361FFF729FF002052
:10512000BDE8F883043D0430CAE723F440732361EB
:10513000236943EA08032361B94637F8023B338009
:10514000BFF34F8FFFF7F0FE3688B9F80030B6B2E4
:10515000B342BED0DDE700BF00380240003C024051
:10516000084908B50B7828B153B9FFF7E7FE0123CA
:105170000B7008BD23B1BDE808400870FFF7F8BE0A
:1051800008BD00BF4660002008B54FF440314FF025
:10519000005000F093F84FF480314FF08050BDE89C
:1051A000084000F08BB8000038B500F049FF074B0D
:1051B0001A68824207D9064AD2E90045003445F10F
:1051C0000105C2E90045186038BD00BFAC60002091
:1051D000B060002070B5FFF7F9FB0646FFF7E4FF6B
:1051E000054BD3E90045241845F100053046FFF78B
:1051F000F7FB2046294670BDB060002008B5FFF7D8
:10520000E9FF4FF47A720023FBF70EF808BD00BFE8
:1052100010B50244064B0439D2B2904200D110BD01
:10522000441C00B253F8200041F8040FE0B2F4E748
:1052300050280040104B30B51C6F240407D41C6F5D
:1052400044F400741C671C6F44F400441C670B4C4E
:10525000236843F4807323600244094B0439D2B2BB
:10526000904200D130BD441C00B251F8045F43F8B5
:105270002050E0B2F4E700BF003802400070004068
:105280005028004007B5012201A90020FFF7C0FF08
:10529000019803B05DF804FB13B50446FFF7F2FF75
:1052A000A04206D002A9012241F8044D0020FFF7D8
:1052B000C1FF02B010BD0000704700007047000041
:1052C00070470000074B45F255521A6002225A609F
:1052D00040F6FF729A604CF6CC421A60024B0122F3
:1052E0001A70704700300040B9600020034B1B78F3
:1052F0001BB1034B4AF6AA221A607047B96000201E
:1053000000300040034B1B689B0042BF024B012250
:105310001A70704774380240B8600020024B4FF09A
:1053200080721A60704700BF74380240014B1878D1
:10533000704700BFB860002070470000FEE7000023
:10534000084A094B09498B4204D3094A0021934278
:1053500005D3704752F8040F43F8040BF3E743F802
:10536000041BF4E7386E0008C4610020C46100200B
:10537000C461002070470000836D70B5446D9E6865
:1053800000214FF0FF354A01A3180131D3F800097D
:105390000028BEBFD3F8000940F08040C3F80009E0
:1053A000D3F8000B0028BEBFD3F8000B40F08040BC
:1053B000C3F8000BA3188E42C3F80859C3F8085B62
:1053C000E1D24FF00113C4F81C3870BD890141F0DF
:1053D0002001016103699B06FCD41220FFF710BB7A
:1053E000204B03EB80022DE9F047D2F80CE05D6D15
:1053F000DEF81420461CD2F800C005EB063605EB9B
:105400004018516861450BD3D5F83428012303FABD
:1054100000F022EA0000C5F834081846BDE8F0871D
:10542000BEF81040ACEB0103A34228BF2346D8F8D6
:105430001849A4B2B3EB840F10D894681F46A4F1A6
:10544000040959F804AFC6F800A0042F01D9043F9D
:10545000F7E71C440B4494605360D2E70020BDE89A
:10546000F08700BFBC60002010B5054C2046FEF759
:1054700021FF4FF0A0436365024BA36510BD00BF41
:10548000BC6000207C6C00080378012B70B50546D9
:1054900050D12A4B446D98421BD1294B5A6B42F094
:1054A00080025A635A6D42F080025A655A6D5A69F9
:1054B00042F080025A615A6922F080025A610E213C
:1054C00043205B69FEF73AFD1E4BE3601E4BC4F8B8
:1054D00000380023C4F8003EC02323606E6D4FF4F3
:1054E0005023A3633369002BFCDA012333610C20C2
:1054F000FFF786FA3369DB07FCD41220FFF780FA46
:105500003369002BFCDA0026A6602846FFF734FF3B
:105510006B68C4F81068DB68C4F81468C4F81C68C9
:105520004BB90A4BA3614FF0FF336361A36843F0AB
:105530000103A36070BD064BF4E700BFBC60002010
:10554000003802404014004003002002003C30C0FC
:10555000083C30C0F8B5446D054600212046FFF7F1
:1055600035FFA96D00234FF001128F68C4F834385D
:105570004FF00066C4F81C284FF0FF3004EB4312D4
:1055800001339F42C2F80069C2F8006BC2F80809F3
:10559000C2F8080BF2D20B686A6DEB6563621023E8
:1055A0001361166916F01006FBD11220FFF728FAD6
:1055B000D4F8003823F4FE63C4F80038A36943F438
:1055C000402343F01003A3610923C4F81038C4F842
:1055D00014380A4BEB604FF0C043C4F8103B084B43
:1055E000C4F8003BC4F81069C4F80039EB6D03F14E
:1055F000100243F48013EA65A362F8BD586C0008FA
:1056000040800010426D90F84E10D2F8003823F41C
:10561000FE6343EA0113C2F8003870472DE9F041F8
:105620000EB200EB86080D46D8F80C100F6807F094
:105630000303022B50D0032B50D03D4A3D4F012B8A
:1056400018BF1746446D4FEA451E04EB0E030022B7
:10565000C3F8102B8A6905F1100C002A40D04A8A41
:1056600005F158035B013A43E2500123D4F81C28AA
:1056700003FA0CF31343A6444A69C4F81C38002308
:10568000CEF8103905F13F03002A39D00A8A898BF8
:105690009208012988BF4A43C16D04EB8303561861
:1056A00041EA0242C66529465A602046FFF78EFE4F
:1056B000D8F80C301B8A43EA85531F4305F1480391
:1056C0005B01E7500123D4F81C2803FA05F51543C4
:1056D000C4F81C58BDE8F081174FB3E7174FB1E786
:1056E00004EB4613D3F8002B22F40042C3F8002B3E
:1056F000D4F81C28012303FA0CF322EA0303BAE7C7
:1057000004EB83030E4A5A6004EB461629462046F2
:10571000FFF75CFED6F8003923F40043C6F80039E1
:10572000D4F81C38012202FA05F523EA0505CFE773
:1057300000800010008004100080081000800C1011
:1057400000040002826D1268C265FFF715BE0000FA
:105750005831436D49015B5813F4004004D013F4F1
:10576000001F14BF01200220704700004831436D24
:1057700049015B5813F4004004D013F4001F14BF18
:10578000012002207047000000EB8101CB68196AFC
:105790000B6813604B6853607047000000EB810397
:1057A00030B5DD68AA691368D36019B9402B84BF8E
:1057B000402313606B8A1468426D1C44013CB4FBA7
:1057C000F3F46343033323F0030302EB411043EA92
:1057D000C44343F0C043C0F8103B2B6803F00303FD
:1057E000012B09B20ED1D2F8083802EB411013F4A4
:1057F000807FD0F8003B14BF43F0805343F0005348
:10580000C0F8003B02EB4112D2F8003B43F00443E6
:10581000C2F8003B30BD00002DE9F041244D6E6D13
:1058200006EB40130446D3F8087BC3F8087B38071F
:105830000AD5D6F81438190706D505EB8403214696
:10584000DB6828465B689847FA072FD5D6F81438E6
:10585000DB072BD505EB8403D968CCB98B69488A63
:105860005E68B6FBF0F200FB12628AB91868DA686B
:1058700090420DD2121A83E81400202383F311887A
:105880000B482146FFF78AFF84F31188BDE8F081B9
:10589000012303FA04F26B8923EA02036B81CB68CC
:1058A00023B121460248BDE8F0411847BDE8F08128
:1058B000BC60002000EB810370B5DD68436D6C694E
:1058C0002668E6604A0156BB1A444FF40020C2F82D
:1058D00010092A6802F00302012A0AB20ED1D3F895
:1058E000080803EB421410F4807FD4F8000914BFB9
:1058F00040F0805040F00050C4F8000903EB421221
:10590000D2F8000940F00440C2F80009D3F8340886
:10591000012202FA01F10143C3F8341870BD19B92C
:10592000402E84BF4020206020682E8A841940F0D9
:105930000050013C1A44B4FBF6F440EAC440C6E708
:10594000F8B504461E48456D05EB4413D3F80869C5
:10595000C3F80869F10717D5D5F81038DA0713D559
:1059600000EB8403D9684B691F68DA68974218D244
:10597000D21B00271A605F60202383F31188214621
:10598000FFF798FF87F31188330617D5D5F8342829
:105990000123A340134211D02046BDE8F840FFF791
:1059A0001FBD012303FA04F2038923EA02030381E2
:1059B0008B68002BE8D021469847E5E7F8BD00BF8B
:1059C000BC60002097482DE9F84F456D6E69AB69C2
:1059D0001E4016F4805F6E61044605D0FEF7D6FCCB
:1059E000BDE8F84FFEF780BA002E12DAD5F8003E77
:1059F0008C489B071EBFD5F8003E23F00303C5F873
:105A0000003ED5F8043823F00103C5F80438FEF74A
:105A1000EBFC370505D58348FFF7AEFC8148FEF760
:105A2000D3FCB0040CD5D5F8083813F0060FEB689A
:105A300023F470530CBF43F4105343F4A053EB60B2
:105A4000310704D56368DB680BB176489847F202EA
:105A50005AD4B3020CD5D4F85480DFF8C8A100277B
:105A60004FF00109A36D9B68F9B28B4280F08780EB
:105A7000F70619D5616D0A6AC2F30A1702F00F031F
:105A800002F4F012B2F5802F00F0A180B2F5402FA1
:105A90000AD104EB830301F58051DB68186A002307
:105AA0001A469F4240F087803003D5F8184813D536
:105AB000E10302D50020FFF7AFFEA20302D50120CB
:105AC000FFF7AAFE630302D50220FFF7A5FE270316
:105AD00002D50320FFF7A0FE750381D5E00702D5AC
