:020000040800F2
:1000000000060020E1010008250F0008A50E0008E9
:10001000FD0E0008A50E0008D10E0008E30100083F
:10002000E3010008E3010008E3010008D52100080E
:10003000E3010008E3010008E3010008E301000810
:10004000E3010008E3010008E3010008E301000800
:10005000E3010008E3010008D5320008013300087D
:100060002D3300085933000885330008E3010008E8
:10007000E3010008E3010008E3010008E3010008D0
:10008000E3010008E3010008E3010008E3010008C0
:10009000E3010008E3010008E3010008B1330008B0
:1000A000E3010008E3010008E3010008E3010008A0
:1000B000E3010008E3010008E3010008E301000890
:1000C000E3010008E3010008E3010008E301000880
:1000D000E3010008E3010008E3010008E301000870
:1000E00019340008E3010008E3010008E3010008F7
:1000F000E3010008E3010008E3010008E301000850
:10010000E3010008E301000841310008E3010008B1
:10011000E3010008E3010008E3010008E30100082F
:10012000E3010008E3010008E3010008E30100081F
:10013000E3010008E3010008E3010008E30100080F
:10014000E3010008E3010008E30100081D2900089D
:10015000E3010008E3010008E3010008E3010008EF
:10016000E3010008E3010008E3010008E3010008DF
:10017000E3010008E3010008E3010008E3010008CF
:10018000E3010008E3010008E3010008E3010008BF
:10019000E3010008E3010008E3010008E3010008AF
:1001A000E3010008E3010008E3010008E30100089F
:1001B000E3010008E3010008E3010008E30100088F
:1001C000E3010008E3010008E3010008E30100087F
:1001D000E3010008E3010008E3010008E30100086F
:1001E00002E000F000F8FEE772B63A4880F30888B3
:1001F000394880F3098839484EF60851CEF200019B
:10020000086040F20000CCF200004EF63471CEF2ED
:1002100000010860BFF34F8FBFF36F8F40F2000003
:10022000C0F2F0004EF68851CEF200010860BFF334
:100230004F8FBFF36F8F4FF00000E1EE100A4EF6C4
:100240003C71CEF200010860062080F31488BFF3F1
:100250006F8F02F03BF802F01BF802F0C9FE4FF07E
:1002600055301F491B4A91423CBF41F8040BFAE745
:100270001C49194A91423CBF41F8040BFAE71A495C
:100280001A4A1B4B9A423EBF51F8040B42F8040B2A
:10029000F8E700201749184A91423CBF41F8040B87
:1002A000FAE701F0F9FF02F0FFFE144C144DAC42E6
:1002B00003DA54F8041B8847F9E700F041F8114CC1
:1002C000114DAC4203DA54F8041B8847F9E701F0FA
:1002D000E1BF00000006002000220020000000080E
:1002E00000000020000600208038000800220020C6
:1002F0004022002040220020D42D0020E0010008F0
:10030000E0010008E0010008E00100082DE9F04FDD
:100310002DED108AC1F80CD0C3689D46BDEC108A43
:10032000BDE8F08F002383F311882846A047002002
:1003300001F06EFBFEE701F0EFFA00DFFEE70000E0
:1003400038B500F0A7FC40B1174B6FF03F01002219
:1003500059720F211A729972DA7201F00DFF044678
:1003600001F032FF0546D8B9104B9C421AD0013338
:100370009C4218BF054641F2883404BF0125002481
:10038000002001F003FF0DB100F05AF800F062FD0B
:1003900000F0AEFB204600F0B1F800F051F8F9E7AC
:1003A0000024EDE70446EBE700220020010007B03F
:1003B00008B500F06FFBA0F120035842584108BD7A
:1003C00007B5054B02211B88ADF8043001A800F0E9
:1003D0007FFB03B05DF804FB1435000810B5202343
:1003E00083F311881248C3680BB101F099FB002315
:1003F000104A0F484FF47A7101F054FB002383F345
:1004000011880D4C236813B12368013B2360636896
:1004100013B16368013B6360084B1B7833B96368B1
:1004200023B9022000F07CFC3223636010BD00BFC2
:1004300040220020DD0300085C230020542200201D
:1004400010B5254B254953F8042F013200D110BDBA
:100450008B42F8D1224C234B22689A423AD9224B44
:100460009B6803F1006303F580439A4232D2002077
:1004700000F058FB1D4B0220187000F043FC1C4B91
:100480001A6C00221A64196E1A66196E596C5A6435
:10049000596E5A665A6E5A6942F080025A615A6918
:1004A00022F080025A615A691A6942F000521A61B8
:1004B0001A6922F000521A611B6972B60D4A0E4B7E
:1004C00013601B682268202181F311889D4683F305
:1004D0000888104710BD00BFFC3F00081C40000802
:1004E00004400008FF3F00080022002054220020A2
:1004F0000038024008ED00E0004000082DE9F04F10
:1005000099B0BB4D00902022FF2110A8AC6800F0EC
:1005100043FCB84A01951378A3B9B7480121C360D9
:100520001170202383F31188C3680BB101F0F8FA2E
:100530000023B24AB0484FF47A7101F0B3FA0023B5
:1005400083F31188009BAE4A03B11360AD4B009D4D
:10055000029300261E705660B2463746B14601200F
:1005600000F0D0FB002D00F02B82A54B1B68002B68
:1005700040F0268219B0BDE8F08F0220FFF718FF87
:10058000002840F01682009B002E08BF1D469E4B9F
:1005900002211B88ADF82C300BA800F099FADEE799
:1005A0004FF47A7000F076FAB0F10008EBDB02202D
:1005B000FFF7FEFE0028E6D008F1FF38B8F1050F7E
:1005C00000F2F981DFE808F0030B0E11143718A8C8
:1005D000052340F8343D042100F07AFA17E00421A5
:1005E0008348F9E704218948F6E704218848F3E7BE
:1005F0004FF01C09484600F097FA09F104090B90E6
:1006000004210BA800F064FAB9F12C0FF2D10123F8
:1006100003FA08F848EA0A0A5FFA8AFA4FF0000972
:1006200000F00EFC27B10AF00B030B2B08BF0025CE
:10063000FFF7C6FE93E704217648CDE7002FA2D04E
:100640000AF00B030B2B9ED10220FFF7B1FE804670
:10065000002898D001206B4E00F064FA0220307020
:1006600000F050FB00275FFA87FB584600F06AFA5B
:10067000054688B1584600F075FA01370028F2D1D6
:1006800046460025644B02211B88ADF82C300BA890
:1006900000F01EFA474662E701230220337000F0A3
:1006A00023FB2C46019B9B689C4206D2204600F00F
:1006B0003BFA0130E4D10434F4E7029B00241C70BF
:1006C0004F4B46465C6047462546A9E7002F3FF45E
:1006D0005AAF0AF00B030B2B7FF455AF029B02209D
:1006E000187000F00FFB322000F0D4F9B0F1000BCD
:1006F000FFF649AF1BF003087FF445AF019B9968F3
:1007000004EB0B028A423FF63EAFBBF5807F3FF61B
:100710003AAF424A0392D8450FDA4FF47A7000F0AC
:10072000B9F9049004990029FFF62DAF039A0499B2
:1007300008F8021008F10108ECE7C820FFF738FEBE
:10074000804600283FF41FAF1F2C11D8C4F12007AA
:100750005F4528BF5F4610AB24F003003A462F499F
:10076000184400F0EFFA3A46FF212C4800F014FB41
:100770004FEAAB03DAB229490393204600F014FB99
:10078000074600283FF47EAF039B04EB830447E752
:100790000220FFF70DFE00283FF4F5AE00F008FA46
:1007A00000283FF4F0AE4FF000084346019A9268EB
:1007B000904535D2B8F11F0F12D8109A01320FD0E0
:1007C00028F0030218A90A4452F8202C0B9218466C
:1007D00004220BA900F0A8FB08F104080346E5E792
:1007E0004046039300F0A0F9039B0B90EFE700BF96
:1007F000002200205823002040220020DD030008B2
:100800005C2300205422002016350008042200201A
:10081000082200200C220020183500085822002051
:1008200018A8042140F84C3D00F052F9F8E618A849
:10083000002340F8343D642100F040F900287FF4A3
:10084000A2AE0220FFF7B4FD00283FF49CAE0B9847
:1008500000F09AF918AB43F8480D04211846E3E775
:1008600018A8002340F8343D642100F027F900283F
:100870007FF489AE0220FFF79BFD00283FF483AE92
:100880000B9800F08FF918AB43F8440DE5E7022010
:10089000FFF78EFD00283FF476AE00F099F918AB13
:1008A00043F8400DD9E70220FFF782FD00283FF40E
:1008B0006AAE0BA9142000F091F9804618A8042113
:1008C00040F83C8D00F004F941460BA8ACE732201B
:1008D00000F0E0F8B0F10008FFF655AE18F0030F95
:1008E0007FF451AE019A926808EB090393423FF6F8
:1008F0004AAE0220FFF75CFD00283FF444AE28F02A
:100900000308C844C1453FF48BAE484600F00CF9DB
:1009100004210A900AA800F0DBF809F10409F1E7C4
:100920004FF47A70FFF744FD00283FF42CAE00F03E
:100930003FF9002842D0109B01330BD0082210A9A8
:10094000002000F031FA002838D02022FF2110A822
:1009500000F022FAFFF734FD3A4801F05FF809E6AB
:10096000002F3FF410AE0AF00B030B2B7FF40BAEFD
:1009700018A8002340F8343D642100F09FF8804619
:1009800000287FF400AE0220FFF712FD00283FF49C
:10099000FAAD0390FFF714FD41F2883001F03EF804
:1009A0000B9800F07DFA00F04BFA039B45461F467A
:1009B000D5E5074634E64FF00009E4E5B84661E6C0
:1009C000002000F067F80490049B002BFFF6CAADEE
:1009D000012000F089F9049B213B162B3FF6BFADA7
:1009E00001A252F823F000BF7B050008A105000812
:1009F0003D0600085F0500085F0500085F05000868
:100A0000CD060008CF080008910700082F0800084D
:100A1000610800088F0800085F050008A7080008A3
:100A20005F05000821090008210600085F0500088D
:100A30006109000887050008210600085F05000815
:100A40002F080008A086010070B50F4B0C461978DE
:100A50000131C9B2012906460FD80C4803681D6A46
:100A60004FF47A73534331462246A847844204D157
:100A7000074B00221A70012070BD4FF4FA7000F08D
:100A8000CDFF002070BD00BF1022002050250020A7
:100A90009023002007B502AB002203F8012D0121AD
:100AA00002461846FFF7D0FF20B19DF8070003B0BB
:100AB0005DF804FB4FF0FF30F9E700000A4608B587
:100AC0000421FFF7C1FF80F00100C0B2404208BD21
:100AD00030B4054C2368DD69044B0A46AC46014638
:100AE000204630BC604700BF50250020A086010092
:100AF00070B501F03DFA094C094E208000253068A0
:100B00002388834208D901F02DFA33680544013364
:100B1000B5F5804F3360F2D370BD00BF9223002043
:100B20006423002001F0DABA00F1006000F5804093
:100B30000068704700F10060920000F5804001F00D
:100B400065BA0000054B1A68054B1B889B1A834247
:100B500002D9104401F006BA002070476423002037
:100B60009223002038B5074D04462868204401F040
:100B700001FA28B928682044BDE8384001F012BACB
:100B800038BD00BF6423002010F0030308D1B0F586
:100B9000047F05D200F10050A0F5084000687047BE
:100BA00000207047014BC058704700BF107AFF1FEC
:100BB000064991F8243033B100230822086A81F8ED
:100BC0002430FFF7B7BF0120704700BF6823002023
:100BD000014B1868704700BF002004E070B52A4B35
:100BE0001C68C4F30B03240C63B140F2134293421C
:100BF00031D040F2194293422FD040F22142934229
:100C00002DD10323214A0C2505FB03235D6893F9AD
:100C1000082042F201039C4224D0B4F5805F23D027
:100C200041F201039C4221D041F203039C421FD0B8
:100C300041F207039C4208BF3122441E0C44013D8F
:100C40000B46A3421ED215F9016F581C96B10346FC
:100C500000F8016CF5E70123D4E70223D2E73F2235
:100C60000B4DD6E73322E3E74122E1E75A22E4E7DE
:100C70005922E2E72C2584421D7001D9981C5A7034
:100C8000401A70BD1846FBE7002004E03C35000820
:100C90001C350008124B5A8842F201018A4293B275
:100CA00014D0B3F5805F13D041F20102934211D00A
:100CB00041F2030293420FD041F2070293420DD159
:100CC0000423084A02EB8303D87870470023F8E72F
:100CD0000123F6E70223F4E70323F2E7002070473D
:100CE000002004E028350008022804D14FF4807267
:100CF000034B9A6170470128FCD14FF48062F7E7FB
:100D000000100240022804D14FF08072034B9A6118
:100D100070470128FCD14FF08062F7E700100240D5
:100D2000022805D1064A536983F4807353617047E2
:100D30000128FCD1024A536983F48063F6E700BFBF
:100D40000010024010B50023934203D0CC5CC45481
:100D50000133F9E710BD000030B5441E14F9010F4E
:100D60000B4660B193F90050854201F1010106D1B3
:100D70001AB993F90020801A30BD013AEEE7002A33
:100D8000F7D1104630BD000002460346981A13F909
:100D9000011B0029FAD1704702440346934202D056
:100DA00003F8011BFAE770472DE9F047234C94F84C
:100DB000243005468846174683BB2E46DFF87C90D4
:100DC000C7B394F824302BB92022FF21484626626D
:100DD000FFF7E2FF94F82400C0F10805BD4228BFE8
:100DE0003D465FFA85FAAD0041462A4604EB800095
:100DF000FFF7A8FF94F82430A7EB0A079A445FFA9C
:100E00008AFABAF1080F2E44A844FFB284F824A04D
:100E1000D6D1FFF7CDFE0028D2D108E0266A06EB36
:100E20008306B042CAD0FFF7C3FE0028C5D1002018
:100E3000BDE8F0870120BDE8F08700BF68230020EF
:100E4000024B1A78024B1A70704700BF90230020A3
:100E50001022002038B50E4D0E4C284600F0F4F854
:100E60002146284600F01CF924680B48626D936BFC
:100E700023F40023936300F0D1FD0849204600F0DD
:100E80001BFA626D936B43F40023936338BD00BF7C
:100E9000502500203036000840420F005836000828
:100EA0007047000000B59BB0EFF3098168226846E7
:100EB000FFF748FFEFF30583044B9A6BDA6A9A6AEF
:100EC0009A6A9A6A9A6A9A6A9B6AFEE700ED00E05B
:100ED00000B59BB0EFF3098168226846FFF732FF47
:100EE000EFF30583044B9A6B9A6A9A6A9A6A9A6A34
:100EF0009A6A9B6AFEE700BF00ED00E000B59BB078
:100F0000EFF3098168226846FFF71CFFEFF30583C2
:100F1000034B5A6B9A6A9A6A9A6A9A6A9B6AFEE7C4
:100F200000ED00E0FEE7000030B5084D0A449142B4
:100F30000BD011F8013B09245840013CF7D040F395
:100F400000032B4083EA5000F7E730BD2083B8ED63
:100F5000026843681143016003B1184770470000FD
:100F600013B5446BD4F894341A681178042915D158
:100F7000217C022912D11979128901238B40134255
:100F80000CD101A904F14C0001F030FFD4F89444D5
:100F9000019B21790246206800F0DAF902B010BD09
:100FA000143001F0B3BE00004FF0FF33143001F0F5
:100FB000ADBE00004C3001F085BF00004FF0FF33A4
:100FC0004C3001F07FBF0000143001F081BE000002
:100FD0004FF0FF31143001F07BBE00004C3001F0C7
:100FE00051BF00004FF0FF324C3001F04BBF00000A
:100FF000D0F8942438B5136819780429054601D02F
:10100000012038BD017C0229FAD152795C89012086
:1010100090400440F4D105F1140001F013FE0246A3
:101020000028EDD0D5F894544FF48073286869797E
:1010300000F07CF9204638BD406BFFF7D9BF0000B7
:1010400000207047704700007FB5124B03600023FB
:1010500043608360C360012502260F4B057404467C
:101060000290019300F18402294600964FF48073A8
:10107000143001F0C3FD094B0193029400964FF424
:10108000807304F52372294604F14C0001F08AFEB6
:1010900004B070BD8C35000839100008610F0008DD
:1010A0000B68202282F311880A7903EB8202906197
:1010B0004A79093243F822008A7912B103EB82039C
:1010C000986102230374C0F89414002383F31188F9
:1010D0007047000038B5037F044613B190F85430D0
:1010E000ABB9201D01250221FFF732FF04F11400E6
:1010F00025776FF0010100F0B9FC84F8545004F139
:101100004C006FF00101BDE8384000F0AFBC38BDC5
:1011100010B5012104460430FFF71AFF002323779E
:1011200084F8543010BD000038B504460025143052
:1011300001F07CFD04F14C00257701F04BFE201DF1
:1011400084F854500121FFF703FF2046BDE83840E2
:10115000FFF74EBF90F8443003F06003202B19D105
:1011600090F84520212A0AD0222A4FF000030ED001
:10117000202A0FD1084A82630722C26304E0064B8B
:1011800083630723C36300230364012070478363E1
:10119000C363F9E70020704711220020D0F894348F
:1011A00037B51A681178042904461AD1017C02293E
:1011B00017D11979128901238B40134211D100F103
:1011C0004C05284601F0C6FE58B101A9284601F099
:1011D0000DFED4F89444019B21790246206800F06A
:1011E000B7F803B030BD000000EB8103F7B59C6990
:1011F00005460E46F4B1202383F3118805EB8607DC
:10120000201D0821FFF7A4FEFB685B691B684C34B6
:1012100013B1204601F0F8FD01A9204601F0E6FDDA
:10122000024648B1019B3146284600F091F8002360
:1012300083F3118803B0F0BDFB685A691268002A75
:10124000F5D01B8A013B1340F1D105F14402EAE7D6
:10125000093138B550F82140DCB1202383F31188DF
:10126000D4F894241368527903EB8203DB689B69FA
:101270005D6845B104216018FFF76AFE294604F154
:10128000140001F0E9FC2046FFF7B2FE002383F3CF
:10129000118838BD7047000001F092B80123037037
:1012A00000234360C36183620362C36243620363DA
:1012B000038143817047000038B50446202383F33F
:1012C000118800254160C56005614561856101F0B7
:1012D00087F80223237085F3118838BD70B500EBC1
:1012E000810305465069DA600E46144618B1102293
:1012F0000021FFF751FDA06918B110220021FFF76E
:101300004BFD31462846BDE8704001F033B900007E
:10131000028902F001020281428902F00102428147
:10132000002202614261826101F0B8B9F0B400EBC1
:1013300081044789E4680125A4698D403D434581C6
:1013400023600023A2606360F0BC01F0D3B9000009
:10135000F0B400EB81040789E468012564698D40DD
:101360003D43058123600023A2606360F0BC01F06F
:101370004DBA000070B50223002504460370A0F8A2
:101380004C5080F84E5080F84F5005814581C56023
:1013900005614561856180F8345001F087F8636824
:1013A0001B6823B129462046BDE87040184770BD30
:1013B000037880F850300523037043681B6810B52C
:1013C00004460BB10421984700232381638110BD9B
:1013D000436890F850201B6802700BB10521184734
:1013E0007047000090F8343070B5044613B1002304
:1013F00080F8343004F14402204601F071F963684A
:101400009B6863BB94F8445015F0600615D194F8BE
:10141000453005F07F0545EA032540F202339D4241
:1014200000F00E815BD8022D00F0DC803FD8002D4B
:1014300000F08780012D00F0CF800021204601F0D0
:10144000A9FB0021204601F09BFB63681B6813B1D8
:10145000062120469847062384F8343070BD204684
:1014600098470028CED094F84B2094F84A3043EAAD
:101470000223E26B934238BFE36394F94430E56B97
:10148000002B4FF0200380F2FD80002D00F0EC8057
:10149000092284F8342083F311880021E36BA26BC6
:1014A0002046FFF755FF002383F3118870BDB5F583
:1014B000817F00F0B180B5F5407F49D0B5F5807FE0
:1014C000BBD194F84630012BB7D1B4F84C3023F09F
:1014D0000203A4F84C30A663E6632664C3E740F237
:1014E00001639D421ED8B5F5C06F3BD2B5F5A06F24
:1014F000A3D1B4F84430B3F5A06F0ED194F84630C0
:1015000084F84E30204601F029F863681B6813B157
:10151000012120469847032323700023A363E3633C
:101520002364A0E7B5F5106F32D040F602439D4228
:1015300052D0B5F5006F80D104F14F03A3630123AE
:1015400024E004F14C03A3630223E36325648AE7E8
:1015500094F84630012B7FF470AFB4F84C3043F070
:101560000203B6E794F84920616894F848304D6862
:1015700094F8471043EA0223204694F84620A847EF
:1015800000283FF45AAF4368A3630368E363A4E70A
:101590002378042B10D1202383F311882046FFF7F2
:1015A000B7FE86F31188636884F84F601B680321D7
:1015B00021700BB12046984794F84630002BACD0F0
:1015C00084F84F300423237063681B68002BA4D079
:1015D000022120469847A0E7374BA3630223E36329
:1015E00000239DE794F8481011F0800F204601F089
:1015F0000F010ED001F066F8012806D002287FF412
:101600001CAF2E4BA363E06367E72D4BA363E56339
:1016100063E701F049F8EFE794F84630002B7FF4D8
:101620000CAF94F8483013F00F013FF476AF1A0670
:10163000204602D501F0C2FA6FE701F0B5FA6CE777
:1016400094F84630002B7FF4F8AE94F8483013F04D
:101650000F013FF462AF1B06204602D501F09AFA53
:101660005BE701F08DFA58E7142284F8342083F305
:1016700011882B462A4629462046FFF757FE85F358
:10168000118870BD5DB1152284F8342083F3118870
:101690000021E36BA26B2046FFF748FE03E70B2215
:1016A00084F8342083F311882B462A4629462046A5
:1016B000FFF74EFEE3E700BFBC350008B435000875
:1016C000B835000838B590F834300446152B29D8C1
:1016D000DFE803F03E28282828283E28280B29394F
:1016E00028282828282828283E3E90F84B1090F8D3
:1016F0004A20C36B42EA01229A4214D9C268128A74
:10170000B3FBF2F502FB15356DB9202383F3118885
:101710002B462A462946FFF71BFE85F311880A232C
:1017200084F8343038BD142384F83430202383F314
:10173000118800231A4619462046FFF7F7FD0023BB
:1017400083F3118838BD036C03B198470023E7E7A2
:10175000002101F01FFA0021204601F011FA636810
:101760001B6813B10621204698470623D8E70000DE
:1017700090F83420152A38B5044622D80123934026
:1017800040F6416213421DD113F480150FD19B0224
:1017900017D50B2380F83430202383F311882B4690
:1017A0002A462946FFF7D4FD85F3118838BDC36862
:1017B0009B695B682BB9036C03B19847002384F8DD
:1017C000343038BD002101F0E5F90021204601F058
:1017D000D7F963681B6813B1062120469847062392
:1017E000EDE70000024B00221B605B609A607047CF
:1017F00094230020002303748268054B1B689968BA
:101800009142FBD25A680360426010605860704792
:101810009423002008B5202383F31188037C032B35
:1018200005D0042B0DD02BB983F3118808BD436973
:1018300000221A604FF0FF334361FFF7DBFF002304
:10184000F2E790E80C001A6002685360F2E70000CB
:10185000002303748268054B1B6899689142FBD88A
:101860005A680360426010605860704794230020FB
:10187000054B19690874186802681A60536018618A
:1018800001230374FEF742BD9423002030B54B1CA6
:1018900087B005460A4C10D023690A4A01A800F017
:1018A00001F92846FFF7E4FF049B13B101A800F0FB
:1018B00037F92369586907B030BDFFF7D9FFF8E75A
:1018C000942300201518000838B50C4D41612B6990
:1018D00081689A689142044603D8BDE83840FFF712
:1018E00089BF1846FFF7B4FF01232C61014623741A
:1018F0002046BDE83840FEF709BD00BF9423002014
:10190000044B1A681B6990689B68984294BF00203A
:10191000012070479423002010B5084C23682069EB
:101920001A6822605460012223611A74FFF790FF45
:1019300001462069BDE81040FEF7E8BC9423002072
:10194000FEE7000010B50C4CFFF74CFF00F09CF8D0
:1019500080220A49204600F021F8012344F8180C9F
:10196000037400F047FC002383F3118862B6044837
:10197000BDE8104000F034B8BC230020C03500089A
:10198000C835000800F008B9034B59685A68521A64
:101990009042FBD8704700BF001000E08260022236
:1019A00002740022427470478368A3F17C0243F8FA
:1019B0000C2C026943F83C2C426943F8382C074A46
:1019C00043F81C2CC26843F8102C022203F8082CA0
:1019D000002203F8072CA3F1180070472503000824
:1019E00010B5202383F31188FFF7DEFF00210446A2
:1019F000FFF76AFF002383F31188204610BD000023
:101A0000024B1B6958610F20FFF732BF942300205F
:101A1000202383F31188FFF7F3BF000008B50146C8
:101A2000202383F311880820FFF730FF002383F37E
:101A3000118808BD49B1064B42681B6918605A609D
:101A4000136043600420FFF721BF4FF0FF30704761
:101A5000942300200368984206D01A680260506000
:101A600059611846FFF7C6BE7047000038B50446F6
:101A70000D462068844200D138BD036823605C6055
:101A80004561FFF7B7FEF4E7054B03F114025A6115
:101A90009A614FF0FF32DA6100221A62704700BF8C
:101AA00094230020F8B50361C2600E46054601F09C
:101AB00089FA1A4B19461F4651F8142F8A420DD144
:101AC0001862AE606A602A600A2E2CBF80190A3044
:101AD0009D615D61BDE8F84001F05EBA1B6A9268E5
:101AE000C41A341928BF3446A24202D9181901F089
:101AF00063FA7B699A6894420CD8AC6098685A681B
:101B00002B60041B6A6015605D609C604FF0FF33C2
:101B1000FB61F8BDA41A1B68ECE700BF942300200A
:101B200038B51C4B01685A6990421D460DD0446877
:101B30002160026800215460C1609168806801449E
:101B400091604FF0FF32DA6138BD1A4642F8141F37
:101B50004A605B6900219342C16003D1BDE838400F
:101B600001F024BA9A6881680A449A602C6A01F0EC
:101B700029FA6A699268001B82420AD9111A092956
:101B800098BF00F10A02286ABDE83840104401F00D
:101B900013BA38BD942300202DE9F041184D0027D9
:101BA00005F114066C6901F00DFA2A6AA368811A1E
:101BB0008B4216D813442B6294E80C001A602268FA
:101BC000D4F80C8053606B69E760B34201D101F037
:101BD000EDF987F311882069C047202383F311882A
:101BE000E0E76A69B24208D05B1A0A2B2CBFC01822
:101BF0000A30BDE8F04101F0DFB9BDE8F08100BF77
:101C00009423002000207047FEE70000704700008A
:101C10004FF0FF3070470000022906D0032906D09C
:101C20000129064818BF0020704705487047032A5D
:101C30009ABF044800EBC20000207047B436000889
:101C4000683600082022002070B59AB001AD064623
:101C500008462946144600F0BDF82846FFF794F8D8
:101C6000C0B2431C5B0086E8180023700323637036
:101C7000002302341946DAB2904204F1020401D87A
:101C80001AB070BDEA5C04F8022C04F8011C0133A0
:101C9000F1E7000008B5202383F311880348FFF71C
:101CA0007DFA002383F3118808BD00BF5025002072
:101CB00090F8443003F01F02012A07D190F8452024
:101CC0000B2A03D100238363C36312E003F0600394
:101CD000202B11D1B0F8483073B990F84520212A53
:101CE00003D0222AEFD0202A06D1044A8263072299
:101CF000C263036401207047FFF72CBA182200204A
:101D000010B50446052916D8DFE801F016150316AC
:101D1000161D202383F311880E4A0121FFF7DEFAF6
:101D200020460D4A0221FFF7D9FA0C48FFF7FCF9CB
:101D3000002383F3118810BD202383F31188074803
:101D4000FFF7C8F9F4E7202383F311880348FFF76E
:101D5000DFF9EDE7E83500080C36000850250020D3
:101D600038B50C4D0C4C0D492A4604F10800FFF71C
:101D70006BFF05F1CA0204F110000949FFF764FF87
:101D800005F5CA7204F118000649BDE83840FFF7AE
:101D90005BBF00BF182A0020202200203836000830
:101DA000413600084C36000870B5044608460D461A
:101DB000FEF7EAFFC6B22046013403780BB9184695
:101DC00070BD32462946FEF7C7FF0028F3D1012037
:101DD00070BD00002DE9F84F05460C46FEF7D4FF14
:101DE0002A49C6B22846FFF7DFFF08B1023EF6B225
:101DF00027492846FFF7D8FF08B11036F6B2632E00
:101E00000DD8DFF88890DFF888A0224FDFF88CB07B
:101E1000DFF88C802E7846B92670BDE8F88F294609
:101E20002046BDE8F84F01F06DBB252E29D10722D1
:101E300049462846FEF790FF40B9D8F800302360A5
:101E400098F80430237107350534E3E7082251463A
:101E50002846FEF781FFA0B90F4BA21C13F8011F03
:101E600009095B45C95D02F8021C197801F00F01F0
:101E700002F10202C95D02F8031CEFD118340835E3
:101E8000C8E7267001350134C4E700BFD436000826
:101E90004C360008E23600080F7AFF1F1B7AFF1F3E
:101EA000DC360008BFF34F8F024AD368DB03FCD453
:101EB000704700BF003C024008B5094B1B7873B95E
:101EC000FFF7F0FF074B1A69002ABFBF064A5A60A6
:101ED00002F188325A601A6822F480621A6008BDE2
:101EE000762C0020003C02402301674508B50B4BCF
:101EF0001B7893B9FFF7D6FF094B1A6942F00042ED
:101F00001A611A6842F480521A601A6822F48052E8
:101F10001A601A6842F480621A6008BD762C0020AC
:101F2000003C0240172870B513D80B4A0B4C1378AD
:101F300063B90B4E4FF0006144F8231056F823505C
:101F40000133182B2944F7D10123137054F82000D2
:101F500070BD002070BD00BFD82C0020782C002060
:101F6000F4360008014B53F820007047F43600089F
:101F700018207047172810B5044601D9002010BD5D
:101F8000FFF7D0FF064B53F824301844C21A0BB9A0
:101F9000012010BD12680132F0D1043BF6E700BF0A
:101FA000F4360008172810B5044629D8FFF77AFF41
:101FB000FFF782FF1349F323CB600C23B0FBF3F24E
:101FC00003FB1200D30143EAC003DBB243F4007306
:101FD00043F002030B610B6943F480330B61FFF79D
:101FE00061FF2046FFF79EFF074B53F8241000F0D7
:101FF000DDF8FFF77BFF2046BDE81040FFF7BABFD2
:10200000002010BD003C0240F43600082DE9F843E2
:1020100012F00103154640D18218B2F1026F3CD88C
:102020002C4B1B6813F0010337D02B4CFFF744FFF8
:10203000F323E360FFF736FF40F20127032D01D9B8
:10204000830713D0244C0F46401A40F20118EB1BB3
:102050000B44012B00EB0706236924D823F001036E
:102060002361FFF743FF0120BDE8F883236923F4D0
:102070004073236123693B43236151F8046B06607D
:10208000BFF34F8FFFF70EFF03689E4208D023690E
:1020900023F001032361FFF729FF0020BDE8F88347
:1020A000043D0430CAE723F440732361236943EA03
:1020B00008032361B94637F8023B3380BFF34F8FE3
:1020C000FFF7F0FE3688B9F80030B6B2B342BED0A2
:1020D000DDE700BF00380240003C0240084908B577
:1020E0000B7828B153B9FFF7E7FE01230B7008BD49
:1020F00023B1BDE808400870FFF7F8BE08BD00BF77
:10210000762C002010B50244064B0439D2B290421E
:1021100000D110BD441C00B253F8200041F8040F58
:10212000E0B2F4E750280040104B30B51C6F240497
:1021300007D41C6F44F400741C671C6F44F4004403
:102140001C670B4C236843F4807323600244094BE3
:102150000439D2B2904200D130BD441C00B251F8D3
:10216000045F43F82050E0B2F4E700BF00380240BB
:10217000007000405028004007B5012201A900204E
:10218000FFF7C0FF019803B05DF804FB13B50446E8
:10219000FFF7F2FFA04206D002A9012241F8044D48
:1021A0000020FFF7C1FF02B010BD00007047000023
:1021B000034B1B689B0042BF024B01221A70704701
:1021C00074380240D92C0020014B1878704700BFAA
:1021D000D92C0020EFF3098305494A6822F0010257
:1021E0004A60683383F30988002383F311887047BA
:1021F00030EF00E0202080F3118862B60B4B0C4AD0
:10220000D96821F4E0610904090C0A430949DA603C
:10221000CA6842F08072CA6007490A6842F0010247
:102220000A601022DA7783F82200704700ED00E0A0
:102230000003FA05F0ED00E0001000E010B52023E7
:1022400083F311880E4B5B6813F4006314D0F1EE36
:10225000103AEFF30984683C4FF08073E361094B57
:10226000DB68236684F30988FFF74AFB10B1064B4D
:10227000A36110BD054BFBE783F3118810BD00BFC0
:1022800000ED00E030EF00E0370300083A030008FB
:1022900070470000FEE70000084A094B09498B42DD
:1022A00004D3094A0021934205D3704752F8040F22
:1022B00043F8040BF3E743F8041BF4E7BC380008C9
:1022C000D42D0020D42D0020D42D002070470000F4
:1022D000836D70B5446D9E6800214FF0FF354A0153
:1022E000A3180131D3F800090028BEBFD3F80009B4
:1022F00040F08040C3F80009D3F8000B0028BEBFAF
:10230000D3F8000B40F08040C3F8000BA3188E42B6
:10231000C3F80859C3F8085BE1D24FF00113C4F8C1
:102320001C3870BD890141F02001016103699B06E1
:10233000FCD41220FFF728BB204B03EB80022DE9D1
:10234000F047D2F80CE05D6DDEF81420461CD2F8A0
:1023500000C005EB063605EB4018516861450BD30C
:10236000D5F83428012303FA00F022EA0000C5F86A
:1023700034081846BDE8F087BEF81040ACEB010306
:10238000A34228BF2346D8F81849A4B2B3EB840F60
:1023900010D894681F46A4F1040959F804AFC6F890
:1023A00000A0042F01D9043FF7E71C440B449460BC
:1023B0005360D2E70020BDE8F08700BFDC2C00208E
:1023C00010B5054C2046FEF769FF4FF0A04363654A
:1023D000024BA36510BD00BFDC2C0020783700083D
:1023E0000378012B70B5054650D12A4B446D9842B5
:1023F0001BD1294B5A6B42F080025A635A6D42F04E
:1024000080025A655A6D5A6942F080025A615A69CF
:1024100022F080025A610E2143205B6900F0D8FB54
:102420001E4BE3601E4BC4F800380023C4F8003E86
:10243000C02323606E6D4FF45023A3633369002BD8
:10244000FCDA012333610C20FFF79EFA3369DB07C6
:10245000FCD41220FFF798FA3369002BFCDA00262F
:10246000A6602846FFF734FF6B68C4F81068DB6885
:10247000C4F81468C4F81C684BB90A4BA3614FF048
:10248000FF336361A36843F00103A36070BD064B93
:10249000F4E700BFDC2C002000380240401400406C
:1024A00003002002003C30C0083C30C0F8B5446D49
:1024B000054600212046FFF735FFA96D00234FF0A8
:1024C00001128F68C4F834384FF00066C4F81C2835
:1024D0004FF0FF3004EB431201339F42C2F8006912
:1024E000C2F8006BC2F80809C2F8080BF2D20B68F8
:1024F0006A6DEB65636210231361166916F01006AE
:10250000FBD11220FFF740FAD4F8003823F4FE6321
:10251000C4F80038A36943F4402343F01003A361D7
:102520000923C4F81038C4F814380A4BEB604FF094
:10253000C043C4F8103B084BC4F8003BC4F8106912
:10254000C4F80039EB6D03F1100243F48013EA651F
:10255000A362F8BD5437000840800010426D90F827
:102560004E10D2F8003823F4FE6343EA0113C2F898
:10257000003870472DE9F0410EB200EB86080D4699
:10258000D8F80C100F6807F00303022B50D0032B70
:1025900050D03D4A3D4F012B18BF1746446D4FEABE
:1025A000451E04EB0E030022C3F8102B8A6905F1C7
:1025B000100C002A40D04A8A05F158035B013A43C7
:1025C000E2500123D4F81C2803FA0CF31343A64469
:1025D0004A69C4F81C380023CEF8103905F13F03CE
:1025E000002A39D00A8A898B9208012988BF4A4378
:1025F000C16D04EB8303561841EA0242C6652946C1
:102600005A602046FFF78EFED8F80C301B8A43EA4A
:1026100085531F4305F148035B01E7500123D4F8BC
:102620001C2803FA05F51543C4F81C58BDE8F081D1
:10263000174FB3E7174FB1E704EB4613D3F8002B5E
:1026400022F40042C3F8002BD4F81C28012303FA1B
:102650000CF322EA0303BAE704EB83030E4A5A6041
:1026600004EB461629462046FFF75CFED6F80039F3
:1026700023F40043C6F80039D4F81C38012202FACA
:1026800005F523EA0505CFE700800010008004105F
:102690000080081000800C1000040002826D126897
:1026A000C265FFF715BE00005831436D49015B5804
:1026B00013F4004004D013F4001F14BF01200220C3
:1026C000704700004831436D49015B5813F40040E6
:1026D00004D013F4001F14BF012002207047000033
:1026E00000EB8101CB68196A0B6813604B6853607B
:1026F0007047000000EB810330B5DD68AA691368FC
:10270000D36019B9402B84BF402313606B8A1468CF
:10271000426D1C44013CB4FBF3F46343033323F0E8
:10272000030302EB411043EAC44343F0C043C0F843
:10273000103B2B6803F00303012B09B20ED1D2F832
:10274000083802EB411013F4807FD0F8003B14BF2F
:1027500043F0805343F00053C0F8003B02EB4112BA
:10276000D2F8003B43F00443C2F8003B30BD000008
:102770002DE9F041244D6E6D06EB40130446D3F86D
:10278000087BC3F8087B38070AD5D6F81438190730
:1027900006D505EB84032146DB6828465B6898472D
:1027A000FA072FD5D6F81438DB072BD505EB8403B1
:1027B000D968CCB98B69488A5E68B6FBF0F200FB39
:1027C00012628AB91868DA6890420DD2121A83E848
:1027D0001400202383F311880B482146FFF78AFF5A
:1027E00084F31188BDE8F081012303FA04F26B89B8
:1027F00023EA02036B81CB6823B121460248BDE87E
:10280000F0411847BDE8F081DC2C002000EB81038B
:1028100070B5DD68436D6C692668E6604A0156BB99
:102820001A444FF40020C2F810092A6802F003028B
:10283000012A0AB20ED1D3F8080803EB421410F4AF
:10284000807FD4F8000914BF40F0805040F0005061
:10285000C4F8000903EB4212D2F8000940F004402A
:10286000C2F80009D3F83408012202FA01F1014349
:10287000C3F8341870BD19B9402E84BF40202060C1
:1028800020682E8A841940F00050013C1A44B4FBA1
:10289000F6F440EAC440C6E7F8B504461E48456D64
:1028A00005EB4413D3F80869C3F80869F10717D595
:1028B000D5F81038DA0713D500EB8403D9684B69D3
:1028C0001F68DA68974218D2D21B00271A605F602F
:1028D000202383F311882146FFF798FF87F311889F
:1028E000330617D5D5F834280123A340134211D05D
:1028F0002046BDE8F840FFF71FBD012303FA04F2AC
:10290000038923EA020303818B68002BE8D0214668
:102910009847E5E7F8BD00BFDC2C002097482DE97B
:10292000F84F456D6E69AB691E4016F4805F6E61AD
:10293000044605D0FEF71EFDBDE8F84FFFF77EBC4C
:10294000002E12DAD5F8003E8C489B071EBFD5F842
:10295000003E23F00303C5F8003ED5F8043823F009
:102960000103C5F80438FEF733FD370505D5834864
:10297000FFF7AEFC8148FEF71BFDB0040CD5D5F87F
:10298000083813F0060FEB6823F470530CBF43F4C0
:10299000105343F4A053EB60310704D56368DB6840
:1029A0000BB176489847F2025AD4B3020CD5D4F84A
:1029B0005480DFF8C8A100274FF00109A36D9B6880
:1029C000F9B28B4280F08780F70619D5616D0A6AEB
:1029D000C2F30A1702F00F0302F4F012B2F5802FCF
:1029E00000F0A180B2F5402F0AD104EB830301F57A
:1029F0008051DB68186A00231A469F4240F08780A6
:102A00003003D5F8184813D5E10302D50020FFF7AD
:102A1000AFFEA20302D50120FFF7AAFE630302D591
:102A20000220FFF7A5FE270302D50320FFF7A0FE33
:102A3000750381D5E00702D50020FFF72DFFA10720
:102A400002D50120FFF728FF620702D50220FFF719
:102A500023FF23077FF570AF0320FFF71DFF6BE710
:102A6000D4F85480DFF814A100274FF00109A36DBA
:102A70009B685FFA87FB5B4597D308EB4B13D3F852
:102A8000002902F44022B2F5802F22D1D3F8002988
:102A9000002A1EDAD3F8002942F09042C3F8002938
:102AA000D3F80029002AFBDB5946606DFFF73AFC9A
:102AB000228909FA0BF322EA0303238104EB8B0337
:102AC000DB689B6813B15946504698475846FFF754
:102AD00033FC0137CBE708EB4112D2F8003B03F49B
:102AE0004023B3F5802F10D1D2F8003B002B0CDA35
:102AF000628909FA01F322EA0303638104EB81038B
:102B0000DB68DB680BB150469847013756E79C07F6
:102B100008BF0A68072B98BF027003F101039CBF2E
:102B2000120A013069E7023304EB830201F5805198
:102B3000526890690268D0F808C04068A2EB000EA5
:102B40000022104697420AD104EB830463689B6914
:102B50009A683A449A605A6817445F6050E712F0E6
:102B6000030F08BF0868964588BF8CF8000002F183
:102B7000010284BF000A0CF1010CE3E7DC2C002009
:102B8000436D03EB4111D1F8003B43F40013C1F84E
:102B9000003B7047436D03EB4111D1F8003943F41A
:102BA0000013C1F800397047436D03EB4111D1F8B0
:102BB000003B23F40013C1F8003B7047436D03EB67
:102BC0004111D1F8003923F40013C1F800397047DE
:102BD00000F1604300F01F02400903F56143090161
:102BE0008000C9B200F1604083F8001300F5614035
:102BF00001239340C0F880310360704730B5039CD7
:102C00000172043304FB0325C361049B03630021A9
:102C1000059B00604060C1604261026185610462A1
:102C200042628162C162436330BD00000022416A9A
:102C300041610161C2608262C2626FF00101FEF710
:102C400015BF000003694269934203D1C2680AB10B
:102C500000207047181D704703691960C26801326F
:102C6000C260C269134482690361934224BF436A0C
:102C700003610021FEF7EEBE38B504460D46E36859
:102C80003BB16269131D1268A3621344E362002022
:102C900038BD237A33B929462046FEF7CBFE0028FB
:102CA000EDDA38BD6FF00100FBE70000C368C269D0
:102CB000013BC3604369134482694361934224BF6B
:102CC000436A436100238362036B03B11847704773
:102CD00070B52023044683F31188866A3EB9FFF756
:102CE000CBFF054618B186F31188284670BDA36A4C
:102CF000E26A13F8015BA362934202D32046FFF716
:102D0000D5FF002383F31188EFE700002DE9F84F8A
:102D100004460E4690469946202787F311880025E1
:102D2000AA46D4F828B0BBF1000F09D14946204685
:102D3000FFF7A2FF20B18BF311882846BDE8F88F7A
:102D4000A16AE36AA8EB050B5B1A9B4528BF9B466B
:102D5000BBF1400F1BD9334601F1400251F8040B7F
:102D600043F8040B9142F9D1A36A40334036A36281
:102D70004035A26AE36A9A4202D32046FFF796FFE3
:102D80008AF311884545D8D287F31188C9E73046C0
:102D90005A46FDF7D7FFA36A5B445E44A3625D44D5
:102DA000E7E7000010B5029C0172043303FB042125
:102DB000C36100238362C362039B0363049B0060BF
:102DC0004060C460426102618161046242624363A7
:102DD00010BD0000026AC260426A426102610022C4
:102DE0008262C2626FF00101FEF740BE4369026970
:102DF0009A4203D1C2680AB100207047184650F8C1
:102E0000043B0B6070470000C368C2690133C360B4
:102E10004369134482694361934224BF436A436117
:102E20000021FEF717BE000038B504460D46E368E2
:102E30003BB123691A1DA262E2691344E3620020D8
:102E400038BD237A33B929462046FEF7F3FD002822
:102E5000EDDA38BD6FF00100FBE70000036919608F
:102E6000C268013AC260C269134482690361934235
:102E700024BF436A036100238362036B03B11847D5
:102E80007047000070B5202304460E4683F3118876
:102E9000856A35B91146FFF7C7FF10B185F3118870
:102EA00070BDA36A1E70A36AE26A01339342A362F3
:102EB00004D3E16920460439FFF7D0FF002080F3F6
:102EC000118870BD2DE9F84F04460D4691469A468B
:102ED0004FF0200888F311880026B346A76A4FB93F
:102EE00051462046FFF7A0FF20B187F311883046F6
:102EF000BDE8F88FA06AE76AA9EB06033F1A9F4274
:102F000028BF1F46402F1BD905F1400355F8042B5D
:102F100040F8042B9D42F9D1A36A4033A3624036A6
:102F2000A26AE36A9A4204D3E16920460439FFF7B2
:102F300095FF8BF311884E45D9D288F31188CDE7E0
:102F400029463A46FDF7FEFEA36A3B443D44A36290
:102F50003E44E5E7026943699A4203D1C3681BB95D
:102F6000184670470023FBE7836A002BF8D0043B28
:102F70009B1AF5D01360C368013BC360C3691A4450
:102F8000836902619A4224BF436A0361002383621A
:102F90000123E5E700F096B8034B002258631A615D
:102FA0000222DA60704700BF000C0040014B002293
:102FB000DA607047000C0040014B5863704700BF57
:102FC000000C0040014B586A704700BF000C0040E5
:102FD0004B6843608B688360CB68C3600B69436157
:102FE0004B6903628B6943620B68036070470000A2
:102FF00008B5224B22481A6940F2FF110A431A61B0
:103000001A6922F4FF7222F001021A611A691A6B1E
:103010000A431A631A6D0A431A651A4A1B6D114650
:10302000FFF7D6FF184802F11C01FFF7D1FF174840
:1030300002F13801FFF7CCFF154802F15401FFF708
:10304000C7FF144802F17001FFF7C2FF124802F1F6
:103050008C01FFF7BDFF114802F1A801FFF7B8FF8F
:103060000F4802F1C401FFF7B3FF0E4802F1E0017F
:10307000FFF7AEFFBDE8084000F0AEB800380240F0
:1030800000000240843700080004024000080240AB
:10309000000C0240001002400014024000180240E0
:1030A000001C02400020024008B500F00FFAFEF7B5
:1030B00049FCFFF77DF8BDE80840FEF751BE00006F
:1030C00070470000104B1A6C42F008021A641A6E26
:1030D00042F008021A660D4A1B6E936843F008031B
:1030E00093600B4B53229A624FF0FF32DA62002258
:1030F0009A615A63DA605A6001225A6108211A60A3
:103100003220FFF765BD00BF00380240002004E018
:10311000000C0040094A08B51369D1680B40D9B2C8
:10312000C9439B07116107D5202383F31188FEF75C
:1031300029FC002383F3118808BD00BF000C004068
:1031400008B5FFF7E7FFBDE80840FFF777B80000D4
:103150001F4B1A696FEAC2526FEAD2521A611A699A
:10316000C2F308021A614FF0FF301A695A695861B8
:1031700000215A6959615A691A6A62F080521A62CA
:103180001A6A02F080521A621A6A5A6A58625A6AB5
:1031900059625A6A1A6C42F080521A641A6E42F0EE
:1031A00080521A661A6E0B4A106840F480701060E4
:1031B000186F00F44070B0F5007F1EBF4FF48030F0
:1031C00018671967536823F40073536000F05EB901
:1031D0000038024000700040354B4FF080521A64B6
:1031E000344A4FF4404111601A6842F001021A60FB
:1031F0001A689207FCD59A6822F003029A602C4B59
:1032000019469A6812F00C02FBD1186800F0F90018
:1032100018609A601A6842F480321A600B689B0347
:10322000FCD54B6F43F001034B67214B5A6F90075E
:10323000FCD5214A5A601A6842F080721A601D4A11
:1032400053685904FCD51A4B1A689201FCD51B4AE5
:103250009A600322C3F88C20194B1A68194B9A42C2
:10326000194B21D1194A1168194A91421CD140F2D7
:1032700005121A60144A136803F00F03052BFAD1E4
:103280000B4B9A6842F002029A609A6802F00C02B4
:10329000082AFAD15A6C42F480425A645A6E42F4B7
:1032A00080425A665B6E704740F20572E1E700BFEC
:1032B00000380240007000401854400700948838DD
:1032C000002004E011640020003C024000ED00E01A
:1032D00041C20F41084A08B5536911680B4003F019
:1032E0000103536123B1054A13680BB15068984735
:1032F000BDE80840FEF7A2BF003C0140542D00206D
:10330000084A08B5536911680B4003F00203536182
:1033100023B1054A93680BB1D0689847BDE80840CF
:10332000FEF78CBF003C0140542D0020084A08B530
:10333000536911680B4003F00403536123B1054A3C
:1033400013690BB150699847BDE80840FEF776BF96
:10335000003C0140542D0020084A08B5536911680B
:103360000B4003F00803536123B1054A93690BB185
:10337000D0699847BDE80840FEF760BF003C0140B7
:10338000542D0020084A08B5536911680B4003F01A
:103390001003536123B1054A136A0BB1506A984771
:1033A000BDE80840FEF74ABF003C0140542D002014
:1033B000174B10B55C691A68144004F478725A61AE
:1033C000A30604D5134A936A0BB1D06A98476006E6
:1033D00004D5104A136B0BB1506B9847210604D5E6
:1033E0000C4A936B0BB1D06B9847E20504D5094AA0
:1033F000136C0BB1506C9847A30504D5054A936C28
:103400000BB1D06C9847BDE81040FEF717BF00BF66
:10341000003C0140542D00201A4B10B55C691A681D
:10342000144004F47C425A61620504D5164A136DB7
:103430000BB1506D9847230504D5134A936D0BB11A
:10344000D06D9847E00404D50F4A136E0BB1506E4F
:103450009847A10404D50C4A936E0BB1D06E9847DF
:10346000620404D5084A136F0BB1506F98472304C8
:1034700004D5054A936F0BB1D06F9847BDE8104053
:10348000FEF7DCBE003C0140542D0020062108B5AB
:103490000846FFF79DFB06210720FFF799FB062151
:1034A0000820FFF795FB06210920FFF791FB062175
:1034B0000A20FFF78DFB06211720FFF789FB062165
:1034C0002820BDE80840FFF783BB000008B5FFF7E0
:1034D0003FFE00F00BF8FDF7DFFEFDF7B3FDFFF751
:1034E000EFFDBDE80840FFF755BD0000002304498B
:1034F0001A465A50C8180833802B4260F9D17047D9
:10350000542D0020034611F8012B03F8012B002A4B
:10351000F9D17047121012131211000053544D3399
:1035200032463F3F3F0000000120330000104101C0
:1035300001105A0103105901071031010000000069
:103540001C3500083F000000130400006C35000823
:103550003F00000019040000763500083F0000001D
:1035600021040000803500083F00000053544D3313
:1035700032463430780053544D333246343278007A
:1035800053544D333246343436585800000000004E
:10359000BD0F0008A90F0008E50F0008D10F0008B3
:1035A000DD0F0008C90F0008B50F0008A10F0008C3
:1035B00041100008000000000100000000000000B1
:1035C0006D61696E00000000E0350008D82300201E
:1035D00050250020010000004119000800000000F3
:1035E00069646C650000000002000000000000003B
:1035F000E91100085112000840004000E8290020AD
:10360000F829002002000000000000000300000074
:1036100000000000951200080000000010000000EB
:10362000082A002000000000010000000000000047
:10363000DC2C0020010102005775727A6261636818
:103640000025424F415244252D424C0025534552FE
:1036500049414C2500000000011D0008191C00080C
:10366000B11C0008951C00084300000070360008DB
:1036700009024300020100C03209040000010202F5
:1036800001000524001001052401000104240202A8
:103690000524060001070582030800FF0904010054
:1036A000020A000000070501024000000705810230
:1036B0004000000012000000BC360008120110019A
:1036C00002000040091241570002010203010000FC
:1036D0000403090425424F41524425006A65666689
:1036E000770030313233343536373839414243444C
:1036F000454600000040000000400000004000007F
:103700000040000000000100000002000000020074
:1037100000000200000002000000020000000200A1
:1037200000000200004000000040000000400000D7
:103730000040000000000100000002000000020044
:103740000000020000000200000002000000020071
:103750000000020000000000E5130008C516000884
:1037600071170008400040003C2D00203C2D002037
:10377000010000004C2D00208000000040010000EE
:10378000030000000001812A00020000AAAAAAAAE0
:1037900000010124FFFF00000000000000A00A005B
:1037A0000001000000000000AAAAAAAA000100006F
:1037B000FFFF00000000000000000000000000000B
:1037C00000000000AAAAAAAA00000000FFFF000053
:1037D00000000000000000000000000000000000E9
:1037E000AAAAAAAA00000000FFFF00000000000033
:1037F000000000000000110000000000AAAAAAAA10
:1038000000000000FFFA00000000000000000000BF
:103810000000000000000000AAAAAAAA0000000000
:10382000FFFF00000000000000000000000000009A
:1038300000000000AAAAAAAA00000000FFFF0000E2
:103840000000000000000000000000000000000078
:10385000AAAAAAAA00000000FFFF000000000000C2
:103860000000000000000000000000000000000058
:103870000000000000000000000000000000000048
:10388000090000000000000000C01F000000000050
:10389000FF009600000000080096000000000800ED
:1038A00004000000D0360008000000000000000006
:1038B0000000000000000000000000000000000008
:00000001FF
