:020000040800F2
:1000000000050020C5060008994000089D40000832
:10001000F14000089D400008C5400008C7060008E0
:10002000C7060008C7060008C7060008715C00087C
:10003000C7060008C7060008C7060008C70600086C
:10004000C7060008C7060008C7060008C70600085C
:10005000C7060008C7060008097E0008357E0008AC
:10006000617E00088D7E0008B97E0008C706000882
:10007000C7060008C7060008C7060008C70600082C
:10008000C7060008C7060008C70600082533000891
:10009000C706000815330008C7060008E57E0008FB
:1000A000C7060008C7060008C7060008C7060008FC
:1000B000C7060008C7060008C7060008C7060008EC
:1000C000C7060008C7060008C7060008C7060008DC
:1000D000C7060008C7060008C7060008C7060008CC
:1000E0004D7F0008C7060008C7060008C7060008BD
:1000F000C7060008C7060008C7060008C7060008AC
:10010000C7060008C7060008A17A0008C70600084D
:10011000C7060008C7060008C7060008C70600088B
:10012000C7060008C7060008C7060008C70600087B
:10013000C7060008C7060008C7060008C70600086B
:10014000C7060008C7060008C7060008C70600085B
:10015000C7060008C7060008C7060008C70600084B
:10016000C7060008C7060008C7060008C70600083B
:10017000C7060008C7060008C7060008C70600082B
:10018000C7060008C7060008CD5E0008C7060008BD
:10019000C7060008C7060008C7060008C70600080B
:1001A000C7060008C7060008C7060008C7060008FB
:1001B000C7060008C7060008C7060008C7060008EB
:1001C000C7060008C7060008C7060008C7060008DB
:1001D000C7060008C7060008C7060008C7060008CB
:1001E000C7060008C7060008C7060008C7060008BB
:1001F000C7060008C7060008C7060008C7060008AB
:10020000C7060008C7060008C7060008C70600089A
:10021000C7060008C7060008C7060008C70600088A
:10022000C7060008C7060008C7060008C70600087A
:10023000C7060008C7060008C7060008C70600086A
:10024000C7060008C7060008C7060008C70600085A
:10025000C7060008C7060008C7060008C70600084A
:10026000C7060008C7060008C7060008C70600083A
:10027000C7060008C7060008C7060008C70600082A
:10028000C7060008C7060008C7060008C70600081A
:10029000C7060008C7060008C7060008C70600080A
:1002A0002D0900083533000855370008394000088B
:1002B0009142000821440008D9440008FD44000888
:1002C000A149000800000000D0400B1CD1409C4612
:1002D000203AD34018435242634693401843704734
:1002E000D0400B1C1141203A03D49C4613411843C3
:1002F0006346524293401843704700BF9140031C2D
:1003000090409C46203A9340194352426346D34062
:10031000194370477BB972B90029BEBF00204FF066
:10032000004106E008BF00281CBF6FF000414FF0FD
:10033000FF3000F0C5B9ADF1080C6DE904CE00291D
:1003400009DB002B1ADB00F04DF8DDF804E0DDE9F5
:10035000022304B07047404261EB4101002B1BDBDC
:1003600000F040F8DDF804E0DDE9022304B040428B
:1003700061EB4101524263EB43037047524263EB2E
:10038000430300F02FF8DDF804E0DDE9022304B0B8
:10039000404261EB41017047524263EB430300F07E
:1003A00021F8DDF804E0DDE9022304B0524263EBFA
:1003B0004303704753B94AB9002908BF00281CBF3E
:1003C0004FF0FF314FF0FF3000F07AB9ADF1080C7B
:1003D0006DE904CE00F006F8DDF804E0DDE9022363
:1003E00004B070472DE9F0478C460D460446089E40
:1003F000002B51D18A4217466DD9B2FA82FEBEF166
:10040000000F0BD0CEF1200C01FA0EF520FA0CFCF7
:1004100002FA0EF74CEA050C00FA0EF44FEA174AFE
:10042000250CBCFBFAF81FFA87F90AFB18CC45EA41
:100430000C4508FB09F3AB420AD9ED1908F1FF326C
:1004400080F02381AB4240F22081A8F102083D44B4
:10045000ED1AA4B2B5FBFAF00AFB105544EA0544C4
:1004600000FB09F9A14509D9E41900F1FF3380F037
:100470000A81A14540F2078102383C44A4EB0904FB
:1004800040EA08400021002E61D024FA0EF4002337
:1004900034607360BDE8F0878B4207D9002E54D0DA
:1004A000002186E821000846BDE8F087B3FA83F111
:1004B000002940F08E80AB4202D3824200F2FA80E3
:1004C000841A65EB03050120AC46002E3FD086E878
:1004D0001010BDE8F08712B90127B7FBF2F7B7FAA1
:1004E00087FEBEF1000F34D1EB1B3A0C1FFA87FCDC
:1004F0000121B3FBF2F8250C02FB183345EA034552
:100500000CFB08F3AB4207D9ED1908F1FF3002D21A
:10051000AB4200F2D1808046ED1AA3B2B5FBF2F0F7
:1005200002FB105543EA05440CFB00FCA44507D927
:10053000E41900F1FF3302D2A44500F2B880184656
:10054000A4EB0C0440EA08409DE731463046BDE884
:10055000F087CEF1200405FA0EF307FA0EF720FA21
:1005600004F83A0C25FA04F448EA0308B4FBF2F163
:100570004FEA184502FB11441FFA87FC45EA04457F
:1005800001FB0CF3AB4200FA0EF409D9ED1901F1AD
:10059000FF3080F08A80AB4240F2878002393D44D0
:1005A000EB1A1FFA88F5B3FBF2F002FB103345EAB1
:1005B000034500FB0CF3AB4207D9ED1900F1FF38FE
:1005C0006FD2AB426DD902383D44EB1A40EA01418B
:1005D0008FE7C1F1200722FA07F88B4005FA01F4F2
:1005E00048EA030320FA07FE4FEA134CFD404EEAA7
:1005F000040EB5FBFCF94FEA1E440CFB19551FFA1B
:1006000083F844EA054509FB08F4AC4202FA01F21A
:1006100000FA01FA08D9ED1809F1FF3043D2AC42D3
:1006200041D9A9F102091D442D1B1FFA8EFEB5FB0D
:10063000FCF00CFB10554EEA054400FB08F8A04501
:1006400007D9E41800F1FF3529D2A04527D902388F
:100650001C4440EA0940A4EB0804A0FB02894C4575
:10066000C6464D4615D312D056B1BAEB0E0364EB15
:10067000050404FA07F7CB401F43CC403760746091
:100680000021BDE8F0871846F8E69046E0E6C2454E
:10069000EAD2B8EB020E69EB03050138E4E728461D
:1006A000D7E7404691E78146BEE7014678E7023842
:1006B0003C4445E7084608E7A8F102083D442BE71B
:1006C000704700BF02E000F000F8FEE772B639485C
:1006D00080F30888384880F3098838484EF6085176
:1006E000CEF20001086040F20000CCF200004EF6AD
:1006F0003471CEF200010860BFF34F8FBFF36F8FEC
:1007000040F20000C0F2F0004EF68851CEF2000137
:100710000860BFF34F8FBFF36F8F4FF00000E1EE23
:10072000100A4EF63C71CEF200010860062080F3FC
:100730001488BFF36F8F07F017F807F02FF94FF009
:1007400055301F491B4A91423CBF41F8040BFAE760
:100750001C49194A91423CBF41F8040BFAE71A4977
:100760001A4A1B4B9A423EBF51F8040B42F8040B45
:10077000F8E700201749184A91423CBF41F8040BA2
:10078000FAE707F035F807F07DF9144C144DAC4248
:1007900003DA54F8041B8847F9E700F03FF8114CDE
:1007A000114DAC4203DA54F8041B8847F9E707F00F
:1007B0001DB80000000500200025002000000008F2
:1007C00000010020000500204891000800250020BD
:1007D0007425002078250020345E0020A002000847
:1007E000C4020008C4020008C40200082DE9F04F4A
:1007F0002DED108AC1F80CD0D0F80CD0BDEC108AC9
:10080000BDE8F08F002383F311882846A04700201D
:1008100006F0E0FA06F036F900DFFEE7F8B53F4CE7
:100820006FF00803002523700323A57063701A235B
:10083000E57025716571A571E57125726572A37208
:10084000E57200F013FF20B10E2325726572A372CA
:10085000E57200F0A5FE06F0EFFE064606F078FF12
:100860000546A0BB2E4B9E4231D001339E4231D073
:1008700026F0FF022B4B9A422FD12C4642F21077E2
:10088000F0B200F0B1FA00F0E9FC00F0B3FA78B38E
:100890003FBB2DB1244B9E4202D0002406F050FFF6
:1008A000002006F0D3FE14B1002400F047F800F059
:1008B00087FF00F025FE03F051FC0546F4B103F07C
:1008C0004DFC401BA04219D900F038F8F3E72C4644
:1008D0000027D8E707460124D5E7044641F28837C8
:1008E000D1E795B900204FF47A7406F0AFFEDCE74B
:1008F0007DB90020002406F0A9FED8E700F0D2FC64
:100900004FF47A7006F084FAD8E7074B9E42C4D1C0
:10091000E8E7054B9E42C0D1EBE700BF78250020F9
:10092000010007B0000008B0263A09B008B504F08D
:1009300027F8014B186008BD84250020464B474925
:100940002DE9F04153F8042F013201D1BDE8F081C7
:100950008B42F7D1424D434B2A689A427AD9424B97
:100960009B6803F1006303F500339A4272D20020C2
:1009700000F040FE02203D4B187000F09DFE3C4B05
:10098000D3F8E8200022C3F8E820D3F81011C3F808
:100990001021D3F81011D3F8EC10C3F8EC20D3F8E1
:1009A0001411C3F81421D3F81411D3F8F010C3F8BC
:1009B000F020D3F81811C3F81821D3F8183172B603
:1009C0002C4B2D490B601C682D68BFF34F8FBFF374
:1009D0006F8F2A4BC3F88420BFF34F8F5A6922F4DC
:1009E00080325A61BFF34F8FD3F8802043F6E07E08
:1009F000C2F3C906C2F34E32B707520102EA0E082B
:100A000038463146013948EA000C00F14040B1F166
:100A1000FF3FC3F874C2F5D1203A12F1200FEDD197
:100A2000BFF34F8FBFF36F8FBFF34F8FBFF36F8F46
:100A30005A6922F400325A610022C3F85022BFF3EF
:100A40004F8FBFF36F8F202383F31188A54684F364
:100A500008882847BDE8F081FCFF01081C00020857
:100A600004000208FFFF01087825002088250020E7
:100A7000004402580000020808ED00E000ED00E02C
:100A8000094949F269000B689AB21B0C00FB02335A
:100A9000064A0B6044F25061136898B21B0C01FBCC
:100AA0000030106080B2704704250020002500202F
:100AB00010B500211022044600F02EFE034B03CB9C
:100AC000206061601868A06010BD00BF00E8F11FE1
:100AD000F0B51F4CBBB003F041FBA368C31AF92B60
:100AE0002FD906AD2346A06028220021284604F015
:100AF00077FE04F10E0000F007FE0023C6B2591D78
:100B00005F1CDBB2C900B34207DA0E330822284665
:100B1000234404F065FE3B46F1E70123207BC1F34B
:100B2000CF01049503930823059101460293094BD5
:100B3000094801933023009303A3D3E9002304F071
:100B400021FC3BB0F0BD00BF78F6339F93CACD8D3A
:100B5000E8350020F5350020C435002070B50D467D
:100B600014461E4604F0B4FB50B9022E0ED1012CDF
:100B70000CD112A3D3E90023C5E90023012070BDE5
:100B8000052C14D003D8012C09D0002070BD282CCE
:100B900009D0302CF9D10BA3D3E90023ECE70BA348
:100BA000D3E90023E8E70BA3D3E90023E4E70BA391
:100BB000D3E90023E0E700BFAFF30080401DA12090
:100BC00026812A0B78F6339F93CACD8D9E6AC42165
:100BD000818A46EE26417272DF25D7B7F017304A78
:100BE00039059E5638B50D46044603462022284650
:100BF000002104F0F5FD227923462846032A4FF010
:100C0000200128BF032203F8042F022204F0E8FD8C
:100C1000627923462846072A4FF0220128BF07227F
:100C200003F8052F032204F0DBFDA27923462846B2
:100C3000072A4FF0250128BF072203F8062F0322B9
:100C400004F0CEFD284604F108031022282104F008
:100C5000C7FD382038BD00002DE9F04FFFB040F24D
:100C6000791280460F461FAE0CAD00210DF15209DE
:100C7000304600F051FD48220021284600F04CFD8E
:100C800003F06CFA4FF47A72554BB0FBF2F0186037
:100C900093E8070001232B74002385E807000DF17A
:100CA00052006B74FFF704FF03234E4985F8203090
:100CB000F72385F8213006AB184607F079FA17229A
:100CC00028643146284685F83C20FFF78BFF10AB9F
:100CD000044601460822304604F082FD08220DF148
:100CE00041033046A11804F1880A04F079FD0DF1A2
:100CF0004203082204F11001304604F5847B04F01D
:100D00006FFD11AB202204F11801304604F068FD9C
:100D100012AB402204F13801304604F061FD14ABFF
:100D2000082204F17801304604F05AFD0DF1510318
:100D3000082204F18001304604F052FD51460AF1C8
:100D4000080A4B460822304609F1010904F048FD23
:100D5000D345F3D104F588744FF0000919AB08228C
:100D60005946304604F03CFD95F834304B4510D8D8
:100D70004FF0000995F83C304B4515D92B6C2146B6
:100D8000082230464B44083404F02AFD09F10109D9
:100D9000F0E7AB6B2146082230464B44083404F0A0
:100DA0001FFD09F10109DFE7E31DF97E04961937FC
:100DB000C3F3CF0340460593002303937B78019749
:100DC00002930123009304A3D3E9002304F0DAFA89
:100DD0007FB0BDE8F08F00BF9E6AC421818A46EED5
:100DE0008C25002014830008014B1870704700BF49
:100DF000B82500202E4BF0B51C7B85B02CB10E22FF
:100E00002C4B1A81002005B0F0BD2B4A02AB1068B4
:100E1000516803C30823294929480DEB030207F051
:100E200065F9054630B90A22224B26481A8103F09B
:100E300029F9E7E70369B3F5F01F07D90B211D4A2C
:100E400021481181194603F01DF9DBE7418B40F27F
:100E5000F732914206D00C20164B18811B4803F044
:100E600011F9CFE71A4A103B1549024420469E1A51
:100E700003F02EFE05F1180107463246204603F026
:100E800027FEAB689F4202D1EB6898420AD00D2240
:100E9000084B1A813B4600900E48EA68A96803F0A7
:100EA000F1F8AFE70C4803F0EDF80120ABE700BF25
:100EB000E83500208C25002004820008DCFF1D009E
:100EC000000002080C820008188200082A8200082C
:100ED0000800FEF748820008718200082DE9F04FF3
:100EE000ADB080460E4606AF04F0F2F90446002885
:100EF0006AD1337E022B18D1F38A012B15D103F06E
:100F00002DF98146FFF7BCFD4FF4C87309F516793A
:100F1000C04DB0FBF3F202FB1300F37E19FA80F030
:100F200028608BB90022BC4B1A709C37BD46BDE8C7
:100F3000F08F3B1D08224FEAC90130461C440023B4
:100F400000944C4604F0B2FAB38A5FFA84F9013B8C
:100F5000A3420BD904F10109B9F1110FE9D1AF4B4B
:100F600040F23911AE4AAF4807F084F807F1140097
:100F7000FFF79EFD224607F11401381D07F0A6F881
:100F800003460028CED1B9F1100F07D0A24B83F849
:100F900000902B68A3F516732B60C6E707F1980243
:100FA000014602F8950D30460092072204F07EFAC1
:100FB000F9787F2904DD9C4B4FF4A871984AD2E759
:100FC000404604F069F9B0E7F38A052B00F034815C
:100FD00006D8012BA9D131464046FFF73DFEA4E7D4
:100FE000282B3AD0302BA0D1737EE9468F4C0133A9
:100FF000627BDBB2934240F00581F27E237B9A4212
:1010000040F0008107F198034FF0000A10223046AB
:1010100023F884AD51460093012304F047FAB58AC2
:10102000023DADB2EB1C23F003030A3323F00703A8
:10103000ADEB030D0DF1180853460AF1010A991C96
:101040009BB29D424FEAC10171DD43440822304604
:101050000093002304F02AFAEEE7B38A013B9BB227
:10106000C92B3FF662AF714D2022FF21704800F07E
:1010700053FB2C7B4CBB05F10C0308222146304668
:101080000093234604F012FAB38A04F10109E4B292
:10109000013B4FEAC9019C4209DA0E3400230822C1
:1010A00030462C4400944C4604F000FAECE7002350
:1010B0000022C5E900230023AB6085F8D730C5F8CE
:1010C000D8302B7B0BB9F37E2B73002407F114056A
:1010D0003B1D0822214628467C60BC60FC6004F071
:1010E0007FFB3B7A04F10109A3424FEAC90107D90A
:1010F000FB680822284623444C4604F071FBF0E7C5
:10110000C1F3CF010023F07E193605910495014605
:1011100003934046737801960293282300933BA3E0
:10112000D3E9002304F02EF9FFF7D2FCFDE694F892
:10113000D70000F069FAD4F8D83082461BB994F889
:10114000D70000F071FAD4F8D8302B449A4504D275
:1011500094F8D700013000F067FA4FEA950B0026AB
:10116000B1B259451BDA94F8D73088007BB9D4E97D
:101170000023121843EBE073002B08BF202A06D28D
:1011800058F821302A4A42F821300136E8E723682E
:1011900008EB00010122184400F0C6FAF5E7D4E993
:1011A0000023D4F8D860521994F8D7002E4443F1A4
:1011B0000003C4F8D860C4E9002300F025FA864291
:1011C0000AD394F8D730013384F8D730D4F8D83024
:1011D000A3EB0A03C4F8D830FF2D0CDC0020082252
:1011E0001349207300F0A0FA00F030FAFFF702FE76
:1011F00008B1FFF7A3FB23680E4A9B0A0133138152
:101200000023A360CD4690E6AFF3008026417272C2
:10121000DF25D7B7C0350020BD350020808200080B
:101220002C830008D9820008FB820008E8350020E2
:10123000982500208C250020BFF34F8F0549064BD1
:10124000CA6802F4E0621343CB60BFF34F8F00BF64
:10125000FDE700BF00ED00E00400FA0508B54FF01F
:1012600000530C4A196891420BD1597D0A4A0B4828
:101270001170C9221B7D0E30094900F8023C00F0B4
:1012800023FAE02200214FF00050BDE8084000F0B2
:1012900043BA00BF9AAD44C5B8250020E835002008
:1012A000160000202DE9F04F8A4C93B0DFF84892E9
:1012B000894E20460EAD04F0B1F870B3027B03688E
:1012C000082A0E931346A8BF08239A428DF844308B
:1012D00004D11AB1011D0FA800F0F6F9D9F80030B9
:1012E0000027D3F85880D8F80030D3F80CA002F0CB
:1012F00037FF10F57A720097404641F10003294606
:10130000D047012804D1204604F08CF83770D0E78C
:101310003378072B3FDC013333700026DFF8DCA184
:101320000AAF102200210DF13C08384600F0F4F914
:10133000D9F800200E9612AB8DF8446029460F961E
:101340001096906D23F82A6D0268D2F810B008AAA2
:10135000D847002823DDDAF8143083F00103CAF8F7
:1013600014300BAB98E8030083E803009DF8443089
:10137000394620468DF834300E9B002BB6BF23F043
:101380006043C3F30A0343F000430A93DDE90823F3
:1013900004F08CFAC4E7204604F044F8BDE7204688
:1013A00003F096FF002847D14C4E02F0D7FE336879
:1013B000984241D302F0D2FE8046FFF761FB4FF422
:1013C000C87308F51678B0FBF3F202FB13004FF078
:1013D000000318FA80F08DF828303060404E96F8FF
:1013E0000090B9F1000F02D101238DF82830C9F126
:1013F00010082846FFF75CFB05EB09015FFA88F847
:101400000DF12900B8F1060F28BF4FF0060842463B
:1014100000F05AF908F101030397204604931823BA
:101420000293304B01930123009326A3D3E90023B9
:1014300003F050FF0023337002F090FE2A4A2B4E37
:101440001368C31AB3F57A7F2FD3106002F088FEB9
:1014500002460B46204603F0EBFF204603F038FF20
:1014600018B3337B224F002B14BF032302237B715D
:1014700002F074FE4FF47A732946B0FBF3F0386043
:101480003846FFF7AFFB1823073003950293194B3B
:10149000C0F3CF00019340F255130490204600930F
:1014A0000AA3D3E9002303F015FF337B0BB1FFF749
:1014B0000FFB337B002B7FF4F9AE13B0BDE8F08F48
:1014C000AFF30080401DA12026812A0BF1C6A7C1E1
:1014D000D068080FC4350020CD360020C03500206C
:1014E000BD350020BC350020C8360020E83500207E
:1014F0008C250020CC3600208425002000040258D2
:1015000037B502231D4C4FF4AC60637106F086FDC5
:101510000021054601F0E0FA194B012219491B6828
:1015200028469D65254601F097FB002316494FF498
:1015300080520193154B16480093164B03F076FE2C
:10154000154B197811B1124803F0A6FE02F006FE01
:101550000446FFF795FA4FF4C87304F51674B0FB10
:10156000F3F202FB13000D4B14FA80F0186006F042
:10157000EFF808B10F232B8103B030BD8C2500207C
:101580008425002040420F00BC2500205D0B000890
:10159000C4350020DD0E0008B8250020C03500202D
:1015A000F8B5104C0025104E05F0AAFD0F4F207025
:1015B0003068237883420CD800250D4E20780138FE
:1015C00005F09AFD23780544013BB5422370F5D917
:1015D000F8BD05F091FD336805440133BD42336029
:1015E000E6D9E9E714370020D0360020FFFF0100DC
:1015F000FFFF030005F050BE00F10060920000F50F
:10160000003005F0D9BD0000054B1A68054B1B786A
:101610009B1A834202D9104405F06EBD002070472A
:10162000D03600201437002038B5074D044628680E
:10163000204405F067FD28B928682044BDE83840FB
:1016400005F072BD38BD00BFD0360020064991F8C4
:10165000243033B100230822086A81F82430FFF7D0
:10166000CBBF0120704700BFD4360020104B41F2A1
:1016700001015B888B429AB211D041F203018B4287
:101680000FD042F201039A420DD042F203039A4274
:101690000BD10323074A02EB8303D878704700235A
:1016A000F8E70123F6E70223F4E70020704700BFC4
:1016B0000010005C70830008022802D10122014B57
:1016C0009A61704700040258002310B5934203D07A
:1016D000CC5CC4540133F9E710BD000030B5441EA2
:1016E00014F9010F0B4658B193F9005001318542AE
:1016F00006D11AB993F90020801A30BD013AEFE7FC
:10170000002AF7D1104630BD02460346981A13F955
:10171000011B0029FAD1704702440346934202D0CC
:1017200003F8011BFAE770472DE9F047234C054603
:101730008846174694F8243083BB2E46DFF87C9009
:10174000C7B394F824302BB92022FF2148462662E3
:10175000FFF7E2FF94F824004146C0F1080504EBCE
:101760008000BD4228BF3D465FFA85FAAD00A7EB79
:101770000A072A462E44FFF7A7FF94F82430A8440E
:10178000FFB29A445FFA8AFABAF1080F84F824A0EB
:10179000D6D1FFF75BFF0028D2D108E0266A06EB1E
:1017A0008306B042CAD0FFF751FF0028C5D1002000
:1017B000BDE8F0870120BDE8F08700BFD4360020E7
:1017C00003494FF4E13303480B6004F049BE00BF06
:1017D000FC360020E4550020007B00F0010070473B
:1017E000704700008160828070470000826838B5D1
:1017F00004465AB1037B13F0010507D143F00103FE
:1018000003739047237B65F30003237338BD000007
:10181000F8B50C4B0446016017461D68686C0368F8
:10182000DB6B9847064610B1AB6CA3F8427020689A
:1018300003689B6898471EB1AB6C0022A3F8422056
:101840002046F8BD8425002010B5044600680368D2
:10185000DB689847204610BD7047000001207047A4
:101860007FB500240546102200216846FFF754FF8B
:101870002B68A1B210346A46DE6828461023B047B0
:10188000B4F5804FF4D1012004B070BD0020704742
:1018900000207047002070470020704703207047E9
:1018A00000230B7070470000002070477047000055
:1018B000002070477047000070470000002070470C
:1018C000704700007047000070470000002070471C
:1018D00000207047002070474368C26893423CBFB5
:1018E0008268D1544368013343600120704700008F
:1018F000F8B506460C468F180025BC4207D0336861
:10190000304614F8011B9B6898470544F5E72846C4
:10191000F8BD0000002070474FF0FF307047000016
:1019200000207047002070477FB50D461446002602
:1019300082B1013A0B4968460392089A02958DE8F4
:101940004200194600F058FA0198844203D92E54F7
:1019500004B070BDEEE7002CFAD02C4404F8016C02
:10196000F6E700BF8883000808B410B585B007AC5F
:1019700054F8043B00940394FFF7D6FF05B0BDE88C
:10198000104001B0704700002DE9F04107460E46B7
:1019900001EB02080C46A51B4445ADB208D03B68DC
:1019A00038465B699847431C02D004F8010BF2E704
:1019B0002846BDE8F08100000EB403B503AA036811
:1019C00052F8041B5B680192984702B05DF804EB83
:1019D00003B0704700F010BA38B5002304460D4636
:1019E0008360C360012005F02DFD002820602046A3
:1019F00008BF0025656038BD0023BFF35B8FC3605F
:101A0000BFF35B8FBFF35B8F8360BFF35B8F704768
:101A1000BFF35B8F0068BFF35B8F704770B50646FE
:101A20000C30FFF7F5FF044606F108052846FFF7DE
:101A3000EFFF844206D276682846FFF7E9FF344478
:101A4000201A70BD2846FFF7E3FFF9E770B5054699
:101A50004068A0B105F10C0605F10800FFF7D8FFBA
:101A600004463046FFF7D4FF844204F1FF34304689
:101A700094BF6D680025FFF7CBFF2C44201A70BD82
:101A800038B50C460546FFF7C9FFA04210D305F153
:101A90000800FFF7BDFF6B682044BFF35B8FB0FB0E
:101AA000F3F403FB1400A8600120BFF35B8F38BD83
:101AB000002038BD2DE9F041144680460D46FFF761
:101AC000C5FF844228BF0446DCB1474657F80C6B7B
:101AD0003846FFF79DFF304428603846D8F8046048
:101AE000FFF796FF301AA0423DBF6860241AD8F86D
:101AF000003001202FBF6C600220AB60EC60BDE8BD
:101B0000F0812046BDE8F08138B50C460546FFF768
:101B10009DFFA04210D305F10C00FFF779FF6B6821
:101B20002044BFF35B8FB0FBF3F403FB1400E860C9
:101B30000120BFF35B8F38BD002038BD2DE9F04395
:101B400085B0002688460746694601ADFFF7B2FF1B
:101B5000344681464E4505F108050CDA08EB0401D0
:101B600055F8082C55F80C0C0136FFF7ADFD55F86B
:101B7000083C1C44EEE721463846FFF7C5FF2046E7
:101B800005B0BDE8F0830000F8B506460C300F46FE
:101B9000FFF73EFF06F1080504462846FFF738FF29
:101BA0008442284638BF7468FFF732FF201A386035
:101BB00020B134682846FFF72BFF2044F8BD000011
:101BC00073B5144606460D46FFF728FF8442019080
:101BD00028BF0446DCB101A93046FFF7D5FF019BC1
:101BE00033B93268AB60EB6085E8140001200CE08B
:101BF000A342286088BF01940198A0426860F5D292
:101C00003368241A0220AB60EC6002B070BD20463D
:101C1000FBE700002DE9FF4100240F466946FFF76E
:101C2000CFFF2546804644450BDA0DEBC4035DF833
:101C30003410781901345E6832463544FFF744FDAC
:101C4000F1E7284604B0BDE8F081000038B505464C
:101C5000FFF7E0FF044601462846FFF711FF204644
:101C600038BD00002DE9F04F85B090460729814628
:101C70008DED030A9DF80F20A8BF07219DF90E30B6
:101C8000D60903985200002BC0F316000F46D2B2BB
:101C9000BCBF0132D2B272B9A0B946F002063022FE
:101CA00089F80060431CC0B2B84200F39C804844ED
:101CB00042701846F6E7FF2A02D150BB46F00406F0
:101CC00040F40000D310494902F007020024CD5629
:101CD0004749C2F10F02A34651F82330A0FB03018C
:101CE000FEF7FEFACDE90001424845F6F3214FF038
:101CF000300ADDE90023121A63EB0103002A73F1B5
:101D0000000E09DB0AF1010ACDE900234FFA8AFA35
:101D1000EFE746F00806D3E70A220023FEF7FAFAB7
:101D2000BBF1000F16D1BAF1300F02D1013D6DB2F7
:101D3000DFE7B8F1000F30D06B1C08F1FF385BB261
:101D4000012BACBF984408F1010808F0FF08474593
:101D5000A8BF47460134BAF1390FE4B220DCBC42D7
:101D600009F804A04FF0010BC1DB0A27A0FB0723F1
:101D700007FB0133DDE900015B104FEA3202801AF4
:101D800061EB030100280B4673F100030DDA28B262
:101D900089F8006005B0BDE8F08F0137FFB2D9E7E0
:101DA00009EB0403392299450DD109EB04023020D7
:101DB000002CECD01146013A0B7801335BB23A2B80
:101DC00004D00B70E3E703F80129ECE7012C06D1FE
:101DD0003123013546F010060B706DB2D7E7013C98
:101DE0005070E4B2E4E70020D4E700BF2C84000880
:101DF000AC83000800407A102DE9F04F0646924669
:101E00002DED028B8DB00B78002B00F0C182252BBD
:101E100008D04A1C039232681946304692689047AF
:101E20000399F0E78B1C03934B78252BF3D0002507
:101E3000A9462C461F2C35DC2B2B28D01AD8202B5A
:101E400027D0232B2BD0A3F13002D2B2092A32D8CB
:101E500067064DBF05EB850544F0200409EB8909B1
:101E600002EB450556BF02EB490905F0FF0509F0F5
:101E7000FF0905E02D2B0FD0302BE4D144F00104F5
:101E8000039A12F8013B0392002BD3D122E044F0D5
:101E9000020444F00404F3E744F00804F0E744F0DB
:101EA0001004EDE77F2CCEDD220613D56C2B11D16B
:101EB00044F48074E4E72E2B05D1600600F16882BB
:101EC00044F04004DCE76C2B02D144F08004D7E7F7
:101ED000682BD5D0A3F14502022A33D8203344F031
:101EE0001004DBB20AF1070A14F0400F24F0C0041A
:101EF0002AF0070208BF0625652BA4B202F1080AE2
:101F000092ED008BB7EEC88B25D144F04004270634
:101F10000DD5F0EEC87A9FED9C7AF4EEC77AF1EE1B
:101F200010FAC2BF4FF63F73234043F0400414F051
:101F300080031AD03B2D62DC05F101085FFA88F8B6
:101F4000072717E0A3F16502022A00F2758124F049
:101F50001004A4B2C6E7662B02D144F08004D6E791
:101F6000002DD4D0013DEDB2D1E70A2D4ADD0A257E
:101F700098462F461722002106A80293FFF7CCFBB4
:101F80004246394606A8B0EE480AFFF76BFE9DF8B8
:101F90001830834603F009020193029B012A34D0D2
:101FA000A00734D414F0040F0CBF002220220199A2
:101FB00011F00C073ED0002A14BF04270327B945AF
:101FC00027DC002722B13368114630469B689847CA
:101FD000019B04F010046D4D13F0080F6C4B08BF0B
:101FE0001D46013D15F8011F002900F07D820CB14E
:101FF0002039C9B2336830469B689847F2E74FF002
:102000003C089DE72F469846B4E72D22CFE72B22C8
:10201000CDE7A9EB07072107FFB2D3D43368013F0F
:10202000029220219B683046984717F0FF07029ADA
:10203000F4D1C6E7CDF808B0002B37D0019BD844C7
:10204000DB065FFA88F807D59DF81930312B04BFFD
:1020500008F1FF385FFA88F84FFA88F3002B45DD66
:10206000B8F1080F28BF4FF0080814F0800304935C
:1020700041D0BBF1000F40DD0BF1010302B1013390
:102080000DB1691C0B444B45BCBFA9EB0307FFB264
:1020900014F0090F33D197B33368013F0592202123
:1020A0009B6830469847059AFFB2F4E76006DCD497
:1020B000AB4504DC1BF1040FA8BF44F08004AB1C4B
:1020C00006A90B4435B113F8011D302902D1013D99
:1020D000EDB2F7E72106C8D505F10108AB455FFA77
:1020E00088F806DAA5EB0B05EDB2BEE74FF0010864
:1020F000BBE70025B9E70523C0E70123BEE722B10E
:102100003368114630469B689847220708D43FB190
:102110003368013F302130469B68FFB29847F6E7AD
:10212000049B002B36D02BEAEB740BF1010906ABB4
:10213000ABEB0808A9EB04099944631C04D133688C
:102140002E2130469B6898475C4511DC44450FDDE5
:1021500099F80010013C6B429C42C0F2B98109F130
:102160000109002940F0CB81A34540F0BD81B1E1D8
:102170003021EFE7019BDC0600F1B38131213368A8
:102180009B6830469847AFE17F96184B5084000813
:102190004C8400089DF81910304631291EBF019B60
:1021A00003F0EF03019333689B689847E5B914F097
:1021B000100F3368304614BF452165219B6898474E
:1021C000BBF1000F28DACBF100032D210293336815
:1021D00030469B6898473021029B092B22DD013154
:1021E0000A3BC9B20293F7E7336802352E21304625
:1021F0009B68EDB2984702230CAA03F10108304610
:102200001A4433685FFA88F89B6812F8181C9847DC
:1022100045454346F0D1CAE702D1019BD806D2D446
:102220002B21D4E7336830469B689847029933687E
:1022300030319B68C9B2A4E7632B38D0732B52D0DE
:10224000642B01D0692B7AD114F4807F06AF24F07F
:10225000900264D00AF1070A94B22AF00703D3E986
:10226000000103F1080A002871F1000304DA40427A
:1022700044F0800461EB41010A233A4600F0AAF9D8
:10228000C01B5FFA80FB630640F1A88024F00108C0
:10229000AB451FFA88F880F2C98004F01403102BB4
:1022A00003D124F011041FFA84F82F4698E0DAF8DD
:1022B00000300DF130080AF1040A4FF0010B08F864
:1022C000183D21071FD5C3444F46D84500F00C8167
:1022D0003368304618F8011B9B689847002FF4D0EC
:1022E000013FFFB2F1E7DAF8008014F0400F0AF185
:1022F000040714BF29464FF0FF314046BA4605F0A7
:1023000075FF8346DDE7CB45DDD2336809F1FF3940
:10231000202130469B685FFA89F99847F3E7DAF89D
:10232000000094B20AF104030A22002839469A46B2
:10233000BCBF404244F0800400F0E6F8A0E7752BF3
:102340001DD124F010040A231FFA84F818F4807FAA
:102350000DF1180BDBB237D00AF1070A5A462AF002
:10236000070101F1080AD1E9000100F033F9A0EBFF
:102370000B0B28F080045FFA8BFBA4B283E724F0F8
:1023800006086F2B1FFA88F81CD006D8582B12D0DD
:102390000DB0BDEC028BBDE8F08F702B08D0782B10
:1023A000F6D118F0100F01D048F004081023CDE743
:1023B00048F01008F5E7E20601D548F006084FF4AA
:1023C0000473C3E70823C1E70AF10402DAF8000046
:1023D000594692461A4600F097F8C8E75F46A0466D
:1023E00018F0100F2CD00CAB5B4413F8193C302BB9
:1023F0001ED128F016081FFA88F818F0080F23D10C
:1024000018F0010F08D04F45B7BF0BEB09055D462B
:10241000EF1BFDB2B8BF4F464F4539DA336801377D
:10242000202130469B68FFB29847F5E75F46D7E723
:1024300018F0040F01D1013700E00237FFB2DCE7EA
:1024400018F0860FD9D0F6E74F4521DAA9EB070738
:10245000FFB218F0100F33681CD09B683021304653
:10246000984718F0040F09D018F0020F336818BF0E
:1024700058219B6808BF7821304698475D4517DD95
:102480003368013D302130469B68EDB29847F5E74F
:102490000027DEE718F0860FF0D018F0020F9B68D7
:1024A00014BF2B21202118F0800F18BF2D21E3E746
:1024B0000BF1FF3B06AB0DF1170453FA8BFB3368AE
:1024C00030461BF801199B689847A345F7D10BE0EC
:1024D000A34506D19DF81930352B3FF74FAE3FF499
:1024E00049AE00297FF44BAE002F3FF499AC33681E
:1024F000013F202130469B68FFB29847F4E73368DC
:1025000030469B68984718E6082A2DE9F04F85B0B9
:102510000AD100F00703C00803F13003F9D10B70B2
:10252000084605B0BDE8F08F102A0CD100F00F026C
:1025300002F13003392B88BF02F13703000901F89B
:10254000013BF3D1ECE70646002726F00102F0B28A
:10255000023200F1300047F100035D084FEA320417
:10256000A4185D41224624092B4644EA05740094D0
:102570002C090194DDE90045A4185D414FEA142AB5
:102580004AEA056A4FEA152B14EB0A024FF00004E1
:1025900045EB0B034FEA1248039448EA03484FEA1D
:1025A000134912EB080243EB09030293DDE90245EC
:1025B000A4185D41260946EA05762F09C6EB4613A5
:1025C000C6EB830300EB430056EA070301F8010B57
:1025D000BBD1A5E7082B2DE9F04F85B010D1C40879
:1025E00000F00703CD0844EA417430332946204601
:1025F00050EA0104F3D11370104605B0BDE8F08F26
:10260000102B13D100F00F0404F13003392B88BFD5
:1026100004F137030C0902F8013B030943EA017393
:102620002146184650EA0103ECD1E5E720F0010409
:10263000C3B2023403F1300341F100056F084FEAE1
:10264000340636196F41344636093D4646EA077668
:1026500000963E090196DDE9006736196F414FEAA1
:10266000162A4AEA076A4FEA172B16EB0A044FF0BC
:10267000000647EB0B054FEA1448039648EA054865
:102680004FEA154914EB080445EB09050295DDE90D
:10269000026736196F41300940EA07703909C0EB0B
:1026A0004014C0EB840403EB440302F8013B50EAFE
:1026B0000103BBD1A0E70000202383F3118862B699
:1026C00070470000002383F3118862B67047000052
:1026D0007047000090F831057047000090F82A0517
:1026E00070470000F8B51F46D0F834351646BDF8DF
:1026F00018500133C0F834350B6813F000545ED124
:102700000B7B082B5BDCFFF7D7FFC369D3F8C42032
:1027100092024BD40C68D3F8C4304269002CC3F346
:102720000443B4BF44F08044A40402EB03121460D9
:102730000C68640042BF146844F0005414601C0626
:1027400091F80CE044EA0E4454604C6894608C6844
:10275000D4600122C4699A40C4F8D020282203FB27
:10276000022402FB030204443032C4E9006701F191
:102770000C0451F8046BA14242F8046BF9D10978BA
:102780001170282205F00101C5F3400502FB030288
:1027900001201364002382F8441082F8455082F827
:1027A000463082F8480082F8473005E0D0F83835E6
:1027B0000133C0F838352046FFF784FFF8BDD0F864
:1027C00038350133C0F838354FF0FF30F8BD000020
:1027D0005020704708B5FFF76FFFD0F85025D0F8AC
:1027E00054351344D0F84C251344D0F838251344FD
:1027F000D0F84425D0F8400513441844FFF762FF91
:1028000008BD000010B504460846FFF755FFC4F8A0
:102810002C150B6807491B689847D4F82C0594F8C9
:1028200030250121036891405B689847FFF74AFF14
:1028300010BD00BF1C37002000232DE9F0411C46CD
:102840001D46DEB296420DDA01EBC60751F836603E
:10285000002E02DB7E68002E02DB01350133F0E73B
:102860000134FBE7FFF728FFC669B36943F00103B2
:10287000B361C3699E69F607FCD59E6946F00206FE
:102880009E61C369ECB9D3F8804044F00204C3F8F8
:1028900080405024C369002D4FD1D3F8802042F0EE
:1028A0000102C3F88020484B484A1B6803F180535B
:1028B00003F52C539B00934283617ED9444801F079
:1028C0002DFC4F2C70D8DFF800E12704DFF80481DD
:1028D000DEF8006047EA8607C3F8847006F180538B
:1028E0002644002703F52C53C4F15004CEF80060B1
:1028F000BE469B00C6694360D6F8803043F0300383
:10290000C6F88030D0F804C0FBB29A42C2DD01EBB9
:10291000C30651F83330002B0DDB7668002E0ADA3F
:1029200006F07F0608EA034346F0084633434CF8B6
:102930002E300EF1010E0137E6E7B5EB540F33D21E
:10294000214F2E043C6846EA840604EB4505C3F893
:10295000886004F180533D600C2403F52C5300255E
:102960009B002E468360C369C3F880408768EBB242
:102970009A4298DD51F8334001EBC30E002CDEF88B
:10298000043001DB002B0DDB24F0604423F06043B6
:1029900044F0005443F0004347F8364007EBC604C8
:1029A000013663600135E2E79A6922F001029A611B
:1029B000FFF788FE0020BDE8F081C269936923F02B
:1029C00001039361F4E700BF18370020FCB5004015
:1029D000548400080000FF0730B504468BB015464C
:1029E000084621B3FFF768FED4F85835114A294646
:1029F0000893D4F854350793D4F850350693D4F897
:102A00004C350593D4F848350493D4F844350393F2
:102A1000D4F840350293D4F83C350193D4F83835D6
:102A20000093D4F8343501F015FBFFF74BFE0BB0E3
:102A300030BD00BF7884000808B5FFF73DFE006A8E
:102A4000FEF7DAFFBDE80840FFF73CBE0022026057
:102A50000273426082607047F0B589B005460C464B
:102A600017461E46FFF728FE006AFEF7D7FF1F280D
:102A70004FF000002BD900220023ADF8080003A876
:102A8000CDE90023FFF7E2FF286AFEF7C7FF1F2802
:102A900004D920226946286AFFF7D8F803AA2346FA
:102AA00005AD1446083303CCAC4243F8080C43F898
:102AB000041C2246F5D120681860012022791A7181
:102AC000DDE90023C7E90023BDF808303380FFF7B4
:102AD000F9FD09B0F0BD00002DE9F0471B4B0025C2
:102AE00080468946036000260562102005F096FAAC
:102AF00004464FF4815108F5A66AFEF76DFF0027E2
:102B0000C8F8204008F130042046283444E90C6716
:102B1000FFF79CFF44F8185C04F8145C04F8135C9D
:102B200004F8125C04F8115C04F8105C5445EBD115
:102B300088F83095B9F1000F02D0054801F0EEFA9F
:102B4000044B4046C8F81C30BDE8F087608500089B
:102B50004485000800A00040F0B579B12648274B15
:102B6000B0FBF1F0994294BF102309235C1CB0FB29
:102B7000F4F704FB170434B1022B01DC0020F0BD94
:102B8000013BDBB2F2E77E1EB6F5806FF6D2C3EBF7
:102B9000C30E4FF47A7C0EF10300C010C5B20130B1
:102BA0005C1B0CFB00FCE4B220449CFBF0F080B208
:102BB000B0F5617F08D90EF1FF354FF0080E95FB97
:102BC000FEF5EDB25B1BDCB22B1903FB07770A4B5A
:102BD000B3FBF7F7B942D1D1691EC9B20F29CDD8DD
:102BE000631EDBB2072BC9D800201680D17090700D
:102BF00001201371F0BD00BF0090D0033F420F00D1
:102C000038B5124CC1692268930043F4D013C1F85F
:102C1000A03002F1805302F16801C56903F52C531D
:102C2000E83289009B00226041F00051084AC360ED
:102C3000C5F8C01003F5D07103F568734161934284
:102C4000836102D9034801F069FA38BD18370020C2
:102C5000FCB50040548400082DE9F0410F46664958
:102C60008AB004460B78C3B9FFF726FD634BD3F84F
:102C7000EC2042F48072C3F8EC20D3F8942042F4A4
:102C80008072C3F89420D3F8942022F48072C3F8A1
:102C9000942001230B70FFF715FD94F829358BB9AB
:102CA000FFF70AFD94F830353BB90221132003F0F9
:102CB0001DFA0221152003F019FA012384F82935A1
:102CC000FFF700FDFFF7F8FCE269936923F01003BA
:102CD0009361E3699A691107FCD49A6942F0010291
:102CE0009A61E3699A69D207FCD59A69002526465C
:102CF00004F5A06842F002029A61E3695D65FFF79E
:102D0000E1FC206AFEF778FE282200216846FEF7E3
:102D100003FD02A8FFF79AFE06F128030DF1280C27
:102D2000EE461E4606958DF81C508DF81D508DF808
:102D30001E508DF81F500CF8085D7246083303CA08
:102D4000624543F8080C43F8041C9646F5D1127806
:102D5000B0451A70D8D100256A463946204684F815
:102D6000285584F82B55ADF800508DF802508DF899
:102D700003508DF80450FFF7EFFEE269064638B9BC
:102D8000936923F00103936130460AB0BDE8F081F6
:102D90009DF8033020469DF802101B0243EA416370
:102DA0009DF804100B43BDF8001043EA0143D361C2
:102DB000E369C3F8BC50FFF723FFE3696FF04042BB
:102DC00084F831551A650E4AE3695A654FF00222BC
:102DD000E3699A654FF0FF32E369C3F8E02003220C
:102DE000E369DA65E269936923F0010393610123E2
:102DF00084F82A35C8E700BF153700200044025880
:102E000055020002C36970B51B6CC3F30743EBB1F5
:102E1000034600F5A065012193F845209AB193F887
:102E2000462082B91A6CC46901FA02F2D4F8CC6067
:102E3000324208D0C4F8D42083F84610D0F8442594
:102E40000132C0F844252833AB42E5D170BD000003
:102E500008B5FFF731FCFFF7D5FFBDE80840FFF7E5
:102E600031BC0000C369D3F8C00010F07C5005D01D
:102E7000D3F8C40080F40010C0F340507047000045
:102E800008B5FFF719FC006AFEF7C8FDFFF71AFC4A
:102E90001F288CBF0020012008BD000090F83135AC
:102EA00063B1C269936923F001039361D0F854358B
:102EB0000133C0F85435002380F8313570470000E5
:102EC000F8B51F461646FFF7F7FB4FF0010E034615
:102ED00000F5A06C93F8462082B993F848206AB1B7
:102EE000196CC2690EFA01F1D2F8CC40214205D02A
:102EF000D3E90A45BD4208BFB44206D328339C45F6
:102F0000E8D1BDE8F840FFF7DDBBC2F8D41083F884
:102F100046E0D0F840250132C0F84025EEE7000039
:102F2000F8B51E4600230F46054613701446FFF7FA
:102F3000A7FF80F0010038701EB12846FFF792FF0E
:102F40002070F8BD2DE9F84F0F469B460646904687
:102F500091F8009092F800A001F0FEF83B7813B9C8
:102F600098F80030C3B100250246044630462B468F
:102F7000FFF7A6FF3046FFF76BFF3046FFF78EFFE7
:102F80005B46424639463046FFF7CAFF3B7833B1CD
:102F9000B9F1000F03D001231846BDE8F88F98F867
:102FA000003013B1BAF1000FF5D1DDE90A239D42DB
:102FB00008BF9442EFD2D6F82C050028EBD0036866
:102FC000D968DDE90A23121B63EB050388475B46DA
:102FD000424639463046FFF7A3FF3B7813B1B9F1BB
:102FE000000FD8D198F8003013B1BAF1000FD2D148
:102FF00001F0B2F800250446D7E7000038B50446D2
:1030000000680D46FEF722FD1F2809D92022294617
:103010002068FEF793FDA0F120035842584138BDC7
:10302000002038BD2DE9F04F044689B092469B46FA
:1030300005464FF000084FF0010900260027B8F1BF
:10304000200F4FD0E369D3F8D83023FA08F3DB0719
:1030500044D595F84720002A40D1D4F83C350133B7
:10306000C4F83C3595F8443085F847903BB394F864
:103070002B3523B303A8ADF80820CDE90067FFF78F
:10308000E5FC05F1300203AB05F1380C106808329D
:1030900052F8041C9E466245AEE803007346F5D123
:1030A00010686946CEF8000004F1200012798EF80D
:1030B0000420ADF80890CDE900ABFFF79FFFD4F8EE
:1030C0002C355BB1D4F8583594F8301501330748E6
:1030D00009FA01F1C4F8583500F060F908F1010867
:1030E0002835ACE709B0BDE8F08F00BF1C370020E1
:1030F0002DE9F0478A468CB0044601F031F80646C7
:103100000F46BAF1000F41D1E369D3F8A02012F4C1
:10311000FE0F03D100200CB0BDE8F087D3F8A42047
:10312000920142BFD4F850250132C4F85025D3F89B
:10313000A4205506EED0D3F8A430E568C3F30528E3
:1031400005EB08156846FFF781FCE9462B685A0035
:103150004ABF23F06042C3F38A4242F000429B0020
:1031600000920DF1030242BF009B43F080430093A5
:10317000EB8803F00F038DF80C30EB1D0F359D42EB
:1031800020D013F8011F02F8011FF8E7BAF1010F70
:10319000C0D1E369D3F8B02012F4FE0FBAD0D3F84F
:1031A000B420900142BFD4F850250132C4F8502514
:1031B000D3F8B4205106ADD0D3F8B4302569C3F3A9
:1031C0000528BDE7BAF1000F22D1E369C3F8A88052
:1031D000002200234FF0000807A807ADADF81880C3
:1031E000CDE90423FFF732FCADF8188099E80F0011
:1031F00007C504A92B7004F12000CDE90467FFF78F
:10320000FDFE60B1D4F848350133C4F8483582E793
:10321000BAF1010FDCD1E369C3F8B880D8E7D4F87C
:103220004C3501200133C4F84C3574E770B50446C1
:103230000E46012531462046FFF75AFF10B184F8AB
:103240002B55F7E7D4F82C356BB1D4F8583501215C
:1032500005480133C4F8583594F83035BDE870405E
:10326000994000F09BB870BD1C37002038B5274B43
:10327000274C1D68AA6DC2B9012222651022226561
:103280004FF48052226538BD226DD1072FD4236DB3
:103290005A072CD4236DDB0630D4236D58062DD469
:1032A000A86DBDE83840FFF7ADBD0028ECD0226D19
:1032B000910510D54FF40072226500F051FF0246CF
:1032C0000B4652EA030103D012F1FF3243F1FF3300
:1032D000A86DFFF7A7FE0E4B1A6D9201E0D54FF0D7
:1032E00000721A650122AB6D83F83125D8E70523FA
:1032F00000212365A86DFFF799FFCBE75022044B0F
:1033000001211A65A86DFFF791FFC9E78425002008
:1033100000A0004008B50120FFF7A8FFBDE8084065
:1033200002F0B6BC08B50020FFF7A0FFBDE80840DA
:1033300002F0AEBC034A0449134643F8041B536031
:10334000704700BF1C3700209C850008F0B587B08F
:1033500004461F4616460C98043403681B699847B8
:1033600001A94FF0FF3302460546204603F0A6F9B7
:1033700056EA070328460CBF0021314603F0FAF94C
:10338000054601A9204603F0ADF9B5FA85F04009DC
:1033900007B0F0BD043003F0E1B9000008B5202308
:1033A00083F31188043003F0C5F9002383F31188F7
:1033B00008BD000070470000074B1A78824206D112
:1033C00039B15A78002A14BF1846002070470020EF
:1033D00070471846704700BF24370020024B9A7888
:1033E0000AB101225A7070472437002008B50846F8
:1033F0000121FFF7E1FF40B1436823F00F0203F022
:103400000F031069D84000F0010008BD08B5084658
:103410000121FFF7D1FF48B14268012322F00F01DB
:1034200002F00F024869934043404B6108BD000021
:1034300000797047436823F00F0203F00F0310690F
:10344000D84000F00100704710B54268CB4301F04E
:10345000010102F00F0003F0010322F00F0200F15E
:1034600010048140A3401943916110BD42680123BB
:1034700022F00F0102F00F024869934043404B6174
:103480007047000000B100477047000038B508469B
:1034900001211546FFF790FF044610B345B9037CA0
:1034A00023B1437C202B1CD0402B1AD02B4600E0AC
:1034B000012363743BB1606804F0DAF800F00500A2
:1034C000052808BF60746068B5FA85F50121627C43
:1034D00000F00F036D0920F00F00994002F012FC7C
:1034E000257438BD10B5084601211446FFF764FF66
:1034F000F0B1027C43687AB1012C03F00F010CBFDC
:103500002022402242740120BDE8104000FA01F15F
:1035100023F00F0002F0F6BB012023F00F0203F0AE
:103520000F0300FA03F39BB20CB9538310BD13834E
:1035300010BD000040680A46012100F00F0320F092
:103540000F00994002F0DEBB10B5C8B20121FFF7B1
:1035500033FF044638B1082004F060FD6368024A76
:1035600080E80C0010BD10BDB085000870B50446A1
:1035700000F0F2FD034684B1E56875B16168AC46C0
:10358000A06821F00F0201F00F011269CA402178F2
:1035900002F00102BDE87040604770BD08B520230D
:1035A00083F3118808B143691BB9002383F31188A1
:1035B00008BD0021143003F045FCF6E7014B036021
:1035C000704700BFC88500082DE9F8439DF82040EA
:1035D0000F4691461D46022C05D0032C04D0012C29
:1035E0001DD1022400E0012407F00F06114B53F80F
:1035F0003630BBB1D5B92C4627F00F0831464046CE
:1036000002F030FC2A464946384602F085FD404625
:103610002246314602F0ECFB0120BDE8F8832BB9CD
:103620001C46E1E7002D08BF0024E5E70020BDE8C7
:10363000F88300BF645500202DE9F3410746084692
:10364000012190461C46FFF7B7FE054640B32023F4
:1036500083F3118846692EB1002080F3118802B0EF
:10366000BDE8F081CDF800800346416838460D4A38
:10367000FFF7AAFF0028F0D0214605F1140003F05F
:10368000D3FBCDF80080044633463246696838469D
:10369000FFF79AFF86F31188B4FA84F04009DEE759
:1036A000DDE700BF9D35000813B5202484F31188A1
:1036B0009DF810400094FFF787FF002383F31188E3
:1036C00002B010BD13B5054C00931346002A14BF79
:1036D00022460022FFF7E8FF02B010BD8534000843
:1036E00070B504460846002115461E46FFF764FEE5
:1036F00038B133462A4641682046BDE87040FFF79E
:10370000E1BF70BD7FB502AD06460846002185E8E1
:103710000C00FFF751FE044618B90023184604B008
:1037200070BD039B4168002B9DF82030084A009330
:1037300008BF002203463046FFF7B6FF03460028C5
:10374000EBD0083495E8030084E80300E6E700BF07
:103750006D35000810B5064C182200212046FDF7F3
:10376000DBFF4823237001236370024B636010BDAD
:10377000243700200010025870470000B0F94C00B8
:1037800070470000806D7047012380F85430704707
:1037900080F85C107047000090F8543013B190F836
:1037A00030007047184670470120704737B590F8D1
:1037B00054500446A5B100F134014E2201A8FEF791
:1037C00027F80023226DD4E90A01C4E90A239942AB
:1037D00008BF904201A814BF01250025FEF734F868
:1037E000284603B030BD000073B590F8544005463C
:1037F0000E463CB190F83030122BA8BF12239942EC
:1038000003DB0024204602B070BD00F134016E22BB
:1038100001A805EB4605FDF7FBFF01A8AC88FEF704
:1038200013F8EFE773B590F8543005460E4614468A
:10383000A3B1122A00F134014FF0840201A8A8BFFD
:103840001224FDF7E5FF291D30466200FDF73CFF1D
:1038500001A8FDF7F9FF204602B070BD1C46FAE74B
:10386000704700000161704713B504460121DC3048
:1038700003F028F904F1E800012103F023F9009492
:103880000F4BB5224FF421610E4803F057FA009414
:10389000C4F8C800B1220C4B4FF4A2610B4803F0EE
:1038A0004DFA0B4B3A224FF42161C4F8CC0000943E
:1038B000084803F043FAC4F8D00002B010BD00BFBE
:1038C000413D0008604600208D3A0008504100202C
:1038D000E53D00084037002010B503680446DB6B67
:1038E000984740B1637D33B10023B4206375BDE8D0
:1038F000104000F0B7BF10BD70B5437D04460D46C3
:103900001BB90368DB6B984730B92368294620460A
:103910009B68BDE870401847B62000F0A3FF012364
:1039200063752375F1E7000008B501F023F8034B38
:103930009B691B1A5842584108BD00BF685A0020B5
:103940002DE9F8430D4604464FF0000900F008FC4D
:103950001FFA85F806460F4600F002FC801B4FF464
:103960007A724FF0000361EB0701FCF723FD494534
:1039700008BF404513D223684FF47A7120469B68F4
:103980009847A388AB42E7DC23682046DB6B984767
:103990000028E1D0236820469B6C9847DCE7BDE80F
:1039A000F883000008B5202282F311888368002B79
:1039B00001DC03F0ADF803F07BF8002383F31188FA
:1039C00008BD0000F7B500F1DC0604466D46304640
:1039D0008DE8060003F092F894F87C30DDF800E002
:1039E0000021019FCAB29A420DDA04EBC202D06BE9
:1039F00070451DD1126CBA421AD1304603B0BDE8F1
:103A0000F040FFF7CFBF072B0ADC04EBC302013302
:103A10003C3295E8030082E8030084F87C30ECE750
:103A2000044B05491B68586B03681B689847E4E71B
:103A30000131D7E7842500208C86000808B50E4B9D
:103A40000C461B68186C0368DB6B98470B4B0C48E3
:103A5000002C08BF184603F0F9FD72B6BFF34F8F74
:103A60000849094BCA6802F4E0621343CB60BFF314
:103A70004F8F00BFFDE700BF84250020020007B084
:103A8000010007B000ED00E00400FA0538B50D4B69
:103A900004460D4A9B699A61A37B33B9236844F6B7
:103AA000206120469B689847F6E7084D236820462A
:103AB0004FF47A719B6898472B68D86BFFF7D0FE5C
:103AC000F4E700BF685A00202886000884250020FB
:103AD00008B5437B13B1034800F020FB0123437377
:103AE00008BD00BF3886000803F0B6B8084603F0EA
:103AF000BDB80000F0B585B008201E4602AD9DF8A7
:103B00002C7085E8060003F055FC044658B30023EA
:103B1000164A95E8030084E8030012F813005900E0
:103B2000B8421BD10A449DF9303002215078FF225F
:103B3000184400F0C5FFC2B20A9B3146009403F25C
:103B400017200B4B20F0070003F0B0FC054658B9D6
:103B5000204603F07BFC284605B0F0BD01330B2B5B
:103B6000DBD13A22E8E7F7E70120F5E7FC86000819
:103B7000513E000811B1084603F04AB970470000F1
:103B800010B5437B04465BB1806950B100F0E6FAA2
:103B9000A369C01AE36998428CBF0020012010BDC0
:103BA000012010BDF7B500F1E80604466D46304629
:103BB0008DE8060002F0A2FF94F8C030DDF800E0C6
:103BC0000021019FCAB29A420FDA04EBC202D2F876
:103BD000800070451FD1D2F88420BA421BD13046F4
:103BE00003B0BDE8F040FFF7DDBE072B0BDC03F1AF
:103BF0001002013304EBC20295E8030082E80300DF
:103C000084F8C030EBE7054B05491B68586B036827
:103C10001B689847E3E70131D4E700BF8425002003
:103C20007486000838B50A4B0446402540F8243B0A
:103C300000F064F92A46002104F13C00FDF76CFD18
:103C40002A46002104F18000FDF766FD204638BDBC
:103C5000AC86000810B5044603F05AFD00F07EFA69
:103C6000C4F8C40010BD000037B5036804460D4613
:103C7000DB6B9847A0B12046FFF7ECFF40F25922DA
:103C800004F1240101A8FDF7C3FD5DB9236A0BB15E
:103C9000013B2362236A03B9A36101A8FDF7D4FDA8
:103CA00003B030BD00F05AFAA3693BB1C31AE26910
:103CB000934203D2D31A9D4238BF1D46236AA061A6
:103CC00020460133E561236223689B699847E4E756
:103CD00038B5036804460D46DB6B984728B1294682
:103CE0002046BDE83840FFF7BFBF38BD09C81847B8
:103CF000F8B590F87D30044603F0FF05F3B90123D1
:103D000000F1DC0680F87D30304602F0F7FE3046E8
:103D100004F13C0694F87C70FFF744FEAF4207DDE7
:103D2000736813B13046FFF7E1FF01350836F5E758
:103D3000236903B19847002384F87D30F8BD000063
:103D400038B5134B0446134A9B699A61A37B33B978
:103D500023684FF47A7120469B689847F6E70E4D2A
:103D600023684FF47A7120469B6898472046FFF7F6
:103D7000BFFF2B68186C03685B6D9847236820466B
:103D80005B6998470028EBD02046FFF763FFE7E721
:103D9000685A00203086000884250020F8B590F885
:103DA000C130044603F0FF05DBB9012300F1E8064A
:103DB00080F8C130304602F0A1FE304604F18006A2
:103DC00094F8C070FFF7EEFDAF4207DD736813B1E2
:103DD0003046FFF78BFF01350836F5E7002384F8FE
:103DE000C130F8BD174B184A2DE9F04104469B69D4
:103DF0009A61A37B33B923684FF47A7120469B689C
:103E00009847F6E700F0AAF9104F054640F6B83893
:103E100023684FF47A7120469B6898472046FFF745
:103E2000BDFF3B689B6C93F89C30002BF0D100F0F9
:103E300095F9431B06464345EAD900F0EDF83546AF
:103E4000E6E700BF685A0020248600088425002089
:103E500010B50446FFF74AFF2046BDE8104003F0C6
:103E6000F5BA0000036800211B681847704700007E
:103E700008B5043002F02CFD012008BD043002F02A
:103E80001DBD000010B5044604F0EAF8204610BD40
:103E90002DE9F04707460D4631B9043002F0ECFC3D
:103EA00001263046BDE8F08703685B689847002824
:103EB000F6D100F055F94FF47A740F4B80466C43FD
:103EC00089460025D3F800A0DAF84400C821036829
:103ED0009B6898473B6838465B68984706460028C9
:103EE000DED100F03DF9B0EB080061EB0901A94219
:103EF00008BFA042E8D3D4E784250020044B10B5C6
:103F0000044640F8043B02F067FC204610BD00BFA9
:103F10001C870008002070470020704703F09ABA01
:103F200011B1084602F05ABB70470000104619460E
:103F300003F02CBB03F03CBB254A2DE9F04F9BB0AE
:103F400013780C4607460E9316AE53780025214988
:103F500030460F9393781093D3781193537992F856
:103F60000480129393791393D3791493137A15934E
:103F700092F809B092F80AA092F80B900D2204F082
:103F80001FF9159BCDF8249028220C932146129BF3
:103F90003846CDF820800793139B00960693149B18
:103FA0008DF8655005930E9BCDF82CB004930F9BB4
:103FB000CDF828A00393109B0293119B0193064B0D
:103FC000FDF7D2FC012084F827501BB0BDE8F08F2C
:103FD00000E8F11F348700083C87000808B5137813
:103FE000084605490C2BA8BF0C2313701A46FDF791
:103FF0006BFB012008BD00BF00E8F11F03F0A8BB68
:1040000008460AB903F0DAB9012A01D103F016BA59
:10401000012003F017BA00000020704738B50024D3
:10402000044D28191834012102F04CFDB4F5C07F6D
:10403000F7D138BD70500020054B002203F5CC713C
:10404000DA60183343F8082C8B42F9D1704700BF6F
:10405000705000200CB41FB506AA084C52F8043B5F
:104060002468009203920A460146A06CFDF75CFCAE
:1040700004B0BDE8104002B0704700BF84250020A6
:10408000FDF742BB0FB4002004B070470EB400200F
:1040900003B07047FEE70000FEE7000000B59BB0EC
:1040A000EFF3098168226846FDF70EFBEFF3058305
:1040B000034B9A6B9A6A9A6A9A6A9A6A9B6AFEE7B3
:1040C00000ED00E000B59BB0EFF30981682268467F
:1040D000FDF7FAFAEFF30583044B9A6B9A6A9A6A32
:1040E0009A6A9A6A9A6A9B6AFEE700BF00ED00E04E
:1040F00000B59BB0EFF3098168226846FDF7E4FA4A
:10410000EFF30583034B5A6B9A6A9A6A9A6A9A6A22
:104110009B6AFEE700ED00E0704700000FB407B5B2
:1041200004A951F8045B28460191FFF7A9FF094B48
:1041300042F210711C68606C03689B689847019993
:104140002846FFF79DFF606C4FF4FA7103685B68C7
:10415000F4E700BF8425002003F0F2B903F00CBAA5
:1041600003F0CAB970470000084A08B5136813F095
:10417000010309D1064807494360836003730123A3
:104180001360054A03F05CFF014808BD0C52002093
:10419000105200206541000808520020036863B1F6
:1041A00059B18B4203D11B680360704713461A68EC
:1041B0001AB19142FAD10A681A607047F8B50E46F2
:1041C00009B3037BEBB90B7D012B06D1051D3146ED
:1041D0002846FFF7E3FF2C6804E0A3B900F10805C7
:1041E000F5E73C46204684B150F8087B3269317DC2
:1041F00000F012FA0028F4D021462846FFF7CEFF3F
:10420000EFE70320F8BD0220F8BDF8BDF8B505467C
:104210000C4609B90220F8BD01F1080000F0E8F9E8
:104220000028F7D02B7B5BBB237D012B0ED10435FF
:104230002E68A76976B1B3699F421FD050222169C9
:104240003069FDF74BFAC8B13668F2E7002BE1D1CF
:104250000835EDE721462846FFF7A0FF2B688BB114
:104260009A69BA420ED81A6812B19169B94203D953
:1042700022601C600020F8BD1346F4E70120F8BD61
:104280000320F8BD23602C60F4E7000070470000B5
:1042900038B5FFF769FF037B0546002B30D11C4A78
:1042A0001C4C136813F0010311D10020002123607E
:1042B00023754FF0FF33C4E90201A36101231649BE
:1042C000204613602161154A154903F0B9FE1149D2
:1042D0002846FFF773FF98B90E4928460AA3D3E989
:1042E0000023C4E902230F4B236101232375A3613B
:1042F000FFF764FF20B907492846FFF787FF10B191
:10430000094800F099F938BD401DA12026812A0BEB
:1043100020520020285200207F82000808520020EE
:104320008D420008FC870008EC870008F0B5037B8D
:1043300089B006460F46002B4FD1324A32481368E7
:1043400013F0010310D10360002403754FF0FF3315
:104350002E49002583610123016113602C492D4AF8
:10436000C0E9024503F06CFE27493046FFF726FFFF
:10437000044600282FD108AD1AA3D3E9002365E92C
:1043800008231AA3D3E90023284600F023F928467E
:1043900018A3D3E9002300F01DF9284602AD17A3A6
:1043A000D3E9002300F016F98DF814401A4CDDE92A
:1043B0000023CDE90223194B04930FCD0FC42146EE
:1043C000304641F81879FFF7F9FE20B9A4F1180139
:1043D0003046FFF71BFF09B0F0BD0320FBE700BF2D
:1043E000AFF3008085E6535099C80DA8F1C6A7C168
:1043F000D068080FA1FE276537FD46DDC4A0F43361
:10440000C9C4D50A48520020505200207F820008BB
:104410008D420008085200205852002044880008AD
:1044200070B5FFF7A1FE037B0546002B32D1224A6F
:10443000224C136813F0010311D1002000212360E6
:1044400023754FF0FF33C4E90201A36101231C4926
:104450002046136021611B4A1B4903F0F1FD1749F7
:104460002846FFF7ABFEA8B9012614492846267551
:104470000FA3D3E90023C4E90223144B236140F2C4
:104480005513A361FFF79AFE20B90C492846FFF7A0
:10449000BDFE10B10E4800F0CFF8FFF765FE3146C3
:1044A000FFF744FF0028F5D170BD00BFAFF30080D7
:1044B000F1C6A7C1D068080F7052002078520020C2
:1044C0007F820008085200208D42000828880008DA
:1044D000EC87000870470000044A0023044805499F
:1044E000C0E90023044A03F0ABBD00BF80841E0076
:1044F00098520020D5440008085200201022094B91
:104500001A701822084B1A701E22084B1A700122CA
:10451000074B1A701F22074B1A700022064B1A70A5
:10452000704700BFA4520020A0520020A1520020DA
:10453000A2520020A3520020A552002008B9FF205B
:10454000704701284FF6FF7018BF00207047000029
:104550000B060022082130B5D0E9004562406B40CF
:1045600009A5D5E90045002A73F1000E08DA921872
:104570005B4162406B400139F5D1C0E9002330BD99
:1045800092185B41F7E700BF9336EAA9EBE1F042EE
:104590002DE973439046994602AD06460024D0E9C2
:1045A0000023D243DB4365E90223224640464946C5
:1045B0000834FBF789FEC1B22846FFF7C9FF402C3B
:1045C000F3D1DDE90023D243DB43C6E9002302B087
:1045D000BDE87083D0B50446D0E90067FFF7D8FF87
:1045E000204632463B46BDE8D040FFF7D1BF000031
:1045F00008B503460269007BFFF7A0FF80B2824244
:1046000007D8986830B190F90000003018BF012039
:1046100008BD002008BD000008B51346027B8A4291
:1046200008D1502219468068FDF758F8B0FA80F09A
:10463000400908BD002008BD08B503F013FD0000C7
:10464000704700000020704782B002AB03E906000B
:1046500002B07047704700000020704770470000AC
:10466000002070470020704770470000002070470E
:10467000002070470F2070470F20704701207047BF
:10468000704700000020704770470000704700002E
:104690000120704701207047012070471830704793
:1046A00082B0002002A901E90C0002B070470000AE
:1046B000704700007047000070470000084602F095
:1046C00021BD0000084602F0E7BD000073B51E469C
:1046D0000C461546011D102201A8FDF799F8324637
:1046E0002946204602F068FD044601A8FDF7ACF813
:1046F000204602B070BD000013B50C460D22011D0E
:1047000001A8FDF785F8204602F00EFD044601A839
:10471000FDF79AF8204602B010BD000002F0F0BC90
:10472000084602F0E9BC0000084602F0DDBC0000CB
:1047300010B50446202003F071FC0221027A002308
:10474000206061F30202037103770272024A026081
:10475000024A8261204610BDE4880008D08A000821
:1047600000220260704700000022026070470000D3
:10477000044B10B504460360406908B103F066FCC1
:10478000204610BD6888000810B50446FFF7F0FF0A
:10479000204603F065FC204610BD00001A4B1B4A62
:1047A00010B5036004461A4B826043604363194AA4
:1047B000194BC2608363194A194B0261C363194ADA
:1047C000194B42610364194A194B82614364194AC7
:1047D000194BC2618364194A194B0262C364194AB6
:1047E000194B42620365194A194B82624365194AA3
:1047F000194BC2621B68194A83650263FFF78CFC80
:10480000174B2046236010BDA488000840530020A9
:104810003C53002044530020B05200204853002055
:10482000B85200204C53002008250020505300208F
:104830000C540020545300205C5300205853002097
:104840000C250020045400201C5300200854002094
:104850000455002000550020AC52002000540020D8
:10486000AC89000808B5202383F31188074B1B6827
:104870009A68D96B8A4201D0824200D29860D8638C
:1048800002F016F9002383F3118808BD18530020A5
:1048900080B533B92D4B4FF494712D4A2D4803F058
:1048A000E9FB2D4EB4202D4F3360BA692C4B1A60B2
:1048B00002F096FAFFF7B2FB02F0D8FE294B4FF454
:1048C000E1311C68606803685B6A9847A0684FF430
:1048D000164103685B6A9847E0684FF461410368DA
:1048E0005B6A9847E06A03681B689847606C0368D6
:1048F0001B6898470A20FFF7B5FF02F029FF40B177
:104900001321194802F02AFF4C2217498818FCF796
:10491000DBFE30680123154DAB7303681B689847B5
:104920002846FFF797F9606C03681B6B9847BB69D3
:104930000F4AB4209A6102F053FA306803685B684A
:1049400098472846FFF786F9F7E700BF5C8900081B
:10495000B08900086689000838530020685A002092
:104960001853002084250020605300200C540020A0
:104970009B890008014B1868704700BF185300203E
:1049800010B5054C2368DB0704D40448FFF706FF85
:1049900001232360014810BDA852002008550020C3
:1049A00038B52D4800F0A0F92C4800F09DF92C48AE
:1049B00000F09AF92B4800F097F92B4800F094F991
:1049C0002A4800F091F92A4800F08EF9294800F0B1
:1049D0008BF9294A294B2A481A602A4A2A4B2B4C20
:1049E0001A6000F0BDF82A4800F02EF92948FEF7B9
:1049F000E5FD294B204624220021284D40F8043BA8
:104A0000FCF78AFE04F13400FFF778FA4FF6FF73E3
:104A100020462A46A4F84C30214C224903F010FBD2
:104A20002046FFF7FFF82A461F49204603F008FBFF
:104A30001E4B00221E4C83F89C2020461D4A1A6003
:104A40001D4B40F8043BFFF759FA2A4620461B4904
:104A5000BDE8384003F0F4BA3C5300204053002036
:104A600044530020485300204C5300205053002052
:104A70005453002058530020B088000804540020EC
:104A8000005500202C89000808540020B85200204E
:104A900000540020B0520020FC850008085200207D
:104AA0000C540020B1460008B54600085C530020B5
:104AB0001C5300207C87000840890008B946000884
:104AC000884203DB9042A8BF1046704708467047F3
:104AD00030B50A44074D91420BD011F8013B09242F
:104AE0005840013CF7D040F300032B4083EA5000CC
:104AF000F7E730BD2083B8ED9FED010A704700BF96
:104B000000000000002070470368DB6818470000C1
:104B1000B1EE040AD0ED017A67EE807A9FED020AC9
:104B200027EE800A704700BF0000803A90ED010A2E
:104B3000704700007047000070470000B1EE040AA3
:104B40007047000008B5082003F068FA024A0260C6
:104B5000024A426008BD00BF088A00087B148E3FED
:104B6000014B0360704700BF288A000870470000AF
:104B700003685B6A1847000003689B6A18470000D7
:104B80007047000070470000002070477047000029
:104B900070470000002070479FED010A704700BF7A
:104BA00000000000002070477047000000207047A0
:104BB00000207047002070477047000070470000D9
:104BC00000207047704700007047000000207047C9
:104BD00070470000704700007047000070470000F9
:104BE0007047000070470000322070477047000097
:104BF000704700004FF4617070470000704700007C
:104C000003790BB1002202711846704703685B6894
:104C10001847000003791BB9012303711846704738
:104C2000002070477047000010B5044603F018FAE2
:104C3000204610BD704700007047000008461A4625
:104C40000021FCF769BD0000014B0360704700BF05
:104C5000F08A00080020704700207047002070474D
:104C60004FF0FF3070470000B1FA81F04009704703
:104C70000020704770470000002070477047000018
:104C80007047000000207047002070477047000008
:104C90000020002170470000392070477047000055
:104CA0007047000070470000704700000020704708
:104CB000012070474FF0FF30704700000020704720
:104CC00000207047F8B506460C468F180025BC42F8
:104CD00007D03368304614F8011B9B689847054499
:104CE000F5E72846F8BD0000014B0360704700BFA0
:104CF000108B00080246006848B1036811891360F0
:104D0000D38801339BB29942D38038BF1381704757
:104D100070B588B004460D46202200216846FCF795
:104D2000FBFC20460495FFF7E5FF054660B16B46A6
:104D3000044608AE1A46083403CAB24244F8080CC6
:104D400044F8041C1346F5D1284608B070BD000095
:104D50002DE9F04130B9274B40F2C531264A2748AA
:104D600003F088F90B7C23B9254B40F2C631224A67
:104D7000F5E7C66986B9C161BDE8F081002B29DA83
:104D8000930CAB4229D1B44201D10C60F3E7C8F8CF
:104D900000100C60BDE8F0814B68B046344623F04B
:104DA00060474FEAD37EC3F3807CBD0C15EA230530
:104DB00038BF3D466368BEEBD37F23F06042DDD150
:104DC000974203D1C3F380739C450AD1974205E013
:104DD0001C46EFE7AA4206D013469D422CBF002393
:104DE0000123002BCFD12368A046002BF0D12160F6
:104DF000BDE8F0811C8E0008108C0008D48E0008DD
:104E0000F58E000808B5034A40F25E31024B0348B4
:104E100003F030F9EC8B0008948E0008D48E000863
:104E200008B503680B60C388016033B9044B4FF4C5
:104E3000C761044A044803F01DF9013BC38008BD63
:104E4000648E0008608C0008D48E000870B50C4693
:104E500000F10C05616831B9E38A002061F30903B0
:104E60000021E38270BD0E682846FFF7D9FF666017
:104E7000F0E7000008B5426832B10B4B40F22F4119
:104E80000A4A0B4803F0F6F8C37DC3F384010131ED
:104E900061F38603C375C38A62F30903C3821B0AE5
:104EA00062F3C713C37508BDB08E00081C8C0008E0
:104EB000D48E00082DE9F047089E32B91F4B40F20E
:104EC00039511F4A1F4803F0D5F801F007054FEA92
:104ED000D60800EBD10006F007062A444FF47F49BC
:104EE000954201D1BDE8F08705F0070E06F0070AEC
:104EF000511BEC08D6457746045D38BF574604FA87
:104F00000EF4C7F1080724FA0AF48F4228BF0F46AF
:104F100008EBD60129FA07FE13F801C03D443E44D0
:104F20005FFA8EFE8CEA04044EFA0AFE04EA0E04CE
:104F30008CEA040C03F801C0D2E700BF308E0008F1
:104F4000348C0008D48E00082DE9F04106460F4647
:104F500000254FF6FF7441F221082A4630463946B3
:104F6000FBF7B2F90823C0B284EA002414F4004F1E
:104F70004FEA440403F1FF33A4B218BF84EA0804E3
:104F800013F0FF03F2D10835402DE6D12046BDE8ED
:104F9000F081000010B50A4441F22104914200D191
:104FA00010BD11F8013B80EA0320082310F4004FE4
:104FB0004FEA400003F1FF3380B218BF604013F0A6
:104FC000FF03F3D1EAE700002DE9F04F85B08A46F0
:104FD0008146BDF83C408DE80C0030B9494B40F2A9
:104FE0006E31494A494803F045F811F0604F04D04A
:104FF000474B40F26F31444AF4E7009B002B7ED0D0
:1050000024B10E9B002B7AD0072C28D809F10C0074
:10501000FFF770FE054628B96FF00205284605B077
:10502000BDE8F08F14220021FCF776FB22460E9992
:1050300005F10800FCF748FB631C2C4429462B743F
:105040004846009B1B7803F01F0363F03F03237265
:105050004AF000436B600125FFF77AFEDEE7019B13
:105060004FF000084FF0800B1B0A4646454602935E
:1050700000F10C0303930398FFF73CFE074600285A
:10508000CAD014220021FCF747FBB6BB9DF80430C0
:1050900002223B729DF808307B72711E0E9B1944F0
:1050A000B4420AD9B818013211F801EF0136D2B270
:1050B00080F808E0B6B2072AF2D1009BB44208BFDC
:1050C0004FF0400BB81801321978013501F01F017B
:1050D0002DB241EA481188F001084BEA0103394634
:1050E0004FF0000B03724AF000433A7448467B606D
:1050F000FFF72EFEB442BED190E70022CDE76FF05D
:1051000001058BE71C8E0008008C0008D48E000877
:10511000408E00082DE9F0471E46CB8A9146804616
:10512000C3F309020F46062A19D013460021B0B274
:105130008DB25A1992B2052A09D9A84210D8FA8A12
:10514000034463F30902FA820120BDE8F087A84214
:10515000F3D919F801403A4401319476E8E7002583
:10516000FB8A7C68C3F309001C23821FB2FBF3FA9D
:1051700003FB1A2A1FFA8AF27CB301212368002B51
:1051800039D1B31F03441C20B3FBF0F301339BB2AE
:1051900099420CD2BAF1000F09D14046FFF7AAFD9F
:1051A00008B1C0F800A0206008B304460022B6B2DF
:1051B0004FF0000AB54230D2691E13464944E01848
:1051C000013311F801EF01359BB280F804E0ADB274
:1051D0001C2B14D0AE42F2D8ECE74046FFF78AFD14
:1051E000044608B1002303607C60002CDED16FF020
:1051F0000200BDE8F08701311C4689B2BEE7AE422D
:10520000D8D94046FFF776FD08B1C0F800A020606D
:105210000028ECD004460022CCE7FB8AC3F3090245
:10522000164466F30903FB828EE70000F8B50E46CC
:1052300015461F46044628B9144B4F21144A1548F9
:1052400002F018FF24220021FCF766FA069B6A0987
:105250000020636004F10C05079BA76023624FF6F2
:10526000FF7320709A42A061E06128BF1A4697B28E
:10527000824205D100232B6027826382A382F8BD7E
:105280002E60013035462036F2E700BF188E000848
:105290008C8B0008D48E000808B528B9084B732100
:1052A000084A094802F0E6FE037823B94BB2002B06
:1052B00001DD017008BD054B7D21024AF1E700BF09
:1052C0001C8E0008988B0008D48E0008608D0008A2
:1052D000007870472DE9F7430D9E074619461046A2
:1052E000BDF828900B9D9DF83040BDF8388016B968
:1052F000B8F1000F43D11F2C41D83B78D3B9B8F196
:10530000070F39D839F0030339D1424631464FF6F9
:10531000FF704FEA0929FFF73DFE20F0010009F474
:105320004079400449EA0464400C44EA40244FF6C2
:10533000FF730DE043EA0923B8F1070F43EA046461
:10534000F5D9FFF701FE42463146FFF723FE03463B
:105350002A46214638468DE84001FFF735FE0DB953
:10536000FFF750FD2B780133DBB21F2B88BF0023E2
:105370002B7003B0BDE8F0836FF00300F9E76FF026
:105380000100F6E72DE9F7430E9F81460B9D9DF83E
:1053900030009DF83480BDF83C6007B9C6BB1F28BB
:1053A00036D899F800E0BEF1000F34D00C029DF819
:1053B0002810072E44F0800444EAC83444EA01442B
:1053C00044EA0E0444EA006415D919461046FFF772
:1053D000BBFD32463946FFF7DDFD034601962A46FE
:1053E000009721464846FFF7EFFDB8F1010F0CD1B9
:1053F00025B9FFF707FD4FF6FF73EFE72B78013371
:10540000DBB21F2B88BF00232B7003B0BDE8F083F5
:105410006FF00100F9E76FF00300F6E7C06900B133
:1054200004307047C1690C300B680361FFF7F8BCAA
:105430002DE9F84FD0F818A0054616461F465446E9
:10544000DFF864804FF0000900F10C0B0CB9BDE8E7
:10545000F88FD4E90223B21A67EB0303994508BF1A
:1054600090451FD2AB69214628469C420DD1FFF7DB
:10547000EDFCAB69214658461B68AB61FFF7D0FCD9
:10548000AC692346A2461C46E0E7FFF7DFFC236831
:1054900021465846CAF800305446FFF7C1FCDAF8F6
:1054A0000030EFE72368EDE780841E002DE9F04F20
:1054B0008BB00D46144682460793DDF850900028C5
:1054C00000F06381B9F1000F00F05F81531E3F2BA4
:1054D00000F25B81012A03D1079B002B40F055812C
:1054E000BAF814600023F60008930993B54280F0DF
:1054F00052812B199E420AD2761B16F0FF0607D165
:10550000AA4B40F26751AA4AAA4802F0B3FD2646C8
:10551000DAF80C3023B9DAF81030002B00F0A48050
:105520002F2D30D8C5F13008002329464645009379
:1055300008ABDAF808002CBF5FFA88F8B046A6EB93
:10554000080745444246FFB2FFF7B4FCBAF81430EE
:105550004FF0300B03F10053063BDB000293DAF807
:105560000C300593059B002B51D087B9DAF8100059
:10557000002861D0002F5FD0AB4550D98E4B40F250
:10558000A6518B4AC0E737464FF00008DEE7029B82
:1055900023B98A4B4FF4B161854AB5E7029BE02BF2
:1055A00028BFE02306935B44AB4204931DD95B1BE9
:1055B0009F422ABFDBB203970393AB4504D97E4BCE
:1055C00040F291517A4A9FE7059808ABCDF80080E8
:1055D000A5EB0B01039A0430FFF76CFC039B984486
:1055E000FF1A1D445FFA88F8FFB2049B9B4504D361
:1055F000734B40F29B516E4A86E7029B069ADDF898
:1056000010B09B1A0293059B1B680593AAE7029BA7
:10561000BB42ABD26B4B40F2A151654A74E7CDF867
:105620000080B8443A46A5EB0B015FFA88F83D4488
:10563000002708ABFFF73EFCBAF81430B5EBC30FF8
:1056400004D9614B40F2B151594A5DE7B8F1400FBE
:1056500004D95E4B40F2B251554A55E767B15C4BF5
:1056600040F2B351524A4FE70093324608AB294605
:10567000DAF80800FFF71EFC731E35B23F2B01D885
:10568000A64204DD534B40F23521534A3CE7600704
:105690000AD00AAB624203EBD40102F0070211F810
:1056A000083C134101F8083C082C21D9102C21D9C1
:1056B000202C8CBF08230423079A002A6DD0B4EB5A
:1056C000C30F6CD0082C04F1FF3215D89DF82030A0
:1056D00023FA02F2D10706D54FF0FF3202FA04F4A2
:1056E00023438DF820309DF8203089F800304EE0BB
:1056F0000123E1E70223DFE7102C11D8BDF82030A9
:1057000023FA02F2D20706D54FF0FF3202FA04F470
:105710002343ADF82030BDF82030A9F8003036E042
:10572000202C0ED8089921FA02F2D30705D54FF0A4
:10573000FF3303FA04F40C430894089BC9F80030C3
:1057400025E0402C1CD0DDE9086730463946FAF7E1
:10575000BBFD002100F0010050EA01030BD02246FE
:1057600001200021FAF7CAFD404261EB41010643E6
:105770000F43CDE90867DDE90823C9E9002306E006
:10578000164B4FF42071144ABEE66FF0010528460F
:105790000BB0BDE8F08F1D46F9E7012CA3D0082C13
:1057A000A1D9102CB7D9202CE5D8C6E76C8C0008FD
:1057B000448C0008D48E00088E8C00087B8C000876
:1057C000B38C0008DB8C0008028D0008308D0008C7
:1057D000488D0008628D0008C48B0008608D0008A9
:1057E00030B585B030B9244B40F2B121234A24486A
:1057F00002F040FC23B9234B40F2B2211F4AF6E7E6
:10580000402A04D9204B40F2B6211C4AEFE722B9C6
:105810001D4B4FF42F71194AE9E70024012A029425
:10582000039417D11B788DF8083053070AD004ABC6
:10583000554203EBD20305F0070513F8084CAC40C2
:1058400003F8084C00910346002102A8FFF732FB41
:1058500005B030BD082AE5D9102A03D81B88ADF859
:105860000830E2E7202A02D81B680293DDE7D3E97B
:105870000045CDE90245D8E79C8D0008D88B00088B
:10588000D48E0008B78D0008608D000870B50C46F6
:1058900000F10C05E16819B9A1602161A18270BD18
:1058A0000E682846FFF7BCFAE660F3E72DE9F04FF3
:1058B000D1F8009091B004460D46C9F3C016CDE969
:1058C0000223002E50D0C9F3C03BC9F30626B9F11C
:1058D000000F80F29F8119F0C04F40F09B812B7B1D
:1058E000002B00F09781BBF1020F03D02278B24267
:1058F00040F0938109F07F02BBF1020F059236D18F
:1059000019F07F0FC9F30F2A01D10AF0030A2B44C3
:105910007606059A46EA0B4693F8038046EA8246E5
:105920005FEAD81346EA0A06069300F09A8000223E
:10593000002310A96768204661E90823059B5246A9
:1059400000935B46B847002800F08880A7698FB9AC
:10595000314604F10C00FFF7DBF90746D0B96FF0D0
:10596000020011B0BDE8F08F4FF0020BAFE7C9F3B2
:10597000074ACCE73B699E420DD03F68002FF9D122
:10598000314604F10C00FFF7C3F907460028E6D0C2
:10599000A3693B60A761DDE90801FFF7D5FAB8828A
:1059A000F97D08F01F06C1F38401711A89B20FFA5C
:1059B00081FEBEF1000FD7E90223B8BF01F1200E2E
:1059C000C9F30461B8BF0FFA8EFE079152EA0301D2
:1059D00000F02F81DDE90201801A61EB030102462C
:1059E0009F480B460021994208BF9042C0F0218198
:1059F000069B002B3FD0BEF1010F00F31A8118F077
:105A0000400F38D00021DDE90223C7E9022320221C
:105A10000DEB0200FBF780FE2046ADF836A008A98A
:105A20008DF838B08DF83960DDE90223CDE908231F
:105A30002B1D0A932B7B013BDBB2ADF834309DF874
:105A40001C308DF83A309DF814308DF83B30A36847
:105A500098473846FFF70EFA002082E76FF00B00F8
:105A60007FE7A76917B96FF00C007AE73B699E42A0
:105A700096D03F68F6E7FB7DC8F34012B2EBD31F28
:105A800040F0CE80C3F38403B34240F0CC8006994B
:105A90004FEA98122B7B79B3D2073CD4032B40F208
:105AA000C580AE1D394604F10C00DDE90223C7E9CB
:105AB00002232B7B3246033BDBB2FFF72BFB002894
:105AC00008DA39462046FFF7C1F93846FFF7D2F920
:105AD000032046E7AB883B832A7B033AD2B2B88ADD
